{
  "contractName": "CampaignManager",
  "abi": [
    {
      "anonymous": false,
      "inputs": [
        {
          "indexed": true,
          "internalType": "bytes32",
          "name": "campaignId",
          "type": "bytes32"
        },
        {
          "indexed": true,
          "internalType": "string",
          "name": "ngoEmail",
          "type": "string"
        }
      ],
      "name": "CampaignClosed",
      "type": "event"
    },
    {
      "anonymous": false,
      "inputs": [
        {
          "indexed": true,
          "internalType": "bytes32",
          "name": "campaignId",
          "type": "bytes32"
        },
        {
          "indexed": false,
          "internalType": "string",
          "name": "title",
          "type": "string"
        },
        {
          "indexed": true,
          "internalType": "string",
          "name": "ngoEmail",
          "type": "string"
        },
        {
          "indexed": false,
          "internalType": "uint256",
          "name": "targetAmount",
          "type": "uint256"
        }
      ],
      "name": "CampaignCreated",
      "type": "event"
    },
    {
      "anonymous": false,
      "inputs": [
        {
          "indexed": true,
          "internalType": "bytes32",
          "name": "campaignId",
          "type": "bytes32"
        },
        {
          "indexed": true,
          "internalType": "string",
          "name": "donorEmail",
          "type": "string"
        },
        {
          "indexed": false,
          "internalType": "uint256",
          "name": "amount",
          "type": "uint256"
        }
      ],
      "name": "DonationReceived",
      "type": "event"
    },
    {
      "inputs": [
        {
          "internalType": "uint256",
          "name": "",
          "type": "uint256"
        }
      ],
      "name": "allCampaignIds",
      "outputs": [
        {
          "internalType": "bytes32",
          "name": "",
          "type": "bytes32"
        }
      ],
      "stateMutability": "view",
      "type": "function",
      "constant": true
    },
    {
      "inputs": [
        {
          "internalType": "string",
          "name": "camp_name",
          "type": "string"
        },
        {
          "internalType": "string",
          "name": "camp_desc",
          "type": "string"
        },
        {
          "internalType": "string",
          "name": "camp_location",
          "type": "string"
        },
        {
          "internalType": "string",
          "name": "ngoEmail",
          "type": "string"
        },
        {
          "internalType": "uint256",
          "name": "camp_targetAmount",
          "type": "uint256"
        }
      ],
      "name": "createCampaign",
      "outputs": [],
      "stateMutability": "nonpayable",
      "type": "function"
    },
    {
      "inputs": [
        {
          "internalType": "bytes32",
          "name": "id",
          "type": "bytes32"
        }
      ],
      "name": "getCampaign",
      "outputs": [
        {
          "internalType": "string",
          "name": "",
          "type": "string"
        },
        {
          "internalType": "string",
          "name": "",
          "type": "string"
        },
        {
          "internalType": "string",
          "name": "",
          "type": "string"
        },
        {
          "internalType": "uint256",
          "name": "",
          "type": "uint256"
        },
        {
          "internalType": "uint256",
          "name": "",
          "type": "uint256"
        },
        {
          "internalType": "bool",
          "name": "",
          "type": "bool"
        },
        {
          "internalType": "string",
          "name": "",
          "type": "string"
        }
      ],
      "stateMutability": "view",
      "type": "function",
      "constant": true
    },
    {
      "inputs": [
        {
          "internalType": "bytes32",
          "name": "id",
          "type": "bytes32"
        },
        {
          "internalType": "string",
          "name": "ngoEmail",
          "type": "string"
        }
      ],
      "name": "closeCampaign",
      "outputs": [],
      "stateMutability": "nonpayable",
      "type": "function"
    },
    {
      "inputs": [],
      "name": "getAllCampaignID",
      "outputs": [
        {
          "internalType": "bytes32[]",
          "name": "",
          "type": "bytes32[]"
        }
      ],
      "stateMutability": "view",
      "type": "function",
      "constant": true
    },
    {
      "inputs": [
        {
          "internalType": "string",
          "name": "ngoEmail",
          "type": "string"
        }
      ],
      "name": "getCampaignsByNgo",
      "outputs": [
        {
          "internalType": "bytes32[]",
          "name": "",
          "type": "bytes32[]"
        }
      ],
      "stateMutability": "view",
      "type": "function",
      "constant": true
    }
  ],
  "bytecode": "0x608060405234801561001057600080fd5b506117e0806100206000396000f3fe608060405234801561001057600080fd5b50600436106100625760003560e01c80633f040653146100675780637a2453d9146100855780638abd09fb146100a1578063cabe0452146100d1578063d345627814610107578063d8d3921d14610137575b600080fd5b61006f610153565b60405161007c9190610a94565b60405180910390f35b61009f600480360381019061009a9190610c46565b6101ab565b005b6100bb60048036038101906100b69190610d31565b6103ee565b6040516100c89190610a94565b60405180910390f35b6100eb60048036038101906100e69190610da6565b610464565b6040516100fe9796959493929190610e7c565b60405180910390f35b610121600480360381019061011c9190610f07565b6107b6565b60405161012e9190610f43565b60405180910390f35b610151600480360381019061014c9190610f5e565b6107da565b005b606060008054806020026020016040519081016040528092919081815260200182805480156101a157602002820191906000526020600020905b81548152602001906001019080831161018d575b5050505050905090565b600081116101ee576040517f08c379a00000000000000000000000000000000000000000000000000000000081526004016101e59061102c565b60405180910390fd5b6000825111610232576040517f08c379a000000000000000000000000000000000000000000000000000000000815260040161022990611098565b60405180910390fd5b600061023c61098b565b90506040518061010001604052808281526020018781526020018681526020018581526020018481526020018381526020016000815260200160011515815250600160008381526020019081526020016000206000820151816000015560208201518160010190816102ae91906112c4565b5060408201518160020190816102c491906112c4565b5060608201518160030190816102da91906112c4565b5060808201518160040190816102f091906112c4565b5060a0820151816005015560c0820151816006015560e08201518160070160006101000a81548160ff021916908315150217905550905050600081908060018154018082558091505060019003906000526020600020016000909190919091505560028360405161036191906113d2565b9081526020016040518091039020819080600181540180825580915050600190039060005260206000200160009091909190915055826040516103a491906113d2565b6040518091039020817f0ac557e1e9277097c4739120acb1a302e1b3d886b669206f40d3c85eceeb92bc88856040516103de9291906113e9565b60405180910390a3505050505050565b606060028260405161040091906113d2565b908152602001604051809103902080548060200260200160405190810160405280929190818152602001828054801561045857602002820191906000526020600020905b815481526020019060010190808311610444575b50505050509050919050565b6060806060600080600060606000600160008a81526020019081526020016000206004018054610493906110e7565b9050116104d5576040517f08c379a00000000000000000000000000000000000000000000000000000000081526004016104cc90611465565b60405180910390fd5b6000600160008a81526020019081526020016000206040518061010001604052908160008201548152602001600182018054610510906110e7565b80601f016020809104026020016040519081016040528092919081815260200182805461053c906110e7565b80156105895780601f1061055e57610100808354040283529160200191610589565b820191906000526020600020905b81548152906001019060200180831161056c57829003601f168201915b505050505081526020016002820180546105a2906110e7565b80601f01602080910402602001604051908101604052809291908181526020018280546105ce906110e7565b801561061b5780601f106105f05761010080835404028352916020019161061b565b820191906000526020600020905b8154815290600101906020018083116105fe57829003601f168201915b50505050508152602001600382018054610634906110e7565b80601f0160208091040260200160405190810160405280929190818152602001828054610660906110e7565b80156106ad5780601f10610682576101008083540402835291602001916106ad565b820191906000526020600020905b81548152906001019060200180831161069057829003601f168201915b505050505081526020016004820180546106c6906110e7565b80601f01602080910402602001604051908101604052809291908181526020018280546106f2906110e7565b801561073f5780601f106107145761010080835404028352916020019161073f565b820191906000526020600020905b81548152906001019060200180831161072257829003601f168201915b5050505050815260200160058201548152602001600682015481526020016007820160009054906101000a900460ff16151515158152505090508060200151816040015182606001518360a001518460c001518560e001518660800151975097509750975097509750975050919395979092949650565b600081815481106107c657600080fd5b906000526020600020016000915090505481565b60006001600084815260200190815260200160002060040180546107fd906110e7565b90501161083f576040517f08c379a000000000000000000000000000000000000000000000000000000000815260040161083690611465565b60405180910390fd5b600160008381526020019081526020016000206004016040516108629190611528565b60405180910390208180519060200120146108b2576040517f08c379a00000000000000000000000000000000000000000000000000000000081526004016108a9906115b1565b60405180910390fd5b6001600083815260200190815260200160002060070160009054906101000a900460ff16610915576040517f08c379a000000000000000000000000000000000000000000000000000000000815260040161090c9061161d565b60405180910390fd5b60006001600084815260200190815260200160002060070160006101000a81548160ff0219169083151502179055508060405161095291906113d2565b6040518091039020827f93374de9012ad10b9c74026d439662d34d2db92a9ab4a78837db1892f347a9f360405160405180910390a35050565b600033424460014361099d919061166c565b406040516020016109b1949392919061175c565b60405160208183030381529060405280519060200120905090565b600081519050919050565b600082825260208201905092915050565b6000819050602082019050919050565b6000819050919050565b610a0b816109f8565b82525050565b6000610a1d8383610a02565b60208301905092915050565b6000602082019050919050565b6000610a41826109cc565b610a4b81856109d7565b9350610a56836109e8565b8060005b83811015610a87578151610a6e8882610a11565b9750610a7983610a29565b925050600181019050610a5a565b5085935050505092915050565b60006020820190508181036000830152610aae8184610a36565b905092915050565b6000604051905090565b600080fd5b600080fd5b600080fd5b600080fd5b6000601f19601f8301169050919050565b7f4e487b7100000000000000000000000000000000000000000000000000000000600052604160045260246000fd5b610b1d82610ad4565b810181811067ffffffffffffffff82111715610b3c57610b3b610ae5565b5b80604052505050565b6000610b4f610ab6565b9050610b5b8282610b14565b919050565b600067ffffffffffffffff821115610b7b57610b7a610ae5565b5b610b8482610ad4565b9050602081019050919050565b82818337600083830152505050565b6000610bb3610bae84610b60565b610b45565b905082815260208101848484011115610bcf57610bce610acf565b5b610bda848285610b91565b509392505050565b600082601f830112610bf757610bf6610aca565b5b8135610c07848260208601610ba0565b91505092915050565b6000819050919050565b610c2381610c10565b8114610c2e57600080fd5b50565b600081359050610c4081610c1a565b92915050565b600080600080600060a08688031215610c6257610c61610ac0565b5b600086013567ffffffffffffffff811115610c8057610c7f610ac5565b5b610c8c88828901610be2565b955050602086013567ffffffffffffffff811115610cad57610cac610ac5565b5b610cb988828901610be2565b945050604086013567ffffffffffffffff811115610cda57610cd9610ac5565b5b610ce688828901610be2565b935050606086013567ffffffffffffffff811115610d0757610d06610ac5565b5b610d1388828901610be2565b9250506080610d2488828901610c31565b9150509295509295909350565b600060208284031215610d4757610d46610ac0565b5b600082013567ffffffffffffffff811115610d6557610d64610ac5565b5b610d7184828501610be2565b91505092915050565b610d83816109f8565b8114610d8e57600080fd5b50565b600081359050610da081610d7a565b92915050565b600060208284031215610dbc57610dbb610ac0565b5b6000610dca84828501610d91565b91505092915050565b600081519050919050565b600082825260208201905092915050565b60005b83811015610e0d578082015181840152602081019050610df2565b60008484015250505050565b6000610e2482610dd3565b610e2e8185610dde565b9350610e3e818560208601610def565b610e4781610ad4565b840191505092915050565b610e5b81610c10565b82525050565b60008115159050919050565b610e7681610e61565b82525050565b600060e0820190508181036000830152610e96818a610e19565b90508181036020830152610eaa8189610e19565b90508181036040830152610ebe8188610e19565b9050610ecd6060830187610e52565b610eda6080830186610e52565b610ee760a0830185610e6d565b81810360c0830152610ef98184610e19565b905098975050505050505050565b600060208284031215610f1d57610f1c610ac0565b5b6000610f2b84828501610c31565b91505092915050565b610f3d816109f8565b82525050565b6000602082019050610f586000830184610f34565b92915050565b60008060408385031215610f7557610f74610ac0565b5b6000610f8385828601610d91565b925050602083013567ffffffffffffffff811115610fa457610fa3610ac5565b5b610fb085828601610be2565b9150509250929050565b7f54617267657420616d6f756e74206d757374206265206772656174657220746860008201527f616e203000000000000000000000000000000000000000000000000000000000602082015250565b6000611016602483610dde565b915061102182610fba565b604082019050919050565b6000602082019050818103600083015261104581611009565b9050919050565b7f4e474f20656d61696c2072657175697265640000000000000000000000000000600082015250565b6000611082601283610dde565b915061108d8261104c565b602082019050919050565b600060208201905081810360008301526110b181611075565b9050919050565b7f4e487b7100000000000000000000000000000000000000000000000000000000600052602260045260246000fd5b600060028204905060018216806110ff57607f821691505b602082108103611112576111116110b8565b5b50919050565b60008190508160005260206000209050919050565b60006020601f8301049050919050565b600082821b905092915050565b60006008830261117a7fffffffffffffffffffffffffffffffffffffffffffffffffffffffffffffffff8261113d565b611184868361113d565b95508019841693508086168417925050509392505050565b6000819050919050565b60006111c16111bc6111b784610c10565b61119c565b610c10565b9050919050565b6000819050919050565b6111db836111a6565b6111ef6111e7826111c8565b84845461114a565b825550505050565b600090565b6112046111f7565b61120f8184846111d2565b505050565b5b81811015611233576112286000826111fc565b600181019050611215565b5050565b601f8211156112785761124981611118565b6112528461112d565b81016020851015611261578190505b61127561126d8561112d565b830182611214565b50505b505050565b600082821c905092915050565b600061129b6000198460080261127d565b1980831691505092915050565b60006112b4838361128a565b9150826002028217905092915050565b6112cd82610dd3565b67ffffffffffffffff8111156112e6576112e5610ae5565b5b6112f082546110e7565b6112fb828285611237565b600060209050601f83116001811461132e576000841561131c578287015190505b61132685826112a8565b86555061138e565b601f19841661133c86611118565b60005b828110156113645784890151825560018201915060208501945060208101905061133f565b86831015611381578489015161137d601f89168261128a565b8355505b6001600288020188555050505b505050505050565b600081905092915050565b60006113ac82610dd3565b6113b68185611396565b93506113c6818560208601610def565b80840191505092915050565b60006113de82846113a1565b915081905092915050565b600060408201905081810360008301526114038185610e19565b90506114126020830184610e52565b9392505050565b7f43616d706169676e20646f6573206e6f74206578697374000000000000000000600082015250565b600061144f601783610dde565b915061145a82611419565b602082019050919050565b6000602082019050818103600083015261147e81611442565b9050919050565b600081905092915050565b60008190508160005260206000209050919050565b600081546114b2816110e7565b6114bc8186611485565b945060018216600081146114d757600181146114ec5761151f565b60ff198316865281151582028601935061151f565b6114f585611490565b60005b83811015611517578154818901526001820191506020810190506114f8565b838801955050505b50505092915050565b600061153482846114a5565b915081905092915050565b7f4f6e6c7920746865204e474f2063616e20636c6f736520746869732063616d7060008201527f6169676e00000000000000000000000000000000000000000000000000000000602082015250565b600061159b602483610dde565b91506115a68261153f565b604082019050919050565b600060208201905081810360008301526115ca8161158e565b9050919050565b7f43616d706169676e20697320616c726561647920636c6f736564000000000000600082015250565b6000611607601a83610dde565b9150611612826115d1565b602082019050919050565b60006020820190508181036000830152611636816115fa565b9050919050565b7f4e487b7100000000000000000000000000000000000000000000000000000000600052601160045260246000fd5b600061167782610c10565b915061168283610c10565b925082820390508181111561169a5761169961163d565b5b92915050565b600073ffffffffffffffffffffffffffffffffffffffff82169050919050565b60006116cb826116a0565b9050919050565b60008160601b9050919050565b60006116ea826116d2565b9050919050565b60006116fc826116df565b9050919050565b61171461170f826116c0565b6116f1565b82525050565b6000819050919050565b61173561173082610c10565b61171a565b82525050565b6000819050919050565b611756611751826109f8565b61173b565b82525050565b60006117688287611703565b6014820191506117788286611724565b6020820191506117888285611724565b6020820191506117988284611745565b6020820191508190509594505050505056fea2646970667358221220ff0230dc8bd4777f81c868c49e1d9d13084457031117073b1d3e566f4f0023b664736f6c63430008120033",
  "immutableReferences": {},
  "source": "// SPDX-License-Identifier: GPL-3.0\r\npragma solidity >=0.8.2 <0.9.0;\r\n\r\ncontract CampaignManager {\r\n    struct Campaign {\r\n        bytes32 Campaign_id;\r\n        string title;\r\n        string description;\r\n        string location;\r\n        string ngo;            // NGO email\r\n        uint256 targetAmount;\r\n        uint256 totalReceived;\r\n        bool isActive;\r\n    }\r\n\r\n    // --- Storage ---\r\n    bytes32[] public allCampaignIds;\r\n    mapping(bytes32 => Campaign) internal Campaigns;\r\n\r\n    // Mapping from NGO email  their campaigns\r\n    mapping(string => bytes32[]) internal campaignsByNgo;\r\n\r\n    // --- Events ---\r\n    event CampaignCreated(bytes32 indexed campaignId, string title, string indexed ngoEmail, uint256 targetAmount);\r\n    event CampaignClosed(bytes32 indexed campaignId, string indexed ngoEmail);\r\n    event DonationReceived(bytes32 indexed campaignId, string indexed donorEmail, uint256 amount);\r\n\r\n    // --- Internal unique ID generator ---\r\n    function uniqueIdGenerator() private view returns (bytes32) {\r\n        return keccak256(\r\n            abi.encodePacked(msg.sender, block.timestamp, block.prevrandao, blockhash(block.number - 1))\r\n        );\r\n    }\r\n\r\n    // --- Create a new campaign ---\r\n    function createCampaign(\r\n        string memory camp_name,\r\n        string memory camp_desc,\r\n        string memory camp_location,\r\n        string memory ngoEmail,\r\n        uint256 camp_targetAmount\r\n    ) public {\r\n        require(camp_targetAmount > 0, \"Target amount must be greater than 0\");\r\n        require(bytes(ngoEmail).length > 0, \"NGO email required\");\r\n\r\n        bytes32 campaignId = uniqueIdGenerator();\r\n\r\n        Campaigns[campaignId] = Campaign({\r\n            Campaign_id: campaignId,\r\n            title: camp_name,\r\n            description: camp_desc,\r\n            location: camp_location,\r\n            ngo: ngoEmail,\r\n            targetAmount: camp_targetAmount,\r\n            totalReceived: 0,\r\n            isActive: true\r\n        });\r\n\r\n        allCampaignIds.push(campaignId);\r\n        campaignsByNgo[ngoEmail].push(campaignId);\r\n\r\n        emit CampaignCreated(campaignId, camp_name, ngoEmail, camp_targetAmount);\r\n    }\r\n\r\n    // --- Get campaign details ---\r\n    function getCampaign(bytes32 id) public view returns(\r\n        string memory, string memory, string memory, uint256, uint256, bool, string memory\r\n    ) {\r\n        require(bytes(Campaigns[id].ngo).length > 0, \"Campaign does not exist\");\r\n\r\n        Campaign memory camp = Campaigns[id];\r\n        return (\r\n            camp.title,\r\n            camp.description,\r\n            camp.location,\r\n            camp.targetAmount,\r\n            camp.totalReceived,\r\n            camp.isActive,\r\n            camp.ngo\r\n        );\r\n    }\r\n\r\n    // --- Close a campaign ---\r\n    function closeCampaign(bytes32 id, string memory ngoEmail) public {\r\n        require(bytes(Campaigns[id].ngo).length > 0, \"Campaign does not exist\");\r\n        require(keccak256(bytes(ngoEmail)) == keccak256(bytes(Campaigns[id].ngo)), \"Only the NGO can close this campaign\");\r\n        require(Campaigns[id].isActive, \"Campaign is already closed\");\r\n\r\n        Campaigns[id].isActive = false;\r\n\r\n        emit CampaignClosed(id, ngoEmail);\r\n    }\r\n\r\n    // --- Get all campaign IDs ---\r\n    function getAllCampaignID() public view returns (bytes32[] memory) {\r\n        return allCampaignIds;\r\n    }\r\n\r\n    // --- Get campaigns for a specific NGO email ---\r\n    function getCampaignsByNgo(string memory ngoEmail) public view returns (bytes32[] memory) {\r\n        return campaignsByNgo[ngoEmail];\r\n    }\r\n}\r\n",
  "sourcePath": "C:\\Users\\DIPRO\\Desktop\\Projects\\AidVerify\\blockchain\\contracts\\CampaignManager.sol",
  "compiler": {
    "name": "solc",
    "version": "0.8.18+commit.87f61d96.Emscripten.clang"
  },
  "schemaVersion": "3.4.16",
  "updatedAt": "2025-08-29T18:37:31.661Z",
  "networkType": "ethereum",
  "devdoc": {
    "kind": "dev",
    "methods": {},
    "version": 1
  },
  "userdoc": {
    "kind": "user",
    "methods": {},
    "version": 1
  }
}