{
  "contractName": "DonationManager",
  "abi": [
    {
      "inputs": [
        {
          "internalType": "uint256",
          "name": "campaignId",
          "type": "uint256"
        },
        {
          "internalType": "uint256",
          "name": "amount",
          "type": "uint256"
        },
        {
          "internalType": "string",
          "name": "proofHash",
          "type": "string"
        }
      ],
      "name": "donate",
      "outputs": [],
      "stateMutability": "view",
      "type": "function"
    }
  ],
  "bytecode": "0x608060405234801561001057600080fd5b5061033a806100206000396000f3fe608060405234801561001057600080fd5b506004361061002b5760003560e01c806316c3cdf514610030575b600080fd5b61004a60048036038101906100459190610295565b61004c565b005b6100546100b9565b8381602001818152505033816040019073ffffffffffffffffffffffffffffffffffffffff16908173ffffffffffffffffffffffffffffffffffffffff168152505082816060018181525050818160800181905250428160a001818152505050505050565b6040518060c001604052806000815260200160008152602001600073ffffffffffffffffffffffffffffffffffffffff1681526020016000815260200160608152602001600081525090565b6000604051905090565b600080fd5b600080fd5b6000819050919050565b61012c81610119565b811461013757600080fd5b50565b60008135905061014981610123565b92915050565b600080fd5b600080fd5b6000601f19601f8301169050919050565b7f4e487b7100000000000000000000000000000000000000000000000000000000600052604160045260246000fd5b6101a282610159565b810181811067ffffffffffffffff821117156101c1576101c061016a565b5b80604052505050565b60006101d4610105565b90506101e08282610199565b919050565b600067ffffffffffffffff821115610200576101ff61016a565b5b61020982610159565b9050602081019050919050565b82818337600083830152505050565b6000610238610233846101e5565b6101ca565b90508281526020810184848401111561025457610253610154565b5b61025f848285610216565b509392505050565b600082601f83011261027c5761027b61014f565b5b813561028c848260208601610225565b91505092915050565b6000806000606084860312156102ae576102ad61010f565b5b60006102bc8682870161013a565b93505060206102cd8682870161013a565b925050604084013567ffffffffffffffff8111156102ee576102ed610114565b5b6102fa86828701610267565b915050925092509256fea2646970667358221220b73be043dce65433e869bd7f607d21ab3dedda4a433b4179e9f625a60af3eeac64736f6c63430008120033",
  "immutableReferences": {},
  "source": "// SPDX-License-Identifier: GPL-3.0\r\npragma solidity >=0.8.2 <0.9.0;\r\n\r\ncontract DonationManager\r\n{\r\n    struct Donation {\r\n        uint256 donation_id;\r\n        uint256 campaignId;\r\n        address donor;\r\n        uint256 amount;\r\n        string proofHash; // IPFS hash of screenshot/receipt\r\n        uint256 timestamp;\r\n    }\r\n\r\n    function donate (uint256 campaignId, uint256 amount, string memory proofHash) public view\r\n    {\r\n        Donation memory newdonate;\r\n        newdonate.campaignId=campaignId;\r\n        newdonate.donor=msg.sender;\r\n        newdonate.amount=amount;\r\n        newdonate.proofHash=proofHash;\r\n        newdonate.timestamp=block.timestamp;\r\n    }\r\n\r\n    // function getDonationsByDonor ()\r\n    // {\r\n\r\n    // }\r\n\r\n}",
  "sourcePath": "C:\\Users\\DIPRO\\Desktop\\Projects\\AidVerify\\blockchain\\contracts\\DonationManager.sol",
  "compiler": {
    "name": "solc",
    "version": "0.8.18+commit.87f61d96.Emscripten.clang"
  },
  "schemaVersion": "3.4.16",
  "updatedAt": "2025-08-29T18:37:29.344Z",
  "devdoc": {
    "kind": "dev",
    "methods": {},
    "version": 1
  },
  "userdoc": {
    "kind": "user",
    "methods": {},
    "version": 1
  }
}