{
  "contractName": "DonorManager",
  "abi": [
    {
      "inputs": [
        {
          "internalType": "string",
          "name": "_donorUserName",
          "type": "string"
        },
        {
          "internalType": "bool",
          "name": "_isVerified",
          "type": "bool"
        }
      ],
      "name": "addDonor",
      "outputs": [],
      "stateMutability": "nonpayable",
      "type": "function"
    },
    {
      "inputs": [
        {
          "internalType": "string",
          "name": "_username",
          "type": "string"
        }
      ],
      "name": "getDonorDetails",
      "outputs": [
        {
          "internalType": "bytes15",
          "name": "",
          "type": "bytes15"
        },
        {
          "internalType": "string",
          "name": "",
          "type": "string"
        },
        {
          "internalType": "bool",
          "name": "",
          "type": "bool"
        }
      ],
      "stateMutability": "view",
      "type": "function"
    }
  ],
  "bytecode": "0x608060405234801561001057600080fd5b50610df8806100206000396000f3fe608060405234801561001057600080fd5b50600436106100365760003560e01c8063b897e7b01461003b578063ccf11a021461006d575b600080fd5b6100556004803603810190610050919061058a565b610089565b604051610064939291906106a8565b60405180910390f35b61008760048036038101906100829190610712565b610236565b005b600060606000806000856040516100a091906107aa565b90815260200160405180910390206040518060600160405290816000820160009054906101000a900460881b70ffffffffffffffffffffffffffffffffff191670ffffffffffffffffffffffffffffffffff19168152602001600182018054610108906107f0565b80601f0160208091040260200160405190810160405280929190818152602001828054610134906107f0565b80156101815780601f1061015657610100808354040283529160200191610181565b820191906000526020600020905b81548152906001019060200180831161016457829003601f168201915b505050505081526020016002820160009054906101000a900460ff1615151515815250509050600060881b70ffffffffffffffffffffffffffffffffff1916816000015170ffffffffffffffffffffffffffffffffff191603610219576040517f08c379a00000000000000000000000000000000000000000000000000000000081526004016102109061086d565b60405180910390fd5b806000015181602001518260400151935093509350509193909250565b600082511161027a576040517f08c379a0000000000000000000000000000000000000000000000000000000008152600401610271906108d9565b60405180910390fd5b600060881b70ffffffffffffffffffffffffffffffffff19166000836040516102a391906107aa565b908152602001604051809103902060000160009054906101000a900460881b70ffffffffffffffffffffffffffffffffff191614610316576040517f08c379a000000000000000000000000000000000000000000000000000000000815260040161030d90610945565b60405180910390fd5b60006103206103e4565b9050600060405180606001604052808370ffffffffffffffffffffffffffffffffff1916815260200185815260200184151581525090508060008560405161036891906107aa565b908152602001604051809103902060008201518160000160006101000a8154816effffffffffffffffffffffffffffff021916908360881c021790555060208201518160010190816103ba9190610b1b565b5060408201518160020160006101000a81548160ff02191690831515021790555090505050505050565b6000600160008154809291906103f990610c1c565b919050555060015433604051602001610413929190610cff565b60405160208183030381529060405261042b90610d5b565b905090565b6000604051905090565b600080fd5b600080fd5b600080fd5b600080fd5b6000601f19601f8301169050919050565b7f4e487b7100000000000000000000000000000000000000000000000000000000600052604160045260246000fd5b6104978261044e565b810181811067ffffffffffffffff821117156104b6576104b561045f565b5b80604052505050565b60006104c9610430565b90506104d5828261048e565b919050565b600067ffffffffffffffff8211156104f5576104f461045f565b5b6104fe8261044e565b9050602081019050919050565b82818337600083830152505050565b600061052d610528846104da565b6104bf565b90508281526020810184848401111561054957610548610449565b5b61055484828561050b565b509392505050565b600082601f83011261057157610570610444565b5b813561058184826020860161051a565b91505092915050565b6000602082840312156105a05761059f61043a565b5b600082013567ffffffffffffffff8111156105be576105bd61043f565b5b6105ca8482850161055c565b91505092915050565b60007fffffffffffffffffffffffffffffff000000000000000000000000000000000082169050919050565b610608816105d3565b82525050565b600081519050919050565b600082825260208201905092915050565b60005b8381101561064857808201518184015260208101905061062d565b60008484015250505050565b600061065f8261060e565b6106698185610619565b935061067981856020860161062a565b6106828161044e565b840191505092915050565b60008115159050919050565b6106a28161068d565b82525050565b60006060820190506106bd60008301866105ff565b81810360208301526106cf8185610654565b90506106de6040830184610699565b949350505050565b6106ef8161068d565b81146106fa57600080fd5b50565b60008135905061070c816106e6565b92915050565b600080604083850312156107295761072861043a565b5b600083013567ffffffffffffffff8111156107475761074661043f565b5b6107538582860161055c565b9250506020610764858286016106fd565b9150509250929050565b600081905092915050565b60006107848261060e565b61078e818561076e565b935061079e81856020860161062a565b80840191505092915050565b60006107b68284610779565b915081905092915050565b7f4e487b7100000000000000000000000000000000000000000000000000000000600052602260045260246000fd5b6000600282049050600182168061080857607f821691505b60208210810361081b5761081a6107c1565b5b50919050565b7f446f6e6f72206e6f7420666f756e640000000000000000000000000000000000600082015250565b6000610857600f83610619565b915061086282610821565b602082019050919050565b600060208201905081810360008301526108868161084a565b9050919050565b7f557365726e616d652063616e6e6f7420626520656d7074790000000000000000600082015250565b60006108c3601883610619565b91506108ce8261088d565b602082019050919050565b600060208201905081810360008301526108f2816108b6565b9050919050565b7f557365726e616d6520616c726561647920657869737473000000000000000000600082015250565b600061092f601783610619565b915061093a826108f9565b602082019050919050565b6000602082019050818103600083015261095e81610922565b9050919050565b60008190508160005260206000209050919050565b60006020601f8301049050919050565b600082821b905092915050565b6000600883026109c77fffffffffffffffffffffffffffffffffffffffffffffffffffffffffffffffff8261098a565b6109d1868361098a565b95508019841693508086168417925050509392505050565b6000819050919050565b6000819050919050565b6000610a18610a13610a0e846109e9565b6109f3565b6109e9565b9050919050565b6000819050919050565b610a32836109fd565b610a46610a3e82610a1f565b848454610997565b825550505050565b600090565b610a5b610a4e565b610a66818484610a29565b505050565b5b81811015610a8a57610a7f600082610a53565b600181019050610a6c565b5050565b601f821115610acf57610aa081610965565b610aa98461097a565b81016020851015610ab8578190505b610acc610ac48561097a565b830182610a6b565b50505b505050565b600082821c905092915050565b6000610af260001984600802610ad4565b1980831691505092915050565b6000610b0b8383610ae1565b9150826002028217905092915050565b610b248261060e565b67ffffffffffffffff811115610b3d57610b3c61045f565b5b610b4782546107f0565b610b52828285610a8e565b600060209050601f831160018114610b855760008415610b73578287015190505b610b7d8582610aff565b865550610be5565b601f198416610b9386610965565b60005b82811015610bbb57848901518255600182019150602085019450602081019050610b96565b86831015610bd85784890151610bd4601f891682610ae1565b8355505b6001600288020188555050505b505050505050565b7f4e487b7100000000000000000000000000000000000000000000000000000000600052601160045260246000fd5b6000610c27826109e9565b91507fffffffffffffffffffffffffffffffffffffffffffffffffffffffffffffffff8203610c5957610c58610bed565b5b600182019050919050565b6000819050919050565b610c7f610c7a826109e9565b610c64565b82525050565b600073ffffffffffffffffffffffffffffffffffffffff82169050919050565b6000610cb082610c85565b9050919050565b60008160601b9050919050565b6000610ccf82610cb7565b9050919050565b6000610ce182610cc4565b9050919050565b610cf9610cf482610ca5565b610cd6565b82525050565b6000610d0b8285610c6e565b602082019150610d1b8284610ce8565b6014820191508190509392505050565b600081519050919050565b6000819050602082019050919050565b6000610d5282516105d3565b80915050919050565b6000610d6682610d2b565b82610d7084610d36565b9050610d7b81610d46565b9250600f821015610dbb57610db67fffffffffffffffffffffffffffffff000000000000000000000000000000000083600f0360080261098a565b831692505b505091905056fea2646970667358221220dea75147875a988d6ff2f3f494a62f8c951835ee5ba8c0d5a9fd20fa8006243a64736f6c63430008120033",
  "immutableReferences": {},
  "source": "// SPDX-License-Identifier: GPL-3.0\r\npragma solidity >=0.8.2 <0.9.0;\r\n\r\ncontract DonorManager {\r\n    struct Donor {\r\n        bytes15 donorId;\r\n        string donorUserName;\r\n        bool isVerified;\r\n    }\r\n\r\n    mapping(string => Donor) private donorsByName; // username  donor\r\n\r\n    uint256 private idCounter; // simple counter\r\n\r\n    // Generate donorId (not checked for uniqueness anymore)\r\n    function donorIdGenerator() private returns (bytes15) {\r\n        idCounter++;\r\n        return bytes15(abi.encodePacked(idCounter, msg.sender));\r\n    }\r\n\r\n    // Add a donor (only username must be unique)\r\n    function addDonor(string memory _donorUserName, bool _isVerified) public {\r\n        require(bytes(_donorUserName).length > 0, \"Username cannot be empty\");\r\n        require(donorsByName[_donorUserName].donorId == bytes15(0), \"Username already exists\");\r\n\r\n        bytes15 newId = donorIdGenerator();\r\n\r\n        Donor memory newDonor = Donor({\r\n            donorId: newId,\r\n            donorUserName: _donorUserName,\r\n            isVerified: _isVerified\r\n        });\r\n\r\n        donorsByName[_donorUserName] = newDonor;\r\n    }\r\n\r\n    // Get donor details by username\r\n    function getDonorDetails(string memory _username) public view returns (bytes15, string memory, bool) {\r\n        Donor memory d = donorsByName[_username];\r\n        require(d.donorId != bytes15(0), \"Donor not found\");\r\n        return (d.donorId, d.donorUserName, d.isVerified);\r\n    }\r\n}\r\n",
  "sourcePath": "C:\\Users\\DIPRO\\Desktop\\Projects\\AidVerify\\blockchain\\contracts\\DonorManager.sol",
  "compiler": {
    "name": "solc",
    "version": "0.8.18+commit.87f61d96.Emscripten.clang"
  },
  "schemaVersion": "3.4.16",
  "updatedAt": "2025-08-29T18:37:29.348Z",
  "devdoc": {
    "kind": "dev",
    "methods": {},
    "version": 1
  },
  "userdoc": {
    "kind": "user",
    "methods": {},
    "version": 1
  }
}