{
  "contractName": "NgoManager",
  "abi": [
    {
      "anonymous": false,
      "inputs": [
        {
          "indexed": true,
          "internalType": "bytes32",
          "name": "ngoId",
          "type": "bytes32"
        },
        {
          "indexed": false,
          "internalType": "string",
          "name": "NgoName",
          "type": "string"
        },
        {
          "indexed": false,
          "internalType": "uint256",
          "name": "regNo",
          "type": "uint256"
        },
        {
          "indexed": false,
          "internalType": "string",
          "name": "website",
          "type": "string"
        },
        {
          "indexed": false,
          "internalType": "string",
          "name": "contactPerson",
          "type": "string"
        },
        {
          "indexed": false,
          "internalType": "string",
          "name": "contactEmail",
          "type": "string"
        }
      ],
      "name": "NgoRegistered",
      "type": "event"
    },
    {
      "inputs": [
        {
          "internalType": "string",
          "name": "_ngoName",
          "type": "string"
        },
        {
          "internalType": "uint256",
          "name": "_regNo",
          "type": "uint256"
        },
        {
          "internalType": "string",
          "name": "_website",
          "type": "string"
        },
        {
          "internalType": "string",
          "name": "_contactPerson",
          "type": "string"
        },
        {
          "internalType": "string",
          "name": "_contactEmail",
          "type": "string"
        }
      ],
      "name": "registerNgo",
      "outputs": [],
      "stateMutability": "nonpayable",
      "type": "function"
    },
    {
      "inputs": [
        {
          "internalType": "bytes32",
          "name": "_ngoId",
          "type": "bytes32"
        }
      ],
      "name": "getNgoById",
      "outputs": [
        {
          "components": [
            {
              "internalType": "bytes32",
              "name": "Ngo_id",
              "type": "bytes32"
            },
            {
              "internalType": "string",
              "name": "NgoName",
              "type": "string"
            },
            {
              "internalType": "uint256",
              "name": "regNo",
              "type": "uint256"
            },
            {
              "internalType": "string",
              "name": "website",
              "type": "string"
            },
            {
              "internalType": "string",
              "name": "contactPerson",
              "type": "string"
            },
            {
              "internalType": "string",
              "name": "contactEmail",
              "type": "string"
            }
          ],
          "internalType": "struct NgoManager.NGO",
          "name": "",
          "type": "tuple"
        }
      ],
      "stateMutability": "view",
      "type": "function"
    },
    {
      "inputs": [
        {
          "internalType": "string",
          "name": "_email",
          "type": "string"
        }
      ],
      "name": "getNgoByEmail",
      "outputs": [
        {
          "components": [
            {
              "internalType": "bytes32",
              "name": "Ngo_id",
              "type": "bytes32"
            },
            {
              "internalType": "string",
              "name": "NgoName",
              "type": "string"
            },
            {
              "internalType": "uint256",
              "name": "regNo",
              "type": "uint256"
            },
            {
              "internalType": "string",
              "name": "website",
              "type": "string"
            },
            {
              "internalType": "string",
              "name": "contactPerson",
              "type": "string"
            },
            {
              "internalType": "string",
              "name": "contactEmail",
              "type": "string"
            }
          ],
          "internalType": "struct NgoManager.NGO",
          "name": "",
          "type": "tuple"
        }
      ],
      "stateMutability": "view",
      "type": "function"
    }
  ],
  "bytecode": "0x608060405234801561001057600080fd5b506112e3806100206000396000f3fe608060405234801561001057600080fd5b50600436106100415760003560e01c8063159a6c051461004657806367b0ca9614610076578063978de79914610092575b600080fd5b610060600480360381019061005b91906109d7565b6100c2565b60405161006d9190610b6f565b60405180910390f35b610090600480360381019061008b9190610bbd565b6103b3565b005b6100ac60048036038101906100a79190610cd4565b610562565b6040516100b99190610b6f565b60405180910390f35b6100ca610844565b60006001836040516100dc9190610d3d565b90815260200160405180910390205490506000801b8103610132576040517f08c379a000000000000000000000000000000000000000000000000000000000815260040161012990610db1565b60405180910390fd5b6000808281526020019081526020016000206040518060c00160405290816000820154815260200160018201805461016990610e00565b80601f016020809104026020016040519081016040528092919081815260200182805461019590610e00565b80156101e25780601f106101b7576101008083540402835291602001916101e2565b820191906000526020600020905b8154815290600101906020018083116101c557829003601f168201915b505050505081526020016002820154815260200160038201805461020590610e00565b80601f016020809104026020016040519081016040528092919081815260200182805461023190610e00565b801561027e5780601f106102535761010080835404028352916020019161027e565b820191906000526020600020905b81548152906001019060200180831161026157829003601f168201915b5050505050815260200160048201805461029790610e00565b80601f01602080910402602001604051908101604052809291908181526020018280546102c390610e00565b80156103105780601f106102e557610100808354040283529160200191610310565b820191906000526020600020905b8154815290600101906020018083116102f357829003601f168201915b5050505050815260200160058201805461032990610e00565b80601f016020809104026020016040519081016040528092919081815260200182805461035590610e00565b80156103a25780601f10610377576101008083540402835291602001916103a2565b820191906000526020600020905b81548152906001019060200180831161038557829003601f168201915b505050505081525050915050919050565b600081426040516020016103c8929190610e52565b6040516020818303038152906040528051906020012090506000801b6001836040516103f49190610d3d565b90815260200160405180910390205414610443576040517f08c379a000000000000000000000000000000000000000000000000000000000815260040161043a90610eec565b60405180910390fd5b60006040518060c00160405280838152602001888152602001878152602001868152602001858152602001848152509050806000808481526020019081526020016000206000820151816000015560208201518160010190816104a691906110b8565b506040820151816002015560608201518160030190816104c691906110b8565b5060808201518160040190816104dc91906110b8565b5060a08201518160050190816104f291906110b8565b50905050816001846040516105079190610d3d565b908152602001604051809103902081905550817f6b2e404ec26e09315810a3a8cbe4d7281794425520fcffd8d9da1f411b7e336788888888886040516105519594939291906111d2565b60405180910390a250505050505050565b61056a610844565b6000801b60008084815260200190815260200160002060000154036105c4576040517f08c379a00000000000000000000000000000000000000000000000000000000081526004016105bb9061128d565b60405180910390fd5b6000808381526020019081526020016000206040518060c0016040529081600082015481526020016001820180546105fb90610e00565b80601f016020809104026020016040519081016040528092919081815260200182805461062790610e00565b80156106745780601f1061064957610100808354040283529160200191610674565b820191906000526020600020905b81548152906001019060200180831161065757829003601f168201915b505050505081526020016002820154815260200160038201805461069790610e00565b80601f01602080910402602001604051908101604052809291908181526020018280546106c390610e00565b80156107105780601f106106e557610100808354040283529160200191610710565b820191906000526020600020905b8154815290600101906020018083116106f357829003601f168201915b5050505050815260200160048201805461072990610e00565b80601f016020809104026020016040519081016040528092919081815260200182805461075590610e00565b80156107a25780601f10610777576101008083540402835291602001916107a2565b820191906000526020600020905b81548152906001019060200180831161078557829003601f168201915b505050505081526020016005820180546107bb90610e00565b80601f01602080910402602001604051908101604052809291908181526020018280546107e790610e00565b80156108345780601f1061080957610100808354040283529160200191610834565b820191906000526020600020905b81548152906001019060200180831161081757829003601f168201915b5050505050815250509050919050565b6040518060c001604052806000801916815260200160608152602001600081526020016060815260200160608152602001606081525090565b6000604051905090565b600080fd5b600080fd5b600080fd5b600080fd5b6000601f19601f8301169050919050565b7f4e487b7100000000000000000000000000000000000000000000000000000000600052604160045260246000fd5b6108e48261089b565b810181811067ffffffffffffffff82111715610903576109026108ac565b5b80604052505050565b600061091661087d565b905061092282826108db565b919050565b600067ffffffffffffffff821115610942576109416108ac565b5b61094b8261089b565b9050602081019050919050565b82818337600083830152505050565b600061097a61097584610927565b61090c565b90508281526020810184848401111561099657610995610896565b5b6109a1848285610958565b509392505050565b600082601f8301126109be576109bd610891565b5b81356109ce848260208601610967565b91505092915050565b6000602082840312156109ed576109ec610887565b5b600082013567ffffffffffffffff811115610a0b57610a0a61088c565b5b610a17848285016109a9565b91505092915050565b6000819050919050565b610a3381610a20565b82525050565b600081519050919050565b600082825260208201905092915050565b60005b83811015610a73578082015181840152602081019050610a58565b60008484015250505050565b6000610a8a82610a39565b610a948185610a44565b9350610aa4818560208601610a55565b610aad8161089b565b840191505092915050565b6000819050919050565b610acb81610ab8565b82525050565b600060c083016000830151610ae96000860182610a2a565b5060208301518482036020860152610b018282610a7f565b9150506040830151610b166040860182610ac2565b5060608301518482036060860152610b2e8282610a7f565b91505060808301518482036080860152610b488282610a7f565b91505060a083015184820360a0860152610b628282610a7f565b9150508091505092915050565b60006020820190508181036000830152610b898184610ad1565b905092915050565b610b9a81610ab8565b8114610ba557600080fd5b50565b600081359050610bb781610b91565b92915050565b600080600080600060a08688031215610bd957610bd8610887565b5b600086013567ffffffffffffffff811115610bf757610bf661088c565b5b610c03888289016109a9565b9550506020610c1488828901610ba8565b945050604086013567ffffffffffffffff811115610c3557610c3461088c565b5b610c41888289016109a9565b935050606086013567ffffffffffffffff811115610c6257610c6161088c565b5b610c6e888289016109a9565b925050608086013567ffffffffffffffff811115610c8f57610c8e61088c565b5b610c9b888289016109a9565b9150509295509295909350565b610cb181610a20565b8114610cbc57600080fd5b50565b600081359050610cce81610ca8565b92915050565b600060208284031215610cea57610ce9610887565b5b6000610cf884828501610cbf565b91505092915050565b600081905092915050565b6000610d1782610a39565b610d218185610d01565b9350610d31818560208601610a55565b80840191505092915050565b6000610d498284610d0c565b915081905092915050565b600082825260208201905092915050565b7f4e474f206e6f7420666f756e642077697468207468697320656d61696c000000600082015250565b6000610d9b601d83610d54565b9150610da682610d65565b602082019050919050565b60006020820190508181036000830152610dca81610d8e565b9050919050565b7f4e487b7100000000000000000000000000000000000000000000000000000000600052602260045260246000fd5b60006002820490506001821680610e1857607f821691505b602082108103610e2b57610e2a610dd1565b5b50919050565b6000819050919050565b610e4c610e4782610ab8565b610e31565b82525050565b6000610e5e8285610d0c565b9150610e6a8284610e3b565b6020820191508190509392505050565b7f4e474f20616c726561647920726567697374657265642077697468207468697360008201527f20656d61696c0000000000000000000000000000000000000000000000000000602082015250565b6000610ed6602683610d54565b9150610ee182610e7a565b604082019050919050565b60006020820190508181036000830152610f0581610ec9565b9050919050565b60008190508160005260206000209050919050565b60006020601f8301049050919050565b600082821b905092915050565b600060088302610f6e7fffffffffffffffffffffffffffffffffffffffffffffffffffffffffffffffff82610f31565b610f788683610f31565b95508019841693508086168417925050509392505050565b6000819050919050565b6000610fb5610fb0610fab84610ab8565b610f90565b610ab8565b9050919050565b6000819050919050565b610fcf83610f9a565b610fe3610fdb82610fbc565b848454610f3e565b825550505050565b600090565b610ff8610feb565b611003818484610fc6565b505050565b5b818110156110275761101c600082610ff0565b600181019050611009565b5050565b601f82111561106c5761103d81610f0c565b61104684610f21565b81016020851015611055578190505b61106961106185610f21565b830182611008565b50505b505050565b600082821c905092915050565b600061108f60001984600802611071565b1980831691505092915050565b60006110a8838361107e565b9150826002028217905092915050565b6110c182610a39565b67ffffffffffffffff8111156110da576110d96108ac565b5b6110e48254610e00565b6110ef82828561102b565b600060209050601f8311600181146111225760008415611110578287015190505b61111a858261109c565b865550611182565b601f19841661113086610f0c565b60005b8281101561115857848901518255600182019150602085019450602081019050611133565b868310156111755784890151611171601f89168261107e565b8355505b6001600288020188555050505b505050505050565b600061119582610a39565b61119f8185610d54565b93506111af818560208601610a55565b6111b88161089b565b840191505092915050565b6111cc81610ab8565b82525050565b600060a08201905081810360008301526111ec818861118a565b90506111fb60208301876111c3565b818103604083015261120d818661118a565b90508181036060830152611221818561118a565b90508181036080830152611235818461118a565b90509695505050505050565b7f4e474f206e6f7420666f756e6400000000000000000000000000000000000000600082015250565b6000611277600d83610d54565b915061128282611241565b602082019050919050565b600060208201905081810360008301526112a68161126a565b905091905056fea2646970667358221220529140f245363d7d6882da4e0dd708db284077e12d13bbe5cdbc1c96f3ec943c64736f6c63430008120033",
  "immutableReferences": {},
  "source": "// SPDX-License-Identifier: GPL-3.0\r\npragma solidity >=0.8.2 <0.9.0;\r\n\r\ncontract NgoManager {\r\n    struct NGO {\r\n        bytes32 Ngo_id;\r\n        string NgoName;\r\n        uint256 regNo;\r\n        string website;\r\n        string contactPerson;\r\n        string contactEmail;\r\n    }\r\n\r\n    // Mappings for storage\r\n    mapping(bytes32 => NGO) private ngosById;      // ngoId  NGO\r\n    mapping(string => bytes32) private ngoIdByEmail; // email  ngoId\r\n\r\n    // Event for registration\r\n    event NgoRegistered(\r\n        bytes32 indexed ngoId,\r\n        string NgoName,\r\n        uint256 regNo,\r\n        string website,\r\n        string contactPerson,\r\n        string contactEmail\r\n    );\r\n\r\n    /// @notice Register a new NGO\r\n    function registerNgo(\r\n        string memory _ngoName,\r\n        uint256 _regNo,\r\n        string memory _website,\r\n        string memory _contactPerson,\r\n        string memory _contactEmail\r\n    ) public {\r\n        // create a unique id (based on email + block timestamp for uniqueness)\r\n        bytes32 ngoId = keccak256(abi.encodePacked(_contactEmail, block.timestamp));\r\n\r\n        require(ngoIdByEmail[_contactEmail] == 0x0, \"NGO already registered with this email\");\r\n\r\n        NGO memory newNgo = NGO({\r\n            Ngo_id: ngoId,\r\n            NgoName: _ngoName,\r\n            regNo: _regNo,\r\n            website: _website,\r\n            contactPerson: _contactPerson,\r\n            contactEmail: _contactEmail\r\n        });\r\n\r\n        ngosById[ngoId] = newNgo;\r\n        ngoIdByEmail[_contactEmail] = ngoId;\r\n\r\n        emit NgoRegistered(\r\n            ngoId,\r\n            _ngoName,\r\n            _regNo,\r\n            _website,\r\n            _contactPerson,\r\n            _contactEmail\r\n        );\r\n    }\r\n\r\n    /// @notice Get NGO details by ngoId\r\n    function getNgoById(bytes32 _ngoId) public view returns (NGO memory) {\r\n        require(ngosById[_ngoId].Ngo_id != 0x0, \"NGO not found\");\r\n        return ngosById[_ngoId];\r\n    }\r\n\r\n    /// @notice Get NGO details by email\r\n    function getNgoByEmail(string memory _email) public view returns (NGO memory) {\r\n        bytes32 ngoId = ngoIdByEmail[_email];\r\n        require(ngoId != 0x0, \"NGO not found with this email\");\r\n        return ngosById[ngoId];\r\n    }\r\n}\r\n",
  "sourcePath": "C:\\Users\\DIPRO\\Desktop\\Projects\\AidVerify\\blockchain\\contracts\\NgoManager.sol",
  "compiler": {
    "name": "solc",
    "version": "0.8.18+commit.87f61d96.Emscripten.clang"
  },
  "schemaVersion": "3.4.16",
  "updatedAt": "2025-08-31T08:11:41.089Z",
  "devdoc": {
    "kind": "dev",
    "methods": {},
    "version": 1
  },
  "userdoc": {
    "kind": "user",
    "methods": {
      "getNgoByEmail(string)": {
        "notice": "Get NGO details by email"
      },
      "getNgoById(bytes32)": {
        "notice": "Get NGO details by ngoId"
      },
      "registerNgo(string,uint256,string,string,string)": {
        "notice": "Register a new NGO"
      }
    },
    "version": 1
  }
}