{
	"CampaignManager.sol": {
		"CampaignManager": {
			"abi": [
				{
					"anonymous": false,
					"inputs": [
						{
							"indexed": true,
							"internalType": "bytes32",
							"name": "campaignId",
							"type": "bytes32"
						},
						{
							"indexed": true,
							"internalType": "address",
							"name": "ngo",
							"type": "address"
						}
					],
					"name": "CampaignClosed",
					"type": "event"
				},
				{
					"anonymous": false,
					"inputs": [
						{
							"indexed": true,
							"internalType": "bytes32",
							"name": "campaignId",
							"type": "bytes32"
						},
						{
							"indexed": false,
							"internalType": "string",
							"name": "title",
							"type": "string"
						},
						{
							"indexed": true,
							"internalType": "address",
							"name": "ngo",
							"type": "address"
						},
						{
							"indexed": false,
							"internalType": "uint256",
							"name": "targetAmount",
							"type": "uint256"
						}
					],
					"name": "CampaignCreated",
					"type": "event"
				},
				{
					"inputs": [
						{
							"internalType": "bytes32",
							"name": "",
							"type": "bytes32"
						}
					],
					"name": "Campaigns",
					"outputs": [
						{
							"internalType": "bytes32",
							"name": "Campaign_id",
							"type": "bytes32"
						},
						{
							"internalType": "string",
							"name": "title",
							"type": "string"
						},
						{
							"internalType": "string",
							"name": "description",
							"type": "string"
						},
						{
							"internalType": "string",
							"name": "location",
							"type": "string"
						},
						{
							"internalType": "address",
							"name": "ngo",
							"type": "address"
						},
						{
							"internalType": "uint256",
							"name": "targetAmount",
							"type": "uint256"
						},
						{
							"internalType": "uint256",
							"name": "totalReceived",
							"type": "uint256"
						},
						{
							"internalType": "bool",
							"name": "isActive",
							"type": "bool"
						}
					],
					"stateMutability": "view",
					"type": "function"
				},
				{
					"inputs": [],
					"name": "campaignId",
					"outputs": [
						{
							"internalType": "bytes32",
							"name": "",
							"type": "bytes32"
						}
					],
					"stateMutability": "view",
					"type": "function"
				},
				{
					"inputs": [
						{
							"internalType": "bytes32",
							"name": "id",
							"type": "bytes32"
						}
					],
					"name": "closeCampaign",
					"outputs": [],
					"stateMutability": "nonpayable",
					"type": "function"
				},
				{
					"inputs": [
						{
							"internalType": "string",
							"name": "camp_name",
							"type": "string"
						},
						{
							"internalType": "string",
							"name": "camp_desc",
							"type": "string"
						},
						{
							"internalType": "string",
							"name": "camp_location",
							"type": "string"
						},
						{
							"internalType": "uint256",
							"name": "camp_targetAmount",
							"type": "uint256"
						}
					],
					"name": "createCampaign",
					"outputs": [],
					"stateMutability": "nonpayable",
					"type": "function"
				},
				{
					"inputs": [
						{
							"internalType": "bytes32",
							"name": "id",
							"type": "bytes32"
						}
					],
					"name": "getCampaign",
					"outputs": [
						{
							"internalType": "string",
							"name": "",
							"type": "string"
						},
						{
							"internalType": "string",
							"name": "",
							"type": "string"
						},
						{
							"internalType": "string",
							"name": "",
							"type": "string"
						},
						{
							"internalType": "uint256",
							"name": "",
							"type": "uint256"
						},
						{
							"internalType": "uint256",
							"name": "",
							"type": "uint256"
						},
						{
							"internalType": "bool",
							"name": "",
							"type": "bool"
						}
					],
					"stateMutability": "view",
					"type": "function"
				}
			],
			"devdoc": {
				"kind": "dev",
				"methods": {},
				"version": 1
			},
			"evm": {
				"assembly": "    /* \"CampaignManager.sol\":72:2212  contract CampaignManager {... */\n  mstore(0x40, 0x80)\n  callvalue\n  dup1\n  iszero\n  tag_1\n  jumpi\n  revert(0x00, 0x00)\ntag_1:\n  pop\n  dataSize(sub_0)\n  dup1\n  dataOffset(sub_0)\n  0x00\n  codecopy\n  0x00\n  return\nstop\n\nsub_0: assembly {\n        /* \"CampaignManager.sol\":72:2212  contract CampaignManager {... */\n      mstore(0x40, 0x80)\n      callvalue\n      dup1\n      iszero\n      tag_1\n      jumpi\n      revert(0x00, 0x00)\n    tag_1:\n      pop\n      jumpi(tag_2, lt(calldatasize, 0x04))\n      shr(0xe0, calldataload(0x00))\n      dup1\n      0x4a15ef92\n      eq\n      tag_3\n      jumpi\n      dup1\n      0x69f5e26d\n      eq\n      tag_4\n      jumpi\n      dup1\n      0x8ed5b0fc\n      eq\n      tag_5\n      jumpi\n      dup1\n      0xae4be355\n      eq\n      tag_6\n      jumpi\n      dup1\n      0xcabe0452\n      eq\n      tag_7\n      jumpi\n    tag_2:\n      revert(0x00, 0x00)\n        /* \"CampaignManager.sol\":938:1556  function createCampaign(string memory camp_name,string memory camp_desc,string memory camp_location,uint256 camp_targetAmount) public ... */\n    tag_3:\n      tag_8\n      0x04\n      dup1\n      calldatasize\n      sub\n      dup2\n      add\n      swap1\n      tag_9\n      swap2\n      swap1\n      tag_10\n      jump\t// in\n    tag_9:\n      tag_11\n      jump\t// in\n    tag_8:\n      stop\n        /* \"CampaignManager.sol\":1870:2209  function closeCampaign(bytes32 id) public {... */\n    tag_4:\n      tag_12\n      0x04\n      dup1\n      calldatasize\n      sub\n      dup2\n      add\n      swap1\n      tag_13\n      swap2\n      swap1\n      tag_14\n      jump\t// in\n    tag_13:\n      tag_15\n      jump\t// in\n    tag_12:\n      stop\n        /* \"CampaignManager.sol\":387:412  bytes32 public campaignId */\n    tag_5:\n      tag_16\n      tag_17\n      jump\t// in\n    tag_16:\n      mload(0x40)\n      tag_18\n      swap2\n      swap1\n      tag_19\n      jump\t// in\n    tag_18:\n      mload(0x40)\n      dup1\n      swap2\n      sub\n      swap1\n      return\n        /* \"CampaignManager.sol\":421:470  mapping (bytes32 => newCampaign) public Campaigns */\n    tag_6:\n      tag_20\n      0x04\n      dup1\n      calldatasize\n      sub\n      dup2\n      add\n      swap1\n      tag_21\n      swap2\n      swap1\n      tag_14\n      jump\t// in\n    tag_21:\n      tag_22\n      jump\t// in\n    tag_20:\n      mload(0x40)\n      tag_23\n      swap9\n      swap8\n      swap7\n      swap6\n      swap5\n      swap4\n      swap3\n      swap2\n      swap1\n      tag_24\n      jump\t// in\n    tag_23:\n      mload(0x40)\n      dup1\n      swap2\n      sub\n      swap1\n      return\n        /* \"CampaignManager.sol\":1564:1862  function getCampaign(bytes32 id) public view returns(string memory,string memory,string memory,uint256,uint256,bool) ... */\n    tag_7:\n      tag_25\n      0x04\n      dup1\n      calldatasize\n      sub\n      dup2\n      add\n      swap1\n      tag_26\n      swap2\n      swap1\n      tag_14\n      jump\t// in\n    tag_26:\n      tag_27\n      jump\t// in\n    tag_25:\n      mload(0x40)\n      tag_28\n      swap7\n      swap6\n      swap5\n      swap4\n      swap3\n      swap2\n      swap1\n      tag_29\n      jump\t// in\n    tag_28:\n      mload(0x40)\n      dup1\n      swap2\n      sub\n      swap1\n      return\n        /* \"CampaignManager.sol\":938:1556  function createCampaign(string memory camp_name,string memory camp_desc,string memory camp_location,uint256 camp_targetAmount) public ... */\n    tag_11:\n        /* \"CampaignManager.sol\":1102:1122  uniqueIdGenearator() */\n      tag_31\n        /* \"CampaignManager.sol\":1102:1120  uniqueIdGenearator */\n      tag_32\n        /* \"CampaignManager.sol\":1102:1122  uniqueIdGenearator() */\n      jump\t// in\n    tag_31:\n        /* \"CampaignManager.sol\":1089:1099  campaignId */\n      0x00\n        /* \"CampaignManager.sol\":1089:1122  campaignId = uniqueIdGenearator() */\n      dup2\n      swap1\n      sstore\n      pop\n        /* \"CampaignManager.sol\":1157:1461  newCampaign({... */\n      mload(0x40)\n      dup1\n      0x0100\n      add\n      0x40\n      mstore\n      dup1\n        /* \"CampaignManager.sol\":1197:1207  campaignId */\n      sload(0x00)\n        /* \"CampaignManager.sol\":1157:1461  newCampaign({... */\n      dup2\n      mstore\n      0x20\n      add\n        /* \"CampaignManager.sol\":1229:1238  camp_name */\n      dup6\n        /* \"CampaignManager.sol\":1157:1461  newCampaign({... */\n      dup2\n      mstore\n      0x20\n      add\n        /* \"CampaignManager.sol\":1266:1275  camp_desc */\n      dup5\n        /* \"CampaignManager.sol\":1157:1461  newCampaign({... */\n      dup2\n      mstore\n      0x20\n      add\n        /* \"CampaignManager.sol\":1300:1313  camp_location */\n      dup4\n        /* \"CampaignManager.sol\":1157:1461  newCampaign({... */\n      dup2\n      mstore\n      0x20\n      add\n        /* \"CampaignManager.sol\":1333:1343  msg.sender */\n      caller\n        /* \"CampaignManager.sol\":1157:1461  newCampaign({... */\n      0xffffffffffffffffffffffffffffffffffffffff\n      and\n      dup2\n      mstore\n      0x20\n      add\n        /* \"CampaignManager.sol\":1372:1389  camp_targetAmount */\n      dup3\n        /* \"CampaignManager.sol\":1157:1461  newCampaign({... */\n      dup2\n      mstore\n      0x20\n      add\n        /* \"CampaignManager.sol\":1419:1420  0 */\n      0x00\n        /* \"CampaignManager.sol\":1157:1461  newCampaign({... */\n      dup2\n      mstore\n      0x20\n      add\n        /* \"CampaignManager.sol\":1445:1449  true */\n      0x01\n        /* \"CampaignManager.sol\":1157:1461  newCampaign({... */\n      iszero\n      iszero\n      dup2\n      mstore\n      pop\n        /* \"CampaignManager.sol\":1133:1142  Campaigns */\n      0x01\n        /* \"CampaignManager.sol\":1133:1154  Campaigns[campaignId] */\n      0x00\n        /* \"CampaignManager.sol\":1143:1153  campaignId */\n      sload(0x00)\n        /* \"CampaignManager.sol\":1133:1154  Campaigns[campaignId] */\n      dup2\n      mstore\n      0x20\n      add\n      swap1\n      dup2\n      mstore\n      0x20\n      add\n      0x00\n      keccak256\n        /* \"CampaignManager.sol\":1133:1461  Campaigns[campaignId] = newCampaign({... */\n      0x00\n      dup3\n      add\n      mload\n      dup2\n      0x00\n      add\n      sstore\n      0x20\n      dup3\n      add\n      mload\n      dup2\n      0x01\n      add\n      swap1\n      dup2\n      tag_33\n      swap2\n      swap1\n      tag_34\n      jump\t// in\n    tag_33:\n      pop\n      0x40\n      dup3\n      add\n      mload\n      dup2\n      0x02\n      add\n      swap1\n      dup2\n      tag_35\n      swap2\n      swap1\n      tag_34\n      jump\t// in\n    tag_35:\n      pop\n      0x60\n      dup3\n      add\n      mload\n      dup2\n      0x03\n      add\n      swap1\n      dup2\n      tag_36\n      swap2\n      swap1\n      tag_34\n      jump\t// in\n    tag_36:\n      pop\n      0x80\n      dup3\n      add\n      mload\n      dup2\n      0x04\n      add\n      exp(0x0100, 0x00)\n      dup2\n      sload\n      dup2\n      0xffffffffffffffffffffffffffffffffffffffff\n      mul\n      not\n      and\n      swap1\n      dup4\n      0xffffffffffffffffffffffffffffffffffffffff\n      and\n      mul\n      or\n      swap1\n      sstore\n      pop\n      0xa0\n      dup3\n      add\n      mload\n      dup2\n      0x05\n      add\n      sstore\n      0xc0\n      dup3\n      add\n      mload\n      dup2\n      0x06\n      add\n      sstore\n      0xe0\n      dup3\n      add\n      mload\n      dup2\n      0x07\n      add\n      exp(0x0100, 0x00)\n      dup2\n      sload\n      dup2\n      0xff\n      mul\n      not\n      and\n      swap1\n      dup4\n      iszero\n      iszero\n      mul\n      or\n      swap1\n      sstore\n      pop\n      swap1\n      pop\n      pop\n        /* \"CampaignManager.sol\":1518:1528  msg.sender */\n      caller\n        /* \"CampaignManager.sol\":1479:1548  CampaignCreated(campaignId, camp_name, msg.sender, camp_targetAmount) */\n      0xffffffffffffffffffffffffffffffffffffffff\n      and\n        /* \"CampaignManager.sol\":1495:1505  campaignId */\n      sload(0x00)\n        /* \"CampaignManager.sol\":1479:1548  CampaignCreated(campaignId, camp_name, msg.sender, camp_targetAmount) */\n      0xf06e7326656aba6aa1b1843cb7fecf5ba35e15233a4c34c11deb25205faa7cd3\n        /* \"CampaignManager.sol\":1507:1516  camp_name */\n      dup7\n        /* \"CampaignManager.sol\":1530:1547  camp_targetAmount */\n      dup5\n        /* \"CampaignManager.sol\":1479:1548  CampaignCreated(campaignId, camp_name, msg.sender, camp_targetAmount) */\n      mload(0x40)\n      tag_37\n      swap3\n      swap2\n      swap1\n      tag_38\n      jump\t// in\n    tag_37:\n      mload(0x40)\n      dup1\n      swap2\n      sub\n      swap1\n      log3\n        /* \"CampaignManager.sol\":938:1556  function createCampaign(string memory camp_name,string memory camp_desc,string memory camp_location,uint256 camp_targetAmount) public ... */\n      pop\n      pop\n      pop\n      pop\n      jump\t// out\n        /* \"CampaignManager.sol\":1870:2209  function closeCampaign(bytes32 id) public {... */\n    tag_15:\n        /* \"CampaignManager.sol\":1959:1968  Campaigns */\n      0x01\n        /* \"CampaignManager.sol\":1959:1972  Campaigns[id] */\n      0x00\n        /* \"CampaignManager.sol\":1969:1971  id */\n      dup3\n        /* \"CampaignManager.sol\":1959:1972  Campaigns[id] */\n      dup2\n      mstore\n      0x20\n      add\n      swap1\n      dup2\n      mstore\n      0x20\n      add\n      0x00\n      keccak256\n        /* \"CampaignManager.sol\":1959:1976  Campaigns[id].ngo */\n      0x04\n      add\n      0x00\n      swap1\n      sload\n      swap1\n      0x0100\n      exp\n      swap1\n      div\n      0xffffffffffffffffffffffffffffffffffffffff\n      and\n        /* \"CampaignManager.sol\":1945:1976  msg.sender == Campaigns[id].ngo */\n      0xffffffffffffffffffffffffffffffffffffffff\n      and\n        /* \"CampaignManager.sol\":1945:1955  msg.sender */\n      caller\n        /* \"CampaignManager.sol\":1945:1976  msg.sender == Campaigns[id].ngo */\n      0xffffffffffffffffffffffffffffffffffffffff\n      and\n      eq\n        /* \"CampaignManager.sol\":1923:2112  require(... */\n      tag_40\n      jumpi\n      mload(0x40)\n      0x08c379a000000000000000000000000000000000000000000000000000000000\n      dup2\n      mstore\n      0x04\n      add\n      tag_41\n      swap1\n      tag_42\n      jump\t// in\n    tag_41:\n      mload(0x40)\n      dup1\n      swap2\n      sub\n      swap1\n      revert\n    tag_40:\n        /* \"CampaignManager.sol\":2148:2153  false */\n      0x00\n        /* \"CampaignManager.sol\":2123:2132  Campaigns */\n      0x01\n        /* \"CampaignManager.sol\":2123:2136  Campaigns[id] */\n      0x00\n        /* \"CampaignManager.sol\":2133:2135  id */\n      dup4\n        /* \"CampaignManager.sol\":2123:2136  Campaigns[id] */\n      dup2\n      mstore\n      0x20\n      add\n      swap1\n      dup2\n      mstore\n      0x20\n      add\n      0x00\n      keccak256\n        /* \"CampaignManager.sol\":2123:2145  Campaigns[id].isActive */\n      0x07\n      add\n      0x00\n        /* \"CampaignManager.sol\":2123:2153  Campaigns[id].isActive = false */\n      0x0100\n      exp\n      dup2\n      sload\n      dup2\n      0xff\n      mul\n      not\n      and\n      swap1\n      dup4\n      iszero\n      iszero\n      mul\n      or\n      swap1\n      sstore\n      pop\n        /* \"CampaignManager.sol\":2190:2200  msg.sender */\n      caller\n        /* \"CampaignManager.sol\":2171:2201  CampaignClosed(id, msg.sender) */\n      0xffffffffffffffffffffffffffffffffffffffff\n      and\n        /* \"CampaignManager.sol\":2186:2188  id */\n      dup2\n        /* \"CampaignManager.sol\":2171:2201  CampaignClosed(id, msg.sender) */\n      0x3f3339f8794d1bfb806c618a74d02f8393885d62139c8bc23d96c7247e6261d6\n      mload(0x40)\n      mload(0x40)\n      dup1\n      swap2\n      sub\n      swap1\n      log3\n        /* \"CampaignManager.sol\":1870:2209  function closeCampaign(bytes32 id) public {... */\n      pop\n      jump\t// out\n        /* \"CampaignManager.sol\":387:412  bytes32 public campaignId */\n    tag_17:\n      sload(0x00)\n      dup2\n      jump\t// out\n        /* \"CampaignManager.sol\":421:470  mapping (bytes32 => newCampaign) public Campaigns */\n    tag_22:\n      mstore(0x20, 0x01)\n      dup1\n      0x00\n      mstore\n      keccak256(0x00, 0x40)\n      0x00\n      swap2\n      pop\n      swap1\n      pop\n      dup1\n      0x00\n      add\n      sload\n      swap1\n      dup1\n      0x01\n      add\n      dup1\n      sload\n      tag_43\n      swap1\n      tag_44\n      jump\t// in\n    tag_43:\n      dup1\n      0x1f\n      add\n      0x20\n      dup1\n      swap2\n      div\n      mul\n      0x20\n      add\n      mload(0x40)\n      swap1\n      dup2\n      add\n      0x40\n      mstore\n      dup1\n      swap3\n      swap2\n      swap1\n      dup2\n      dup2\n      mstore\n      0x20\n      add\n      dup3\n      dup1\n      sload\n      tag_45\n      swap1\n      tag_44\n      jump\t// in\n    tag_45:\n      dup1\n      iszero\n      tag_46\n      jumpi\n      dup1\n      0x1f\n      lt\n      tag_47\n      jumpi\n      0x0100\n      dup1\n      dup4\n      sload\n      div\n      mul\n      dup4\n      mstore\n      swap2\n      0x20\n      add\n      swap2\n      jump(tag_46)\n    tag_47:\n      dup3\n      add\n      swap2\n      swap1\n      0x00\n      mstore\n      keccak256(0x00, 0x20)\n      swap1\n    tag_48:\n      dup2\n      sload\n      dup2\n      mstore\n      swap1\n      0x01\n      add\n      swap1\n      0x20\n      add\n      dup1\n      dup4\n      gt\n      tag_48\n      jumpi\n      dup3\n      swap1\n      sub\n      0x1f\n      and\n      dup3\n      add\n      swap2\n    tag_46:\n      pop\n      pop\n      pop\n      pop\n      pop\n      swap1\n      dup1\n      0x02\n      add\n      dup1\n      sload\n      tag_49\n      swap1\n      tag_44\n      jump\t// in\n    tag_49:\n      dup1\n      0x1f\n      add\n      0x20\n      dup1\n      swap2\n      div\n      mul\n      0x20\n      add\n      mload(0x40)\n      swap1\n      dup2\n      add\n      0x40\n      mstore\n      dup1\n      swap3\n      swap2\n      swap1\n      dup2\n      dup2\n      mstore\n      0x20\n      add\n      dup3\n      dup1\n      sload\n      tag_50\n      swap1\n      tag_44\n      jump\t// in\n    tag_50:\n      dup1\n      iszero\n      tag_51\n      jumpi\n      dup1\n      0x1f\n      lt\n      tag_52\n      jumpi\n      0x0100\n      dup1\n      dup4\n      sload\n      div\n      mul\n      dup4\n      mstore\n      swap2\n      0x20\n      add\n      swap2\n      jump(tag_51)\n    tag_52:\n      dup3\n      add\n      swap2\n      swap1\n      0x00\n      mstore\n      keccak256(0x00, 0x20)\n      swap1\n    tag_53:\n      dup2\n      sload\n      dup2\n      mstore\n      swap1\n      0x01\n      add\n      swap1\n      0x20\n      add\n      dup1\n      dup4\n      gt\n      tag_53\n      jumpi\n      dup3\n      swap1\n      sub\n      0x1f\n      and\n      dup3\n      add\n      swap2\n    tag_51:\n      pop\n      pop\n      pop\n      pop\n      pop\n      swap1\n      dup1\n      0x03\n      add\n      dup1\n      sload\n      tag_54\n      swap1\n      tag_44\n      jump\t// in\n    tag_54:\n      dup1\n      0x1f\n      add\n      0x20\n      dup1\n      swap2\n      div\n      mul\n      0x20\n      add\n      mload(0x40)\n      swap1\n      dup2\n      add\n      0x40\n      mstore\n      dup1\n      swap3\n      swap2\n      swap1\n      dup2\n      dup2\n      mstore\n      0x20\n      add\n      dup3\n      dup1\n      sload\n      tag_55\n      swap1\n      tag_44\n      jump\t// in\n    tag_55:\n      dup1\n      iszero\n      tag_56\n      jumpi\n      dup1\n      0x1f\n      lt\n      tag_57\n      jumpi\n      0x0100\n      dup1\n      dup4\n      sload\n      div\n      mul\n      dup4\n      mstore\n      swap2\n      0x20\n      add\n      swap2\n      jump(tag_56)\n    tag_57:\n      dup3\n      add\n      swap2\n      swap1\n      0x00\n      mstore\n      keccak256(0x00, 0x20)\n      swap1\n    tag_58:\n      dup2\n      sload\n      dup2\n      mstore\n      swap1\n      0x01\n      add\n      swap1\n      0x20\n      add\n      dup1\n      dup4\n      gt\n      tag_58\n      jumpi\n      dup3\n      swap1\n      sub\n      0x1f\n      and\n      dup3\n      add\n      swap2\n    tag_56:\n      pop\n      pop\n      pop\n      pop\n      pop\n      swap1\n      dup1\n      0x04\n      add\n      0x00\n      swap1\n      sload\n      swap1\n      0x0100\n      exp\n      swap1\n      div\n      0xffffffffffffffffffffffffffffffffffffffff\n      and\n      swap1\n      dup1\n      0x05\n      add\n      sload\n      swap1\n      dup1\n      0x06\n      add\n      sload\n      swap1\n      dup1\n      0x07\n      add\n      0x00\n      swap1\n      sload\n      swap1\n      0x0100\n      exp\n      swap1\n      div\n      0xff\n      and\n      swap1\n      pop\n      dup9\n      jump\t// out\n        /* \"CampaignManager.sol\":1564:1862  function getCampaign(bytes32 id) public view returns(string memory,string memory,string memory,uint256,uint256,bool) ... */\n    tag_27:\n        /* \"CampaignManager.sol\":1617:1630  string memory */\n      0x60\n        /* \"CampaignManager.sol\":1631:1644  string memory */\n      dup1\n        /* \"CampaignManager.sol\":1645:1658  string memory */\n      0x60\n        /* \"CampaignManager.sol\":1659:1666  uint256 */\n      0x00\n        /* \"CampaignManager.sol\":1667:1674  uint256 */\n      0x00\n        /* \"CampaignManager.sol\":1675:1679  bool */\n      0x00\n        /* \"CampaignManager.sol\":1698:1721  newCampaign memory camp */\n      0x00\n        /* \"CampaignManager.sol\":1724:1733  Campaigns */\n      0x01\n        /* \"CampaignManager.sol\":1724:1737  Campaigns[id] */\n      0x00\n        /* \"CampaignManager.sol\":1734:1736  id */\n      dup10\n        /* \"CampaignManager.sol\":1724:1737  Campaigns[id] */\n      dup2\n      mstore\n      0x20\n      add\n      swap1\n      dup2\n      mstore\n      0x20\n      add\n      0x00\n      keccak256\n        /* \"CampaignManager.sol\":1698:1737  newCampaign memory camp = Campaigns[id] */\n      mload(0x40)\n      dup1\n      0x0100\n      add\n      0x40\n      mstore\n      swap1\n      dup2\n      0x00\n      dup3\n      add\n      sload\n      dup2\n      mstore\n      0x20\n      add\n      0x01\n      dup3\n      add\n      dup1\n      sload\n      tag_60\n      swap1\n      tag_44\n      jump\t// in\n    tag_60:\n      dup1\n      0x1f\n      add\n      0x20\n      dup1\n      swap2\n      div\n      mul\n      0x20\n      add\n      mload(0x40)\n      swap1\n      dup2\n      add\n      0x40\n      mstore\n      dup1\n      swap3\n      swap2\n      swap1\n      dup2\n      dup2\n      mstore\n      0x20\n      add\n      dup3\n      dup1\n      sload\n      tag_61\n      swap1\n      tag_44\n      jump\t// in\n    tag_61:\n      dup1\n      iszero\n      tag_62\n      jumpi\n      dup1\n      0x1f\n      lt\n      tag_63\n      jumpi\n      0x0100\n      dup1\n      dup4\n      sload\n      div\n      mul\n      dup4\n      mstore\n      swap2\n      0x20\n      add\n      swap2\n      jump(tag_62)\n    tag_63:\n      dup3\n      add\n      swap2\n      swap1\n      0x00\n      mstore\n      keccak256(0x00, 0x20)\n      swap1\n    tag_64:\n      dup2\n      sload\n      dup2\n      mstore\n      swap1\n      0x01\n      add\n      swap1\n      0x20\n      add\n      dup1\n      dup4\n      gt\n      tag_64\n      jumpi\n      dup3\n      swap1\n      sub\n      0x1f\n      and\n      dup3\n      add\n      swap2\n    tag_62:\n      pop\n      pop\n      pop\n      pop\n      pop\n      dup2\n      mstore\n      0x20\n      add\n      0x02\n      dup3\n      add\n      dup1\n      sload\n      tag_65\n      swap1\n      tag_44\n      jump\t// in\n    tag_65:\n      dup1\n      0x1f\n      add\n      0x20\n      dup1\n      swap2\n      div\n      mul\n      0x20\n      add\n      mload(0x40)\n      swap1\n      dup2\n      add\n      0x40\n      mstore\n      dup1\n      swap3\n      swap2\n      swap1\n      dup2\n      dup2\n      mstore\n      0x20\n      add\n      dup3\n      dup1\n      sload\n      tag_66\n      swap1\n      tag_44\n      jump\t// in\n    tag_66:\n      dup1\n      iszero\n      tag_67\n      jumpi\n      dup1\n      0x1f\n      lt\n      tag_68\n      jumpi\n      0x0100\n      dup1\n      dup4\n      sload\n      div\n      mul\n      dup4\n      mstore\n      swap2\n      0x20\n      add\n      swap2\n      jump(tag_67)\n    tag_68:\n      dup3\n      add\n      swap2\n      swap1\n      0x00\n      mstore\n      keccak256(0x00, 0x20)\n      swap1\n    tag_69:\n      dup2\n      sload\n      dup2\n      mstore\n      swap1\n      0x01\n      add\n      swap1\n      0x20\n      add\n      dup1\n      dup4\n      gt\n      tag_69\n      jumpi\n      dup3\n      swap1\n      sub\n      0x1f\n      and\n      dup3\n      add\n      swap2\n    tag_67:\n      pop\n      pop\n      pop\n      pop\n      pop\n      dup2\n      mstore\n      0x20\n      add\n      0x03\n      dup3\n      add\n      dup1\n      sload\n      tag_70\n      swap1\n      tag_44\n      jump\t// in\n    tag_70:\n      dup1\n      0x1f\n      add\n      0x20\n      dup1\n      swap2\n      div\n      mul\n      0x20\n      add\n      mload(0x40)\n      swap1\n      dup2\n      add\n      0x40\n      mstore\n      dup1\n      swap3\n      swap2\n      swap1\n      dup2\n      dup2\n      mstore\n      0x20\n      add\n      dup3\n      dup1\n      sload\n      tag_71\n      swap1\n      tag_44\n      jump\t// in\n    tag_71:\n      dup1\n      iszero\n      tag_72\n      jumpi\n      dup1\n      0x1f\n      lt\n      tag_73\n      jumpi\n      0x0100\n      dup1\n      dup4\n      sload\n      div\n      mul\n      dup4\n      mstore\n      swap2\n      0x20\n      add\n      swap2\n      jump(tag_72)\n    tag_73:\n      dup3\n      add\n      swap2\n      swap1\n      0x00\n      mstore\n      keccak256(0x00, 0x20)\n      swap1\n    tag_74:\n      dup2\n      sload\n      dup2\n      mstore\n      swap1\n      0x01\n      add\n      swap1\n      0x20\n      add\n      dup1\n      dup4\n      gt\n      tag_74\n      jumpi\n      dup3\n      swap1\n      sub\n      0x1f\n      and\n      dup3\n      add\n      swap2\n    tag_72:\n      pop\n      pop\n      pop\n      pop\n      pop\n      dup2\n      mstore\n      0x20\n      add\n      0x04\n      dup3\n      add\n      0x00\n      swap1\n      sload\n      swap1\n      0x0100\n      exp\n      swap1\n      div\n      0xffffffffffffffffffffffffffffffffffffffff\n      and\n      0xffffffffffffffffffffffffffffffffffffffff\n      and\n      0xffffffffffffffffffffffffffffffffffffffff\n      and\n      dup2\n      mstore\n      0x20\n      add\n      0x05\n      dup3\n      add\n      sload\n      dup2\n      mstore\n      0x20\n      add\n      0x06\n      dup3\n      add\n      sload\n      dup2\n      mstore\n      0x20\n      add\n      0x07\n      dup3\n      add\n      0x00\n      swap1\n      sload\n      swap1\n      0x0100\n      exp\n      swap1\n      div\n      0xff\n      and\n      iszero\n      iszero\n      iszero\n      iszero\n      dup2\n      mstore\n      pop\n      pop\n      swap1\n      pop\n        /* \"CampaignManager.sol\":1756:1760  camp */\n      dup1\n        /* \"CampaignManager.sol\":1756:1766  camp.title */\n      0x20\n      add\n      mload\n        /* \"CampaignManager.sol\":1768:1772  camp */\n      dup2\n        /* \"CampaignManager.sol\":1768:1784  camp.description */\n      0x40\n      add\n      mload\n        /* \"CampaignManager.sol\":1786:1790  camp */\n      dup3\n        /* \"CampaignManager.sol\":1786:1799  camp.location */\n      0x60\n      add\n      mload\n        /* \"CampaignManager.sol\":1801:1805  camp */\n      dup4\n        /* \"CampaignManager.sol\":1801:1818  camp.targetAmount */\n      0xa0\n      add\n      mload\n        /* \"CampaignManager.sol\":1820:1824  camp */\n      dup5\n        /* \"CampaignManager.sol\":1820:1838  camp.totalReceived */\n      0xc0\n      add\n      mload\n        /* \"CampaignManager.sol\":1840:1844  camp */\n      dup6\n        /* \"CampaignManager.sol\":1840:1853  camp.isActive */\n      0xe0\n      add\n      mload\n        /* \"CampaignManager.sol\":1748:1854  return (camp.title, camp.description, camp.location, camp.targetAmount, camp.totalReceived, camp.isActive) */\n      swap7\n      pop\n      swap7\n      pop\n      swap7\n      pop\n      swap7\n      pop\n      swap7\n      pop\n      swap7\n      pop\n      pop\n        /* \"CampaignManager.sol\":1564:1862  function getCampaign(bytes32 id) public view returns(string memory,string memory,string memory,uint256,uint256,bool) ... */\n      swap2\n      swap4\n      swap6\n      pop\n      swap2\n      swap4\n      swap6\n      jump\t// out\n        /* \"CampaignManager.sol\":693:930  function uniqueIdGenearator() private view returns(bytes32) {... */\n    tag_32:\n        /* \"CampaignManager.sol\":744:751  bytes32 */\n      0x00\n        /* \"CampaignManager.sol\":764:774  bytes32 id */\n      0x00\n        /* \"CampaignManager.sol\":818:828  msg.sender */\n      caller\n        /* \"CampaignManager.sol\":830:845  block.timestamp */\n      timestamp\n        /* \"CampaignManager.sol\":847:863  block.prevrandao */\n      prevrandao\n        /* \"CampaignManager.sol\":888:889  1 */\n      0x01\n        /* \"CampaignManager.sol\":875:887  block.number */\n      number\n        /* \"CampaignManager.sol\":875:889  block.number-1 */\n      tag_76\n      swap2\n      swap1\n      tag_77\n      jump\t// in\n    tag_76:\n        /* \"CampaignManager.sol\":865:890  blockhash(block.number-1) */\n      blockhash\n        /* \"CampaignManager.sol\":801:891  abi.encodePacked(msg.sender, block.timestamp, block.prevrandao, blockhash(block.number-1)) */\n      add(0x20, mload(0x40))\n      tag_78\n      swap5\n      swap4\n      swap3\n      swap2\n      swap1\n      tag_79\n      jump\t// in\n    tag_78:\n      mload(0x40)\n      0x20\n      dup2\n      dup4\n      sub\n      sub\n      dup2\n      mstore\n      swap1\n      0x40\n      mstore\n        /* \"CampaignManager.sol\":777:902  keccak256(... */\n      dup1\n      mload\n      swap1\n      0x20\n      add\n      keccak256\n        /* \"CampaignManager.sol\":764:902  bytes32 id = keccak256(... */\n      swap1\n      pop\n        /* \"CampaignManager.sol\":920:922  id */\n      dup1\n        /* \"CampaignManager.sol\":913:922  return id */\n      swap2\n      pop\n      pop\n        /* \"CampaignManager.sol\":693:930  function uniqueIdGenearator() private view returns(bytes32) {... */\n      swap1\n      jump\t// out\n        /* \"#utility.yul\":7:82   */\n    tag_80:\n        /* \"#utility.yul\":40:46   */\n      0x00\n        /* \"#utility.yul\":73:75   */\n      0x40\n        /* \"#utility.yul\":67:76   */\n      mload\n        /* \"#utility.yul\":57:76   */\n      swap1\n      pop\n        /* \"#utility.yul\":7:82   */\n      swap1\n      jump\t// out\n        /* \"#utility.yul\":88:205   */\n    tag_81:\n        /* \"#utility.yul\":197:198   */\n      0x00\n        /* \"#utility.yul\":194:195   */\n      0x00\n        /* \"#utility.yul\":187:199   */\n      revert\n        /* \"#utility.yul\":211:328   */\n    tag_82:\n        /* \"#utility.yul\":320:321   */\n      0x00\n        /* \"#utility.yul\":317:318   */\n      0x00\n        /* \"#utility.yul\":310:322   */\n      revert\n        /* \"#utility.yul\":334:451   */\n    tag_83:\n        /* \"#utility.yul\":443:444   */\n      0x00\n        /* \"#utility.yul\":440:441   */\n      0x00\n        /* \"#utility.yul\":433:445   */\n      revert\n        /* \"#utility.yul\":457:574   */\n    tag_84:\n        /* \"#utility.yul\":566:567   */\n      0x00\n        /* \"#utility.yul\":563:564   */\n      0x00\n        /* \"#utility.yul\":556:568   */\n      revert\n        /* \"#utility.yul\":580:682   */\n    tag_85:\n        /* \"#utility.yul\":621:627   */\n      0x00\n        /* \"#utility.yul\":672:674   */\n      0x1f\n        /* \"#utility.yul\":668:675   */\n      not\n        /* \"#utility.yul\":663:665   */\n      0x1f\n        /* \"#utility.yul\":656:661   */\n      dup4\n        /* \"#utility.yul\":652:666   */\n      add\n        /* \"#utility.yul\":648:676   */\n      and\n        /* \"#utility.yul\":638:676   */\n      swap1\n      pop\n        /* \"#utility.yul\":580:682   */\n      swap2\n      swap1\n      pop\n      jump\t// out\n        /* \"#utility.yul\":688:868   */\n    tag_86:\n        /* \"#utility.yul\":736:813   */\n      0x4e487b7100000000000000000000000000000000000000000000000000000000\n        /* \"#utility.yul\":733:734   */\n      0x00\n        /* \"#utility.yul\":726:814   */\n      mstore\n        /* \"#utility.yul\":833:837   */\n      0x41\n        /* \"#utility.yul\":830:831   */\n      0x04\n        /* \"#utility.yul\":823:838   */\n      mstore\n        /* \"#utility.yul\":857:861   */\n      0x24\n        /* \"#utility.yul\":854:855   */\n      0x00\n        /* \"#utility.yul\":847:862   */\n      revert\n        /* \"#utility.yul\":874:1155   */\n    tag_87:\n        /* \"#utility.yul\":957:984   */\n      tag_146\n        /* \"#utility.yul\":979:983   */\n      dup3\n        /* \"#utility.yul\":957:984   */\n      tag_85\n      jump\t// in\n    tag_146:\n        /* \"#utility.yul\":949:955   */\n      dup2\n        /* \"#utility.yul\":945:985   */\n      add\n        /* \"#utility.yul\":1087:1093   */\n      dup2\n        /* \"#utility.yul\":1075:1085   */\n      dup2\n        /* \"#utility.yul\":1072:1094   */\n      lt\n        /* \"#utility.yul\":1051:1069   */\n      0xffffffffffffffff\n        /* \"#utility.yul\":1039:1049   */\n      dup3\n        /* \"#utility.yul\":1036:1070   */\n      gt\n        /* \"#utility.yul\":1033:1095   */\n      or\n        /* \"#utility.yul\":1030:1118   */\n      iszero\n      tag_147\n      jumpi\n        /* \"#utility.yul\":1098:1116   */\n      tag_148\n      tag_86\n      jump\t// in\n    tag_148:\n        /* \"#utility.yul\":1030:1118   */\n    tag_147:\n        /* \"#utility.yul\":1138:1148   */\n      dup1\n        /* \"#utility.yul\":1134:1136   */\n      0x40\n        /* \"#utility.yul\":1127:1149   */\n      mstore\n        /* \"#utility.yul\":917:1155   */\n      pop\n        /* \"#utility.yul\":874:1155   */\n      pop\n      pop\n      jump\t// out\n        /* \"#utility.yul\":1161:1290   */\n    tag_88:\n        /* \"#utility.yul\":1195:1201   */\n      0x00\n        /* \"#utility.yul\":1222:1242   */\n      tag_150\n      tag_80\n      jump\t// in\n    tag_150:\n        /* \"#utility.yul\":1212:1242   */\n      swap1\n      pop\n        /* \"#utility.yul\":1251:1284   */\n      tag_151\n        /* \"#utility.yul\":1279:1283   */\n      dup3\n        /* \"#utility.yul\":1271:1277   */\n      dup3\n        /* \"#utility.yul\":1251:1284   */\n      tag_87\n      jump\t// in\n    tag_151:\n        /* \"#utility.yul\":1161:1290   */\n      swap2\n      swap1\n      pop\n      jump\t// out\n        /* \"#utility.yul\":1296:1604   */\n    tag_89:\n        /* \"#utility.yul\":1358:1362   */\n      0x00\n        /* \"#utility.yul\":1448:1466   */\n      0xffffffffffffffff\n        /* \"#utility.yul\":1440:1446   */\n      dup3\n        /* \"#utility.yul\":1437:1467   */\n      gt\n        /* \"#utility.yul\":1434:1490   */\n      iszero\n      tag_153\n      jumpi\n        /* \"#utility.yul\":1470:1488   */\n      tag_154\n      tag_86\n      jump\t// in\n    tag_154:\n        /* \"#utility.yul\":1434:1490   */\n    tag_153:\n        /* \"#utility.yul\":1508:1537   */\n      tag_155\n        /* \"#utility.yul\":1530:1536   */\n      dup3\n        /* \"#utility.yul\":1508:1537   */\n      tag_85\n      jump\t// in\n    tag_155:\n        /* \"#utility.yul\":1500:1537   */\n      swap1\n      pop\n        /* \"#utility.yul\":1592:1596   */\n      0x20\n        /* \"#utility.yul\":1586:1590   */\n      dup2\n        /* \"#utility.yul\":1582:1597   */\n      add\n        /* \"#utility.yul\":1574:1597   */\n      swap1\n      pop\n        /* \"#utility.yul\":1296:1604   */\n      swap2\n      swap1\n      pop\n      jump\t// out\n        /* \"#utility.yul\":1610:1758   */\n    tag_90:\n        /* \"#utility.yul\":1708:1714   */\n      dup3\n        /* \"#utility.yul\":1703:1706   */\n      dup2\n        /* \"#utility.yul\":1698:1701   */\n      dup4\n        /* \"#utility.yul\":1685:1715   */\n      calldatacopy\n        /* \"#utility.yul\":1749:1750   */\n      0x00\n        /* \"#utility.yul\":1740:1746   */\n      dup4\n        /* \"#utility.yul\":1735:1738   */\n      dup4\n        /* \"#utility.yul\":1731:1747   */\n      add\n        /* \"#utility.yul\":1724:1751   */\n      mstore\n        /* \"#utility.yul\":1610:1758   */\n      pop\n      pop\n      pop\n      jump\t// out\n        /* \"#utility.yul\":1764:2189   */\n    tag_91:\n        /* \"#utility.yul\":1842:1847   */\n      0x00\n        /* \"#utility.yul\":1867:1933   */\n      tag_158\n        /* \"#utility.yul\":1883:1932   */\n      tag_159\n        /* \"#utility.yul\":1925:1931   */\n      dup5\n        /* \"#utility.yul\":1883:1932   */\n      tag_89\n      jump\t// in\n    tag_159:\n        /* \"#utility.yul\":1867:1933   */\n      tag_88\n      jump\t// in\n    tag_158:\n        /* \"#utility.yul\":1858:1933   */\n      swap1\n      pop\n        /* \"#utility.yul\":1956:1962   */\n      dup3\n        /* \"#utility.yul\":1949:1954   */\n      dup2\n        /* \"#utility.yul\":1942:1963   */\n      mstore\n        /* \"#utility.yul\":1994:1998   */\n      0x20\n        /* \"#utility.yul\":1987:1992   */\n      dup2\n        /* \"#utility.yul\":1983:1999   */\n      add\n        /* \"#utility.yul\":2032:2035   */\n      dup5\n        /* \"#utility.yul\":2023:2029   */\n      dup5\n        /* \"#utility.yul\":2018:2021   */\n      dup5\n        /* \"#utility.yul\":2014:2030   */\n      add\n        /* \"#utility.yul\":2011:2036   */\n      gt\n        /* \"#utility.yul\":2008:2120   */\n      iszero\n      tag_160\n      jumpi\n        /* \"#utility.yul\":2039:2118   */\n      tag_161\n      tag_84\n      jump\t// in\n    tag_161:\n        /* \"#utility.yul\":2008:2120   */\n    tag_160:\n        /* \"#utility.yul\":2129:2183   */\n      tag_162\n        /* \"#utility.yul\":2176:2182   */\n      dup5\n        /* \"#utility.yul\":2171:2174   */\n      dup3\n        /* \"#utility.yul\":2166:2169   */\n      dup6\n        /* \"#utility.yul\":2129:2183   */\n      tag_90\n      jump\t// in\n    tag_162:\n        /* \"#utility.yul\":1848:2189   */\n      pop\n        /* \"#utility.yul\":1764:2189   */\n      swap4\n      swap3\n      pop\n      pop\n      pop\n      jump\t// out\n        /* \"#utility.yul\":2209:2549   */\n    tag_92:\n        /* \"#utility.yul\":2265:2270   */\n      0x00\n        /* \"#utility.yul\":2314:2317   */\n      dup3\n        /* \"#utility.yul\":2307:2311   */\n      0x1f\n        /* \"#utility.yul\":2299:2305   */\n      dup4\n        /* \"#utility.yul\":2295:2312   */\n      add\n        /* \"#utility.yul\":2291:2318   */\n      slt\n        /* \"#utility.yul\":2281:2403   */\n      tag_164\n      jumpi\n        /* \"#utility.yul\":2322:2401   */\n      tag_165\n      tag_83\n      jump\t// in\n    tag_165:\n        /* \"#utility.yul\":2281:2403   */\n    tag_164:\n        /* \"#utility.yul\":2439:2445   */\n      dup2\n        /* \"#utility.yul\":2426:2446   */\n      calldataload\n        /* \"#utility.yul\":2464:2543   */\n      tag_166\n        /* \"#utility.yul\":2539:2542   */\n      dup5\n        /* \"#utility.yul\":2531:2537   */\n      dup3\n        /* \"#utility.yul\":2524:2528   */\n      0x20\n        /* \"#utility.yul\":2516:2522   */\n      dup7\n        /* \"#utility.yul\":2512:2529   */\n      add\n        /* \"#utility.yul\":2464:2543   */\n      tag_91\n      jump\t// in\n    tag_166:\n        /* \"#utility.yul\":2455:2543   */\n      swap2\n      pop\n        /* \"#utility.yul\":2271:2549   */\n      pop\n        /* \"#utility.yul\":2209:2549   */\n      swap3\n      swap2\n      pop\n      pop\n      jump\t// out\n        /* \"#utility.yul\":2555:2632   */\n    tag_93:\n        /* \"#utility.yul\":2592:2599   */\n      0x00\n        /* \"#utility.yul\":2621:2626   */\n      dup2\n        /* \"#utility.yul\":2610:2626   */\n      swap1\n      pop\n        /* \"#utility.yul\":2555:2632   */\n      swap2\n      swap1\n      pop\n      jump\t// out\n        /* \"#utility.yul\":2638:2760   */\n    tag_94:\n        /* \"#utility.yul\":2711:2735   */\n      tag_169\n        /* \"#utility.yul\":2729:2734   */\n      dup2\n        /* \"#utility.yul\":2711:2735   */\n      tag_93\n      jump\t// in\n    tag_169:\n        /* \"#utility.yul\":2704:2709   */\n      dup2\n        /* \"#utility.yul\":2701:2736   */\n      eq\n        /* \"#utility.yul\":2691:2754   */\n      tag_170\n      jumpi\n        /* \"#utility.yul\":2750:2751   */\n      0x00\n        /* \"#utility.yul\":2747:2748   */\n      0x00\n        /* \"#utility.yul\":2740:2752   */\n      revert\n        /* \"#utility.yul\":2691:2754   */\n    tag_170:\n        /* \"#utility.yul\":2638:2760   */\n      pop\n      jump\t// out\n        /* \"#utility.yul\":2766:2905   */\n    tag_95:\n        /* \"#utility.yul\":2812:2817   */\n      0x00\n        /* \"#utility.yul\":2850:2856   */\n      dup2\n        /* \"#utility.yul\":2837:2857   */\n      calldataload\n        /* \"#utility.yul\":2828:2857   */\n      swap1\n      pop\n        /* \"#utility.yul\":2866:2899   */\n      tag_172\n        /* \"#utility.yul\":2893:2898   */\n      dup2\n        /* \"#utility.yul\":2866:2899   */\n      tag_94\n      jump\t// in\n    tag_172:\n        /* \"#utility.yul\":2766:2905   */\n      swap3\n      swap2\n      pop\n      pop\n      jump\t// out\n        /* \"#utility.yul\":2911:4216   */\n    tag_10:\n        /* \"#utility.yul\":3027:3033   */\n      0x00\n        /* \"#utility.yul\":3035:3041   */\n      0x00\n        /* \"#utility.yul\":3043:3049   */\n      0x00\n        /* \"#utility.yul\":3051:3057   */\n      0x00\n        /* \"#utility.yul\":3100:3103   */\n      0x80\n        /* \"#utility.yul\":3088:3097   */\n      dup6\n        /* \"#utility.yul\":3079:3086   */\n      dup8\n        /* \"#utility.yul\":3075:3098   */\n      sub\n        /* \"#utility.yul\":3071:3104   */\n      slt\n        /* \"#utility.yul\":3068:3188   */\n      iszero\n      tag_174\n      jumpi\n        /* \"#utility.yul\":3107:3186   */\n      tag_175\n      tag_81\n      jump\t// in\n    tag_175:\n        /* \"#utility.yul\":3068:3188   */\n    tag_174:\n        /* \"#utility.yul\":3255:3256   */\n      0x00\n        /* \"#utility.yul\":3244:3253   */\n      dup6\n        /* \"#utility.yul\":3240:3257   */\n      add\n        /* \"#utility.yul\":3227:3258   */\n      calldataload\n        /* \"#utility.yul\":3285:3303   */\n      0xffffffffffffffff\n        /* \"#utility.yul\":3277:3283   */\n      dup2\n        /* \"#utility.yul\":3274:3304   */\n      gt\n        /* \"#utility.yul\":3271:3388   */\n      iszero\n      tag_176\n      jumpi\n        /* \"#utility.yul\":3307:3386   */\n      tag_177\n      tag_82\n      jump\t// in\n    tag_177:\n        /* \"#utility.yul\":3271:3388   */\n    tag_176:\n        /* \"#utility.yul\":3412:3475   */\n      tag_178\n        /* \"#utility.yul\":3467:3474   */\n      dup8\n        /* \"#utility.yul\":3458:3464   */\n      dup3\n        /* \"#utility.yul\":3447:3456   */\n      dup9\n        /* \"#utility.yul\":3443:3465   */\n      add\n        /* \"#utility.yul\":3412:3475   */\n      tag_92\n      jump\t// in\n    tag_178:\n        /* \"#utility.yul\":3402:3475   */\n      swap5\n      pop\n        /* \"#utility.yul\":3198:3485   */\n      pop\n        /* \"#utility.yul\":3552:3554   */\n      0x20\n        /* \"#utility.yul\":3541:3550   */\n      dup6\n        /* \"#utility.yul\":3537:3555   */\n      add\n        /* \"#utility.yul\":3524:3556   */\n      calldataload\n        /* \"#utility.yul\":3583:3601   */\n      0xffffffffffffffff\n        /* \"#utility.yul\":3575:3581   */\n      dup2\n        /* \"#utility.yul\":3572:3602   */\n      gt\n        /* \"#utility.yul\":3569:3686   */\n      iszero\n      tag_179\n      jumpi\n        /* \"#utility.yul\":3605:3684   */\n      tag_180\n      tag_82\n      jump\t// in\n    tag_180:\n        /* \"#utility.yul\":3569:3686   */\n    tag_179:\n        /* \"#utility.yul\":3710:3773   */\n      tag_181\n        /* \"#utility.yul\":3765:3772   */\n      dup8\n        /* \"#utility.yul\":3756:3762   */\n      dup3\n        /* \"#utility.yul\":3745:3754   */\n      dup9\n        /* \"#utility.yul\":3741:3763   */\n      add\n        /* \"#utility.yul\":3710:3773   */\n      tag_92\n      jump\t// in\n    tag_181:\n        /* \"#utility.yul\":3700:3773   */\n      swap4\n      pop\n        /* \"#utility.yul\":3495:3783   */\n      pop\n        /* \"#utility.yul\":3850:3852   */\n      0x40\n        /* \"#utility.yul\":3839:3848   */\n      dup6\n        /* \"#utility.yul\":3835:3853   */\n      add\n        /* \"#utility.yul\":3822:3854   */\n      calldataload\n        /* \"#utility.yul\":3881:3899   */\n      0xffffffffffffffff\n        /* \"#utility.yul\":3873:3879   */\n      dup2\n        /* \"#utility.yul\":3870:3900   */\n      gt\n        /* \"#utility.yul\":3867:3984   */\n      iszero\n      tag_182\n      jumpi\n        /* \"#utility.yul\":3903:3982   */\n      tag_183\n      tag_82\n      jump\t// in\n    tag_183:\n        /* \"#utility.yul\":3867:3984   */\n    tag_182:\n        /* \"#utility.yul\":4008:4071   */\n      tag_184\n        /* \"#utility.yul\":4063:4070   */\n      dup8\n        /* \"#utility.yul\":4054:4060   */\n      dup3\n        /* \"#utility.yul\":4043:4052   */\n      dup9\n        /* \"#utility.yul\":4039:4061   */\n      add\n        /* \"#utility.yul\":4008:4071   */\n      tag_92\n      jump\t// in\n    tag_184:\n        /* \"#utility.yul\":3998:4071   */\n      swap3\n      pop\n        /* \"#utility.yul\":3793:4081   */\n      pop\n        /* \"#utility.yul\":4120:4122   */\n      0x60\n        /* \"#utility.yul\":4146:4199   */\n      tag_185\n        /* \"#utility.yul\":4191:4198   */\n      dup8\n        /* \"#utility.yul\":4182:4188   */\n      dup3\n        /* \"#utility.yul\":4171:4180   */\n      dup9\n        /* \"#utility.yul\":4167:4189   */\n      add\n        /* \"#utility.yul\":4146:4199   */\n      tag_95\n      jump\t// in\n    tag_185:\n        /* \"#utility.yul\":4136:4199   */\n      swap2\n      pop\n        /* \"#utility.yul\":4091:4209   */\n      pop\n        /* \"#utility.yul\":2911:4216   */\n      swap3\n      swap6\n      swap2\n      swap5\n      pop\n      swap3\n      pop\n      jump\t// out\n        /* \"#utility.yul\":4222:4299   */\n    tag_96:\n        /* \"#utility.yul\":4259:4266   */\n      0x00\n        /* \"#utility.yul\":4288:4293   */\n      dup2\n        /* \"#utility.yul\":4277:4293   */\n      swap1\n      pop\n        /* \"#utility.yul\":4222:4299   */\n      swap2\n      swap1\n      pop\n      jump\t// out\n        /* \"#utility.yul\":4305:4427   */\n    tag_97:\n        /* \"#utility.yul\":4378:4402   */\n      tag_188\n        /* \"#utility.yul\":4396:4401   */\n      dup2\n        /* \"#utility.yul\":4378:4402   */\n      tag_96\n      jump\t// in\n    tag_188:\n        /* \"#utility.yul\":4371:4376   */\n      dup2\n        /* \"#utility.yul\":4368:4403   */\n      eq\n        /* \"#utility.yul\":4358:4421   */\n      tag_189\n      jumpi\n        /* \"#utility.yul\":4417:4418   */\n      0x00\n        /* \"#utility.yul\":4414:4415   */\n      0x00\n        /* \"#utility.yul\":4407:4419   */\n      revert\n        /* \"#utility.yul\":4358:4421   */\n    tag_189:\n        /* \"#utility.yul\":4305:4427   */\n      pop\n      jump\t// out\n        /* \"#utility.yul\":4433:4572   */\n    tag_98:\n        /* \"#utility.yul\":4479:4484   */\n      0x00\n        /* \"#utility.yul\":4517:4523   */\n      dup2\n        /* \"#utility.yul\":4504:4524   */\n      calldataload\n        /* \"#utility.yul\":4495:4524   */\n      swap1\n      pop\n        /* \"#utility.yul\":4533:4566   */\n      tag_191\n        /* \"#utility.yul\":4560:4565   */\n      dup2\n        /* \"#utility.yul\":4533:4566   */\n      tag_97\n      jump\t// in\n    tag_191:\n        /* \"#utility.yul\":4433:4572   */\n      swap3\n      swap2\n      pop\n      pop\n      jump\t// out\n        /* \"#utility.yul\":4578:4907   */\n    tag_14:\n        /* \"#utility.yul\":4637:4643   */\n      0x00\n        /* \"#utility.yul\":4686:4688   */\n      0x20\n        /* \"#utility.yul\":4674:4683   */\n      dup3\n        /* \"#utility.yul\":4665:4672   */\n      dup5\n        /* \"#utility.yul\":4661:4684   */\n      sub\n        /* \"#utility.yul\":4657:4689   */\n      slt\n        /* \"#utility.yul\":4654:4773   */\n      iszero\n      tag_193\n      jumpi\n        /* \"#utility.yul\":4692:4771   */\n      tag_194\n      tag_81\n      jump\t// in\n    tag_194:\n        /* \"#utility.yul\":4654:4773   */\n    tag_193:\n        /* \"#utility.yul\":4812:4813   */\n      0x00\n        /* \"#utility.yul\":4837:4890   */\n      tag_195\n        /* \"#utility.yul\":4882:4889   */\n      dup5\n        /* \"#utility.yul\":4873:4879   */\n      dup3\n        /* \"#utility.yul\":4862:4871   */\n      dup6\n        /* \"#utility.yul\":4858:4880   */\n      add\n        /* \"#utility.yul\":4837:4890   */\n      tag_98\n      jump\t// in\n    tag_195:\n        /* \"#utility.yul\":4827:4890   */\n      swap2\n      pop\n        /* \"#utility.yul\":4783:4900   */\n      pop\n        /* \"#utility.yul\":4578:4907   */\n      swap3\n      swap2\n      pop\n      pop\n      jump\t// out\n        /* \"#utility.yul\":4913:5031   */\n    tag_99:\n        /* \"#utility.yul\":5000:5024   */\n      tag_197\n        /* \"#utility.yul\":5018:5023   */\n      dup2\n        /* \"#utility.yul\":5000:5024   */\n      tag_96\n      jump\t// in\n    tag_197:\n        /* \"#utility.yul\":4995:4998   */\n      dup3\n        /* \"#utility.yul\":4988:5025   */\n      mstore\n        /* \"#utility.yul\":4913:5031   */\n      pop\n      pop\n      jump\t// out\n        /* \"#utility.yul\":5037:5259   */\n    tag_19:\n        /* \"#utility.yul\":5130:5134   */\n      0x00\n        /* \"#utility.yul\":5168:5170   */\n      0x20\n        /* \"#utility.yul\":5157:5166   */\n      dup3\n        /* \"#utility.yul\":5153:5171   */\n      add\n        /* \"#utility.yul\":5145:5171   */\n      swap1\n      pop\n        /* \"#utility.yul\":5181:5252   */\n      tag_199\n        /* \"#utility.yul\":5249:5250   */\n      0x00\n        /* \"#utility.yul\":5238:5247   */\n      dup4\n        /* \"#utility.yul\":5234:5251   */\n      add\n        /* \"#utility.yul\":5225:5231   */\n      dup5\n        /* \"#utility.yul\":5181:5252   */\n      tag_99\n      jump\t// in\n    tag_199:\n        /* \"#utility.yul\":5037:5259   */\n      swap3\n      swap2\n      pop\n      pop\n      jump\t// out\n        /* \"#utility.yul\":5265:5364   */\n    tag_100:\n        /* \"#utility.yul\":5317:5323   */\n      0x00\n        /* \"#utility.yul\":5351:5356   */\n      dup2\n        /* \"#utility.yul\":5345:5357   */\n      mload\n        /* \"#utility.yul\":5335:5357   */\n      swap1\n      pop\n        /* \"#utility.yul\":5265:5364   */\n      swap2\n      swap1\n      pop\n      jump\t// out\n        /* \"#utility.yul\":5370:5539   */\n    tag_101:\n        /* \"#utility.yul\":5454:5465   */\n      0x00\n        /* \"#utility.yul\":5488:5494   */\n      dup3\n        /* \"#utility.yul\":5483:5486   */\n      dup3\n        /* \"#utility.yul\":5476:5495   */\n      mstore\n        /* \"#utility.yul\":5528:5532   */\n      0x20\n        /* \"#utility.yul\":5523:5526   */\n      dup3\n        /* \"#utility.yul\":5519:5533   */\n      add\n        /* \"#utility.yul\":5504:5533   */\n      swap1\n      pop\n        /* \"#utility.yul\":5370:5539   */\n      swap3\n      swap2\n      pop\n      pop\n      jump\t// out\n        /* \"#utility.yul\":5545:5684   */\n    tag_102:\n        /* \"#utility.yul\":5634:5640   */\n      dup3\n        /* \"#utility.yul\":5629:5632   */\n      dup2\n        /* \"#utility.yul\":5624:5627   */\n      dup4\n        /* \"#utility.yul\":5618:5641   */\n      mcopy\n        /* \"#utility.yul\":5675:5676   */\n      0x00\n        /* \"#utility.yul\":5666:5672   */\n      dup4\n        /* \"#utility.yul\":5661:5664   */\n      dup4\n        /* \"#utility.yul\":5657:5673   */\n      add\n        /* \"#utility.yul\":5650:5677   */\n      mstore\n        /* \"#utility.yul\":5545:5684   */\n      pop\n      pop\n      pop\n      jump\t// out\n        /* \"#utility.yul\":5690:6067   */\n    tag_103:\n        /* \"#utility.yul\":5778:5781   */\n      0x00\n        /* \"#utility.yul\":5806:5845   */\n      tag_204\n        /* \"#utility.yul\":5839:5844   */\n      dup3\n        /* \"#utility.yul\":5806:5845   */\n      tag_100\n      jump\t// in\n    tag_204:\n        /* \"#utility.yul\":5861:5932   */\n      tag_205\n        /* \"#utility.yul\":5925:5931   */\n      dup2\n        /* \"#utility.yul\":5920:5923   */\n      dup6\n        /* \"#utility.yul\":5861:5932   */\n      tag_101\n      jump\t// in\n    tag_205:\n        /* \"#utility.yul\":5854:5932   */\n      swap4\n      pop\n        /* \"#utility.yul\":5941:6006   */\n      tag_206\n        /* \"#utility.yul\":5999:6005   */\n      dup2\n        /* \"#utility.yul\":5994:5997   */\n      dup6\n        /* \"#utility.yul\":5987:5991   */\n      0x20\n        /* \"#utility.yul\":5980:5985   */\n      dup7\n        /* \"#utility.yul\":5976:5992   */\n      add\n        /* \"#utility.yul\":5941:6006   */\n      tag_102\n      jump\t// in\n    tag_206:\n        /* \"#utility.yul\":6031:6060   */\n      tag_207\n        /* \"#utility.yul\":6053:6059   */\n      dup2\n        /* \"#utility.yul\":6031:6060   */\n      tag_85\n      jump\t// in\n    tag_207:\n        /* \"#utility.yul\":6026:6029   */\n      dup5\n        /* \"#utility.yul\":6022:6061   */\n      add\n        /* \"#utility.yul\":6015:6061   */\n      swap2\n      pop\n        /* \"#utility.yul\":5782:6067   */\n      pop\n        /* \"#utility.yul\":5690:6067   */\n      swap3\n      swap2\n      pop\n      pop\n      jump\t// out\n        /* \"#utility.yul\":6073:6199   */\n    tag_104:\n        /* \"#utility.yul\":6110:6117   */\n      0x00\n        /* \"#utility.yul\":6150:6192   */\n      0xffffffffffffffffffffffffffffffffffffffff\n        /* \"#utility.yul\":6143:6148   */\n      dup3\n        /* \"#utility.yul\":6139:6193   */\n      and\n        /* \"#utility.yul\":6128:6193   */\n      swap1\n      pop\n        /* \"#utility.yul\":6073:6199   */\n      swap2\n      swap1\n      pop\n      jump\t// out\n        /* \"#utility.yul\":6205:6301   */\n    tag_105:\n        /* \"#utility.yul\":6242:6249   */\n      0x00\n        /* \"#utility.yul\":6271:6295   */\n      tag_210\n        /* \"#utility.yul\":6289:6294   */\n      dup3\n        /* \"#utility.yul\":6271:6295   */\n      tag_104\n      jump\t// in\n    tag_210:\n        /* \"#utility.yul\":6260:6295   */\n      swap1\n      pop\n        /* \"#utility.yul\":6205:6301   */\n      swap2\n      swap1\n      pop\n      jump\t// out\n        /* \"#utility.yul\":6307:6425   */\n    tag_106:\n        /* \"#utility.yul\":6394:6418   */\n      tag_212\n        /* \"#utility.yul\":6412:6417   */\n      dup2\n        /* \"#utility.yul\":6394:6418   */\n      tag_105\n      jump\t// in\n    tag_212:\n        /* \"#utility.yul\":6389:6392   */\n      dup3\n        /* \"#utility.yul\":6382:6419   */\n      mstore\n        /* \"#utility.yul\":6307:6425   */\n      pop\n      pop\n      jump\t// out\n        /* \"#utility.yul\":6431:6549   */\n    tag_107:\n        /* \"#utility.yul\":6518:6542   */\n      tag_214\n        /* \"#utility.yul\":6536:6541   */\n      dup2\n        /* \"#utility.yul\":6518:6542   */\n      tag_93\n      jump\t// in\n    tag_214:\n        /* \"#utility.yul\":6513:6516   */\n      dup3\n        /* \"#utility.yul\":6506:6543   */\n      mstore\n        /* \"#utility.yul\":6431:6549   */\n      pop\n      pop\n      jump\t// out\n        /* \"#utility.yul\":6555:6645   */\n    tag_108:\n        /* \"#utility.yul\":6589:6596   */\n      0x00\n        /* \"#utility.yul\":6632:6637   */\n      dup2\n        /* \"#utility.yul\":6625:6638   */\n      iszero\n        /* \"#utility.yul\":6618:6639   */\n      iszero\n        /* \"#utility.yul\":6607:6639   */\n      swap1\n      pop\n        /* \"#utility.yul\":6555:6645   */\n      swap2\n      swap1\n      pop\n      jump\t// out\n        /* \"#utility.yul\":6651:6760   */\n    tag_109:\n        /* \"#utility.yul\":6732:6753   */\n      tag_217\n        /* \"#utility.yul\":6747:6752   */\n      dup2\n        /* \"#utility.yul\":6732:6753   */\n      tag_108\n      jump\t// in\n    tag_217:\n        /* \"#utility.yul\":6727:6730   */\n      dup3\n        /* \"#utility.yul\":6720:6754   */\n      mstore\n        /* \"#utility.yul\":6651:6760   */\n      pop\n      pop\n      jump\t// out\n        /* \"#utility.yul\":6766:8024   */\n    tag_24:\n        /* \"#utility.yul\":7109:7113   */\n      0x00\n        /* \"#utility.yul\":7147:7150   */\n      0x0100\n        /* \"#utility.yul\":7136:7145   */\n      dup3\n        /* \"#utility.yul\":7132:7151   */\n      add\n        /* \"#utility.yul\":7124:7151   */\n      swap1\n      pop\n        /* \"#utility.yul\":7161:7232   */\n      tag_219\n        /* \"#utility.yul\":7229:7230   */\n      0x00\n        /* \"#utility.yul\":7218:7227   */\n      dup4\n        /* \"#utility.yul\":7214:7231   */\n      add\n        /* \"#utility.yul\":7205:7211   */\n      dup12\n        /* \"#utility.yul\":7161:7232   */\n      tag_99\n      jump\t// in\n    tag_219:\n        /* \"#utility.yul\":7279:7288   */\n      dup2\n        /* \"#utility.yul\":7273:7277   */\n      dup2\n        /* \"#utility.yul\":7269:7289   */\n      sub\n        /* \"#utility.yul\":7264:7266   */\n      0x20\n        /* \"#utility.yul\":7253:7262   */\n      dup4\n        /* \"#utility.yul\":7249:7267   */\n      add\n        /* \"#utility.yul\":7242:7290   */\n      mstore\n        /* \"#utility.yul\":7307:7385   */\n      tag_220\n        /* \"#utility.yul\":7380:7384   */\n      dup2\n        /* \"#utility.yul\":7371:7377   */\n      dup11\n        /* \"#utility.yul\":7307:7385   */\n      tag_103\n      jump\t// in\n    tag_220:\n        /* \"#utility.yul\":7299:7385   */\n      swap1\n      pop\n        /* \"#utility.yul\":7432:7441   */\n      dup2\n        /* \"#utility.yul\":7426:7430   */\n      dup2\n        /* \"#utility.yul\":7422:7442   */\n      sub\n        /* \"#utility.yul\":7417:7419   */\n      0x40\n        /* \"#utility.yul\":7406:7415   */\n      dup4\n        /* \"#utility.yul\":7402:7420   */\n      add\n        /* \"#utility.yul\":7395:7443   */\n      mstore\n        /* \"#utility.yul\":7460:7538   */\n      tag_221\n        /* \"#utility.yul\":7533:7537   */\n      dup2\n        /* \"#utility.yul\":7524:7530   */\n      dup10\n        /* \"#utility.yul\":7460:7538   */\n      tag_103\n      jump\t// in\n    tag_221:\n        /* \"#utility.yul\":7452:7538   */\n      swap1\n      pop\n        /* \"#utility.yul\":7585:7594   */\n      dup2\n        /* \"#utility.yul\":7579:7583   */\n      dup2\n        /* \"#utility.yul\":7575:7595   */\n      sub\n        /* \"#utility.yul\":7570:7572   */\n      0x60\n        /* \"#utility.yul\":7559:7568   */\n      dup4\n        /* \"#utility.yul\":7555:7573   */\n      add\n        /* \"#utility.yul\":7548:7596   */\n      mstore\n        /* \"#utility.yul\":7613:7691   */\n      tag_222\n        /* \"#utility.yul\":7686:7690   */\n      dup2\n        /* \"#utility.yul\":7677:7683   */\n      dup9\n        /* \"#utility.yul\":7613:7691   */\n      tag_103\n      jump\t// in\n    tag_222:\n        /* \"#utility.yul\":7605:7691   */\n      swap1\n      pop\n        /* \"#utility.yul\":7701:7774   */\n      tag_223\n        /* \"#utility.yul\":7769:7772   */\n      0x80\n        /* \"#utility.yul\":7758:7767   */\n      dup4\n        /* \"#utility.yul\":7754:7773   */\n      add\n        /* \"#utility.yul\":7745:7751   */\n      dup8\n        /* \"#utility.yul\":7701:7774   */\n      tag_106\n      jump\t// in\n    tag_223:\n        /* \"#utility.yul\":7784:7857   */\n      tag_224\n        /* \"#utility.yul\":7852:7855   */\n      0xa0\n        /* \"#utility.yul\":7841:7850   */\n      dup4\n        /* \"#utility.yul\":7837:7856   */\n      add\n        /* \"#utility.yul\":7828:7834   */\n      dup7\n        /* \"#utility.yul\":7784:7857   */\n      tag_107\n      jump\t// in\n    tag_224:\n        /* \"#utility.yul\":7867:7940   */\n      tag_225\n        /* \"#utility.yul\":7935:7938   */\n      0xc0\n        /* \"#utility.yul\":7924:7933   */\n      dup4\n        /* \"#utility.yul\":7920:7939   */\n      add\n        /* \"#utility.yul\":7911:7917   */\n      dup6\n        /* \"#utility.yul\":7867:7940   */\n      tag_107\n      jump\t// in\n    tag_225:\n        /* \"#utility.yul\":7950:8017   */\n      tag_226\n        /* \"#utility.yul\":8012:8015   */\n      0xe0\n        /* \"#utility.yul\":8001:8010   */\n      dup4\n        /* \"#utility.yul\":7997:8016   */\n      add\n        /* \"#utility.yul\":7988:7994   */\n      dup5\n        /* \"#utility.yul\":7950:8017   */\n      tag_109\n      jump\t// in\n    tag_226:\n        /* \"#utility.yul\":6766:8024   */\n      swap10\n      swap9\n      pop\n      pop\n      pop\n      pop\n      pop\n      pop\n      pop\n      pop\n      pop\n      jump\t// out\n        /* \"#utility.yul\":8030:9066   */\n    tag_29:\n        /* \"#utility.yul\":8317:8321   */\n      0x00\n        /* \"#utility.yul\":8355:8358   */\n      0xc0\n        /* \"#utility.yul\":8344:8353   */\n      dup3\n        /* \"#utility.yul\":8340:8359   */\n      add\n        /* \"#utility.yul\":8332:8359   */\n      swap1\n      pop\n        /* \"#utility.yul\":8405:8414   */\n      dup2\n        /* \"#utility.yul\":8399:8403   */\n      dup2\n        /* \"#utility.yul\":8395:8415   */\n      sub\n        /* \"#utility.yul\":8391:8392   */\n      0x00\n        /* \"#utility.yul\":8380:8389   */\n      dup4\n        /* \"#utility.yul\":8376:8393   */\n      add\n        /* \"#utility.yul\":8369:8416   */\n      mstore\n        /* \"#utility.yul\":8433:8511   */\n      tag_228\n        /* \"#utility.yul\":8506:8510   */\n      dup2\n        /* \"#utility.yul\":8497:8503   */\n      dup10\n        /* \"#utility.yul\":8433:8511   */\n      tag_103\n      jump\t// in\n    tag_228:\n        /* \"#utility.yul\":8425:8511   */\n      swap1\n      pop\n        /* \"#utility.yul\":8558:8567   */\n      dup2\n        /* \"#utility.yul\":8552:8556   */\n      dup2\n        /* \"#utility.yul\":8548:8568   */\n      sub\n        /* \"#utility.yul\":8543:8545   */\n      0x20\n        /* \"#utility.yul\":8532:8541   */\n      dup4\n        /* \"#utility.yul\":8528:8546   */\n      add\n        /* \"#utility.yul\":8521:8569   */\n      mstore\n        /* \"#utility.yul\":8586:8664   */\n      tag_229\n        /* \"#utility.yul\":8659:8663   */\n      dup2\n        /* \"#utility.yul\":8650:8656   */\n      dup9\n        /* \"#utility.yul\":8586:8664   */\n      tag_103\n      jump\t// in\n    tag_229:\n        /* \"#utility.yul\":8578:8664   */\n      swap1\n      pop\n        /* \"#utility.yul\":8711:8720   */\n      dup2\n        /* \"#utility.yul\":8705:8709   */\n      dup2\n        /* \"#utility.yul\":8701:8721   */\n      sub\n        /* \"#utility.yul\":8696:8698   */\n      0x40\n        /* \"#utility.yul\":8685:8694   */\n      dup4\n        /* \"#utility.yul\":8681:8699   */\n      add\n        /* \"#utility.yul\":8674:8722   */\n      mstore\n        /* \"#utility.yul\":8739:8817   */\n      tag_230\n        /* \"#utility.yul\":8812:8816   */\n      dup2\n        /* \"#utility.yul\":8803:8809   */\n      dup8\n        /* \"#utility.yul\":8739:8817   */\n      tag_103\n      jump\t// in\n    tag_230:\n        /* \"#utility.yul\":8731:8817   */\n      swap1\n      pop\n        /* \"#utility.yul\":8827:8899   */\n      tag_231\n        /* \"#utility.yul\":8895:8897   */\n      0x60\n        /* \"#utility.yul\":8884:8893   */\n      dup4\n        /* \"#utility.yul\":8880:8898   */\n      add\n        /* \"#utility.yul\":8871:8877   */\n      dup7\n        /* \"#utility.yul\":8827:8899   */\n      tag_107\n      jump\t// in\n    tag_231:\n        /* \"#utility.yul\":8909:8982   */\n      tag_232\n        /* \"#utility.yul\":8977:8980   */\n      0x80\n        /* \"#utility.yul\":8966:8975   */\n      dup4\n        /* \"#utility.yul\":8962:8981   */\n      add\n        /* \"#utility.yul\":8953:8959   */\n      dup6\n        /* \"#utility.yul\":8909:8982   */\n      tag_107\n      jump\t// in\n    tag_232:\n        /* \"#utility.yul\":8992:9059   */\n      tag_233\n        /* \"#utility.yul\":9054:9057   */\n      0xa0\n        /* \"#utility.yul\":9043:9052   */\n      dup4\n        /* \"#utility.yul\":9039:9058   */\n      add\n        /* \"#utility.yul\":9030:9036   */\n      dup5\n        /* \"#utility.yul\":8992:9059   */\n      tag_109\n      jump\t// in\n    tag_233:\n        /* \"#utility.yul\":8030:9066   */\n      swap8\n      swap7\n      pop\n      pop\n      pop\n      pop\n      pop\n      pop\n      pop\n      jump\t// out\n        /* \"#utility.yul\":9072:9252   */\n    tag_110:\n        /* \"#utility.yul\":9120:9197   */\n      0x4e487b7100000000000000000000000000000000000000000000000000000000\n        /* \"#utility.yul\":9117:9118   */\n      0x00\n        /* \"#utility.yul\":9110:9198   */\n      mstore\n        /* \"#utility.yul\":9217:9221   */\n      0x22\n        /* \"#utility.yul\":9214:9215   */\n      0x04\n        /* \"#utility.yul\":9207:9222   */\n      mstore\n        /* \"#utility.yul\":9241:9245   */\n      0x24\n        /* \"#utility.yul\":9238:9239   */\n      0x00\n        /* \"#utility.yul\":9231:9246   */\n      revert\n        /* \"#utility.yul\":9258:9578   */\n    tag_44:\n        /* \"#utility.yul\":9302:9308   */\n      0x00\n        /* \"#utility.yul\":9339:9340   */\n      0x02\n        /* \"#utility.yul\":9333:9337   */\n      dup3\n        /* \"#utility.yul\":9329:9341   */\n      div\n        /* \"#utility.yul\":9319:9341   */\n      swap1\n      pop\n        /* \"#utility.yul\":9386:9387   */\n      0x01\n        /* \"#utility.yul\":9380:9384   */\n      dup3\n        /* \"#utility.yul\":9376:9388   */\n      and\n        /* \"#utility.yul\":9407:9425   */\n      dup1\n        /* \"#utility.yul\":9397:9478   */\n      tag_236\n      jumpi\n        /* \"#utility.yul\":9463:9467   */\n      0x7f\n        /* \"#utility.yul\":9455:9461   */\n      dup3\n        /* \"#utility.yul\":9451:9468   */\n      and\n        /* \"#utility.yul\":9441:9468   */\n      swap2\n      pop\n        /* \"#utility.yul\":9397:9478   */\n    tag_236:\n        /* \"#utility.yul\":9525:9527   */\n      0x20\n        /* \"#utility.yul\":9517:9523   */\n      dup3\n        /* \"#utility.yul\":9514:9528   */\n      lt\n        /* \"#utility.yul\":9494:9512   */\n      dup2\n        /* \"#utility.yul\":9491:9529   */\n      sub\n        /* \"#utility.yul\":9488:9572   */\n      tag_237\n      jumpi\n        /* \"#utility.yul\":9544:9562   */\n      tag_238\n      tag_110\n      jump\t// in\n    tag_238:\n        /* \"#utility.yul\":9488:9572   */\n    tag_237:\n        /* \"#utility.yul\":9309:9578   */\n      pop\n        /* \"#utility.yul\":9258:9578   */\n      swap2\n      swap1\n      pop\n      jump\t// out\n        /* \"#utility.yul\":9584:9725   */\n    tag_111:\n        /* \"#utility.yul\":9633:9637   */\n      0x00\n        /* \"#utility.yul\":9656:9659   */\n      dup2\n        /* \"#utility.yul\":9648:9659   */\n      swap1\n      pop\n        /* \"#utility.yul\":9679:9682   */\n      dup2\n        /* \"#utility.yul\":9676:9677   */\n      0x00\n        /* \"#utility.yul\":9669:9683   */\n      mstore\n        /* \"#utility.yul\":9713:9717   */\n      0x20\n        /* \"#utility.yul\":9710:9711   */\n      0x00\n        /* \"#utility.yul\":9700:9718   */\n      keccak256\n        /* \"#utility.yul\":9692:9718   */\n      swap1\n      pop\n        /* \"#utility.yul\":9584:9725   */\n      swap2\n      swap1\n      pop\n      jump\t// out\n        /* \"#utility.yul\":9731:9824   */\n    tag_112:\n        /* \"#utility.yul\":9768:9774   */\n      0x00\n        /* \"#utility.yul\":9815:9817   */\n      0x20\n        /* \"#utility.yul\":9810:9812   */\n      0x1f\n        /* \"#utility.yul\":9803:9808   */\n      dup4\n        /* \"#utility.yul\":9799:9813   */\n      add\n        /* \"#utility.yul\":9795:9818   */\n      div\n        /* \"#utility.yul\":9785:9818   */\n      swap1\n      pop\n        /* \"#utility.yul\":9731:9824   */\n      swap2\n      swap1\n      pop\n      jump\t// out\n        /* \"#utility.yul\":9830:9937   */\n    tag_113:\n        /* \"#utility.yul\":9874:9882   */\n      0x00\n        /* \"#utility.yul\":9924:9929   */\n      dup3\n        /* \"#utility.yul\":9918:9922   */\n      dup3\n        /* \"#utility.yul\":9914:9930   */\n      shl\n        /* \"#utility.yul\":9893:9930   */\n      swap1\n      pop\n        /* \"#utility.yul\":9830:9937   */\n      swap3\n      swap2\n      pop\n      pop\n      jump\t// out\n        /* \"#utility.yul\":9943:10336   */\n    tag_114:\n        /* \"#utility.yul\":10012:10018   */\n      0x00\n        /* \"#utility.yul\":10062:10063   */\n      0x08\n        /* \"#utility.yul\":10050:10060   */\n      dup4\n        /* \"#utility.yul\":10046:10064   */\n      mul\n        /* \"#utility.yul\":10085:10182   */\n      tag_243\n        /* \"#utility.yul\":10115:10181   */\n      0xffffffffffffffffffffffffffffffffffffffffffffffffffffffffffffffff\n        /* \"#utility.yul\":10104:10113   */\n      dup3\n        /* \"#utility.yul\":10085:10182   */\n      tag_113\n      jump\t// in\n    tag_243:\n        /* \"#utility.yul\":10203:10242   */\n      tag_244\n        /* \"#utility.yul\":10233:10241   */\n      dup7\n        /* \"#utility.yul\":10222:10231   */\n      dup4\n        /* \"#utility.yul\":10203:10242   */\n      tag_113\n      jump\t// in\n    tag_244:\n        /* \"#utility.yul\":10191:10242   */\n      swap6\n      pop\n        /* \"#utility.yul\":10275:10279   */\n      dup1\n        /* \"#utility.yul\":10271:10280   */\n      not\n        /* \"#utility.yul\":10264:10269   */\n      dup5\n        /* \"#utility.yul\":10260:10281   */\n      and\n        /* \"#utility.yul\":10251:10281   */\n      swap4\n      pop\n        /* \"#utility.yul\":10324:10328   */\n      dup1\n        /* \"#utility.yul\":10314:10322   */\n      dup7\n        /* \"#utility.yul\":10310:10329   */\n      and\n        /* \"#utility.yul\":10303:10308   */\n      dup5\n        /* \"#utility.yul\":10300:10330   */\n      or\n        /* \"#utility.yul\":10290:10330   */\n      swap3\n      pop\n        /* \"#utility.yul\":10019:10336   */\n      pop\n      pop\n        /* \"#utility.yul\":9943:10336   */\n      swap4\n      swap3\n      pop\n      pop\n      pop\n      jump\t// out\n        /* \"#utility.yul\":10342:10402   */\n    tag_115:\n        /* \"#utility.yul\":10370:10373   */\n      0x00\n        /* \"#utility.yul\":10391:10396   */\n      dup2\n        /* \"#utility.yul\":10384:10396   */\n      swap1\n      pop\n        /* \"#utility.yul\":10342:10402   */\n      swap2\n      swap1\n      pop\n      jump\t// out\n        /* \"#utility.yul\":10408:10550   */\n    tag_116:\n        /* \"#utility.yul\":10458:10467   */\n      0x00\n        /* \"#utility.yul\":10491:10544   */\n      tag_247\n        /* \"#utility.yul\":10509:10543   */\n      tag_248\n        /* \"#utility.yul\":10518:10542   */\n      tag_249\n        /* \"#utility.yul\":10536:10541   */\n      dup5\n        /* \"#utility.yul\":10518:10542   */\n      tag_93\n      jump\t// in\n    tag_249:\n        /* \"#utility.yul\":10509:10543   */\n      tag_115\n      jump\t// in\n    tag_248:\n        /* \"#utility.yul\":10491:10544   */\n      tag_93\n      jump\t// in\n    tag_247:\n        /* \"#utility.yul\":10478:10544   */\n      swap1\n      pop\n        /* \"#utility.yul\":10408:10550   */\n      swap2\n      swap1\n      pop\n      jump\t// out\n        /* \"#utility.yul\":10556:10631   */\n    tag_117:\n        /* \"#utility.yul\":10599:10602   */\n      0x00\n        /* \"#utility.yul\":10620:10625   */\n      dup2\n        /* \"#utility.yul\":10613:10625   */\n      swap1\n      pop\n        /* \"#utility.yul\":10556:10631   */\n      swap2\n      swap1\n      pop\n      jump\t// out\n        /* \"#utility.yul\":10637:10906   */\n    tag_118:\n        /* \"#utility.yul\":10747:10786   */\n      tag_252\n        /* \"#utility.yul\":10778:10785   */\n      dup4\n        /* \"#utility.yul\":10747:10786   */\n      tag_116\n      jump\t// in\n    tag_252:\n        /* \"#utility.yul\":10808:10899   */\n      tag_253\n        /* \"#utility.yul\":10857:10898   */\n      tag_254\n        /* \"#utility.yul\":10881:10897   */\n      dup3\n        /* \"#utility.yul\":10857:10898   */\n      tag_117\n      jump\t// in\n    tag_254:\n        /* \"#utility.yul\":10849:10855   */\n      dup5\n        /* \"#utility.yul\":10842:10846   */\n      dup5\n        /* \"#utility.yul\":10836:10847   */\n      sload\n        /* \"#utility.yul\":10808:10899   */\n      tag_114\n      jump\t// in\n    tag_253:\n        /* \"#utility.yul\":10802:10806   */\n      dup3\n        /* \"#utility.yul\":10795:10900   */\n      sstore\n        /* \"#utility.yul\":10713:10906   */\n      pop\n        /* \"#utility.yul\":10637:10906   */\n      pop\n      pop\n      pop\n      jump\t// out\n        /* \"#utility.yul\":10912:10985   */\n    tag_119:\n        /* \"#utility.yul\":10957:10960   */\n      0x00\n        /* \"#utility.yul\":10978:10979   */\n      0x00\n        /* \"#utility.yul\":10971:10979   */\n      swap1\n      pop\n        /* \"#utility.yul\":10912:10985   */\n      swap1\n      jump\t// out\n        /* \"#utility.yul\":10991:11180   */\n    tag_120:\n        /* \"#utility.yul\":11068:11100   */\n      tag_257\n      tag_119\n      jump\t// in\n    tag_257:\n        /* \"#utility.yul\":11109:11174   */\n      tag_258\n        /* \"#utility.yul\":11167:11173   */\n      dup2\n        /* \"#utility.yul\":11159:11165   */\n      dup5\n        /* \"#utility.yul\":11153:11157   */\n      dup5\n        /* \"#utility.yul\":11109:11174   */\n      tag_118\n      jump\t// in\n    tag_258:\n        /* \"#utility.yul\":11044:11180   */\n      pop\n        /* \"#utility.yul\":10991:11180   */\n      pop\n      pop\n      jump\t// out\n        /* \"#utility.yul\":11186:11372   */\n    tag_121:\n        /* \"#utility.yul\":11246:11366   */\n    tag_260:\n        /* \"#utility.yul\":11263:11266   */\n      dup2\n        /* \"#utility.yul\":11256:11261   */\n      dup2\n        /* \"#utility.yul\":11253:11267   */\n      lt\n        /* \"#utility.yul\":11246:11366   */\n      iszero\n      tag_262\n      jumpi\n        /* \"#utility.yul\":11317:11356   */\n      tag_263\n        /* \"#utility.yul\":11354:11355   */\n      0x00\n        /* \"#utility.yul\":11347:11352   */\n      dup3\n        /* \"#utility.yul\":11317:11356   */\n      tag_120\n      jump\t// in\n    tag_263:\n        /* \"#utility.yul\":11290:11291   */\n      0x01\n        /* \"#utility.yul\":11283:11288   */\n      dup2\n        /* \"#utility.yul\":11279:11292   */\n      add\n        /* \"#utility.yul\":11270:11292   */\n      swap1\n      pop\n        /* \"#utility.yul\":11246:11366   */\n      jump(tag_260)\n    tag_262:\n        /* \"#utility.yul\":11186:11372   */\n      pop\n      pop\n      jump\t// out\n        /* \"#utility.yul\":11378:11921   */\n    tag_122:\n        /* \"#utility.yul\":11479:11481   */\n      0x1f\n        /* \"#utility.yul\":11474:11477   */\n      dup3\n        /* \"#utility.yul\":11471:11482   */\n      gt\n        /* \"#utility.yul\":11468:11914   */\n      iszero\n      tag_265\n      jumpi\n        /* \"#utility.yul\":11513:11551   */\n      tag_266\n        /* \"#utility.yul\":11545:11550   */\n      dup2\n        /* \"#utility.yul\":11513:11551   */\n      tag_111\n      jump\t// in\n    tag_266:\n        /* \"#utility.yul\":11597:11626   */\n      tag_267\n        /* \"#utility.yul\":11615:11625   */\n      dup5\n        /* \"#utility.yul\":11597:11626   */\n      tag_112\n      jump\t// in\n    tag_267:\n        /* \"#utility.yul\":11587:11595   */\n      dup2\n        /* \"#utility.yul\":11583:11627   */\n      add\n        /* \"#utility.yul\":11780:11782   */\n      0x20\n        /* \"#utility.yul\":11768:11778   */\n      dup6\n        /* \"#utility.yul\":11765:11783   */\n      lt\n        /* \"#utility.yul\":11762:11811   */\n      iszero\n      tag_268\n      jumpi\n        /* \"#utility.yul\":11801:11809   */\n      dup2\n        /* \"#utility.yul\":11786:11809   */\n      swap1\n      pop\n        /* \"#utility.yul\":11762:11811   */\n    tag_268:\n        /* \"#utility.yul\":11824:11904   */\n      tag_269\n        /* \"#utility.yul\":11880:11902   */\n      tag_270\n        /* \"#utility.yul\":11898:11901   */\n      dup6\n        /* \"#utility.yul\":11880:11902   */\n      tag_112\n      jump\t// in\n    tag_270:\n        /* \"#utility.yul\":11870:11878   */\n      dup4\n        /* \"#utility.yul\":11866:11903   */\n      add\n        /* \"#utility.yul\":11853:11864   */\n      dup3\n        /* \"#utility.yul\":11824:11904   */\n      tag_121\n      jump\t// in\n    tag_269:\n        /* \"#utility.yul\":11483:11914   */\n      pop\n      pop\n        /* \"#utility.yul\":11468:11914   */\n    tag_265:\n        /* \"#utility.yul\":11378:11921   */\n      pop\n      pop\n      pop\n      jump\t// out\n        /* \"#utility.yul\":11927:12044   */\n    tag_123:\n        /* \"#utility.yul\":11981:11989   */\n      0x00\n        /* \"#utility.yul\":12031:12036   */\n      dup3\n        /* \"#utility.yul\":12025:12029   */\n      dup3\n        /* \"#utility.yul\":12021:12037   */\n      shr\n        /* \"#utility.yul\":12000:12037   */\n      swap1\n      pop\n        /* \"#utility.yul\":11927:12044   */\n      swap3\n      swap2\n      pop\n      pop\n      jump\t// out\n        /* \"#utility.yul\":12050:12219   */\n    tag_124:\n        /* \"#utility.yul\":12094:12100   */\n      0x00\n        /* \"#utility.yul\":12127:12178   */\n      tag_273\n        /* \"#utility.yul\":12175:12176   */\n      0x00\n        /* \"#utility.yul\":12171:12177   */\n      not\n        /* \"#utility.yul\":12163:12168   */\n      dup5\n        /* \"#utility.yul\":12160:12161   */\n      0x08\n        /* \"#utility.yul\":12156:12169   */\n      mul\n        /* \"#utility.yul\":12127:12178   */\n      tag_123\n      jump\t// in\n    tag_273:\n        /* \"#utility.yul\":12123:12179   */\n      not\n        /* \"#utility.yul\":12208:12212   */\n      dup1\n        /* \"#utility.yul\":12202:12206   */\n      dup4\n        /* \"#utility.yul\":12198:12213   */\n      and\n        /* \"#utility.yul\":12188:12213   */\n      swap2\n      pop\n        /* \"#utility.yul\":12101:12219   */\n      pop\n        /* \"#utility.yul\":12050:12219   */\n      swap3\n      swap2\n      pop\n      pop\n      jump\t// out\n        /* \"#utility.yul\":12224:12519   */\n    tag_125:\n        /* \"#utility.yul\":12300:12304   */\n      0x00\n        /* \"#utility.yul\":12446:12475   */\n      tag_275\n        /* \"#utility.yul\":12471:12474   */\n      dup4\n        /* \"#utility.yul\":12465:12469   */\n      dup4\n        /* \"#utility.yul\":12446:12475   */\n      tag_124\n      jump\t// in\n    tag_275:\n        /* \"#utility.yul\":12438:12475   */\n      swap2\n      pop\n        /* \"#utility.yul\":12508:12511   */\n      dup3\n        /* \"#utility.yul\":12505:12506   */\n      0x02\n        /* \"#utility.yul\":12501:12512   */\n      mul\n        /* \"#utility.yul\":12495:12499   */\n      dup3\n        /* \"#utility.yul\":12492:12513   */\n      or\n        /* \"#utility.yul\":12484:12513   */\n      swap1\n      pop\n        /* \"#utility.yul\":12224:12519   */\n      swap3\n      swap2\n      pop\n      pop\n      jump\t// out\n        /* \"#utility.yul\":12524:13919   */\n    tag_34:\n        /* \"#utility.yul\":12641:12678   */\n      tag_277\n        /* \"#utility.yul\":12674:12677   */\n      dup3\n        /* \"#utility.yul\":12641:12678   */\n      tag_100\n      jump\t// in\n    tag_277:\n        /* \"#utility.yul\":12743:12761   */\n      0xffffffffffffffff\n        /* \"#utility.yul\":12735:12741   */\n      dup2\n        /* \"#utility.yul\":12732:12762   */\n      gt\n        /* \"#utility.yul\":12729:12785   */\n      iszero\n      tag_278\n      jumpi\n        /* \"#utility.yul\":12765:12783   */\n      tag_279\n      tag_86\n      jump\t// in\n    tag_279:\n        /* \"#utility.yul\":12729:12785   */\n    tag_278:\n        /* \"#utility.yul\":12809:12847   */\n      tag_280\n        /* \"#utility.yul\":12841:12845   */\n      dup3\n        /* \"#utility.yul\":12835:12846   */\n      sload\n        /* \"#utility.yul\":12809:12847   */\n      tag_44\n      jump\t// in\n    tag_280:\n        /* \"#utility.yul\":12894:12961   */\n      tag_281\n        /* \"#utility.yul\":12954:12960   */\n      dup3\n        /* \"#utility.yul\":12946:12952   */\n      dup3\n        /* \"#utility.yul\":12940:12944   */\n      dup6\n        /* \"#utility.yul\":12894:12961   */\n      tag_122\n      jump\t// in\n    tag_281:\n        /* \"#utility.yul\":12988:12989   */\n      0x00\n        /* \"#utility.yul\":13012:13016   */\n      0x20\n        /* \"#utility.yul\":12999:13016   */\n      swap1\n      pop\n        /* \"#utility.yul\":13044:13046   */\n      0x1f\n        /* \"#utility.yul\":13036:13042   */\n      dup4\n        /* \"#utility.yul\":13033:13047   */\n      gt\n        /* \"#utility.yul\":13061:13062   */\n      0x01\n        /* \"#utility.yul\":13056:13674   */\n      dup2\n      eq\n      tag_283\n      jumpi\n        /* \"#utility.yul\":13718:13719   */\n      0x00\n        /* \"#utility.yul\":13735:13741   */\n      dup5\n        /* \"#utility.yul\":13732:13809   */\n      iszero\n      tag_284\n      jumpi\n        /* \"#utility.yul\":13784:13793   */\n      dup3\n        /* \"#utility.yul\":13779:13782   */\n      dup8\n        /* \"#utility.yul\":13775:13794   */\n      add\n        /* \"#utility.yul\":13769:13795   */\n      mload\n        /* \"#utility.yul\":13760:13795   */\n      swap1\n      pop\n        /* \"#utility.yul\":13732:13809   */\n    tag_284:\n        /* \"#utility.yul\":13835:13902   */\n      tag_285\n        /* \"#utility.yul\":13895:13901   */\n      dup6\n        /* \"#utility.yul\":13888:13893   */\n      dup3\n        /* \"#utility.yul\":13835:13902   */\n      tag_125\n      jump\t// in\n    tag_285:\n        /* \"#utility.yul\":13829:13833   */\n      dup7\n        /* \"#utility.yul\":13822:13903   */\n      sstore\n        /* \"#utility.yul\":13691:13913   */\n      pop\n        /* \"#utility.yul\":13026:13913   */\n      jump(tag_282)\n        /* \"#utility.yul\":13056:13674   */\n    tag_283:\n        /* \"#utility.yul\":13108:13112   */\n      0x1f\n        /* \"#utility.yul\":13104:13113   */\n      not\n        /* \"#utility.yul\":13096:13102   */\n      dup5\n        /* \"#utility.yul\":13092:13114   */\n      and\n        /* \"#utility.yul\":13142:13179   */\n      tag_286\n        /* \"#utility.yul\":13174:13178   */\n      dup7\n        /* \"#utility.yul\":13142:13179   */\n      tag_111\n      jump\t// in\n    tag_286:\n        /* \"#utility.yul\":13201:13202   */\n      0x00\n        /* \"#utility.yul\":13215:13423   */\n    tag_287:\n        /* \"#utility.yul\":13229:13236   */\n      dup3\n        /* \"#utility.yul\":13226:13227   */\n      dup2\n        /* \"#utility.yul\":13223:13237   */\n      lt\n        /* \"#utility.yul\":13215:13423   */\n      iszero\n      tag_289\n      jumpi\n        /* \"#utility.yul\":13308:13317   */\n      dup5\n        /* \"#utility.yul\":13303:13306   */\n      dup10\n        /* \"#utility.yul\":13299:13318   */\n      add\n        /* \"#utility.yul\":13293:13319   */\n      mload\n        /* \"#utility.yul\":13285:13291   */\n      dup3\n        /* \"#utility.yul\":13278:13320   */\n      sstore\n        /* \"#utility.yul\":13359:13360   */\n      0x01\n        /* \"#utility.yul\":13351:13357   */\n      dup3\n        /* \"#utility.yul\":13347:13361   */\n      add\n        /* \"#utility.yul\":13337:13361   */\n      swap2\n      pop\n        /* \"#utility.yul\":13406:13408   */\n      0x20\n        /* \"#utility.yul\":13395:13404   */\n      dup6\n        /* \"#utility.yul\":13391:13409   */\n      add\n        /* \"#utility.yul\":13378:13409   */\n      swap5\n      pop\n        /* \"#utility.yul\":13252:13256   */\n      0x20\n        /* \"#utility.yul\":13249:13250   */\n      dup2\n        /* \"#utility.yul\":13245:13257   */\n      add\n        /* \"#utility.yul\":13240:13257   */\n      swap1\n      pop\n        /* \"#utility.yul\":13215:13423   */\n      jump(tag_287)\n    tag_289:\n        /* \"#utility.yul\":13451:13457   */\n      dup7\n        /* \"#utility.yul\":13442:13449   */\n      dup4\n        /* \"#utility.yul\":13439:13458   */\n      lt\n        /* \"#utility.yul\":13436:13615   */\n      iszero\n      tag_290\n      jumpi\n        /* \"#utility.yul\":13509:13518   */\n      dup5\n        /* \"#utility.yul\":13504:13507   */\n      dup10\n        /* \"#utility.yul\":13500:13519   */\n      add\n        /* \"#utility.yul\":13494:13520   */\n      mload\n        /* \"#utility.yul\":13552:13600   */\n      tag_291\n        /* \"#utility.yul\":13594:13598   */\n      0x1f\n        /* \"#utility.yul\":13586:13592   */\n      dup10\n        /* \"#utility.yul\":13582:13599   */\n      and\n        /* \"#utility.yul\":13571:13580   */\n      dup3\n        /* \"#utility.yul\":13552:13600   */\n      tag_124\n      jump\t// in\n    tag_291:\n        /* \"#utility.yul\":13544:13550   */\n      dup4\n        /* \"#utility.yul\":13537:13601   */\n      sstore\n        /* \"#utility.yul\":13459:13615   */\n      pop\n        /* \"#utility.yul\":13436:13615   */\n    tag_290:\n        /* \"#utility.yul\":13661:13662   */\n      0x01\n        /* \"#utility.yul\":13657:13658   */\n      0x02\n        /* \"#utility.yul\":13649:13655   */\n      dup9\n        /* \"#utility.yul\":13645:13659   */\n      mul\n        /* \"#utility.yul\":13641:13663   */\n      add\n        /* \"#utility.yul\":13635:13639   */\n      dup9\n        /* \"#utility.yul\":13628:13664   */\n      sstore\n        /* \"#utility.yul\":13063:13674   */\n      pop\n      pop\n      pop\n        /* \"#utility.yul\":13026:13913   */\n    tag_282:\n      pop\n        /* \"#utility.yul\":12616:13919   */\n      pop\n      pop\n      pop\n        /* \"#utility.yul\":12524:13919   */\n      pop\n      pop\n      jump\t// out\n        /* \"#utility.yul\":13925:14348   */\n    tag_38:\n        /* \"#utility.yul\":14066:14070   */\n      0x00\n        /* \"#utility.yul\":14104:14106   */\n      0x40\n        /* \"#utility.yul\":14093:14102   */\n      dup3\n        /* \"#utility.yul\":14089:14107   */\n      add\n        /* \"#utility.yul\":14081:14107   */\n      swap1\n      pop\n        /* \"#utility.yul\":14153:14162   */\n      dup2\n        /* \"#utility.yul\":14147:14151   */\n      dup2\n        /* \"#utility.yul\":14143:14163   */\n      sub\n        /* \"#utility.yul\":14139:14140   */\n      0x00\n        /* \"#utility.yul\":14128:14137   */\n      dup4\n        /* \"#utility.yul\":14124:14141   */\n      add\n        /* \"#utility.yul\":14117:14164   */\n      mstore\n        /* \"#utility.yul\":14181:14259   */\n      tag_293\n        /* \"#utility.yul\":14254:14258   */\n      dup2\n        /* \"#utility.yul\":14245:14251   */\n      dup6\n        /* \"#utility.yul\":14181:14259   */\n      tag_103\n      jump\t// in\n    tag_293:\n        /* \"#utility.yul\":14173:14259   */\n      swap1\n      pop\n        /* \"#utility.yul\":14269:14341   */\n      tag_294\n        /* \"#utility.yul\":14337:14339   */\n      0x20\n        /* \"#utility.yul\":14326:14335   */\n      dup4\n        /* \"#utility.yul\":14322:14340   */\n      add\n        /* \"#utility.yul\":14313:14319   */\n      dup5\n        /* \"#utility.yul\":14269:14341   */\n      tag_107\n      jump\t// in\n    tag_294:\n        /* \"#utility.yul\":13925:14348   */\n      swap4\n      swap3\n      pop\n      pop\n      pop\n      jump\t// out\n        /* \"#utility.yul\":14354:14723   */\n    tag_126:\n        /* \"#utility.yul\":14494:14528   */\n      0x4f6e6c792041646d696e2f4e474f2063616e20636c6f7365207468652063616d\n        /* \"#utility.yul\":14490:14491   */\n      0x00\n        /* \"#utility.yul\":14482:14488   */\n      dup3\n        /* \"#utility.yul\":14478:14492   */\n      add\n        /* \"#utility.yul\":14471:14529   */\n      mstore\n        /* \"#utility.yul\":14563:14597   */\n      0x706169676e2e20506c6561736520757365207468652073616d65204143434f55\n        /* \"#utility.yul\":14558:14560   */\n      0x20\n        /* \"#utility.yul\":14550:14556   */\n      dup3\n        /* \"#utility.yul\":14546:14561   */\n      add\n        /* \"#utility.yul\":14539:14598   */\n      mstore\n        /* \"#utility.yul\":14632:14666   */\n      0x4e54207573656420666f72207374617274696e67207468652063616d7020746f\n        /* \"#utility.yul\":14627:14629   */\n      0x40\n        /* \"#utility.yul\":14619:14625   */\n      dup3\n        /* \"#utility.yul\":14615:14630   */\n      add\n        /* \"#utility.yul\":14608:14667   */\n      mstore\n        /* \"#utility.yul\":14701:14715   */\n      0x20636c6f73652069742121210000000000000000000000000000000000000000\n        /* \"#utility.yul\":14696:14698   */\n      0x60\n        /* \"#utility.yul\":14688:14694   */\n      dup3\n        /* \"#utility.yul\":14684:14699   */\n      add\n        /* \"#utility.yul\":14677:14716   */\n      mstore\n        /* \"#utility.yul\":14354:14723   */\n      pop\n      jump\t// out\n        /* \"#utility.yul\":14729:15097   */\n    tag_127:\n        /* \"#utility.yul\":14871:14874   */\n      0x00\n        /* \"#utility.yul\":14892:14960   */\n      tag_297\n        /* \"#utility.yul\":14956:14959   */\n      0x6c\n        /* \"#utility.yul\":14951:14954   */\n      dup4\n        /* \"#utility.yul\":14892:14960   */\n      tag_101\n      jump\t// in\n    tag_297:\n        /* \"#utility.yul\":14885:14960   */\n      swap2\n      pop\n        /* \"#utility.yul\":14969:15062   */\n      tag_298\n        /* \"#utility.yul\":15058:15061   */\n      dup3\n        /* \"#utility.yul\":14969:15062   */\n      tag_126\n      jump\t// in\n    tag_298:\n        /* \"#utility.yul\":15087:15090   */\n      0x80\n        /* \"#utility.yul\":15082:15085   */\n      dup3\n        /* \"#utility.yul\":15078:15091   */\n      add\n        /* \"#utility.yul\":15071:15091   */\n      swap1\n      pop\n        /* \"#utility.yul\":14729:15097   */\n      swap2\n      swap1\n      pop\n      jump\t// out\n        /* \"#utility.yul\":15103:15522   */\n    tag_42:\n        /* \"#utility.yul\":15269:15273   */\n      0x00\n        /* \"#utility.yul\":15307:15309   */\n      0x20\n        /* \"#utility.yul\":15296:15305   */\n      dup3\n        /* \"#utility.yul\":15292:15310   */\n      add\n        /* \"#utility.yul\":15284:15310   */\n      swap1\n      pop\n        /* \"#utility.yul\":15356:15365   */\n      dup2\n        /* \"#utility.yul\":15350:15354   */\n      dup2\n        /* \"#utility.yul\":15346:15366   */\n      sub\n        /* \"#utility.yul\":15342:15343   */\n      0x00\n        /* \"#utility.yul\":15331:15340   */\n      dup4\n        /* \"#utility.yul\":15327:15344   */\n      add\n        /* \"#utility.yul\":15320:15367   */\n      mstore\n        /* \"#utility.yul\":15384:15515   */\n      tag_300\n        /* \"#utility.yul\":15510:15514   */\n      dup2\n        /* \"#utility.yul\":15384:15515   */\n      tag_127\n      jump\t// in\n    tag_300:\n        /* \"#utility.yul\":15376:15515   */\n      swap1\n      pop\n        /* \"#utility.yul\":15103:15522   */\n      swap2\n      swap1\n      pop\n      jump\t// out\n        /* \"#utility.yul\":15528:15708   */\n    tag_128:\n        /* \"#utility.yul\":15576:15653   */\n      0x4e487b7100000000000000000000000000000000000000000000000000000000\n        /* \"#utility.yul\":15573:15574   */\n      0x00\n        /* \"#utility.yul\":15566:15654   */\n      mstore\n        /* \"#utility.yul\":15673:15677   */\n      0x11\n        /* \"#utility.yul\":15670:15671   */\n      0x04\n        /* \"#utility.yul\":15663:15678   */\n      mstore\n        /* \"#utility.yul\":15697:15701   */\n      0x24\n        /* \"#utility.yul\":15694:15695   */\n      0x00\n        /* \"#utility.yul\":15687:15702   */\n      revert\n        /* \"#utility.yul\":15714:15908   */\n    tag_77:\n        /* \"#utility.yul\":15754:15758   */\n      0x00\n        /* \"#utility.yul\":15774:15794   */\n      tag_303\n        /* \"#utility.yul\":15792:15793   */\n      dup3\n        /* \"#utility.yul\":15774:15794   */\n      tag_93\n      jump\t// in\n    tag_303:\n        /* \"#utility.yul\":15769:15794   */\n      swap2\n      pop\n        /* \"#utility.yul\":15808:15828   */\n      tag_304\n        /* \"#utility.yul\":15826:15827   */\n      dup4\n        /* \"#utility.yul\":15808:15828   */\n      tag_93\n      jump\t// in\n    tag_304:\n        /* \"#utility.yul\":15803:15828   */\n      swap3\n      pop\n        /* \"#utility.yul\":15852:15853   */\n      dup3\n        /* \"#utility.yul\":15849:15850   */\n      dup3\n        /* \"#utility.yul\":15845:15854   */\n      sub\n        /* \"#utility.yul\":15837:15854   */\n      swap1\n      pop\n        /* \"#utility.yul\":15876:15877   */\n      dup2\n        /* \"#utility.yul\":15870:15874   */\n      dup2\n        /* \"#utility.yul\":15867:15878   */\n      gt\n        /* \"#utility.yul\":15864:15901   */\n      iszero\n      tag_305\n      jumpi\n        /* \"#utility.yul\":15881:15899   */\n      tag_306\n      tag_128\n      jump\t// in\n    tag_306:\n        /* \"#utility.yul\":15864:15901   */\n    tag_305:\n        /* \"#utility.yul\":15714:15908   */\n      swap3\n      swap2\n      pop\n      pop\n      jump\t// out\n        /* \"#utility.yul\":15914:16008   */\n    tag_129:\n        /* \"#utility.yul\":15947:15955   */\n      0x00\n        /* \"#utility.yul\":15995:16000   */\n      dup2\n        /* \"#utility.yul\":15991:15993   */\n      0x60\n        /* \"#utility.yul\":15987:16001   */\n      shl\n        /* \"#utility.yul\":15966:16001   */\n      swap1\n      pop\n        /* \"#utility.yul\":15914:16008   */\n      swap2\n      swap1\n      pop\n      jump\t// out\n        /* \"#utility.yul\":16014:16108   */\n    tag_130:\n        /* \"#utility.yul\":16053:16060   */\n      0x00\n        /* \"#utility.yul\":16082:16102   */\n      tag_309\n        /* \"#utility.yul\":16096:16101   */\n      dup3\n        /* \"#utility.yul\":16082:16102   */\n      tag_129\n      jump\t// in\n    tag_309:\n        /* \"#utility.yul\":16071:16102   */\n      swap1\n      pop\n        /* \"#utility.yul\":16014:16108   */\n      swap2\n      swap1\n      pop\n      jump\t// out\n        /* \"#utility.yul\":16114:16214   */\n    tag_131:\n        /* \"#utility.yul\":16153:16160   */\n      0x00\n        /* \"#utility.yul\":16182:16208   */\n      tag_311\n        /* \"#utility.yul\":16202:16207   */\n      dup3\n        /* \"#utility.yul\":16182:16208   */\n      tag_130\n      jump\t// in\n    tag_311:\n        /* \"#utility.yul\":16171:16208   */\n      swap1\n      pop\n        /* \"#utility.yul\":16114:16214   */\n      swap2\n      swap1\n      pop\n      jump\t// out\n        /* \"#utility.yul\":16220:16377   */\n    tag_132:\n        /* \"#utility.yul\":16325:16370   */\n      tag_313\n        /* \"#utility.yul\":16345:16369   */\n      tag_314\n        /* \"#utility.yul\":16363:16368   */\n      dup3\n        /* \"#utility.yul\":16345:16369   */\n      tag_105\n      jump\t// in\n    tag_314:\n        /* \"#utility.yul\":16325:16370   */\n      tag_131\n      jump\t// in\n    tag_313:\n        /* \"#utility.yul\":16320:16323   */\n      dup3\n        /* \"#utility.yul\":16313:16371   */\n      mstore\n        /* \"#utility.yul\":16220:16377   */\n      pop\n      pop\n      jump\t// out\n        /* \"#utility.yul\":16383:16462   */\n    tag_133:\n        /* \"#utility.yul\":16422:16429   */\n      0x00\n        /* \"#utility.yul\":16451:16456   */\n      dup2\n        /* \"#utility.yul\":16440:16456   */\n      swap1\n      pop\n        /* \"#utility.yul\":16383:16462   */\n      swap2\n      swap1\n      pop\n      jump\t// out\n        /* \"#utility.yul\":16468:16625   */\n    tag_134:\n        /* \"#utility.yul\":16573:16618   */\n      tag_317\n        /* \"#utility.yul\":16593:16617   */\n      tag_318\n        /* \"#utility.yul\":16611:16616   */\n      dup3\n        /* \"#utility.yul\":16593:16617   */\n      tag_93\n      jump\t// in\n    tag_318:\n        /* \"#utility.yul\":16573:16618   */\n      tag_133\n      jump\t// in\n    tag_317:\n        /* \"#utility.yul\":16568:16571   */\n      dup3\n        /* \"#utility.yul\":16561:16619   */\n      mstore\n        /* \"#utility.yul\":16468:16625   */\n      pop\n      pop\n      jump\t// out\n        /* \"#utility.yul\":16631:16710   */\n    tag_135:\n        /* \"#utility.yul\":16670:16677   */\n      0x00\n        /* \"#utility.yul\":16699:16704   */\n      dup2\n        /* \"#utility.yul\":16688:16704   */\n      swap1\n      pop\n        /* \"#utility.yul\":16631:16710   */\n      swap2\n      swap1\n      pop\n      jump\t// out\n        /* \"#utility.yul\":16716:16873   */\n    tag_136:\n        /* \"#utility.yul\":16821:16866   */\n      tag_321\n        /* \"#utility.yul\":16841:16865   */\n      tag_322\n        /* \"#utility.yul\":16859:16864   */\n      dup3\n        /* \"#utility.yul\":16841:16865   */\n      tag_96\n      jump\t// in\n    tag_322:\n        /* \"#utility.yul\":16821:16866   */\n      tag_135\n      jump\t// in\n    tag_321:\n        /* \"#utility.yul\":16816:16819   */\n      dup3\n        /* \"#utility.yul\":16809:16867   */\n      mstore\n        /* \"#utility.yul\":16716:16873   */\n      pop\n      pop\n      jump\t// out\n        /* \"#utility.yul\":16879:17558   */\n    tag_79:\n        /* \"#utility.yul\":17075:17078   */\n      0x00\n        /* \"#utility.yul\":17090:17165   */\n      tag_324\n        /* \"#utility.yul\":17161:17164   */\n      dup3\n        /* \"#utility.yul\":17152:17158   */\n      dup8\n        /* \"#utility.yul\":17090:17165   */\n      tag_132\n      jump\t// in\n    tag_324:\n        /* \"#utility.yul\":17190:17192   */\n      0x14\n        /* \"#utility.yul\":17185:17188   */\n      dup3\n        /* \"#utility.yul\":17181:17193   */\n      add\n        /* \"#utility.yul\":17174:17193   */\n      swap2\n      pop\n        /* \"#utility.yul\":17203:17278   */\n      tag_325\n        /* \"#utility.yul\":17274:17277   */\n      dup3\n        /* \"#utility.yul\":17265:17271   */\n      dup7\n        /* \"#utility.yul\":17203:17278   */\n      tag_134\n      jump\t// in\n    tag_325:\n        /* \"#utility.yul\":17303:17305   */\n      0x20\n        /* \"#utility.yul\":17298:17301   */\n      dup3\n        /* \"#utility.yul\":17294:17306   */\n      add\n        /* \"#utility.yul\":17287:17306   */\n      swap2\n      pop\n        /* \"#utility.yul\":17316:17391   */\n      tag_326\n        /* \"#utility.yul\":17387:17390   */\n      dup3\n        /* \"#utility.yul\":17378:17384   */\n      dup6\n        /* \"#utility.yul\":17316:17391   */\n      tag_134\n      jump\t// in\n    tag_326:\n        /* \"#utility.yul\":17416:17418   */\n      0x20\n        /* \"#utility.yul\":17411:17414   */\n      dup3\n        /* \"#utility.yul\":17407:17419   */\n      add\n        /* \"#utility.yul\":17400:17419   */\n      swap2\n      pop\n        /* \"#utility.yul\":17429:17504   */\n      tag_327\n        /* \"#utility.yul\":17500:17503   */\n      dup3\n        /* \"#utility.yul\":17491:17497   */\n      dup5\n        /* \"#utility.yul\":17429:17504   */\n      tag_136\n      jump\t// in\n    tag_327:\n        /* \"#utility.yul\":17529:17531   */\n      0x20\n        /* \"#utility.yul\":17524:17527   */\n      dup3\n        /* \"#utility.yul\":17520:17532   */\n      add\n        /* \"#utility.yul\":17513:17532   */\n      swap2\n      pop\n        /* \"#utility.yul\":17549:17552   */\n      dup2\n        /* \"#utility.yul\":17542:17552   */\n      swap1\n      pop\n        /* \"#utility.yul\":16879:17558   */\n      swap6\n      swap5\n      pop\n      pop\n      pop\n      pop\n      pop\n      jump\t// out\n\n    auxdata: 0xa264697066735822122018595a1528dc5eb3c7eb5c92a9dfe04c28bf3bda46c1394705a141a272f1988064736f6c634300081e0033\n}\n",
				"bytecode": {
					"linkReferences": {},
					"object": "6080604052348015600e575f5ffd5b506112698061001c5f395ff3fe608060405234801561000f575f5ffd5b5060043610610055575f3560e01c80634a15ef921461005957806369f5e26d146100755780638ed5b0fc14610091578063ae4be355146100af578063cabe0452146100e6575b5f5ffd5b610073600480360381019061006e9190610a22565b61011b565b005b61008f600480360381019061008a9190610b0d565b6102ac565b005b6100996103bf565b6040516100a69190610b47565b60405180910390f35b6100c960048036038101906100c49190610b0d565b6103c4565b6040516100dd989796959493929190610c28565b60405180910390f35b61010060048036038101906100fb9190610b0d565b6105c5565b60405161011296959493929190610cb9565b60405180910390f35b61012361085d565b5f819055506040518061010001604052805f5481526020018581526020018481526020018381526020013373ffffffffffffffffffffffffffffffffffffffff1681526020018281526020015f81526020016001151581525060015f5f5481526020019081526020015f205f820151815f015560208201518160010190816101ab9190610f2a565b5060408201518160020190816101c19190610f2a565b5060608201518160030190816101d79190610f2a565b506080820151816004015f6101000a81548173ffffffffffffffffffffffffffffffffffffffff021916908373ffffffffffffffffffffffffffffffffffffffff16021790555060a0820151816005015560c0820151816006015560e0820151816007015f6101000a81548160ff0219169083151502179055509050503373ffffffffffffffffffffffffffffffffffffffff165f547ff06e7326656aba6aa1b1843cb7fecf5ba35e15233a4c34c11deb25205faa7cd3868460405161029e929190610ff9565b60405180910390a350505050565b60015f8281526020019081526020015f206004015f9054906101000a900473ffffffffffffffffffffffffffffffffffffffff1673ffffffffffffffffffffffffffffffffffffffff163373ffffffffffffffffffffffffffffffffffffffff161461034d576040517f08c379a0000000000000000000000000000000000000000000000000000000008152600401610344906110e3565b60405180910390fd5b5f60015f8381526020019081526020015f206007015f6101000a81548160ff0219169083151502179055503373ffffffffffffffffffffffffffffffffffffffff16817f3f3339f8794d1bfb806c618a74d02f8393885d62139c8bc23d96c7247e6261d660405160405180910390a350565b5f5481565b6001602052805f5260405f205f91509050805f0154908060010180546103e990610d5a565b80601f016020809104026020016040519081016040528092919081815260200182805461041590610d5a565b80156104605780601f1061043757610100808354040283529160200191610460565b820191905f5260205f20905b81548152906001019060200180831161044357829003601f168201915b50505050509080600201805461047590610d5a565b80601f01602080910402602001604051908101604052809291908181526020018280546104a190610d5a565b80156104ec5780601f106104c3576101008083540402835291602001916104ec565b820191905f5260205f20905b8154815290600101906020018083116104cf57829003601f168201915b50505050509080600301805461050190610d5a565b80601f016020809104026020016040519081016040528092919081815260200182805461052d90610d5a565b80156105785780601f1061054f57610100808354040283529160200191610578565b820191905f5260205f20905b81548152906001019060200180831161055b57829003601f168201915b505050505090806004015f9054906101000a900473ffffffffffffffffffffffffffffffffffffffff1690806005015490806006015490806007015f9054906101000a900460ff16905088565b60608060605f5f5f5f60015f8981526020019081526020015f20604051806101000160405290815f820154815260200160018201805461060490610d5a565b80601f016020809104026020016040519081016040528092919081815260200182805461063090610d5a565b801561067b5780601f106106525761010080835404028352916020019161067b565b820191905f5260205f20905b81548152906001019060200180831161065e57829003601f168201915b5050505050815260200160028201805461069490610d5a565b80601f01602080910402602001604051908101604052809291908181526020018280546106c090610d5a565b801561070b5780601f106106e25761010080835404028352916020019161070b565b820191905f5260205f20905b8154815290600101906020018083116106ee57829003601f168201915b5050505050815260200160038201805461072490610d5a565b80601f016020809104026020016040519081016040528092919081815260200182805461075090610d5a565b801561079b5780601f106107725761010080835404028352916020019161079b565b820191905f5260205f20905b81548152906001019060200180831161077e57829003601f168201915b50505050508152602001600482015f9054906101000a900473ffffffffffffffffffffffffffffffffffffffff1673ffffffffffffffffffffffffffffffffffffffff1673ffffffffffffffffffffffffffffffffffffffff1681526020016005820154815260200160068201548152602001600782015f9054906101000a900460ff16151515158152505090508060200151816040015182606001518360a001518460c001518560e001519650965096509650965096505091939550919395565b5f5f33424460014361086f919061112e565b4060405160200161088394939291906111e6565b6040516020818303038152906040528051906020012090508091505090565b5f604051905090565b5f5ffd5b5f5ffd5b5f5ffd5b5f5ffd5b5f601f19601f8301169050919050565b7f4e487b71000000000000000000000000000000000000000000000000000000005f52604160045260245ffd5b610901826108bb565b810181811067ffffffffffffffff821117156109205761091f6108cb565b5b80604052505050565b5f6109326108a2565b905061093e82826108f8565b919050565b5f67ffffffffffffffff82111561095d5761095c6108cb565b5b610966826108bb565b9050602081019050919050565b828183375f83830152505050565b5f61099361098e84610943565b610929565b9050828152602081018484840111156109af576109ae6108b7565b5b6109ba848285610973565b509392505050565b5f82601f8301126109d6576109d56108b3565b5b81356109e6848260208601610981565b91505092915050565b5f819050919050565b610a01816109ef565b8114610a0b575f5ffd5b50565b5f81359050610a1c816109f8565b92915050565b5f5f5f5f60808587031215610a3a57610a396108ab565b5b5f85013567ffffffffffffffff811115610a5757610a566108af565b5b610a63878288016109c2565b945050602085013567ffffffffffffffff811115610a8457610a836108af565b5b610a90878288016109c2565b935050604085013567ffffffffffffffff811115610ab157610ab06108af565b5b610abd878288016109c2565b9250506060610ace87828801610a0e565b91505092959194509250565b5f819050919050565b610aec81610ada565b8114610af6575f5ffd5b50565b5f81359050610b0781610ae3565b92915050565b5f60208284031215610b2257610b216108ab565b5b5f610b2f84828501610af9565b91505092915050565b610b4181610ada565b82525050565b5f602082019050610b5a5f830184610b38565b92915050565b5f81519050919050565b5f82825260208201905092915050565b8281835e5f83830152505050565b5f610b9282610b60565b610b9c8185610b6a565b9350610bac818560208601610b7a565b610bb5816108bb565b840191505092915050565b5f73ffffffffffffffffffffffffffffffffffffffff82169050919050565b5f610be982610bc0565b9050919050565b610bf981610bdf565b82525050565b610c08816109ef565b82525050565b5f8115159050919050565b610c2281610c0e565b82525050565b5f61010082019050610c3c5f83018b610b38565b8181036020830152610c4e818a610b88565b90508181036040830152610c628189610b88565b90508181036060830152610c768188610b88565b9050610c856080830187610bf0565b610c9260a0830186610bff565b610c9f60c0830185610bff565b610cac60e0830184610c19565b9998505050505050505050565b5f60c0820190508181035f830152610cd18189610b88565b90508181036020830152610ce58188610b88565b90508181036040830152610cf98187610b88565b9050610d086060830186610bff565b610d156080830185610bff565b610d2260a0830184610c19565b979650505050505050565b7f4e487b71000000000000000000000000000000000000000000000000000000005f52602260045260245ffd5b5f6002820490506001821680610d7157607f821691505b602082108103610d8457610d83610d2d565b5b50919050565b5f819050815f5260205f209050919050565b5f6020601f8301049050919050565b5f82821b905092915050565b5f60088302610de67fffffffffffffffffffffffffffffffffffffffffffffffffffffffffffffffff82610dab565b610df08683610dab565b95508019841693508086168417925050509392505050565b5f819050919050565b5f610e2b610e26610e21846109ef565b610e08565b6109ef565b9050919050565b5f819050919050565b610e4483610e11565b610e58610e5082610e32565b848454610db7565b825550505050565b5f5f905090565b610e6f610e60565b610e7a818484610e3b565b505050565b5b81811015610e9d57610e925f82610e67565b600181019050610e80565b5050565b601f821115610ee257610eb381610d8a565b610ebc84610d9c565b81016020851015610ecb578190505b610edf610ed785610d9c565b830182610e7f565b50505b505050565b5f82821c905092915050565b5f610f025f1984600802610ee7565b1980831691505092915050565b5f610f1a8383610ef3565b9150826002028217905092915050565b610f3382610b60565b67ffffffffffffffff811115610f4c57610f4b6108cb565b5b610f568254610d5a565b610f61828285610ea1565b5f60209050601f831160018114610f92575f8415610f80578287015190505b610f8a8582610f0f565b865550610ff1565b601f198416610fa086610d8a565b5f5b82811015610fc757848901518255600182019150602085019450602081019050610fa2565b86831015610fe45784890151610fe0601f891682610ef3565b8355505b6001600288020188555050505b505050505050565b5f6040820190508181035f8301526110118185610b88565b90506110206020830184610bff565b9392505050565b7f4f6e6c792041646d696e2f4e474f2063616e20636c6f7365207468652063616d5f8201527f706169676e2e20506c6561736520757365207468652073616d65204143434f5560208201527f4e54207573656420666f72207374617274696e67207468652063616d7020746f60408201527f20636c6f73652069742121210000000000000000000000000000000000000000606082015250565b5f6110cd606c83610b6a565b91506110d882611027565b608082019050919050565b5f6020820190508181035f8301526110fa816110c1565b9050919050565b7f4e487b71000000000000000000000000000000000000000000000000000000005f52601160045260245ffd5b5f611138826109ef565b9150611143836109ef565b925082820390508181111561115b5761115a611101565b5b92915050565b5f8160601b9050919050565b5f61117782611161565b9050919050565b5f6111888261116d565b9050919050565b6111a061119b82610bdf565b61117e565b82525050565b5f819050919050565b6111c06111bb826109ef565b6111a6565b82525050565b5f819050919050565b6111e06111db82610ada565b6111c6565b82525050565b5f6111f1828761118f565b60148201915061120182866111af565b60208201915061121182856111af565b60208201915061122182846111cf565b6020820191508190509594505050505056fea264697066735822122018595a1528dc5eb3c7eb5c92a9dfe04c28bf3bda46c1394705a141a272f1988064736f6c634300081e0033",
					"opcodes": "PUSH1 0x80 PUSH1 0x40 MSTORE CALLVALUE DUP1 ISZERO PUSH1 0xE JUMPI PUSH0 PUSH0 REVERT JUMPDEST POP PUSH2 0x1269 DUP1 PUSH2 0x1C PUSH0 CODECOPY PUSH0 RETURN INVALID PUSH1 0x80 PUSH1 0x40 MSTORE CALLVALUE DUP1 ISZERO PUSH2 0xF JUMPI PUSH0 PUSH0 REVERT JUMPDEST POP PUSH1 0x4 CALLDATASIZE LT PUSH2 0x55 JUMPI PUSH0 CALLDATALOAD PUSH1 0xE0 SHR DUP1 PUSH4 0x4A15EF92 EQ PUSH2 0x59 JUMPI DUP1 PUSH4 0x69F5E26D EQ PUSH2 0x75 JUMPI DUP1 PUSH4 0x8ED5B0FC EQ PUSH2 0x91 JUMPI DUP1 PUSH4 0xAE4BE355 EQ PUSH2 0xAF JUMPI DUP1 PUSH4 0xCABE0452 EQ PUSH2 0xE6 JUMPI JUMPDEST PUSH0 PUSH0 REVERT JUMPDEST PUSH2 0x73 PUSH1 0x4 DUP1 CALLDATASIZE SUB DUP2 ADD SWAP1 PUSH2 0x6E SWAP2 SWAP1 PUSH2 0xA22 JUMP JUMPDEST PUSH2 0x11B JUMP JUMPDEST STOP JUMPDEST PUSH2 0x8F PUSH1 0x4 DUP1 CALLDATASIZE SUB DUP2 ADD SWAP1 PUSH2 0x8A SWAP2 SWAP1 PUSH2 0xB0D JUMP JUMPDEST PUSH2 0x2AC JUMP JUMPDEST STOP JUMPDEST PUSH2 0x99 PUSH2 0x3BF JUMP JUMPDEST PUSH1 0x40 MLOAD PUSH2 0xA6 SWAP2 SWAP1 PUSH2 0xB47 JUMP JUMPDEST PUSH1 0x40 MLOAD DUP1 SWAP2 SUB SWAP1 RETURN JUMPDEST PUSH2 0xC9 PUSH1 0x4 DUP1 CALLDATASIZE SUB DUP2 ADD SWAP1 PUSH2 0xC4 SWAP2 SWAP1 PUSH2 0xB0D JUMP JUMPDEST PUSH2 0x3C4 JUMP JUMPDEST PUSH1 0x40 MLOAD PUSH2 0xDD SWAP9 SWAP8 SWAP7 SWAP6 SWAP5 SWAP4 SWAP3 SWAP2 SWAP1 PUSH2 0xC28 JUMP JUMPDEST PUSH1 0x40 MLOAD DUP1 SWAP2 SUB SWAP1 RETURN JUMPDEST PUSH2 0x100 PUSH1 0x4 DUP1 CALLDATASIZE SUB DUP2 ADD SWAP1 PUSH2 0xFB SWAP2 SWAP1 PUSH2 0xB0D JUMP JUMPDEST PUSH2 0x5C5 JUMP JUMPDEST PUSH1 0x40 MLOAD PUSH2 0x112 SWAP7 SWAP6 SWAP5 SWAP4 SWAP3 SWAP2 SWAP1 PUSH2 0xCB9 JUMP JUMPDEST PUSH1 0x40 MLOAD DUP1 SWAP2 SUB SWAP1 RETURN JUMPDEST PUSH2 0x123 PUSH2 0x85D JUMP JUMPDEST PUSH0 DUP2 SWAP1 SSTORE POP PUSH1 0x40 MLOAD DUP1 PUSH2 0x100 ADD PUSH1 0x40 MSTORE DUP1 PUSH0 SLOAD DUP2 MSTORE PUSH1 0x20 ADD DUP6 DUP2 MSTORE PUSH1 0x20 ADD DUP5 DUP2 MSTORE PUSH1 0x20 ADD DUP4 DUP2 MSTORE PUSH1 0x20 ADD CALLER PUSH20 0xFFFFFFFFFFFFFFFFFFFFFFFFFFFFFFFFFFFFFFFF AND DUP2 MSTORE PUSH1 0x20 ADD DUP3 DUP2 MSTORE PUSH1 0x20 ADD PUSH0 DUP2 MSTORE PUSH1 0x20 ADD PUSH1 0x1 ISZERO ISZERO DUP2 MSTORE POP PUSH1 0x1 PUSH0 PUSH0 SLOAD DUP2 MSTORE PUSH1 0x20 ADD SWAP1 DUP2 MSTORE PUSH1 0x20 ADD PUSH0 KECCAK256 PUSH0 DUP3 ADD MLOAD DUP2 PUSH0 ADD SSTORE PUSH1 0x20 DUP3 ADD MLOAD DUP2 PUSH1 0x1 ADD SWAP1 DUP2 PUSH2 0x1AB SWAP2 SWAP1 PUSH2 0xF2A JUMP JUMPDEST POP PUSH1 0x40 DUP3 ADD MLOAD DUP2 PUSH1 0x2 ADD SWAP1 DUP2 PUSH2 0x1C1 SWAP2 SWAP1 PUSH2 0xF2A JUMP JUMPDEST POP PUSH1 0x60 DUP3 ADD MLOAD DUP2 PUSH1 0x3 ADD SWAP1 DUP2 PUSH2 0x1D7 SWAP2 SWAP1 PUSH2 0xF2A JUMP JUMPDEST POP PUSH1 0x80 DUP3 ADD MLOAD DUP2 PUSH1 0x4 ADD PUSH0 PUSH2 0x100 EXP DUP2 SLOAD DUP2 PUSH20 0xFFFFFFFFFFFFFFFFFFFFFFFFFFFFFFFFFFFFFFFF MUL NOT AND SWAP1 DUP4 PUSH20 0xFFFFFFFFFFFFFFFFFFFFFFFFFFFFFFFFFFFFFFFF AND MUL OR SWAP1 SSTORE POP PUSH1 0xA0 DUP3 ADD MLOAD DUP2 PUSH1 0x5 ADD SSTORE PUSH1 0xC0 DUP3 ADD MLOAD DUP2 PUSH1 0x6 ADD SSTORE PUSH1 0xE0 DUP3 ADD MLOAD DUP2 PUSH1 0x7 ADD PUSH0 PUSH2 0x100 EXP DUP2 SLOAD DUP2 PUSH1 0xFF MUL NOT AND SWAP1 DUP4 ISZERO ISZERO MUL OR SWAP1 SSTORE POP SWAP1 POP POP CALLER PUSH20 0xFFFFFFFFFFFFFFFFFFFFFFFFFFFFFFFFFFFFFFFF AND PUSH0 SLOAD PUSH32 0xF06E7326656ABA6AA1B1843CB7FECF5BA35E15233A4C34C11DEB25205FAA7CD3 DUP7 DUP5 PUSH1 0x40 MLOAD PUSH2 0x29E SWAP3 SWAP2 SWAP1 PUSH2 0xFF9 JUMP JUMPDEST PUSH1 0x40 MLOAD DUP1 SWAP2 SUB SWAP1 LOG3 POP POP POP POP JUMP JUMPDEST PUSH1 0x1 PUSH0 DUP3 DUP2 MSTORE PUSH1 0x20 ADD SWAP1 DUP2 MSTORE PUSH1 0x20 ADD PUSH0 KECCAK256 PUSH1 0x4 ADD PUSH0 SWAP1 SLOAD SWAP1 PUSH2 0x100 EXP SWAP1 DIV PUSH20 0xFFFFFFFFFFFFFFFFFFFFFFFFFFFFFFFFFFFFFFFF AND PUSH20 0xFFFFFFFFFFFFFFFFFFFFFFFFFFFFFFFFFFFFFFFF AND CALLER PUSH20 0xFFFFFFFFFFFFFFFFFFFFFFFFFFFFFFFFFFFFFFFF AND EQ PUSH2 0x34D JUMPI PUSH1 0x40 MLOAD PUSH32 0x8C379A000000000000000000000000000000000000000000000000000000000 DUP2 MSTORE PUSH1 0x4 ADD PUSH2 0x344 SWAP1 PUSH2 0x10E3 JUMP JUMPDEST PUSH1 0x40 MLOAD DUP1 SWAP2 SUB SWAP1 REVERT JUMPDEST PUSH0 PUSH1 0x1 PUSH0 DUP4 DUP2 MSTORE PUSH1 0x20 ADD SWAP1 DUP2 MSTORE PUSH1 0x20 ADD PUSH0 KECCAK256 PUSH1 0x7 ADD PUSH0 PUSH2 0x100 EXP DUP2 SLOAD DUP2 PUSH1 0xFF MUL NOT AND SWAP1 DUP4 ISZERO ISZERO MUL OR SWAP1 SSTORE POP CALLER PUSH20 0xFFFFFFFFFFFFFFFFFFFFFFFFFFFFFFFFFFFFFFFF AND DUP2 PUSH32 0x3F3339F8794D1BFB806C618A74D02F8393885D62139C8BC23D96C7247E6261D6 PUSH1 0x40 MLOAD PUSH1 0x40 MLOAD DUP1 SWAP2 SUB SWAP1 LOG3 POP JUMP JUMPDEST PUSH0 SLOAD DUP2 JUMP JUMPDEST PUSH1 0x1 PUSH1 0x20 MSTORE DUP1 PUSH0 MSTORE PUSH1 0x40 PUSH0 KECCAK256 PUSH0 SWAP2 POP SWAP1 POP DUP1 PUSH0 ADD SLOAD SWAP1 DUP1 PUSH1 0x1 ADD DUP1 SLOAD PUSH2 0x3E9 SWAP1 PUSH2 0xD5A JUMP JUMPDEST DUP1 PUSH1 0x1F ADD PUSH1 0x20 DUP1 SWAP2 DIV MUL PUSH1 0x20 ADD PUSH1 0x40 MLOAD SWAP1 DUP2 ADD PUSH1 0x40 MSTORE DUP1 SWAP3 SWAP2 SWAP1 DUP2 DUP2 MSTORE PUSH1 0x20 ADD DUP3 DUP1 SLOAD PUSH2 0x415 SWAP1 PUSH2 0xD5A JUMP JUMPDEST DUP1 ISZERO PUSH2 0x460 JUMPI DUP1 PUSH1 0x1F LT PUSH2 0x437 JUMPI PUSH2 0x100 DUP1 DUP4 SLOAD DIV MUL DUP4 MSTORE SWAP2 PUSH1 0x20 ADD SWAP2 PUSH2 0x460 JUMP JUMPDEST DUP3 ADD SWAP2 SWAP1 PUSH0 MSTORE PUSH1 0x20 PUSH0 KECCAK256 SWAP1 JUMPDEST DUP2 SLOAD DUP2 MSTORE SWAP1 PUSH1 0x1 ADD SWAP1 PUSH1 0x20 ADD DUP1 DUP4 GT PUSH2 0x443 JUMPI DUP3 SWAP1 SUB PUSH1 0x1F AND DUP3 ADD SWAP2 JUMPDEST POP POP POP POP POP SWAP1 DUP1 PUSH1 0x2 ADD DUP1 SLOAD PUSH2 0x475 SWAP1 PUSH2 0xD5A JUMP JUMPDEST DUP1 PUSH1 0x1F ADD PUSH1 0x20 DUP1 SWAP2 DIV MUL PUSH1 0x20 ADD PUSH1 0x40 MLOAD SWAP1 DUP2 ADD PUSH1 0x40 MSTORE DUP1 SWAP3 SWAP2 SWAP1 DUP2 DUP2 MSTORE PUSH1 0x20 ADD DUP3 DUP1 SLOAD PUSH2 0x4A1 SWAP1 PUSH2 0xD5A JUMP JUMPDEST DUP1 ISZERO PUSH2 0x4EC JUMPI DUP1 PUSH1 0x1F LT PUSH2 0x4C3 JUMPI PUSH2 0x100 DUP1 DUP4 SLOAD DIV MUL DUP4 MSTORE SWAP2 PUSH1 0x20 ADD SWAP2 PUSH2 0x4EC JUMP JUMPDEST DUP3 ADD SWAP2 SWAP1 PUSH0 MSTORE PUSH1 0x20 PUSH0 KECCAK256 SWAP1 JUMPDEST DUP2 SLOAD DUP2 MSTORE SWAP1 PUSH1 0x1 ADD SWAP1 PUSH1 0x20 ADD DUP1 DUP4 GT PUSH2 0x4CF JUMPI DUP3 SWAP1 SUB PUSH1 0x1F AND DUP3 ADD SWAP2 JUMPDEST POP POP POP POP POP SWAP1 DUP1 PUSH1 0x3 ADD DUP1 SLOAD PUSH2 0x501 SWAP1 PUSH2 0xD5A JUMP JUMPDEST DUP1 PUSH1 0x1F ADD PUSH1 0x20 DUP1 SWAP2 DIV MUL PUSH1 0x20 ADD PUSH1 0x40 MLOAD SWAP1 DUP2 ADD PUSH1 0x40 MSTORE DUP1 SWAP3 SWAP2 SWAP1 DUP2 DUP2 MSTORE PUSH1 0x20 ADD DUP3 DUP1 SLOAD PUSH2 0x52D SWAP1 PUSH2 0xD5A JUMP JUMPDEST DUP1 ISZERO PUSH2 0x578 JUMPI DUP1 PUSH1 0x1F LT PUSH2 0x54F JUMPI PUSH2 0x100 DUP1 DUP4 SLOAD DIV MUL DUP4 MSTORE SWAP2 PUSH1 0x20 ADD SWAP2 PUSH2 0x578 JUMP JUMPDEST DUP3 ADD SWAP2 SWAP1 PUSH0 MSTORE PUSH1 0x20 PUSH0 KECCAK256 SWAP1 JUMPDEST DUP2 SLOAD DUP2 MSTORE SWAP1 PUSH1 0x1 ADD SWAP1 PUSH1 0x20 ADD DUP1 DUP4 GT PUSH2 0x55B JUMPI DUP3 SWAP1 SUB PUSH1 0x1F AND DUP3 ADD SWAP2 JUMPDEST POP POP POP POP POP SWAP1 DUP1 PUSH1 0x4 ADD PUSH0 SWAP1 SLOAD SWAP1 PUSH2 0x100 EXP SWAP1 DIV PUSH20 0xFFFFFFFFFFFFFFFFFFFFFFFFFFFFFFFFFFFFFFFF AND SWAP1 DUP1 PUSH1 0x5 ADD SLOAD SWAP1 DUP1 PUSH1 0x6 ADD SLOAD SWAP1 DUP1 PUSH1 0x7 ADD PUSH0 SWAP1 SLOAD SWAP1 PUSH2 0x100 EXP SWAP1 DIV PUSH1 0xFF AND SWAP1 POP DUP9 JUMP JUMPDEST PUSH1 0x60 DUP1 PUSH1 0x60 PUSH0 PUSH0 PUSH0 PUSH0 PUSH1 0x1 PUSH0 DUP10 DUP2 MSTORE PUSH1 0x20 ADD SWAP1 DUP2 MSTORE PUSH1 0x20 ADD PUSH0 KECCAK256 PUSH1 0x40 MLOAD DUP1 PUSH2 0x100 ADD PUSH1 0x40 MSTORE SWAP1 DUP2 PUSH0 DUP3 ADD SLOAD DUP2 MSTORE PUSH1 0x20 ADD PUSH1 0x1 DUP3 ADD DUP1 SLOAD PUSH2 0x604 SWAP1 PUSH2 0xD5A JUMP JUMPDEST DUP1 PUSH1 0x1F ADD PUSH1 0x20 DUP1 SWAP2 DIV MUL PUSH1 0x20 ADD PUSH1 0x40 MLOAD SWAP1 DUP2 ADD PUSH1 0x40 MSTORE DUP1 SWAP3 SWAP2 SWAP1 DUP2 DUP2 MSTORE PUSH1 0x20 ADD DUP3 DUP1 SLOAD PUSH2 0x630 SWAP1 PUSH2 0xD5A JUMP JUMPDEST DUP1 ISZERO PUSH2 0x67B JUMPI DUP1 PUSH1 0x1F LT PUSH2 0x652 JUMPI PUSH2 0x100 DUP1 DUP4 SLOAD DIV MUL DUP4 MSTORE SWAP2 PUSH1 0x20 ADD SWAP2 PUSH2 0x67B JUMP JUMPDEST DUP3 ADD SWAP2 SWAP1 PUSH0 MSTORE PUSH1 0x20 PUSH0 KECCAK256 SWAP1 JUMPDEST DUP2 SLOAD DUP2 MSTORE SWAP1 PUSH1 0x1 ADD SWAP1 PUSH1 0x20 ADD DUP1 DUP4 GT PUSH2 0x65E JUMPI DUP3 SWAP1 SUB PUSH1 0x1F AND DUP3 ADD SWAP2 JUMPDEST POP POP POP POP POP DUP2 MSTORE PUSH1 0x20 ADD PUSH1 0x2 DUP3 ADD DUP1 SLOAD PUSH2 0x694 SWAP1 PUSH2 0xD5A JUMP JUMPDEST DUP1 PUSH1 0x1F ADD PUSH1 0x20 DUP1 SWAP2 DIV MUL PUSH1 0x20 ADD PUSH1 0x40 MLOAD SWAP1 DUP2 ADD PUSH1 0x40 MSTORE DUP1 SWAP3 SWAP2 SWAP1 DUP2 DUP2 MSTORE PUSH1 0x20 ADD DUP3 DUP1 SLOAD PUSH2 0x6C0 SWAP1 PUSH2 0xD5A JUMP JUMPDEST DUP1 ISZERO PUSH2 0x70B JUMPI DUP1 PUSH1 0x1F LT PUSH2 0x6E2 JUMPI PUSH2 0x100 DUP1 DUP4 SLOAD DIV MUL DUP4 MSTORE SWAP2 PUSH1 0x20 ADD SWAP2 PUSH2 0x70B JUMP JUMPDEST DUP3 ADD SWAP2 SWAP1 PUSH0 MSTORE PUSH1 0x20 PUSH0 KECCAK256 SWAP1 JUMPDEST DUP2 SLOAD DUP2 MSTORE SWAP1 PUSH1 0x1 ADD SWAP1 PUSH1 0x20 ADD DUP1 DUP4 GT PUSH2 0x6EE JUMPI DUP3 SWAP1 SUB PUSH1 0x1F AND DUP3 ADD SWAP2 JUMPDEST POP POP POP POP POP DUP2 MSTORE PUSH1 0x20 ADD PUSH1 0x3 DUP3 ADD DUP1 SLOAD PUSH2 0x724 SWAP1 PUSH2 0xD5A JUMP JUMPDEST DUP1 PUSH1 0x1F ADD PUSH1 0x20 DUP1 SWAP2 DIV MUL PUSH1 0x20 ADD PUSH1 0x40 MLOAD SWAP1 DUP2 ADD PUSH1 0x40 MSTORE DUP1 SWAP3 SWAP2 SWAP1 DUP2 DUP2 MSTORE PUSH1 0x20 ADD DUP3 DUP1 SLOAD PUSH2 0x750 SWAP1 PUSH2 0xD5A JUMP JUMPDEST DUP1 ISZERO PUSH2 0x79B JUMPI DUP1 PUSH1 0x1F LT PUSH2 0x772 JUMPI PUSH2 0x100 DUP1 DUP4 SLOAD DIV MUL DUP4 MSTORE SWAP2 PUSH1 0x20 ADD SWAP2 PUSH2 0x79B JUMP JUMPDEST DUP3 ADD SWAP2 SWAP1 PUSH0 MSTORE PUSH1 0x20 PUSH0 KECCAK256 SWAP1 JUMPDEST DUP2 SLOAD DUP2 MSTORE SWAP1 PUSH1 0x1 ADD SWAP1 PUSH1 0x20 ADD DUP1 DUP4 GT PUSH2 0x77E JUMPI DUP3 SWAP1 SUB PUSH1 0x1F AND DUP3 ADD SWAP2 JUMPDEST POP POP POP POP POP DUP2 MSTORE PUSH1 0x20 ADD PUSH1 0x4 DUP3 ADD PUSH0 SWAP1 SLOAD SWAP1 PUSH2 0x100 EXP SWAP1 DIV PUSH20 0xFFFFFFFFFFFFFFFFFFFFFFFFFFFFFFFFFFFFFFFF AND PUSH20 0xFFFFFFFFFFFFFFFFFFFFFFFFFFFFFFFFFFFFFFFF AND PUSH20 0xFFFFFFFFFFFFFFFFFFFFFFFFFFFFFFFFFFFFFFFF AND DUP2 MSTORE PUSH1 0x20 ADD PUSH1 0x5 DUP3 ADD SLOAD DUP2 MSTORE PUSH1 0x20 ADD PUSH1 0x6 DUP3 ADD SLOAD DUP2 MSTORE PUSH1 0x20 ADD PUSH1 0x7 DUP3 ADD PUSH0 SWAP1 SLOAD SWAP1 PUSH2 0x100 EXP SWAP1 DIV PUSH1 0xFF AND ISZERO ISZERO ISZERO ISZERO DUP2 MSTORE POP POP SWAP1 POP DUP1 PUSH1 0x20 ADD MLOAD DUP2 PUSH1 0x40 ADD MLOAD DUP3 PUSH1 0x60 ADD MLOAD DUP4 PUSH1 0xA0 ADD MLOAD DUP5 PUSH1 0xC0 ADD MLOAD DUP6 PUSH1 0xE0 ADD MLOAD SWAP7 POP SWAP7 POP SWAP7 POP SWAP7 POP SWAP7 POP SWAP7 POP POP SWAP2 SWAP4 SWAP6 POP SWAP2 SWAP4 SWAP6 JUMP JUMPDEST PUSH0 PUSH0 CALLER TIMESTAMP PREVRANDAO PUSH1 0x1 NUMBER PUSH2 0x86F SWAP2 SWAP1 PUSH2 0x112E JUMP JUMPDEST BLOCKHASH PUSH1 0x40 MLOAD PUSH1 0x20 ADD PUSH2 0x883 SWAP5 SWAP4 SWAP3 SWAP2 SWAP1 PUSH2 0x11E6 JUMP JUMPDEST PUSH1 0x40 MLOAD PUSH1 0x20 DUP2 DUP4 SUB SUB DUP2 MSTORE SWAP1 PUSH1 0x40 MSTORE DUP1 MLOAD SWAP1 PUSH1 0x20 ADD KECCAK256 SWAP1 POP DUP1 SWAP2 POP POP SWAP1 JUMP JUMPDEST PUSH0 PUSH1 0x40 MLOAD SWAP1 POP SWAP1 JUMP JUMPDEST PUSH0 PUSH0 REVERT JUMPDEST PUSH0 PUSH0 REVERT JUMPDEST PUSH0 PUSH0 REVERT JUMPDEST PUSH0 PUSH0 REVERT JUMPDEST PUSH0 PUSH1 0x1F NOT PUSH1 0x1F DUP4 ADD AND SWAP1 POP SWAP2 SWAP1 POP JUMP JUMPDEST PUSH32 0x4E487B7100000000000000000000000000000000000000000000000000000000 PUSH0 MSTORE PUSH1 0x41 PUSH1 0x4 MSTORE PUSH1 0x24 PUSH0 REVERT JUMPDEST PUSH2 0x901 DUP3 PUSH2 0x8BB JUMP JUMPDEST DUP2 ADD DUP2 DUP2 LT PUSH8 0xFFFFFFFFFFFFFFFF DUP3 GT OR ISZERO PUSH2 0x920 JUMPI PUSH2 0x91F PUSH2 0x8CB JUMP JUMPDEST JUMPDEST DUP1 PUSH1 0x40 MSTORE POP POP POP JUMP JUMPDEST PUSH0 PUSH2 0x932 PUSH2 0x8A2 JUMP JUMPDEST SWAP1 POP PUSH2 0x93E DUP3 DUP3 PUSH2 0x8F8 JUMP JUMPDEST SWAP2 SWAP1 POP JUMP JUMPDEST PUSH0 PUSH8 0xFFFFFFFFFFFFFFFF DUP3 GT ISZERO PUSH2 0x95D JUMPI PUSH2 0x95C PUSH2 0x8CB JUMP JUMPDEST JUMPDEST PUSH2 0x966 DUP3 PUSH2 0x8BB JUMP JUMPDEST SWAP1 POP PUSH1 0x20 DUP2 ADD SWAP1 POP SWAP2 SWAP1 POP JUMP JUMPDEST DUP3 DUP2 DUP4 CALLDATACOPY PUSH0 DUP4 DUP4 ADD MSTORE POP POP POP JUMP JUMPDEST PUSH0 PUSH2 0x993 PUSH2 0x98E DUP5 PUSH2 0x943 JUMP JUMPDEST PUSH2 0x929 JUMP JUMPDEST SWAP1 POP DUP3 DUP2 MSTORE PUSH1 0x20 DUP2 ADD DUP5 DUP5 DUP5 ADD GT ISZERO PUSH2 0x9AF JUMPI PUSH2 0x9AE PUSH2 0x8B7 JUMP JUMPDEST JUMPDEST PUSH2 0x9BA DUP5 DUP3 DUP6 PUSH2 0x973 JUMP JUMPDEST POP SWAP4 SWAP3 POP POP POP JUMP JUMPDEST PUSH0 DUP3 PUSH1 0x1F DUP4 ADD SLT PUSH2 0x9D6 JUMPI PUSH2 0x9D5 PUSH2 0x8B3 JUMP JUMPDEST JUMPDEST DUP2 CALLDATALOAD PUSH2 0x9E6 DUP5 DUP3 PUSH1 0x20 DUP7 ADD PUSH2 0x981 JUMP JUMPDEST SWAP2 POP POP SWAP3 SWAP2 POP POP JUMP JUMPDEST PUSH0 DUP2 SWAP1 POP SWAP2 SWAP1 POP JUMP JUMPDEST PUSH2 0xA01 DUP2 PUSH2 0x9EF JUMP JUMPDEST DUP2 EQ PUSH2 0xA0B JUMPI PUSH0 PUSH0 REVERT JUMPDEST POP JUMP JUMPDEST PUSH0 DUP2 CALLDATALOAD SWAP1 POP PUSH2 0xA1C DUP2 PUSH2 0x9F8 JUMP JUMPDEST SWAP3 SWAP2 POP POP JUMP JUMPDEST PUSH0 PUSH0 PUSH0 PUSH0 PUSH1 0x80 DUP6 DUP8 SUB SLT ISZERO PUSH2 0xA3A JUMPI PUSH2 0xA39 PUSH2 0x8AB JUMP JUMPDEST JUMPDEST PUSH0 DUP6 ADD CALLDATALOAD PUSH8 0xFFFFFFFFFFFFFFFF DUP2 GT ISZERO PUSH2 0xA57 JUMPI PUSH2 0xA56 PUSH2 0x8AF JUMP JUMPDEST JUMPDEST PUSH2 0xA63 DUP8 DUP3 DUP9 ADD PUSH2 0x9C2 JUMP JUMPDEST SWAP5 POP POP PUSH1 0x20 DUP6 ADD CALLDATALOAD PUSH8 0xFFFFFFFFFFFFFFFF DUP2 GT ISZERO PUSH2 0xA84 JUMPI PUSH2 0xA83 PUSH2 0x8AF JUMP JUMPDEST JUMPDEST PUSH2 0xA90 DUP8 DUP3 DUP9 ADD PUSH2 0x9C2 JUMP JUMPDEST SWAP4 POP POP PUSH1 0x40 DUP6 ADD CALLDATALOAD PUSH8 0xFFFFFFFFFFFFFFFF DUP2 GT ISZERO PUSH2 0xAB1 JUMPI PUSH2 0xAB0 PUSH2 0x8AF JUMP JUMPDEST JUMPDEST PUSH2 0xABD DUP8 DUP3 DUP9 ADD PUSH2 0x9C2 JUMP JUMPDEST SWAP3 POP POP PUSH1 0x60 PUSH2 0xACE DUP8 DUP3 DUP9 ADD PUSH2 0xA0E JUMP JUMPDEST SWAP2 POP POP SWAP3 SWAP6 SWAP2 SWAP5 POP SWAP3 POP JUMP JUMPDEST PUSH0 DUP2 SWAP1 POP SWAP2 SWAP1 POP JUMP JUMPDEST PUSH2 0xAEC DUP2 PUSH2 0xADA JUMP JUMPDEST DUP2 EQ PUSH2 0xAF6 JUMPI PUSH0 PUSH0 REVERT JUMPDEST POP JUMP JUMPDEST PUSH0 DUP2 CALLDATALOAD SWAP1 POP PUSH2 0xB07 DUP2 PUSH2 0xAE3 JUMP JUMPDEST SWAP3 SWAP2 POP POP JUMP JUMPDEST PUSH0 PUSH1 0x20 DUP3 DUP5 SUB SLT ISZERO PUSH2 0xB22 JUMPI PUSH2 0xB21 PUSH2 0x8AB JUMP JUMPDEST JUMPDEST PUSH0 PUSH2 0xB2F DUP5 DUP3 DUP6 ADD PUSH2 0xAF9 JUMP JUMPDEST SWAP2 POP POP SWAP3 SWAP2 POP POP JUMP JUMPDEST PUSH2 0xB41 DUP2 PUSH2 0xADA JUMP JUMPDEST DUP3 MSTORE POP POP JUMP JUMPDEST PUSH0 PUSH1 0x20 DUP3 ADD SWAP1 POP PUSH2 0xB5A PUSH0 DUP4 ADD DUP5 PUSH2 0xB38 JUMP JUMPDEST SWAP3 SWAP2 POP POP JUMP JUMPDEST PUSH0 DUP2 MLOAD SWAP1 POP SWAP2 SWAP1 POP JUMP JUMPDEST PUSH0 DUP3 DUP3 MSTORE PUSH1 0x20 DUP3 ADD SWAP1 POP SWAP3 SWAP2 POP POP JUMP JUMPDEST DUP3 DUP2 DUP4 MCOPY PUSH0 DUP4 DUP4 ADD MSTORE POP POP POP JUMP JUMPDEST PUSH0 PUSH2 0xB92 DUP3 PUSH2 0xB60 JUMP JUMPDEST PUSH2 0xB9C DUP2 DUP6 PUSH2 0xB6A JUMP JUMPDEST SWAP4 POP PUSH2 0xBAC DUP2 DUP6 PUSH1 0x20 DUP7 ADD PUSH2 0xB7A JUMP JUMPDEST PUSH2 0xBB5 DUP2 PUSH2 0x8BB JUMP JUMPDEST DUP5 ADD SWAP2 POP POP SWAP3 SWAP2 POP POP JUMP JUMPDEST PUSH0 PUSH20 0xFFFFFFFFFFFFFFFFFFFFFFFFFFFFFFFFFFFFFFFF DUP3 AND SWAP1 POP SWAP2 SWAP1 POP JUMP JUMPDEST PUSH0 PUSH2 0xBE9 DUP3 PUSH2 0xBC0 JUMP JUMPDEST SWAP1 POP SWAP2 SWAP1 POP JUMP JUMPDEST PUSH2 0xBF9 DUP2 PUSH2 0xBDF JUMP JUMPDEST DUP3 MSTORE POP POP JUMP JUMPDEST PUSH2 0xC08 DUP2 PUSH2 0x9EF JUMP JUMPDEST DUP3 MSTORE POP POP JUMP JUMPDEST PUSH0 DUP2 ISZERO ISZERO SWAP1 POP SWAP2 SWAP1 POP JUMP JUMPDEST PUSH2 0xC22 DUP2 PUSH2 0xC0E JUMP JUMPDEST DUP3 MSTORE POP POP JUMP JUMPDEST PUSH0 PUSH2 0x100 DUP3 ADD SWAP1 POP PUSH2 0xC3C PUSH0 DUP4 ADD DUP12 PUSH2 0xB38 JUMP JUMPDEST DUP2 DUP2 SUB PUSH1 0x20 DUP4 ADD MSTORE PUSH2 0xC4E DUP2 DUP11 PUSH2 0xB88 JUMP JUMPDEST SWAP1 POP DUP2 DUP2 SUB PUSH1 0x40 DUP4 ADD MSTORE PUSH2 0xC62 DUP2 DUP10 PUSH2 0xB88 JUMP JUMPDEST SWAP1 POP DUP2 DUP2 SUB PUSH1 0x60 DUP4 ADD MSTORE PUSH2 0xC76 DUP2 DUP9 PUSH2 0xB88 JUMP JUMPDEST SWAP1 POP PUSH2 0xC85 PUSH1 0x80 DUP4 ADD DUP8 PUSH2 0xBF0 JUMP JUMPDEST PUSH2 0xC92 PUSH1 0xA0 DUP4 ADD DUP7 PUSH2 0xBFF JUMP JUMPDEST PUSH2 0xC9F PUSH1 0xC0 DUP4 ADD DUP6 PUSH2 0xBFF JUMP JUMPDEST PUSH2 0xCAC PUSH1 0xE0 DUP4 ADD DUP5 PUSH2 0xC19 JUMP JUMPDEST SWAP10 SWAP9 POP POP POP POP POP POP POP POP POP JUMP JUMPDEST PUSH0 PUSH1 0xC0 DUP3 ADD SWAP1 POP DUP2 DUP2 SUB PUSH0 DUP4 ADD MSTORE PUSH2 0xCD1 DUP2 DUP10 PUSH2 0xB88 JUMP JUMPDEST SWAP1 POP DUP2 DUP2 SUB PUSH1 0x20 DUP4 ADD MSTORE PUSH2 0xCE5 DUP2 DUP9 PUSH2 0xB88 JUMP JUMPDEST SWAP1 POP DUP2 DUP2 SUB PUSH1 0x40 DUP4 ADD MSTORE PUSH2 0xCF9 DUP2 DUP8 PUSH2 0xB88 JUMP JUMPDEST SWAP1 POP PUSH2 0xD08 PUSH1 0x60 DUP4 ADD DUP7 PUSH2 0xBFF JUMP JUMPDEST PUSH2 0xD15 PUSH1 0x80 DUP4 ADD DUP6 PUSH2 0xBFF JUMP JUMPDEST PUSH2 0xD22 PUSH1 0xA0 DUP4 ADD DUP5 PUSH2 0xC19 JUMP JUMPDEST SWAP8 SWAP7 POP POP POP POP POP POP POP JUMP JUMPDEST PUSH32 0x4E487B7100000000000000000000000000000000000000000000000000000000 PUSH0 MSTORE PUSH1 0x22 PUSH1 0x4 MSTORE PUSH1 0x24 PUSH0 REVERT JUMPDEST PUSH0 PUSH1 0x2 DUP3 DIV SWAP1 POP PUSH1 0x1 DUP3 AND DUP1 PUSH2 0xD71 JUMPI PUSH1 0x7F DUP3 AND SWAP2 POP JUMPDEST PUSH1 0x20 DUP3 LT DUP2 SUB PUSH2 0xD84 JUMPI PUSH2 0xD83 PUSH2 0xD2D JUMP JUMPDEST JUMPDEST POP SWAP2 SWAP1 POP JUMP JUMPDEST PUSH0 DUP2 SWAP1 POP DUP2 PUSH0 MSTORE PUSH1 0x20 PUSH0 KECCAK256 SWAP1 POP SWAP2 SWAP1 POP JUMP JUMPDEST PUSH0 PUSH1 0x20 PUSH1 0x1F DUP4 ADD DIV SWAP1 POP SWAP2 SWAP1 POP JUMP JUMPDEST PUSH0 DUP3 DUP3 SHL SWAP1 POP SWAP3 SWAP2 POP POP JUMP JUMPDEST PUSH0 PUSH1 0x8 DUP4 MUL PUSH2 0xDE6 PUSH32 0xFFFFFFFFFFFFFFFFFFFFFFFFFFFFFFFFFFFFFFFFFFFFFFFFFFFFFFFFFFFFFFFF DUP3 PUSH2 0xDAB JUMP JUMPDEST PUSH2 0xDF0 DUP7 DUP4 PUSH2 0xDAB JUMP JUMPDEST SWAP6 POP DUP1 NOT DUP5 AND SWAP4 POP DUP1 DUP7 AND DUP5 OR SWAP3 POP POP POP SWAP4 SWAP3 POP POP POP JUMP JUMPDEST PUSH0 DUP2 SWAP1 POP SWAP2 SWAP1 POP JUMP JUMPDEST PUSH0 PUSH2 0xE2B PUSH2 0xE26 PUSH2 0xE21 DUP5 PUSH2 0x9EF JUMP JUMPDEST PUSH2 0xE08 JUMP JUMPDEST PUSH2 0x9EF JUMP JUMPDEST SWAP1 POP SWAP2 SWAP1 POP JUMP JUMPDEST PUSH0 DUP2 SWAP1 POP SWAP2 SWAP1 POP JUMP JUMPDEST PUSH2 0xE44 DUP4 PUSH2 0xE11 JUMP JUMPDEST PUSH2 0xE58 PUSH2 0xE50 DUP3 PUSH2 0xE32 JUMP JUMPDEST DUP5 DUP5 SLOAD PUSH2 0xDB7 JUMP JUMPDEST DUP3 SSTORE POP POP POP POP JUMP JUMPDEST PUSH0 PUSH0 SWAP1 POP SWAP1 JUMP JUMPDEST PUSH2 0xE6F PUSH2 0xE60 JUMP JUMPDEST PUSH2 0xE7A DUP2 DUP5 DUP5 PUSH2 0xE3B JUMP JUMPDEST POP POP POP JUMP JUMPDEST JUMPDEST DUP2 DUP2 LT ISZERO PUSH2 0xE9D JUMPI PUSH2 0xE92 PUSH0 DUP3 PUSH2 0xE67 JUMP JUMPDEST PUSH1 0x1 DUP2 ADD SWAP1 POP PUSH2 0xE80 JUMP JUMPDEST POP POP JUMP JUMPDEST PUSH1 0x1F DUP3 GT ISZERO PUSH2 0xEE2 JUMPI PUSH2 0xEB3 DUP2 PUSH2 0xD8A JUMP JUMPDEST PUSH2 0xEBC DUP5 PUSH2 0xD9C JUMP JUMPDEST DUP2 ADD PUSH1 0x20 DUP6 LT ISZERO PUSH2 0xECB JUMPI DUP2 SWAP1 POP JUMPDEST PUSH2 0xEDF PUSH2 0xED7 DUP6 PUSH2 0xD9C JUMP JUMPDEST DUP4 ADD DUP3 PUSH2 0xE7F JUMP JUMPDEST POP POP JUMPDEST POP POP POP JUMP JUMPDEST PUSH0 DUP3 DUP3 SHR SWAP1 POP SWAP3 SWAP2 POP POP JUMP JUMPDEST PUSH0 PUSH2 0xF02 PUSH0 NOT DUP5 PUSH1 0x8 MUL PUSH2 0xEE7 JUMP JUMPDEST NOT DUP1 DUP4 AND SWAP2 POP POP SWAP3 SWAP2 POP POP JUMP JUMPDEST PUSH0 PUSH2 0xF1A DUP4 DUP4 PUSH2 0xEF3 JUMP JUMPDEST SWAP2 POP DUP3 PUSH1 0x2 MUL DUP3 OR SWAP1 POP SWAP3 SWAP2 POP POP JUMP JUMPDEST PUSH2 0xF33 DUP3 PUSH2 0xB60 JUMP JUMPDEST PUSH8 0xFFFFFFFFFFFFFFFF DUP2 GT ISZERO PUSH2 0xF4C JUMPI PUSH2 0xF4B PUSH2 0x8CB JUMP JUMPDEST JUMPDEST PUSH2 0xF56 DUP3 SLOAD PUSH2 0xD5A JUMP JUMPDEST PUSH2 0xF61 DUP3 DUP3 DUP6 PUSH2 0xEA1 JUMP JUMPDEST PUSH0 PUSH1 0x20 SWAP1 POP PUSH1 0x1F DUP4 GT PUSH1 0x1 DUP2 EQ PUSH2 0xF92 JUMPI PUSH0 DUP5 ISZERO PUSH2 0xF80 JUMPI DUP3 DUP8 ADD MLOAD SWAP1 POP JUMPDEST PUSH2 0xF8A DUP6 DUP3 PUSH2 0xF0F JUMP JUMPDEST DUP7 SSTORE POP PUSH2 0xFF1 JUMP JUMPDEST PUSH1 0x1F NOT DUP5 AND PUSH2 0xFA0 DUP7 PUSH2 0xD8A JUMP JUMPDEST PUSH0 JUMPDEST DUP3 DUP2 LT ISZERO PUSH2 0xFC7 JUMPI DUP5 DUP10 ADD MLOAD DUP3 SSTORE PUSH1 0x1 DUP3 ADD SWAP2 POP PUSH1 0x20 DUP6 ADD SWAP5 POP PUSH1 0x20 DUP2 ADD SWAP1 POP PUSH2 0xFA2 JUMP JUMPDEST DUP7 DUP4 LT ISZERO PUSH2 0xFE4 JUMPI DUP5 DUP10 ADD MLOAD PUSH2 0xFE0 PUSH1 0x1F DUP10 AND DUP3 PUSH2 0xEF3 JUMP JUMPDEST DUP4 SSTORE POP JUMPDEST PUSH1 0x1 PUSH1 0x2 DUP9 MUL ADD DUP9 SSTORE POP POP POP JUMPDEST POP POP POP POP POP POP JUMP JUMPDEST PUSH0 PUSH1 0x40 DUP3 ADD SWAP1 POP DUP2 DUP2 SUB PUSH0 DUP4 ADD MSTORE PUSH2 0x1011 DUP2 DUP6 PUSH2 0xB88 JUMP JUMPDEST SWAP1 POP PUSH2 0x1020 PUSH1 0x20 DUP4 ADD DUP5 PUSH2 0xBFF JUMP JUMPDEST SWAP4 SWAP3 POP POP POP JUMP JUMPDEST PUSH32 0x4F6E6C792041646D696E2F4E474F2063616E20636C6F7365207468652063616D PUSH0 DUP3 ADD MSTORE PUSH32 0x706169676E2E20506C6561736520757365207468652073616D65204143434F55 PUSH1 0x20 DUP3 ADD MSTORE PUSH32 0x4E54207573656420666F72207374617274696E67207468652063616D7020746F PUSH1 0x40 DUP3 ADD MSTORE PUSH32 0x20636C6F73652069742121210000000000000000000000000000000000000000 PUSH1 0x60 DUP3 ADD MSTORE POP JUMP JUMPDEST PUSH0 PUSH2 0x10CD PUSH1 0x6C DUP4 PUSH2 0xB6A JUMP JUMPDEST SWAP2 POP PUSH2 0x10D8 DUP3 PUSH2 0x1027 JUMP JUMPDEST PUSH1 0x80 DUP3 ADD SWAP1 POP SWAP2 SWAP1 POP JUMP JUMPDEST PUSH0 PUSH1 0x20 DUP3 ADD SWAP1 POP DUP2 DUP2 SUB PUSH0 DUP4 ADD MSTORE PUSH2 0x10FA DUP2 PUSH2 0x10C1 JUMP JUMPDEST SWAP1 POP SWAP2 SWAP1 POP JUMP JUMPDEST PUSH32 0x4E487B7100000000000000000000000000000000000000000000000000000000 PUSH0 MSTORE PUSH1 0x11 PUSH1 0x4 MSTORE PUSH1 0x24 PUSH0 REVERT JUMPDEST PUSH0 PUSH2 0x1138 DUP3 PUSH2 0x9EF JUMP JUMPDEST SWAP2 POP PUSH2 0x1143 DUP4 PUSH2 0x9EF JUMP JUMPDEST SWAP3 POP DUP3 DUP3 SUB SWAP1 POP DUP2 DUP2 GT ISZERO PUSH2 0x115B JUMPI PUSH2 0x115A PUSH2 0x1101 JUMP JUMPDEST JUMPDEST SWAP3 SWAP2 POP POP JUMP JUMPDEST PUSH0 DUP2 PUSH1 0x60 SHL SWAP1 POP SWAP2 SWAP1 POP JUMP JUMPDEST PUSH0 PUSH2 0x1177 DUP3 PUSH2 0x1161 JUMP JUMPDEST SWAP1 POP SWAP2 SWAP1 POP JUMP JUMPDEST PUSH0 PUSH2 0x1188 DUP3 PUSH2 0x116D JUMP JUMPDEST SWAP1 POP SWAP2 SWAP1 POP JUMP JUMPDEST PUSH2 0x11A0 PUSH2 0x119B DUP3 PUSH2 0xBDF JUMP JUMPDEST PUSH2 0x117E JUMP JUMPDEST DUP3 MSTORE POP POP JUMP JUMPDEST PUSH0 DUP2 SWAP1 POP SWAP2 SWAP1 POP JUMP JUMPDEST PUSH2 0x11C0 PUSH2 0x11BB DUP3 PUSH2 0x9EF JUMP JUMPDEST PUSH2 0x11A6 JUMP JUMPDEST DUP3 MSTORE POP POP JUMP JUMPDEST PUSH0 DUP2 SWAP1 POP SWAP2 SWAP1 POP JUMP JUMPDEST PUSH2 0x11E0 PUSH2 0x11DB DUP3 PUSH2 0xADA JUMP JUMPDEST PUSH2 0x11C6 JUMP JUMPDEST DUP3 MSTORE POP POP JUMP JUMPDEST PUSH0 PUSH2 0x11F1 DUP3 DUP8 PUSH2 0x118F JUMP JUMPDEST PUSH1 0x14 DUP3 ADD SWAP2 POP PUSH2 0x1201 DUP3 DUP7 PUSH2 0x11AF JUMP JUMPDEST PUSH1 0x20 DUP3 ADD SWAP2 POP PUSH2 0x1211 DUP3 DUP6 PUSH2 0x11AF JUMP JUMPDEST PUSH1 0x20 DUP3 ADD SWAP2 POP PUSH2 0x1221 DUP3 DUP5 PUSH2 0x11CF JUMP JUMPDEST PUSH1 0x20 DUP3 ADD SWAP2 POP DUP2 SWAP1 POP SWAP6 SWAP5 POP POP POP POP POP JUMP INVALID LOG2 PUSH5 0x6970667358 0x22 SLT KECCAK256 XOR MSIZE GAS ISZERO 0x28 0xDC MCOPY 0xB3 0xC7 0xEB TLOAD SWAP3 0xA9 0xDF RJUMP 0x4C28 0xBF EXTCODESIZE 0xDA CHAINID 0xC1 CODECOPY SELFBALANCE SDIV LOG1 COINBASE LOG2 PUSH19 0xF1988064736F6C634300081E00330000000000 "
				},
				"gasEstimates": {
					"creation": {
						"codeDepositCost": "942600",
						"executionCost": "979",
						"totalCost": "943579"
					},
					"external": {
						"Campaigns(bytes32)": "infinite",
						"campaignId()": "2446",
						"closeCampaign(bytes32)": "28537",
						"createCampaign(string,string,string,uint256)": "infinite",
						"getCampaign(bytes32)": "infinite"
					},
					"internal": {
						"uniqueIdGenearator()": "infinite"
					}
				},
				"methodIdentifiers": {
					"Campaigns(bytes32)": "ae4be355",
					"campaignId()": "8ed5b0fc",
					"closeCampaign(bytes32)": "69f5e26d",
					"createCampaign(string,string,string,uint256)": "4a15ef92",
					"getCampaign(bytes32)": "cabe0452"
				}
			},
			"storageLayout": {
				"storage": [
					{
						"astId": 20,
						"contract": "CampaignManager.sol:CampaignManager",
						"label": "campaignId",
						"offset": 0,
						"slot": "0",
						"type": "t_bytes32"
					},
					{
						"astId": 25,
						"contract": "CampaignManager.sol:CampaignManager",
						"label": "Campaigns",
						"offset": 0,
						"slot": "1",
						"type": "t_mapping(t_bytes32,t_struct(newCampaign)18_storage)"
					}
				],
				"types": {
					"t_address": {
						"encoding": "inplace",
						"label": "address",
						"numberOfBytes": "20"
					},
					"t_bool": {
						"encoding": "inplace",
						"label": "bool",
						"numberOfBytes": "1"
					},
					"t_bytes32": {
						"encoding": "inplace",
						"label": "bytes32",
						"numberOfBytes": "32"
					},
					"t_mapping(t_bytes32,t_struct(newCampaign)18_storage)": {
						"encoding": "mapping",
						"key": "t_bytes32",
						"label": "mapping(bytes32 => struct CampaignManager.newCampaign)",
						"numberOfBytes": "32",
						"value": "t_struct(newCampaign)18_storage"
					},
					"t_string_storage": {
						"encoding": "bytes",
						"label": "string",
						"numberOfBytes": "32"
					},
					"t_struct(newCampaign)18_storage": {
						"encoding": "inplace",
						"label": "struct CampaignManager.newCampaign",
						"members": [
							{
								"astId": 3,
								"contract": "CampaignManager.sol:CampaignManager",
								"label": "Campaign_id",
								"offset": 0,
								"slot": "0",
								"type": "t_bytes32"
							},
							{
								"astId": 5,
								"contract": "CampaignManager.sol:CampaignManager",
								"label": "title",
								"offset": 0,
								"slot": "1",
								"type": "t_string_storage"
							},
							{
								"astId": 7,
								"contract": "CampaignManager.sol:CampaignManager",
								"label": "description",
								"offset": 0,
								"slot": "2",
								"type": "t_string_storage"
							},
							{
								"astId": 9,
								"contract": "CampaignManager.sol:CampaignManager",
								"label": "location",
								"offset": 0,
								"slot": "3",
								"type": "t_string_storage"
							},
							{
								"astId": 11,
								"contract": "CampaignManager.sol:CampaignManager",
								"label": "ngo",
								"offset": 0,
								"slot": "4",
								"type": "t_address"
							},
							{
								"astId": 13,
								"contract": "CampaignManager.sol:CampaignManager",
								"label": "targetAmount",
								"offset": 0,
								"slot": "5",
								"type": "t_uint256"
							},
							{
								"astId": 15,
								"contract": "CampaignManager.sol:CampaignManager",
								"label": "totalReceived",
								"offset": 0,
								"slot": "6",
								"type": "t_uint256"
							},
							{
								"astId": 17,
								"contract": "CampaignManager.sol:CampaignManager",
								"label": "isActive",
								"offset": 0,
								"slot": "7",
								"type": "t_bool"
							}
						],
						"numberOfBytes": "256"
					},
					"t_uint256": {
						"encoding": "inplace",
						"label": "uint256",
						"numberOfBytes": "32"
					}
				}
			},
			"userdoc": {
				"kind": "user",
				"methods": {},
				"version": 1
			}
		}
	}
}