{
	"contracts/DonationManager.sol": {
		"DonationManager": {
			"abi": [
				{
					"inputs": [
						{
							"internalType": "string",
							"name": "transactionId",
							"type": "string"
						},
						{
							"internalType": "string",
							"name": "campaignId",
							"type": "string"
						},
						{
							"internalType": "bytes15",
							"name": "donorId",
							"type": "bytes15"
						},
						{
							"internalType": "string",
							"name": "donorUserName",
							"type": "string"
						},
						{
							"internalType": "uint256",
							"name": "amount",
							"type": "uint256"
						},
						{
							"internalType": "string",
							"name": "proofHash",
							"type": "string"
						}
					],
					"name": "donate",
					"outputs": [],
					"stateMutability": "nonpayable",
					"type": "function"
				},
				{
					"inputs": [
						{
							"internalType": "bytes15",
							"name": "donorId",
							"type": "bytes15"
						}
					],
					"name": "getDonationsByDonorId",
					"outputs": [
						{
							"components": [
								{
									"internalType": "string",
									"name": "donationId",
									"type": "string"
								},
								{
									"internalType": "string",
									"name": "campaignId",
									"type": "string"
								},
								{
									"internalType": "bytes15",
									"name": "donorId",
									"type": "bytes15"
								},
								{
									"internalType": "string",
									"name": "donorUserName",
									"type": "string"
								},
								{
									"internalType": "uint256",
									"name": "amount",
									"type": "uint256"
								},
								{
									"internalType": "string",
									"name": "proofHash",
									"type": "string"
								},
								{
									"internalType": "uint256",
									"name": "timestamp",
									"type": "uint256"
								}
							],
							"internalType": "struct DonationManager.Donation[]",
							"name": "",
							"type": "tuple[]"
						}
					],
					"stateMutability": "view",
					"type": "function"
				},
				{
					"inputs": [
						{
							"internalType": "string",
							"name": "donorUsername",
							"type": "string"
						}
					],
					"name": "getDonationsByDonorUsername",
					"outputs": [
						{
							"components": [
								{
									"internalType": "string",
									"name": "donationId",
									"type": "string"
								},
								{
									"internalType": "string",
									"name": "campaignId",
									"type": "string"
								},
								{
									"internalType": "bytes15",
									"name": "donorId",
									"type": "bytes15"
								},
								{
									"internalType": "string",
									"name": "donorUserName",
									"type": "string"
								},
								{
									"internalType": "uint256",
									"name": "amount",
									"type": "uint256"
								},
								{
									"internalType": "string",
									"name": "proofHash",
									"type": "string"
								},
								{
									"internalType": "uint256",
									"name": "timestamp",
									"type": "uint256"
								}
							],
							"internalType": "struct DonationManager.Donation[]",
							"name": "",
							"type": "tuple[]"
						}
					],
					"stateMutability": "view",
					"type": "function"
				}
			],
			"devdoc": {
				"kind": "dev",
				"methods": {},
				"version": 1
			},
			"evm": {
				"assembly": "    /* \"contracts/DonationManager.sol\":72:2440  contract DonationManager {... */\n  mstore(0x40, 0x80)\n  callvalue\n  dup1\n  iszero\n  tag_1\n  jumpi\n  revert(0x00, 0x00)\ntag_1:\n  pop\n  dataSize(sub_0)\n  dup1\n  dataOffset(sub_0)\n  0x00\n  codecopy\n  0x00\n  return\nstop\n\nsub_0: assembly {\n        /* \"contracts/DonationManager.sol\":72:2440  contract DonationManager {... */\n      mstore(0x40, 0x80)\n      callvalue\n      dup1\n      iszero\n      tag_1\n      jumpi\n      revert(0x00, 0x00)\n    tag_1:\n      pop\n      jumpi(tag_2, lt(calldatasize, 0x04))\n      shr(0xe0, calldataload(0x00))\n      dup1\n      0x283ef0c1\n      eq\n      tag_3\n      jumpi\n      dup1\n      0x8a830ec1\n      eq\n      tag_4\n      jumpi\n      dup1\n      0xeff53565\n      eq\n      tag_5\n      jumpi\n    tag_2:\n      revert(0x00, 0x00)\n        /* \"contracts/DonationManager.sol\":1059:1641  function getDonationsByDonorId(bytes15 donorId) public view returns (Donation[] memory) {... */\n    tag_3:\n      tag_6\n      0x04\n      dup1\n      calldatasize\n      sub\n      dup2\n      add\n      swap1\n      tag_7\n      swap2\n      swap1\n      tag_8\n      jump\t// in\n    tag_7:\n      tag_9\n      jump\t// in\n    tag_6:\n      mload(0x40)\n      tag_10\n      swap2\n      swap1\n      tag_11\n      jump\t// in\n    tag_10:\n      mload(0x40)\n      dup1\n      swap2\n      sub\n      swap1\n      return\n        /* \"contracts/DonationManager.sol\":1697:2437  function getDonationsByDonorUsername(string memory donorUsername) public view returns (Donation[] memory) {... */\n    tag_4:\n      tag_12\n      0x04\n      dup1\n      calldatasize\n      sub\n      dup2\n      add\n      swap1\n      tag_13\n      swap2\n      swap1\n      tag_14\n      jump\t// in\n    tag_13:\n      tag_15\n      jump\t// in\n    tag_12:\n      mload(0x40)\n      tag_16\n      swap2\n      swap1\n      tag_11\n      jump\t// in\n    tag_16:\n      mload(0x40)\n      dup1\n      swap2\n      sub\n      swap1\n      return\n        /* \"contracts/DonationManager.sol\":422:998  function donate(... */\n    tag_5:\n      tag_17\n      0x04\n      dup1\n      calldatasize\n      sub\n      dup2\n      add\n      swap1\n      tag_18\n      swap2\n      swap1\n      tag_19\n      jump\t// in\n    tag_18:\n      tag_20\n      jump\t// in\n    tag_17:\n      stop\n        /* \"contracts/DonationManager.sol\":1059:1641  function getDonationsByDonorId(bytes15 donorId) public view returns (Donation[] memory) {... */\n    tag_9:\n        /* \"contracts/DonationManager.sol\":1128:1145  Donation[] memory */\n      0x60\n        /* \"contracts/DonationManager.sol\":1158:1171  uint256 count */\n      0x00\n        /* \"contracts/DonationManager.sol\":1187:1193  uint i */\n      0x00\n        /* \"contracts/DonationManager.sol\":1196:1197  0 */\n      0x00\n        /* \"contracts/DonationManager.sol\":1187:1197  uint i = 0 */\n      swap1\n      pop\n        /* \"contracts/DonationManager.sol\":1182:1331  for (uint i = 0; i < donations.length; i++) {... */\n    tag_22:\n        /* \"contracts/DonationManager.sol\":1203:1212  donations */\n      0x00\n        /* \"contracts/DonationManager.sol\":1203:1219  donations.length */\n      dup1\n      sload\n      swap1\n      pop\n        /* \"contracts/DonationManager.sol\":1199:1200  i */\n      dup2\n        /* \"contracts/DonationManager.sol\":1199:1219  i < donations.length */\n      lt\n        /* \"contracts/DonationManager.sol\":1182:1331  for (uint i = 0; i < donations.length; i++) {... */\n      iszero\n      tag_23\n      jumpi\n        /* \"contracts/DonationManager.sol\":1269:1276  donorId */\n      dup4\n        /* \"contracts/DonationManager.sol\":1245:1276  donations[i].donorId == donorId */\n      not(0xffffffffffffffffffffffffffffffffff)\n      and\n        /* \"contracts/DonationManager.sol\":1245:1254  donations */\n      0x00\n        /* \"contracts/DonationManager.sol\":1255:1256  i */\n      dup3\n        /* \"contracts/DonationManager.sol\":1245:1257  donations[i] */\n      dup2\n      sload\n      dup2\n      lt\n      tag_25\n      jumpi\n      tag_26\n      tag_27\n      jump\t// in\n    tag_26:\n    tag_25:\n      swap1\n      0x00\n      mstore\n      keccak256(0x00, 0x20)\n      swap1\n      0x07\n      mul\n      add\n        /* \"contracts/DonationManager.sol\":1245:1265  donations[i].donorId */\n      0x02\n      add\n      0x00\n      swap1\n      sload\n      swap1\n      0x0100\n      exp\n      swap1\n      div\n      0x88\n      shl\n        /* \"contracts/DonationManager.sol\":1245:1276  donations[i].donorId == donorId */\n      not(0xffffffffffffffffffffffffffffffffff)\n      and\n      sub\n        /* \"contracts/DonationManager.sol\":1241:1320  if (donations[i].donorId == donorId) {... */\n      tag_29\n      jumpi\n        /* \"contracts/DonationManager.sol\":1297:1304  count++ */\n      dup2\n      dup1\n      tag_30\n      swap1\n      tag_31\n      jump\t// in\n    tag_30:\n      swap3\n      pop\n      pop\n        /* \"contracts/DonationManager.sol\":1241:1320  if (donations[i].donorId == donorId) {... */\n    tag_29:\n        /* \"contracts/DonationManager.sol\":1221:1224  i++ */\n      dup1\n      dup1\n      0x01\n      add\n      swap2\n      pop\n      pop\n        /* \"contracts/DonationManager.sol\":1182:1331  for (uint i = 0; i < donations.length; i++) {... */\n      jump(tag_22)\n    tag_23:\n      pop\n        /* \"contracts/DonationManager.sol\":1343:1367  Donation[] memory result */\n      0x00\n        /* \"contracts/DonationManager.sol\":1385:1390  count */\n      dup2\n        /* \"contracts/DonationManager.sol\":1370:1391  new Donation[](count) */\n      0xffffffffffffffff\n      dup2\n      gt\n      iszero\n      tag_32\n      jumpi\n      tag_33\n      tag_34\n      jump\t// in\n    tag_33:\n    tag_32:\n      mload(0x40)\n      swap1\n      dup1\n      dup3\n      mstore\n      dup1\n      0x20\n      mul\n      0x20\n      add\n      dup3\n      add\n      0x40\n      mstore\n      dup1\n      iszero\n      tag_35\n      jumpi\n      dup2\n      0x20\n      add\n    tag_36:\n      tag_37\n      tag_38\n      jump\t// in\n    tag_37:\n      dup2\n      mstore\n      0x20\n      add\n      swap1\n      0x01\n      swap1\n      sub\n      swap1\n      dup2\n      tag_36\n      jumpi\n      swap1\n      pop\n    tag_35:\n      pop\n        /* \"contracts/DonationManager.sol\":1343:1391  Donation[] memory result = new Donation[](count) */\n      swap1\n      pop\n        /* \"contracts/DonationManager.sol\":1402:1411  uint256 j */\n      0x00\n        /* \"contracts/DonationManager.sol\":1427:1433  uint i */\n      0x00\n        /* \"contracts/DonationManager.sol\":1436:1437  0 */\n      0x00\n        /* \"contracts/DonationManager.sol\":1427:1437  uint i = 0 */\n      swap1\n      pop\n        /* \"contracts/DonationManager.sol\":1422:1610  for (uint i = 0; i < donations.length; i++) {... */\n    tag_39:\n        /* \"contracts/DonationManager.sol\":1443:1452  donations */\n      0x00\n        /* \"contracts/DonationManager.sol\":1443:1459  donations.length */\n      dup1\n      sload\n      swap1\n      pop\n        /* \"contracts/DonationManager.sol\":1439:1440  i */\n      dup2\n        /* \"contracts/DonationManager.sol\":1439:1459  i < donations.length */\n      lt\n        /* \"contracts/DonationManager.sol\":1422:1610  for (uint i = 0; i < donations.length; i++) {... */\n      iszero\n      tag_40\n      jumpi\n        /* \"contracts/DonationManager.sol\":1509:1516  donorId */\n      dup6\n        /* \"contracts/DonationManager.sol\":1485:1516  donations[i].donorId == donorId */\n      not(0xffffffffffffffffffffffffffffffffff)\n      and\n        /* \"contracts/DonationManager.sol\":1485:1494  donations */\n      0x00\n        /* \"contracts/DonationManager.sol\":1495:1496  i */\n      dup3\n        /* \"contracts/DonationManager.sol\":1485:1497  donations[i] */\n      dup2\n      sload\n      dup2\n      lt\n      tag_42\n      jumpi\n      tag_43\n      tag_27\n      jump\t// in\n    tag_43:\n    tag_42:\n      swap1\n      0x00\n      mstore\n      keccak256(0x00, 0x20)\n      swap1\n      0x07\n      mul\n      add\n        /* \"contracts/DonationManager.sol\":1485:1505  donations[i].donorId */\n      0x02\n      add\n      0x00\n      swap1\n      sload\n      swap1\n      0x0100\n      exp\n      swap1\n      div\n      0x88\n      shl\n        /* \"contracts/DonationManager.sol\":1485:1516  donations[i].donorId == donorId */\n      not(0xffffffffffffffffffffffffffffffffff)\n      and\n      sub\n        /* \"contracts/DonationManager.sol\":1481:1599  if (donations[i].donorId == donorId) {... */\n      tag_45\n      jumpi\n        /* \"contracts/DonationManager.sol\":1549:1558  donations */\n      0x00\n        /* \"contracts/DonationManager.sol\":1559:1560  i */\n      dup2\n        /* \"contracts/DonationManager.sol\":1549:1561  donations[i] */\n      dup2\n      sload\n      dup2\n      lt\n      tag_46\n      jumpi\n      tag_47\n      tag_27\n      jump\t// in\n    tag_47:\n    tag_46:\n      swap1\n      0x00\n      mstore\n      keccak256(0x00, 0x20)\n      swap1\n      0x07\n      mul\n      add\n        /* \"contracts/DonationManager.sol\":1537:1561  result[j] = donations[i] */\n      mload(0x40)\n      dup1\n      0xe0\n      add\n      0x40\n      mstore\n      swap1\n      dup2\n      0x00\n      dup3\n      add\n      dup1\n      sload\n      tag_49\n      swap1\n      tag_50\n      jump\t// in\n    tag_49:\n      dup1\n      0x1f\n      add\n      0x20\n      dup1\n      swap2\n      div\n      mul\n      0x20\n      add\n      mload(0x40)\n      swap1\n      dup2\n      add\n      0x40\n      mstore\n      dup1\n      swap3\n      swap2\n      swap1\n      dup2\n      dup2\n      mstore\n      0x20\n      add\n      dup3\n      dup1\n      sload\n      tag_51\n      swap1\n      tag_50\n      jump\t// in\n    tag_51:\n      dup1\n      iszero\n      tag_52\n      jumpi\n      dup1\n      0x1f\n      lt\n      tag_53\n      jumpi\n      0x0100\n      dup1\n      dup4\n      sload\n      div\n      mul\n      dup4\n      mstore\n      swap2\n      0x20\n      add\n      swap2\n      jump(tag_52)\n    tag_53:\n      dup3\n      add\n      swap2\n      swap1\n      0x00\n      mstore\n      keccak256(0x00, 0x20)\n      swap1\n    tag_54:\n      dup2\n      sload\n      dup2\n      mstore\n      swap1\n      0x01\n      add\n      swap1\n      0x20\n      add\n      dup1\n      dup4\n      gt\n      tag_54\n      jumpi\n      dup3\n      swap1\n      sub\n      0x1f\n      and\n      dup3\n      add\n      swap2\n    tag_52:\n      pop\n      pop\n      pop\n      pop\n      pop\n      dup2\n      mstore\n      0x20\n      add\n      0x01\n      dup3\n      add\n      dup1\n      sload\n      tag_55\n      swap1\n      tag_50\n      jump\t// in\n    tag_55:\n      dup1\n      0x1f\n      add\n      0x20\n      dup1\n      swap2\n      div\n      mul\n      0x20\n      add\n      mload(0x40)\n      swap1\n      dup2\n      add\n      0x40\n      mstore\n      dup1\n      swap3\n      swap2\n      swap1\n      dup2\n      dup2\n      mstore\n      0x20\n      add\n      dup3\n      dup1\n      sload\n      tag_56\n      swap1\n      tag_50\n      jump\t// in\n    tag_56:\n      dup1\n      iszero\n      tag_57\n      jumpi\n      dup1\n      0x1f\n      lt\n      tag_58\n      jumpi\n      0x0100\n      dup1\n      dup4\n      sload\n      div\n      mul\n      dup4\n      mstore\n      swap2\n      0x20\n      add\n      swap2\n      jump(tag_57)\n    tag_58:\n      dup3\n      add\n      swap2\n      swap1\n      0x00\n      mstore\n      keccak256(0x00, 0x20)\n      swap1\n    tag_59:\n      dup2\n      sload\n      dup2\n      mstore\n      swap1\n      0x01\n      add\n      swap1\n      0x20\n      add\n      dup1\n      dup4\n      gt\n      tag_59\n      jumpi\n      dup3\n      swap1\n      sub\n      0x1f\n      and\n      dup3\n      add\n      swap2\n    tag_57:\n      pop\n      pop\n      pop\n      pop\n      pop\n      dup2\n      mstore\n      0x20\n      add\n      0x02\n      dup3\n      add\n      0x00\n      swap1\n      sload\n      swap1\n      0x0100\n      exp\n      swap1\n      div\n      0x88\n      shl\n      not(0xffffffffffffffffffffffffffffffffff)\n      and\n      not(0xffffffffffffffffffffffffffffffffff)\n      and\n      dup2\n      mstore\n      0x20\n      add\n      0x03\n      dup3\n      add\n      dup1\n      sload\n      tag_60\n      swap1\n      tag_50\n      jump\t// in\n    tag_60:\n      dup1\n      0x1f\n      add\n      0x20\n      dup1\n      swap2\n      div\n      mul\n      0x20\n      add\n      mload(0x40)\n      swap1\n      dup2\n      add\n      0x40\n      mstore\n      dup1\n      swap3\n      swap2\n      swap1\n      dup2\n      dup2\n      mstore\n      0x20\n      add\n      dup3\n      dup1\n      sload\n      tag_61\n      swap1\n      tag_50\n      jump\t// in\n    tag_61:\n      dup1\n      iszero\n      tag_62\n      jumpi\n      dup1\n      0x1f\n      lt\n      tag_63\n      jumpi\n      0x0100\n      dup1\n      dup4\n      sload\n      div\n      mul\n      dup4\n      mstore\n      swap2\n      0x20\n      add\n      swap2\n      jump(tag_62)\n    tag_63:\n      dup3\n      add\n      swap2\n      swap1\n      0x00\n      mstore\n      keccak256(0x00, 0x20)\n      swap1\n    tag_64:\n      dup2\n      sload\n      dup2\n      mstore\n      swap1\n      0x01\n      add\n      swap1\n      0x20\n      add\n      dup1\n      dup4\n      gt\n      tag_64\n      jumpi\n      dup3\n      swap1\n      sub\n      0x1f\n      and\n      dup3\n      add\n      swap2\n    tag_62:\n      pop\n      pop\n      pop\n      pop\n      pop\n      dup2\n      mstore\n      0x20\n      add\n      0x04\n      dup3\n      add\n      sload\n      dup2\n      mstore\n      0x20\n      add\n      0x05\n      dup3\n      add\n      dup1\n      sload\n      tag_65\n      swap1\n      tag_50\n      jump\t// in\n    tag_65:\n      dup1\n      0x1f\n      add\n      0x20\n      dup1\n      swap2\n      div\n      mul\n      0x20\n      add\n      mload(0x40)\n      swap1\n      dup2\n      add\n      0x40\n      mstore\n      dup1\n      swap3\n      swap2\n      swap1\n      dup2\n      dup2\n      mstore\n      0x20\n      add\n      dup3\n      dup1\n      sload\n      tag_66\n      swap1\n      tag_50\n      jump\t// in\n    tag_66:\n      dup1\n      iszero\n      tag_67\n      jumpi\n      dup1\n      0x1f\n      lt\n      tag_68\n      jumpi\n      0x0100\n      dup1\n      dup4\n      sload\n      div\n      mul\n      dup4\n      mstore\n      swap2\n      0x20\n      add\n      swap2\n      jump(tag_67)\n    tag_68:\n      dup3\n      add\n      swap2\n      swap1\n      0x00\n      mstore\n      keccak256(0x00, 0x20)\n      swap1\n    tag_69:\n      dup2\n      sload\n      dup2\n      mstore\n      swap1\n      0x01\n      add\n      swap1\n      0x20\n      add\n      dup1\n      dup4\n      gt\n      tag_69\n      jumpi\n      dup3\n      swap1\n      sub\n      0x1f\n      and\n      dup3\n      add\n      swap2\n    tag_67:\n      pop\n      pop\n      pop\n      pop\n      pop\n      dup2\n      mstore\n      0x20\n      add\n      0x06\n      dup3\n      add\n      sload\n      dup2\n      mstore\n      pop\n      pop\n        /* \"contracts/DonationManager.sol\":1537:1543  result */\n      dup4\n        /* \"contracts/DonationManager.sol\":1544:1545  j */\n      dup4\n        /* \"contracts/DonationManager.sol\":1537:1546  result[j] */\n      dup2\n      mload\n      dup2\n      lt\n      tag_70\n      jumpi\n      tag_71\n      tag_27\n      jump\t// in\n    tag_71:\n    tag_70:\n      0x20\n      mul\n      0x20\n      add\n      add\n        /* \"contracts/DonationManager.sol\":1537:1561  result[j] = donations[i] */\n      dup2\n      swap1\n      mstore\n      pop\n        /* \"contracts/DonationManager.sol\":1580:1583  j++ */\n      dup2\n      dup1\n      tag_72\n      swap1\n      tag_31\n      jump\t// in\n    tag_72:\n      swap3\n      pop\n      pop\n        /* \"contracts/DonationManager.sol\":1481:1599  if (donations[i].donorId == donorId) {... */\n    tag_45:\n        /* \"contracts/DonationManager.sol\":1461:1464  i++ */\n      dup1\n      dup1\n      0x01\n      add\n      swap2\n      pop\n      pop\n        /* \"contracts/DonationManager.sol\":1422:1610  for (uint i = 0; i < donations.length; i++) {... */\n      jump(tag_39)\n    tag_40:\n      pop\n        /* \"contracts/DonationManager.sol\":1627:1633  result */\n      dup2\n        /* \"contracts/DonationManager.sol\":1620:1633  return result */\n      swap4\n      pop\n      pop\n      pop\n      pop\n        /* \"contracts/DonationManager.sol\":1059:1641  function getDonationsByDonorId(bytes15 donorId) public view returns (Donation[] memory) {... */\n      swap2\n      swap1\n      pop\n      jump\t// out\n        /* \"contracts/DonationManager.sol\":1697:2437  function getDonationsByDonorUsername(string memory donorUsername) public view returns (Donation[] memory) {... */\n    tag_15:\n        /* \"contracts/DonationManager.sol\":1784:1801  Donation[] memory */\n      0x60\n        /* \"contracts/DonationManager.sol\":1814:1827  uint256 count */\n      0x00\n        /* \"contracts/DonationManager.sol\":1843:1849  uint i */\n      0x00\n        /* \"contracts/DonationManager.sol\":1852:1853  0 */\n      0x00\n        /* \"contracts/DonationManager.sol\":1843:1853  uint i = 0 */\n      swap1\n      pop\n        /* \"contracts/DonationManager.sol\":1838:2057  for (uint i = 0; i < donations.length; i++) {... */\n    tag_74:\n        /* \"contracts/DonationManager.sol\":1859:1868  donations */\n      0x00\n        /* \"contracts/DonationManager.sol\":1859:1875  donations.length */\n      dup1\n      sload\n      swap1\n      pop\n        /* \"contracts/DonationManager.sol\":1855:1856  i */\n      dup2\n        /* \"contracts/DonationManager.sol\":1855:1875  i < donations.length */\n      lt\n        /* \"contracts/DonationManager.sol\":1838:2057  for (uint i = 0; i < donations.length; i++) {... */\n      iszero\n      tag_75\n      jumpi\n        /* \"contracts/DonationManager.sol\":1987:2000  donorUsername */\n      dup4\n        /* \"contracts/DonationManager.sol\":1970:2001  abi.encodePacked(donorUsername) */\n      add(0x20, mload(0x40))\n      tag_77\n      swap2\n      swap1\n      tag_78\n      jump\t// in\n    tag_77:\n      mload(0x40)\n      0x20\n      dup2\n      dup4\n      sub\n      sub\n      dup2\n      mstore\n      swap1\n      0x40\n      mstore\n        /* \"contracts/DonationManager.sol\":1960:2002  keccak256(abi.encodePacked(donorUsername)) */\n      dup1\n      mload\n      swap1\n      0x20\n      add\n      keccak256\n        /* \"contracts/DonationManager.sol\":1928:1937  donations */\n      0x00\n        /* \"contracts/DonationManager.sol\":1938:1939  i */\n      dup3\n        /* \"contracts/DonationManager.sol\":1928:1940  donations[i] */\n      dup2\n      sload\n      dup2\n      lt\n      tag_79\n      jumpi\n      tag_80\n      tag_27\n      jump\t// in\n    tag_80:\n    tag_79:\n      swap1\n      0x00\n      mstore\n      keccak256(0x00, 0x20)\n      swap1\n      0x07\n      mul\n      add\n        /* \"contracts/DonationManager.sol\":1928:1954  donations[i].donorUserName */\n      0x03\n      add\n        /* \"contracts/DonationManager.sol\":1911:1955  abi.encodePacked(donations[i].donorUserName) */\n      add(0x20, mload(0x40))\n      tag_82\n      swap2\n      swap1\n      tag_83\n      jump\t// in\n    tag_82:\n      mload(0x40)\n      0x20\n      dup2\n      dup4\n      sub\n      sub\n      dup2\n      mstore\n      swap1\n      0x40\n      mstore\n        /* \"contracts/DonationManager.sol\":1901:1956  keccak256(abi.encodePacked(donations[i].donorUserName)) */\n      dup1\n      mload\n      swap1\n      0x20\n      add\n      keccak256\n        /* \"contracts/DonationManager.sol\":1901:2002  keccak256(abi.encodePacked(donations[i].donorUserName)) == keccak256(abi.encodePacked(donorUsername)) */\n      sub\n        /* \"contracts/DonationManager.sol\":1897:2046  if (keccak256(abi.encodePacked(donations[i].donorUserName)) == keccak256(abi.encodePacked(donorUsername))) {... */\n      tag_84\n      jumpi\n        /* \"contracts/DonationManager.sol\":2023:2030  count++ */\n      dup2\n      dup1\n      tag_85\n      swap1\n      tag_31\n      jump\t// in\n    tag_85:\n      swap3\n      pop\n      pop\n        /* \"contracts/DonationManager.sol\":1897:2046  if (keccak256(abi.encodePacked(donations[i].donorUserName)) == keccak256(abi.encodePacked(donorUsername))) {... */\n    tag_84:\n        /* \"contracts/DonationManager.sol\":1877:1880  i++ */\n      dup1\n      dup1\n      0x01\n      add\n      swap2\n      pop\n      pop\n        /* \"contracts/DonationManager.sol\":1838:2057  for (uint i = 0; i < donations.length; i++) {... */\n      jump(tag_74)\n    tag_75:\n      pop\n        /* \"contracts/DonationManager.sol\":2069:2093  Donation[] memory result */\n      0x00\n        /* \"contracts/DonationManager.sol\":2111:2116  count */\n      dup2\n        /* \"contracts/DonationManager.sol\":2096:2117  new Donation[](count) */\n      0xffffffffffffffff\n      dup2\n      gt\n      iszero\n      tag_86\n      jumpi\n      tag_87\n      tag_34\n      jump\t// in\n    tag_87:\n    tag_86:\n      mload(0x40)\n      swap1\n      dup1\n      dup3\n      mstore\n      dup1\n      0x20\n      mul\n      0x20\n      add\n      dup3\n      add\n      0x40\n      mstore\n      dup1\n      iszero\n      tag_88\n      jumpi\n      dup2\n      0x20\n      add\n    tag_89:\n      tag_90\n      tag_38\n      jump\t// in\n    tag_90:\n      dup2\n      mstore\n      0x20\n      add\n      swap1\n      0x01\n      swap1\n      sub\n      swap1\n      dup2\n      tag_89\n      jumpi\n      swap1\n      pop\n    tag_88:\n      pop\n        /* \"contracts/DonationManager.sol\":2069:2117  Donation[] memory result = new Donation[](count) */\n      swap1\n      pop\n        /* \"contracts/DonationManager.sol\":2128:2137  uint256 j */\n      0x00\n        /* \"contracts/DonationManager.sol\":2153:2159  uint i */\n      0x00\n        /* \"contracts/DonationManager.sol\":2162:2163  0 */\n      0x00\n        /* \"contracts/DonationManager.sol\":2153:2163  uint i = 0 */\n      swap1\n      pop\n        /* \"contracts/DonationManager.sol\":2148:2406  for (uint i = 0; i < donations.length; i++) {... */\n    tag_91:\n        /* \"contracts/DonationManager.sol\":2169:2178  donations */\n      0x00\n        /* \"contracts/DonationManager.sol\":2169:2185  donations.length */\n      dup1\n      sload\n      swap1\n      pop\n        /* \"contracts/DonationManager.sol\":2165:2166  i */\n      dup2\n        /* \"contracts/DonationManager.sol\":2165:2185  i < donations.length */\n      lt\n        /* \"contracts/DonationManager.sol\":2148:2406  for (uint i = 0; i < donations.length; i++) {... */\n      iszero\n      tag_92\n      jumpi\n        /* \"contracts/DonationManager.sol\":2297:2310  donorUsername */\n      dup6\n        /* \"contracts/DonationManager.sol\":2280:2311  abi.encodePacked(donorUsername) */\n      add(0x20, mload(0x40))\n      tag_94\n      swap2\n      swap1\n      tag_78\n      jump\t// in\n    tag_94:\n      mload(0x40)\n      0x20\n      dup2\n      dup4\n      sub\n      sub\n      dup2\n      mstore\n      swap1\n      0x40\n      mstore\n        /* \"contracts/DonationManager.sol\":2270:2312  keccak256(abi.encodePacked(donorUsername)) */\n      dup1\n      mload\n      swap1\n      0x20\n      add\n      keccak256\n        /* \"contracts/DonationManager.sol\":2238:2247  donations */\n      0x00\n        /* \"contracts/DonationManager.sol\":2248:2249  i */\n      dup3\n        /* \"contracts/DonationManager.sol\":2238:2250  donations[i] */\n      dup2\n      sload\n      dup2\n      lt\n      tag_95\n      jumpi\n      tag_96\n      tag_27\n      jump\t// in\n    tag_96:\n    tag_95:\n      swap1\n      0x00\n      mstore\n      keccak256(0x00, 0x20)\n      swap1\n      0x07\n      mul\n      add\n        /* \"contracts/DonationManager.sol\":2238:2264  donations[i].donorUserName */\n      0x03\n      add\n        /* \"contracts/DonationManager.sol\":2221:2265  abi.encodePacked(donations[i].donorUserName) */\n      add(0x20, mload(0x40))\n      tag_98\n      swap2\n      swap1\n      tag_83\n      jump\t// in\n    tag_98:\n      mload(0x40)\n      0x20\n      dup2\n      dup4\n      sub\n      sub\n      dup2\n      mstore\n      swap1\n      0x40\n      mstore\n        /* \"contracts/DonationManager.sol\":2211:2266  keccak256(abi.encodePacked(donations[i].donorUserName)) */\n      dup1\n      mload\n      swap1\n      0x20\n      add\n      keccak256\n        /* \"contracts/DonationManager.sol\":2211:2312  keccak256(abi.encodePacked(donations[i].donorUserName)) == keccak256(abi.encodePacked(donorUsername)) */\n      sub\n        /* \"contracts/DonationManager.sol\":2207:2395  if (keccak256(abi.encodePacked(donations[i].donorUserName)) == keccak256(abi.encodePacked(donorUsername))) {... */\n      tag_99\n      jumpi\n        /* \"contracts/DonationManager.sol\":2345:2354  donations */\n      0x00\n        /* \"contracts/DonationManager.sol\":2355:2356  i */\n      dup2\n        /* \"contracts/DonationManager.sol\":2345:2357  donations[i] */\n      dup2\n      sload\n      dup2\n      lt\n      tag_100\n      jumpi\n      tag_101\n      tag_27\n      jump\t// in\n    tag_101:\n    tag_100:\n      swap1\n      0x00\n      mstore\n      keccak256(0x00, 0x20)\n      swap1\n      0x07\n      mul\n      add\n        /* \"contracts/DonationManager.sol\":2333:2357  result[j] = donations[i] */\n      mload(0x40)\n      dup1\n      0xe0\n      add\n      0x40\n      mstore\n      swap1\n      dup2\n      0x00\n      dup3\n      add\n      dup1\n      sload\n      tag_103\n      swap1\n      tag_50\n      jump\t// in\n    tag_103:\n      dup1\n      0x1f\n      add\n      0x20\n      dup1\n      swap2\n      div\n      mul\n      0x20\n      add\n      mload(0x40)\n      swap1\n      dup2\n      add\n      0x40\n      mstore\n      dup1\n      swap3\n      swap2\n      swap1\n      dup2\n      dup2\n      mstore\n      0x20\n      add\n      dup3\n      dup1\n      sload\n      tag_104\n      swap1\n      tag_50\n      jump\t// in\n    tag_104:\n      dup1\n      iszero\n      tag_105\n      jumpi\n      dup1\n      0x1f\n      lt\n      tag_106\n      jumpi\n      0x0100\n      dup1\n      dup4\n      sload\n      div\n      mul\n      dup4\n      mstore\n      swap2\n      0x20\n      add\n      swap2\n      jump(tag_105)\n    tag_106:\n      dup3\n      add\n      swap2\n      swap1\n      0x00\n      mstore\n      keccak256(0x00, 0x20)\n      swap1\n    tag_107:\n      dup2\n      sload\n      dup2\n      mstore\n      swap1\n      0x01\n      add\n      swap1\n      0x20\n      add\n      dup1\n      dup4\n      gt\n      tag_107\n      jumpi\n      dup3\n      swap1\n      sub\n      0x1f\n      and\n      dup3\n      add\n      swap2\n    tag_105:\n      pop\n      pop\n      pop\n      pop\n      pop\n      dup2\n      mstore\n      0x20\n      add\n      0x01\n      dup3\n      add\n      dup1\n      sload\n      tag_108\n      swap1\n      tag_50\n      jump\t// in\n    tag_108:\n      dup1\n      0x1f\n      add\n      0x20\n      dup1\n      swap2\n      div\n      mul\n      0x20\n      add\n      mload(0x40)\n      swap1\n      dup2\n      add\n      0x40\n      mstore\n      dup1\n      swap3\n      swap2\n      swap1\n      dup2\n      dup2\n      mstore\n      0x20\n      add\n      dup3\n      dup1\n      sload\n      tag_109\n      swap1\n      tag_50\n      jump\t// in\n    tag_109:\n      dup1\n      iszero\n      tag_110\n      jumpi\n      dup1\n      0x1f\n      lt\n      tag_111\n      jumpi\n      0x0100\n      dup1\n      dup4\n      sload\n      div\n      mul\n      dup4\n      mstore\n      swap2\n      0x20\n      add\n      swap2\n      jump(tag_110)\n    tag_111:\n      dup3\n      add\n      swap2\n      swap1\n      0x00\n      mstore\n      keccak256(0x00, 0x20)\n      swap1\n    tag_112:\n      dup2\n      sload\n      dup2\n      mstore\n      swap1\n      0x01\n      add\n      swap1\n      0x20\n      add\n      dup1\n      dup4\n      gt\n      tag_112\n      jumpi\n      dup3\n      swap1\n      sub\n      0x1f\n      and\n      dup3\n      add\n      swap2\n    tag_110:\n      pop\n      pop\n      pop\n      pop\n      pop\n      dup2\n      mstore\n      0x20\n      add\n      0x02\n      dup3\n      add\n      0x00\n      swap1\n      sload\n      swap1\n      0x0100\n      exp\n      swap1\n      div\n      0x88\n      shl\n      not(0xffffffffffffffffffffffffffffffffff)\n      and\n      not(0xffffffffffffffffffffffffffffffffff)\n      and\n      dup2\n      mstore\n      0x20\n      add\n      0x03\n      dup3\n      add\n      dup1\n      sload\n      tag_113\n      swap1\n      tag_50\n      jump\t// in\n    tag_113:\n      dup1\n      0x1f\n      add\n      0x20\n      dup1\n      swap2\n      div\n      mul\n      0x20\n      add\n      mload(0x40)\n      swap1\n      dup2\n      add\n      0x40\n      mstore\n      dup1\n      swap3\n      swap2\n      swap1\n      dup2\n      dup2\n      mstore\n      0x20\n      add\n      dup3\n      dup1\n      sload\n      tag_114\n      swap1\n      tag_50\n      jump\t// in\n    tag_114:\n      dup1\n      iszero\n      tag_115\n      jumpi\n      dup1\n      0x1f\n      lt\n      tag_116\n      jumpi\n      0x0100\n      dup1\n      dup4\n      sload\n      div\n      mul\n      dup4\n      mstore\n      swap2\n      0x20\n      add\n      swap2\n      jump(tag_115)\n    tag_116:\n      dup3\n      add\n      swap2\n      swap1\n      0x00\n      mstore\n      keccak256(0x00, 0x20)\n      swap1\n    tag_117:\n      dup2\n      sload\n      dup2\n      mstore\n      swap1\n      0x01\n      add\n      swap1\n      0x20\n      add\n      dup1\n      dup4\n      gt\n      tag_117\n      jumpi\n      dup3\n      swap1\n      sub\n      0x1f\n      and\n      dup3\n      add\n      swap2\n    tag_115:\n      pop\n      pop\n      pop\n      pop\n      pop\n      dup2\n      mstore\n      0x20\n      add\n      0x04\n      dup3\n      add\n      sload\n      dup2\n      mstore\n      0x20\n      add\n      0x05\n      dup3\n      add\n      dup1\n      sload\n      tag_118\n      swap1\n      tag_50\n      jump\t// in\n    tag_118:\n      dup1\n      0x1f\n      add\n      0x20\n      dup1\n      swap2\n      div\n      mul\n      0x20\n      add\n      mload(0x40)\n      swap1\n      dup2\n      add\n      0x40\n      mstore\n      dup1\n      swap3\n      swap2\n      swap1\n      dup2\n      dup2\n      mstore\n      0x20\n      add\n      dup3\n      dup1\n      sload\n      tag_119\n      swap1\n      tag_50\n      jump\t// in\n    tag_119:\n      dup1\n      iszero\n      tag_120\n      jumpi\n      dup1\n      0x1f\n      lt\n      tag_121\n      jumpi\n      0x0100\n      dup1\n      dup4\n      sload\n      div\n      mul\n      dup4\n      mstore\n      swap2\n      0x20\n      add\n      swap2\n      jump(tag_120)\n    tag_121:\n      dup3\n      add\n      swap2\n      swap1\n      0x00\n      mstore\n      keccak256(0x00, 0x20)\n      swap1\n    tag_122:\n      dup2\n      sload\n      dup2\n      mstore\n      swap1\n      0x01\n      add\n      swap1\n      0x20\n      add\n      dup1\n      dup4\n      gt\n      tag_122\n      jumpi\n      dup3\n      swap1\n      sub\n      0x1f\n      and\n      dup3\n      add\n      swap2\n    tag_120:\n      pop\n      pop\n      pop\n      pop\n      pop\n      dup2\n      mstore\n      0x20\n      add\n      0x06\n      dup3\n      add\n      sload\n      dup2\n      mstore\n      pop\n      pop\n        /* \"contracts/DonationManager.sol\":2333:2339  result */\n      dup4\n        /* \"contracts/DonationManager.sol\":2340:2341  j */\n      dup4\n        /* \"contracts/DonationManager.sol\":2333:2342  result[j] */\n      dup2\n      mload\n      dup2\n      lt\n      tag_123\n      jumpi\n      tag_124\n      tag_27\n      jump\t// in\n    tag_124:\n    tag_123:\n      0x20\n      mul\n      0x20\n      add\n      add\n        /* \"contracts/DonationManager.sol\":2333:2357  result[j] = donations[i] */\n      dup2\n      swap1\n      mstore\n      pop\n        /* \"contracts/DonationManager.sol\":2376:2379  j++ */\n      dup2\n      dup1\n      tag_125\n      swap1\n      tag_31\n      jump\t// in\n    tag_125:\n      swap3\n      pop\n      pop\n        /* \"contracts/DonationManager.sol\":2207:2395  if (keccak256(abi.encodePacked(donations[i].donorUserName)) == keccak256(abi.encodePacked(donorUsername))) {... */\n    tag_99:\n        /* \"contracts/DonationManager.sol\":2187:2190  i++ */\n      dup1\n      dup1\n      0x01\n      add\n      swap2\n      pop\n      pop\n        /* \"contracts/DonationManager.sol\":2148:2406  for (uint i = 0; i < donations.length; i++) {... */\n      jump(tag_91)\n    tag_92:\n      pop\n        /* \"contracts/DonationManager.sol\":2423:2429  result */\n      dup2\n        /* \"contracts/DonationManager.sol\":2416:2429  return result */\n      swap4\n      pop\n      pop\n      pop\n      pop\n        /* \"contracts/DonationManager.sol\":1697:2437  function getDonationsByDonorUsername(string memory donorUsername) public view returns (Donation[] memory) {... */\n      swap2\n      swap1\n      pop\n      jump\t// out\n        /* \"contracts/DonationManager.sol\":422:998  function donate(... */\n    tag_20:\n        /* \"contracts/DonationManager.sol\":697:706  donations */\n      0x00\n        /* \"contracts/DonationManager.sol\":712:989  Donation({... */\n      mload(0x40)\n      dup1\n      0xe0\n      add\n      0x40\n      mstore\n      dup1\n        /* \"contracts/DonationManager.sol\":748:761  transactionId */\n      dup9\n        /* \"contracts/DonationManager.sol\":712:989  Donation({... */\n      dup2\n      mstore\n      0x20\n      add\n        /* \"contracts/DonationManager.sol\":788:798  campaignId */\n      dup8\n        /* \"contracts/DonationManager.sol\":712:989  Donation({... */\n      dup2\n      mstore\n      0x20\n      add\n        /* \"contracts/DonationManager.sol\":822:829  donorId */\n      dup7\n        /* \"contracts/DonationManager.sol\":712:989  Donation({... */\n      not(0xffffffffffffffffffffffffffffffffff)\n      and\n      dup2\n      mstore\n      0x20\n      add\n        /* \"contracts/DonationManager.sol\":859:872  donorUserName */\n      dup6\n        /* \"contracts/DonationManager.sol\":712:989  Donation({... */\n      dup2\n      mstore\n      0x20\n      add\n        /* \"contracts/DonationManager.sol\":895:901  amount */\n      dup5\n        /* \"contracts/DonationManager.sol\":712:989  Donation({... */\n      dup2\n      mstore\n      0x20\n      add\n        /* \"contracts/DonationManager.sol\":927:936  proofHash */\n      dup4\n        /* \"contracts/DonationManager.sol\":712:989  Donation({... */\n      dup2\n      mstore\n      0x20\n      add\n        /* \"contracts/DonationManager.sol\":962:977  block.timestamp */\n      timestamp\n        /* \"contracts/DonationManager.sol\":712:989  Donation({... */\n      dup2\n      mstore\n      pop\n        /* \"contracts/DonationManager.sol\":697:990  donations.push(Donation({... */\n      swap1\n      dup1\n      0x01\n      dup2\n      sload\n      add\n      dup1\n      dup3\n      sstore\n      dup1\n      swap2\n      pop\n      pop\n      0x01\n      swap1\n      sub\n      swap1\n      0x00\n      mstore\n      keccak256(0x00, 0x20)\n      swap1\n      0x07\n      mul\n      add\n      0x00\n      swap1\n      swap2\n      swap1\n      swap2\n      swap1\n      swap2\n      pop\n      0x00\n      dup3\n      add\n      mload\n      dup2\n      0x00\n      add\n      swap1\n      dup2\n      tag_128\n      swap2\n      swap1\n      tag_129\n      jump\t// in\n    tag_128:\n      pop\n      0x20\n      dup3\n      add\n      mload\n      dup2\n      0x01\n      add\n      swap1\n      dup2\n      tag_130\n      swap2\n      swap1\n      tag_129\n      jump\t// in\n    tag_130:\n      pop\n      0x40\n      dup3\n      add\n      mload\n      dup2\n      0x02\n      add\n      exp(0x0100, 0x00)\n      dup2\n      sload\n      dup2\n      0xffffffffffffffffffffffffffffff\n      mul\n      not\n      and\n      swap1\n      dup4\n      0x88\n      shr\n      mul\n      or\n      swap1\n      sstore\n      pop\n      0x60\n      dup3\n      add\n      mload\n      dup2\n      0x03\n      add\n      swap1\n      dup2\n      tag_131\n      swap2\n      swap1\n      tag_129\n      jump\t// in\n    tag_131:\n      pop\n      0x80\n      dup3\n      add\n      mload\n      dup2\n      0x04\n      add\n      sstore\n      0xa0\n      dup3\n      add\n      mload\n      dup2\n      0x05\n      add\n      swap1\n      dup2\n      tag_132\n      swap2\n      swap1\n      tag_129\n      jump\t// in\n    tag_132:\n      pop\n      0xc0\n      dup3\n      add\n      mload\n      dup2\n      0x06\n      add\n      sstore\n      pop\n      pop\n        /* \"contracts/DonationManager.sol\":422:998  function donate(... */\n      pop\n      pop\n      pop\n      pop\n      pop\n      pop\n      jump\t// out\n    tag_38:\n      mload(0x40)\n      dup1\n      0xe0\n      add\n      0x40\n      mstore\n      dup1\n      0x60\n      dup2\n      mstore\n      0x20\n      add\n      0x60\n      dup2\n      mstore\n      0x20\n      add\n      and(not(0xffffffffffffffffffffffffffffffffff), 0x00)\n      dup2\n      mstore\n      0x20\n      add\n      0x60\n      dup2\n      mstore\n      0x20\n      add\n      0x00\n      dup2\n      mstore\n      0x20\n      add\n      0x60\n      dup2\n      mstore\n      0x20\n      add\n      0x00\n      dup2\n      mstore\n      pop\n      swap1\n      jump\t// out\n        /* \"#utility.yul\":7:82   */\n    tag_133:\n        /* \"#utility.yul\":40:46   */\n      0x00\n        /* \"#utility.yul\":73:75   */\n      0x40\n        /* \"#utility.yul\":67:76   */\n      mload\n        /* \"#utility.yul\":57:76   */\n      swap1\n      pop\n        /* \"#utility.yul\":7:82   */\n      swap1\n      jump\t// out\n        /* \"#utility.yul\":88:205   */\n    tag_134:\n        /* \"#utility.yul\":197:198   */\n      0x00\n        /* \"#utility.yul\":194:195   */\n      0x00\n        /* \"#utility.yul\":187:199   */\n      revert\n        /* \"#utility.yul\":211:328   */\n    tag_135:\n        /* \"#utility.yul\":320:321   */\n      0x00\n        /* \"#utility.yul\":317:318   */\n      0x00\n        /* \"#utility.yul\":310:322   */\n      revert\n        /* \"#utility.yul\":334:484   */\n    tag_136:\n        /* \"#utility.yul\":371:378   */\n      0x00\n        /* \"#utility.yul\":411:477   */\n      0xffffffffffffffffffffffffffffff0000000000000000000000000000000000\n        /* \"#utility.yul\":404:409   */\n      dup3\n        /* \"#utility.yul\":400:478   */\n      and\n        /* \"#utility.yul\":389:478   */\n      swap1\n      pop\n        /* \"#utility.yul\":334:484   */\n      swap2\n      swap1\n      pop\n      jump\t// out\n        /* \"#utility.yul\":490:612   */\n    tag_137:\n        /* \"#utility.yul\":563:587   */\n      tag_190\n        /* \"#utility.yul\":581:586   */\n      dup2\n        /* \"#utility.yul\":563:587   */\n      tag_136\n      jump\t// in\n    tag_190:\n        /* \"#utility.yul\":556:561   */\n      dup2\n        /* \"#utility.yul\":553:588   */\n      eq\n        /* \"#utility.yul\":543:606   */\n      tag_191\n      jumpi\n        /* \"#utility.yul\":602:603   */\n      0x00\n        /* \"#utility.yul\":599:600   */\n      0x00\n        /* \"#utility.yul\":592:604   */\n      revert\n        /* \"#utility.yul\":543:606   */\n    tag_191:\n        /* \"#utility.yul\":490:612   */\n      pop\n      jump\t// out\n        /* \"#utility.yul\":618:757   */\n    tag_138:\n        /* \"#utility.yul\":664:669   */\n      0x00\n        /* \"#utility.yul\":702:708   */\n      dup2\n        /* \"#utility.yul\":689:709   */\n      calldataload\n        /* \"#utility.yul\":680:709   */\n      swap1\n      pop\n        /* \"#utility.yul\":718:751   */\n      tag_193\n        /* \"#utility.yul\":745:750   */\n      dup2\n        /* \"#utility.yul\":718:751   */\n      tag_137\n      jump\t// in\n    tag_193:\n        /* \"#utility.yul\":618:757   */\n      swap3\n      swap2\n      pop\n      pop\n      jump\t// out\n        /* \"#utility.yul\":763:1092   */\n    tag_8:\n        /* \"#utility.yul\":822:828   */\n      0x00\n        /* \"#utility.yul\":871:873   */\n      0x20\n        /* \"#utility.yul\":859:868   */\n      dup3\n        /* \"#utility.yul\":850:857   */\n      dup5\n        /* \"#utility.yul\":846:869   */\n      sub\n        /* \"#utility.yul\":842:874   */\n      slt\n        /* \"#utility.yul\":839:958   */\n      iszero\n      tag_195\n      jumpi\n        /* \"#utility.yul\":877:956   */\n      tag_196\n      tag_134\n      jump\t// in\n    tag_196:\n        /* \"#utility.yul\":839:958   */\n    tag_195:\n        /* \"#utility.yul\":997:998   */\n      0x00\n        /* \"#utility.yul\":1022:1075   */\n      tag_197\n        /* \"#utility.yul\":1067:1074   */\n      dup5\n        /* \"#utility.yul\":1058:1064   */\n      dup3\n        /* \"#utility.yul\":1047:1056   */\n      dup6\n        /* \"#utility.yul\":1043:1065   */\n      add\n        /* \"#utility.yul\":1022:1075   */\n      tag_138\n      jump\t// in\n    tag_197:\n        /* \"#utility.yul\":1012:1075   */\n      swap2\n      pop\n        /* \"#utility.yul\":968:1085   */\n      pop\n        /* \"#utility.yul\":763:1092   */\n      swap3\n      swap2\n      pop\n      pop\n      jump\t// out\n        /* \"#utility.yul\":1098:1236   */\n    tag_139:\n        /* \"#utility.yul\":1189:1195   */\n      0x00\n        /* \"#utility.yul\":1223:1228   */\n      dup2\n        /* \"#utility.yul\":1217:1229   */\n      mload\n        /* \"#utility.yul\":1207:1229   */\n      swap1\n      pop\n        /* \"#utility.yul\":1098:1236   */\n      swap2\n      swap1\n      pop\n      jump\t// out\n        /* \"#utility.yul\":1242:1450   */\n    tag_140:\n        /* \"#utility.yul\":1365:1376   */\n      0x00\n        /* \"#utility.yul\":1399:1405   */\n      dup3\n        /* \"#utility.yul\":1394:1397   */\n      dup3\n        /* \"#utility.yul\":1387:1406   */\n      mstore\n        /* \"#utility.yul\":1439:1443   */\n      0x20\n        /* \"#utility.yul\":1434:1437   */\n      dup3\n        /* \"#utility.yul\":1430:1444   */\n      add\n        /* \"#utility.yul\":1415:1444   */\n      swap1\n      pop\n        /* \"#utility.yul\":1242:1450   */\n      swap3\n      swap2\n      pop\n      pop\n      jump\t// out\n        /* \"#utility.yul\":1456:1612   */\n    tag_141:\n        /* \"#utility.yul\":1547:1551   */\n      0x00\n        /* \"#utility.yul\":1570:1573   */\n      dup2\n        /* \"#utility.yul\":1562:1573   */\n      swap1\n      pop\n        /* \"#utility.yul\":1600:1604   */\n      0x20\n        /* \"#utility.yul\":1595:1598   */\n      dup3\n        /* \"#utility.yul\":1591:1605   */\n      add\n        /* \"#utility.yul\":1583:1605   */\n      swap1\n      pop\n        /* \"#utility.yul\":1456:1612   */\n      swap2\n      swap1\n      pop\n      jump\t// out\n        /* \"#utility.yul\":1618:1717   */\n    tag_142:\n        /* \"#utility.yul\":1670:1676   */\n      0x00\n        /* \"#utility.yul\":1704:1709   */\n      dup2\n        /* \"#utility.yul\":1698:1710   */\n      mload\n        /* \"#utility.yul\":1688:1710   */\n      swap1\n      pop\n        /* \"#utility.yul\":1618:1717   */\n      swap2\n      swap1\n      pop\n      jump\t// out\n        /* \"#utility.yul\":1723:1882   */\n    tag_143:\n        /* \"#utility.yul\":1797:1808   */\n      0x00\n        /* \"#utility.yul\":1831:1837   */\n      dup3\n        /* \"#utility.yul\":1826:1829   */\n      dup3\n        /* \"#utility.yul\":1819:1838   */\n      mstore\n        /* \"#utility.yul\":1871:1875   */\n      0x20\n        /* \"#utility.yul\":1866:1869   */\n      dup3\n        /* \"#utility.yul\":1862:1876   */\n      add\n        /* \"#utility.yul\":1847:1876   */\n      swap1\n      pop\n        /* \"#utility.yul\":1723:1882   */\n      swap3\n      swap2\n      pop\n      pop\n      jump\t// out\n        /* \"#utility.yul\":1888:2027   */\n    tag_144:\n        /* \"#utility.yul\":1977:1983   */\n      dup3\n        /* \"#utility.yul\":1972:1975   */\n      dup2\n        /* \"#utility.yul\":1967:1970   */\n      dup4\n        /* \"#utility.yul\":1961:1984   */\n      mcopy\n        /* \"#utility.yul\":2018:2019   */\n      0x00\n        /* \"#utility.yul\":2009:2015   */\n      dup4\n        /* \"#utility.yul\":2004:2007   */\n      dup4\n        /* \"#utility.yul\":2000:2016   */\n      add\n        /* \"#utility.yul\":1993:2020   */\n      mstore\n        /* \"#utility.yul\":1888:2027   */\n      pop\n      pop\n      pop\n      jump\t// out\n        /* \"#utility.yul\":2033:2135   */\n    tag_145:\n        /* \"#utility.yul\":2074:2080   */\n      0x00\n        /* \"#utility.yul\":2125:2127   */\n      0x1f\n        /* \"#utility.yul\":2121:2128   */\n      not\n        /* \"#utility.yul\":2116:2118   */\n      0x1f\n        /* \"#utility.yul\":2109:2114   */\n      dup4\n        /* \"#utility.yul\":2105:2119   */\n      add\n        /* \"#utility.yul\":2101:2129   */\n      and\n        /* \"#utility.yul\":2091:2129   */\n      swap1\n      pop\n        /* \"#utility.yul\":2033:2135   */\n      swap2\n      swap1\n      pop\n      jump\t// out\n        /* \"#utility.yul\":2141:2498   */\n    tag_146:\n        /* \"#utility.yul\":2219:2222   */\n      0x00\n        /* \"#utility.yul\":2247:2286   */\n      tag_206\n        /* \"#utility.yul\":2280:2285   */\n      dup3\n        /* \"#utility.yul\":2247:2286   */\n      tag_142\n      jump\t// in\n    tag_206:\n        /* \"#utility.yul\":2302:2363   */\n      tag_207\n        /* \"#utility.yul\":2356:2362   */\n      dup2\n        /* \"#utility.yul\":2351:2354   */\n      dup6\n        /* \"#utility.yul\":2302:2363   */\n      tag_143\n      jump\t// in\n    tag_207:\n        /* \"#utility.yul\":2295:2363   */\n      swap4\n      pop\n        /* \"#utility.yul\":2372:2437   */\n      tag_208\n        /* \"#utility.yul\":2430:2436   */\n      dup2\n        /* \"#utility.yul\":2425:2428   */\n      dup6\n        /* \"#utility.yul\":2418:2422   */\n      0x20\n        /* \"#utility.yul\":2411:2416   */\n      dup7\n        /* \"#utility.yul\":2407:2423   */\n      add\n        /* \"#utility.yul\":2372:2437   */\n      tag_144\n      jump\t// in\n    tag_208:\n        /* \"#utility.yul\":2462:2491   */\n      tag_209\n        /* \"#utility.yul\":2484:2490   */\n      dup2\n        /* \"#utility.yul\":2462:2491   */\n      tag_145\n      jump\t// in\n    tag_209:\n        /* \"#utility.yul\":2457:2460   */\n      dup5\n        /* \"#utility.yul\":2453:2492   */\n      add\n        /* \"#utility.yul\":2446:2492   */\n      swap2\n      pop\n        /* \"#utility.yul\":2223:2498   */\n      pop\n        /* \"#utility.yul\":2141:2498   */\n      swap3\n      swap2\n      pop\n      pop\n      jump\t// out\n        /* \"#utility.yul\":2504:2612   */\n    tag_147:\n        /* \"#utility.yul\":2581:2605   */\n      tag_211\n        /* \"#utility.yul\":2599:2604   */\n      dup2\n        /* \"#utility.yul\":2581:2605   */\n      tag_136\n      jump\t// in\n    tag_211:\n        /* \"#utility.yul\":2576:2579   */\n      dup3\n        /* \"#utility.yul\":2569:2606   */\n      mstore\n        /* \"#utility.yul\":2504:2612   */\n      pop\n      pop\n      jump\t// out\n        /* \"#utility.yul\":2618:2695   */\n    tag_148:\n        /* \"#utility.yul\":2655:2662   */\n      0x00\n        /* \"#utility.yul\":2684:2689   */\n      dup2\n        /* \"#utility.yul\":2673:2689   */\n      swap1\n      pop\n        /* \"#utility.yul\":2618:2695   */\n      swap2\n      swap1\n      pop\n      jump\t// out\n        /* \"#utility.yul\":2701:2809   */\n    tag_149:\n        /* \"#utility.yul\":2778:2802   */\n      tag_214\n        /* \"#utility.yul\":2796:2801   */\n      dup2\n        /* \"#utility.yul\":2778:2802   */\n      tag_148\n      jump\t// in\n    tag_214:\n        /* \"#utility.yul\":2773:2776   */\n      dup3\n        /* \"#utility.yul\":2766:2803   */\n      mstore\n        /* \"#utility.yul\":2701:2809   */\n      pop\n      pop\n      jump\t// out\n        /* \"#utility.yul\":2889:4602   */\n    tag_150:\n        /* \"#utility.yul\":2996:2999   */\n      0x00\n        /* \"#utility.yul\":3032:3036   */\n      0xe0\n        /* \"#utility.yul\":3027:3030   */\n      dup4\n        /* \"#utility.yul\":3023:3037   */\n      add\n        /* \"#utility.yul\":3125:3129   */\n      0x00\n        /* \"#utility.yul\":3118:3123   */\n      dup4\n        /* \"#utility.yul\":3114:3130   */\n      add\n        /* \"#utility.yul\":3108:3131   */\n      mload\n        /* \"#utility.yul\":3178:3181   */\n      dup5\n        /* \"#utility.yul\":3172:3176   */\n      dup3\n        /* \"#utility.yul\":3168:3182   */\n      sub\n        /* \"#utility.yul\":3161:3165   */\n      0x00\n        /* \"#utility.yul\":3156:3159   */\n      dup7\n        /* \"#utility.yul\":3152:3166   */\n      add\n        /* \"#utility.yul\":3145:3183   */\n      mstore\n        /* \"#utility.yul\":3204:3277   */\n      tag_216\n        /* \"#utility.yul\":3272:3276   */\n      dup3\n        /* \"#utility.yul\":3258:3270   */\n      dup3\n        /* \"#utility.yul\":3204:3277   */\n      tag_146\n      jump\t// in\n    tag_216:\n        /* \"#utility.yul\":3196:3277   */\n      swap2\n      pop\n        /* \"#utility.yul\":3047:3288   */\n      pop\n        /* \"#utility.yul\":3376:3380   */\n      0x20\n        /* \"#utility.yul\":3369:3374   */\n      dup4\n        /* \"#utility.yul\":3365:3381   */\n      add\n        /* \"#utility.yul\":3359:3382   */\n      mload\n        /* \"#utility.yul\":3429:3432   */\n      dup5\n        /* \"#utility.yul\":3423:3427   */\n      dup3\n        /* \"#utility.yul\":3419:3433   */\n      sub\n        /* \"#utility.yul\":3412:3416   */\n      0x20\n        /* \"#utility.yul\":3407:3410   */\n      dup7\n        /* \"#utility.yul\":3403:3417   */\n      add\n        /* \"#utility.yul\":3396:3434   */\n      mstore\n        /* \"#utility.yul\":3455:3528   */\n      tag_217\n        /* \"#utility.yul\":3523:3527   */\n      dup3\n        /* \"#utility.yul\":3509:3521   */\n      dup3\n        /* \"#utility.yul\":3455:3528   */\n      tag_146\n      jump\t// in\n    tag_217:\n        /* \"#utility.yul\":3447:3528   */\n      swap2\n      pop\n        /* \"#utility.yul\":3298:3539   */\n      pop\n        /* \"#utility.yul\":3624:3628   */\n      0x40\n        /* \"#utility.yul\":3617:3622   */\n      dup4\n        /* \"#utility.yul\":3613:3629   */\n      add\n        /* \"#utility.yul\":3607:3630   */\n      mload\n        /* \"#utility.yul\":3643:3706   */\n      tag_218\n        /* \"#utility.yul\":3700:3704   */\n      0x40\n        /* \"#utility.yul\":3695:3698   */\n      dup7\n        /* \"#utility.yul\":3691:3705   */\n      add\n        /* \"#utility.yul\":3677:3689   */\n      dup3\n        /* \"#utility.yul\":3643:3706   */\n      tag_147\n      jump\t// in\n    tag_218:\n        /* \"#utility.yul\":3549:3716   */\n      pop\n        /* \"#utility.yul\":3807:3811   */\n      0x60\n        /* \"#utility.yul\":3800:3805   */\n      dup4\n        /* \"#utility.yul\":3796:3812   */\n      add\n        /* \"#utility.yul\":3790:3813   */\n      mload\n        /* \"#utility.yul\":3860:3863   */\n      dup5\n        /* \"#utility.yul\":3854:3858   */\n      dup3\n        /* \"#utility.yul\":3850:3864   */\n      sub\n        /* \"#utility.yul\":3843:3847   */\n      0x60\n        /* \"#utility.yul\":3838:3841   */\n      dup7\n        /* \"#utility.yul\":3834:3848   */\n      add\n        /* \"#utility.yul\":3827:3865   */\n      mstore\n        /* \"#utility.yul\":3886:3959   */\n      tag_219\n        /* \"#utility.yul\":3954:3958   */\n      dup3\n        /* \"#utility.yul\":3940:3952   */\n      dup3\n        /* \"#utility.yul\":3886:3959   */\n      tag_146\n      jump\t// in\n    tag_219:\n        /* \"#utility.yul\":3878:3959   */\n      swap2\n      pop\n        /* \"#utility.yul\":3726:3970   */\n      pop\n        /* \"#utility.yul\":4054:4058   */\n      0x80\n        /* \"#utility.yul\":4047:4052   */\n      dup4\n        /* \"#utility.yul\":4043:4059   */\n      add\n        /* \"#utility.yul\":4037:4060   */\n      mload\n        /* \"#utility.yul\":4073:4136   */\n      tag_220\n        /* \"#utility.yul\":4130:4134   */\n      0x80\n        /* \"#utility.yul\":4125:4128   */\n      dup7\n        /* \"#utility.yul\":4121:4135   */\n      add\n        /* \"#utility.yul\":4107:4119   */\n      dup3\n        /* \"#utility.yul\":4073:4136   */\n      tag_149\n      jump\t// in\n    tag_220:\n        /* \"#utility.yul\":3980:4146   */\n      pop\n        /* \"#utility.yul\":4233:4237   */\n      0xa0\n        /* \"#utility.yul\":4226:4231   */\n      dup4\n        /* \"#utility.yul\":4222:4238   */\n      add\n        /* \"#utility.yul\":4216:4239   */\n      mload\n        /* \"#utility.yul\":4286:4289   */\n      dup5\n        /* \"#utility.yul\":4280:4284   */\n      dup3\n        /* \"#utility.yul\":4276:4290   */\n      sub\n        /* \"#utility.yul\":4269:4273   */\n      0xa0\n        /* \"#utility.yul\":4264:4267   */\n      dup7\n        /* \"#utility.yul\":4260:4274   */\n      add\n        /* \"#utility.yul\":4253:4291   */\n      mstore\n        /* \"#utility.yul\":4312:4385   */\n      tag_221\n        /* \"#utility.yul\":4380:4384   */\n      dup3\n        /* \"#utility.yul\":4366:4378   */\n      dup3\n        /* \"#utility.yul\":4312:4385   */\n      tag_146\n      jump\t// in\n    tag_221:\n        /* \"#utility.yul\":4304:4385   */\n      swap2\n      pop\n        /* \"#utility.yul\":4156:4396   */\n      pop\n        /* \"#utility.yul\":4483:4487   */\n      0xc0\n        /* \"#utility.yul\":4476:4481   */\n      dup4\n        /* \"#utility.yul\":4472:4488   */\n      add\n        /* \"#utility.yul\":4466:4489   */\n      mload\n        /* \"#utility.yul\":4502:4565   */\n      tag_222\n        /* \"#utility.yul\":4559:4563   */\n      0xc0\n        /* \"#utility.yul\":4554:4557   */\n      dup7\n        /* \"#utility.yul\":4550:4564   */\n      add\n        /* \"#utility.yul\":4536:4548   */\n      dup3\n        /* \"#utility.yul\":4502:4565   */\n      tag_149\n      jump\t// in\n    tag_222:\n        /* \"#utility.yul\":4406:4575   */\n      pop\n        /* \"#utility.yul\":4592:4596   */\n      dup1\n        /* \"#utility.yul\":4585:4596   */\n      swap2\n      pop\n        /* \"#utility.yul\":3001:4602   */\n      pop\n        /* \"#utility.yul\":2889:4602   */\n      swap3\n      swap2\n      pop\n      pop\n      jump\t// out\n        /* \"#utility.yul\":4608:4860   */\n    tag_151:\n        /* \"#utility.yul\":4725:4735   */\n      0x00\n        /* \"#utility.yul\":4760:4854   */\n      tag_224\n        /* \"#utility.yul\":4850:4853   */\n      dup4\n        /* \"#utility.yul\":4842:4848   */\n      dup4\n        /* \"#utility.yul\":4760:4854   */\n      tag_150\n      jump\t// in\n    tag_224:\n        /* \"#utility.yul\":4746:4854   */\n      swap1\n      pop\n        /* \"#utility.yul\":4608:4860   */\n      swap3\n      swap2\n      pop\n      pop\n      jump\t// out\n        /* \"#utility.yul\":4866:5003   */\n    tag_152:\n        /* \"#utility.yul\":4960:4964   */\n      0x00\n        /* \"#utility.yul\":4992:4996   */\n      0x20\n        /* \"#utility.yul\":4987:4990   */\n      dup3\n        /* \"#utility.yul\":4983:4997   */\n      add\n        /* \"#utility.yul\":4975:4997   */\n      swap1\n      pop\n        /* \"#utility.yul\":4866:5003   */\n      swap2\n      swap1\n      pop\n      jump\t// out\n        /* \"#utility.yul\":5087:6190   */\n    tag_153:\n        /* \"#utility.yul\":5254:5257   */\n      0x00\n        /* \"#utility.yul\":5283:5361   */\n      tag_227\n        /* \"#utility.yul\":5355:5360   */\n      dup3\n        /* \"#utility.yul\":5283:5361   */\n      tag_139\n      jump\t// in\n    tag_227:\n        /* \"#utility.yul\":5377:5487   */\n      tag_228\n        /* \"#utility.yul\":5480:5486   */\n      dup2\n        /* \"#utility.yul\":5475:5478   */\n      dup6\n        /* \"#utility.yul\":5377:5487   */\n      tag_140\n      jump\t// in\n    tag_228:\n        /* \"#utility.yul\":5370:5487   */\n      swap4\n      pop\n        /* \"#utility.yul\":5513:5516   */\n      dup4\n        /* \"#utility.yul\":5558:5562   */\n      0x20\n        /* \"#utility.yul\":5550:5556   */\n      dup3\n        /* \"#utility.yul\":5546:5563   */\n      mul\n        /* \"#utility.yul\":5541:5544   */\n      dup6\n        /* \"#utility.yul\":5537:5564   */\n      add\n        /* \"#utility.yul\":5588:5668   */\n      tag_229\n        /* \"#utility.yul\":5662:5667   */\n      dup6\n        /* \"#utility.yul\":5588:5668   */\n      tag_141\n      jump\t// in\n    tag_229:\n        /* \"#utility.yul\":5691:5698   */\n      dup1\n        /* \"#utility.yul\":5722:5723   */\n      0x00\n        /* \"#utility.yul\":5707:6145   */\n    tag_230:\n        /* \"#utility.yul\":5732:5738   */\n      dup6\n        /* \"#utility.yul\":5729:5730   */\n      dup2\n        /* \"#utility.yul\":5726:5739   */\n      lt\n        /* \"#utility.yul\":5707:6145   */\n      iszero\n      tag_232\n      jumpi\n        /* \"#utility.yul\":5803:5812   */\n      dup5\n        /* \"#utility.yul\":5797:5801   */\n      dup5\n        /* \"#utility.yul\":5793:5813   */\n      sub\n        /* \"#utility.yul\":5788:5791   */\n      dup10\n        /* \"#utility.yul\":5781:5814   */\n      mstore\n        /* \"#utility.yul\":5854:5860   */\n      dup2\n        /* \"#utility.yul\":5848:5861   */\n      mload\n        /* \"#utility.yul\":5882:5994   */\n      tag_233\n        /* \"#utility.yul\":5989:5993   */\n      dup6\n        /* \"#utility.yul\":5974:5987   */\n      dup3\n        /* \"#utility.yul\":5882:5994   */\n      tag_151\n      jump\t// in\n    tag_233:\n        /* \"#utility.yul\":5874:5994   */\n      swap5\n      pop\n        /* \"#utility.yul\":6017:6101   */\n      tag_234\n        /* \"#utility.yul\":6094:6100   */\n      dup4\n        /* \"#utility.yul\":6017:6101   */\n      tag_152\n      jump\t// in\n    tag_234:\n        /* \"#utility.yul\":6007:6101   */\n      swap3\n      pop\n        /* \"#utility.yul\":6130:6134   */\n      0x20\n        /* \"#utility.yul\":6125:6128   */\n      dup11\n        /* \"#utility.yul\":6121:6135   */\n      add\n        /* \"#utility.yul\":6114:6135   */\n      swap10\n      pop\n        /* \"#utility.yul\":5767:6145   */\n      pop\n        /* \"#utility.yul\":5754:5755   */\n      0x01\n        /* \"#utility.yul\":5751:5752   */\n      dup2\n        /* \"#utility.yul\":5747:5756   */\n      add\n        /* \"#utility.yul\":5742:5756   */\n      swap1\n      pop\n        /* \"#utility.yul\":5707:6145   */\n      jump(tag_230)\n    tag_232:\n        /* \"#utility.yul\":5711:5725   */\n      pop\n        /* \"#utility.yul\":6161:6165   */\n      dup3\n        /* \"#utility.yul\":6154:6165   */\n      swap8\n      pop\n        /* \"#utility.yul\":6181:6184   */\n      dup8\n        /* \"#utility.yul\":6174:6184   */\n      swap6\n      pop\n        /* \"#utility.yul\":5259:6190   */\n      pop\n      pop\n      pop\n      pop\n      pop\n        /* \"#utility.yul\":5087:6190   */\n      swap3\n      swap2\n      pop\n      pop\n      jump\t// out\n        /* \"#utility.yul\":6196:6665   */\n    tag_11:\n        /* \"#utility.yul\":6387:6391   */\n      0x00\n        /* \"#utility.yul\":6425:6427   */\n      0x20\n        /* \"#utility.yul\":6414:6423   */\n      dup3\n        /* \"#utility.yul\":6410:6428   */\n      add\n        /* \"#utility.yul\":6402:6428   */\n      swap1\n      pop\n        /* \"#utility.yul\":6474:6483   */\n      dup2\n        /* \"#utility.yul\":6468:6472   */\n      dup2\n        /* \"#utility.yul\":6464:6484   */\n      sub\n        /* \"#utility.yul\":6460:6461   */\n      0x00\n        /* \"#utility.yul\":6449:6458   */\n      dup4\n        /* \"#utility.yul\":6445:6462   */\n      add\n        /* \"#utility.yul\":6438:6485   */\n      mstore\n        /* \"#utility.yul\":6502:6658   */\n      tag_236\n        /* \"#utility.yul\":6653:6657   */\n      dup2\n        /* \"#utility.yul\":6644:6650   */\n      dup5\n        /* \"#utility.yul\":6502:6658   */\n      tag_153\n      jump\t// in\n    tag_236:\n        /* \"#utility.yul\":6494:6658   */\n      swap1\n      pop\n        /* \"#utility.yul\":6196:6665   */\n      swap3\n      swap2\n      pop\n      pop\n      jump\t// out\n        /* \"#utility.yul\":6671:6788   */\n    tag_154:\n        /* \"#utility.yul\":6780:6781   */\n      0x00\n        /* \"#utility.yul\":6777:6778   */\n      0x00\n        /* \"#utility.yul\":6770:6782   */\n      revert\n        /* \"#utility.yul\":6794:6911   */\n    tag_155:\n        /* \"#utility.yul\":6903:6904   */\n      0x00\n        /* \"#utility.yul\":6900:6901   */\n      0x00\n        /* \"#utility.yul\":6893:6905   */\n      revert\n        /* \"#utility.yul\":6917:7097   */\n    tag_34:\n        /* \"#utility.yul\":6965:7042   */\n      0x4e487b7100000000000000000000000000000000000000000000000000000000\n        /* \"#utility.yul\":6962:6963   */\n      0x00\n        /* \"#utility.yul\":6955:7043   */\n      mstore\n        /* \"#utility.yul\":7062:7066   */\n      0x41\n        /* \"#utility.yul\":7059:7060   */\n      0x04\n        /* \"#utility.yul\":7052:7067   */\n      mstore\n        /* \"#utility.yul\":7086:7090   */\n      0x24\n        /* \"#utility.yul\":7083:7084   */\n      0x00\n        /* \"#utility.yul\":7076:7091   */\n      revert\n        /* \"#utility.yul\":7103:7384   */\n    tag_156:\n        /* \"#utility.yul\":7186:7213   */\n      tag_241\n        /* \"#utility.yul\":7208:7212   */\n      dup3\n        /* \"#utility.yul\":7186:7213   */\n      tag_145\n      jump\t// in\n    tag_241:\n        /* \"#utility.yul\":7178:7184   */\n      dup2\n        /* \"#utility.yul\":7174:7214   */\n      add\n        /* \"#utility.yul\":7316:7322   */\n      dup2\n        /* \"#utility.yul\":7304:7314   */\n      dup2\n        /* \"#utility.yul\":7301:7323   */\n      lt\n        /* \"#utility.yul\":7280:7298   */\n      0xffffffffffffffff\n        /* \"#utility.yul\":7268:7278   */\n      dup3\n        /* \"#utility.yul\":7265:7299   */\n      gt\n        /* \"#utility.yul\":7262:7324   */\n      or\n        /* \"#utility.yul\":7259:7347   */\n      iszero\n      tag_242\n      jumpi\n        /* \"#utility.yul\":7327:7345   */\n      tag_243\n      tag_34\n      jump\t// in\n    tag_243:\n        /* \"#utility.yul\":7259:7347   */\n    tag_242:\n        /* \"#utility.yul\":7367:7377   */\n      dup1\n        /* \"#utility.yul\":7363:7365   */\n      0x40\n        /* \"#utility.yul\":7356:7378   */\n      mstore\n        /* \"#utility.yul\":7146:7384   */\n      pop\n        /* \"#utility.yul\":7103:7384   */\n      pop\n      pop\n      jump\t// out\n        /* \"#utility.yul\":7390:7519   */\n    tag_157:\n        /* \"#utility.yul\":7424:7430   */\n      0x00\n        /* \"#utility.yul\":7451:7471   */\n      tag_245\n      tag_133\n      jump\t// in\n    tag_245:\n        /* \"#utility.yul\":7441:7471   */\n      swap1\n      pop\n        /* \"#utility.yul\":7480:7513   */\n      tag_246\n        /* \"#utility.yul\":7508:7512   */\n      dup3\n        /* \"#utility.yul\":7500:7506   */\n      dup3\n        /* \"#utility.yul\":7480:7513   */\n      tag_156\n      jump\t// in\n    tag_246:\n        /* \"#utility.yul\":7390:7519   */\n      swap2\n      swap1\n      pop\n      jump\t// out\n        /* \"#utility.yul\":7525:7833   */\n    tag_158:\n        /* \"#utility.yul\":7587:7591   */\n      0x00\n        /* \"#utility.yul\":7677:7695   */\n      0xffffffffffffffff\n        /* \"#utility.yul\":7669:7675   */\n      dup3\n        /* \"#utility.yul\":7666:7696   */\n      gt\n        /* \"#utility.yul\":7663:7719   */\n      iszero\n      tag_248\n      jumpi\n        /* \"#utility.yul\":7699:7717   */\n      tag_249\n      tag_34\n      jump\t// in\n    tag_249:\n        /* \"#utility.yul\":7663:7719   */\n    tag_248:\n        /* \"#utility.yul\":7737:7766   */\n      tag_250\n        /* \"#utility.yul\":7759:7765   */\n      dup3\n        /* \"#utility.yul\":7737:7766   */\n      tag_145\n      jump\t// in\n    tag_250:\n        /* \"#utility.yul\":7729:7766   */\n      swap1\n      pop\n        /* \"#utility.yul\":7821:7825   */\n      0x20\n        /* \"#utility.yul\":7815:7819   */\n      dup2\n        /* \"#utility.yul\":7811:7826   */\n      add\n        /* \"#utility.yul\":7803:7826   */\n      swap1\n      pop\n        /* \"#utility.yul\":7525:7833   */\n      swap2\n      swap1\n      pop\n      jump\t// out\n        /* \"#utility.yul\":7839:7987   */\n    tag_159:\n        /* \"#utility.yul\":7937:7943   */\n      dup3\n        /* \"#utility.yul\":7932:7935   */\n      dup2\n        /* \"#utility.yul\":7927:7930   */\n      dup4\n        /* \"#utility.yul\":7914:7944   */\n      calldatacopy\n        /* \"#utility.yul\":7978:7979   */\n      0x00\n        /* \"#utility.yul\":7969:7975   */\n      dup4\n        /* \"#utility.yul\":7964:7967   */\n      dup4\n        /* \"#utility.yul\":7960:7976   */\n      add\n        /* \"#utility.yul\":7953:7980   */\n      mstore\n        /* \"#utility.yul\":7839:7987   */\n      pop\n      pop\n      pop\n      jump\t// out\n        /* \"#utility.yul\":7993:8418   */\n    tag_160:\n        /* \"#utility.yul\":8071:8076   */\n      0x00\n        /* \"#utility.yul\":8096:8162   */\n      tag_253\n        /* \"#utility.yul\":8112:8161   */\n      tag_254\n        /* \"#utility.yul\":8154:8160   */\n      dup5\n        /* \"#utility.yul\":8112:8161   */\n      tag_158\n      jump\t// in\n    tag_254:\n        /* \"#utility.yul\":8096:8162   */\n      tag_157\n      jump\t// in\n    tag_253:\n        /* \"#utility.yul\":8087:8162   */\n      swap1\n      pop\n        /* \"#utility.yul\":8185:8191   */\n      dup3\n        /* \"#utility.yul\":8178:8183   */\n      dup2\n        /* \"#utility.yul\":8171:8192   */\n      mstore\n        /* \"#utility.yul\":8223:8227   */\n      0x20\n        /* \"#utility.yul\":8216:8221   */\n      dup2\n        /* \"#utility.yul\":8212:8228   */\n      add\n        /* \"#utility.yul\":8261:8264   */\n      dup5\n        /* \"#utility.yul\":8252:8258   */\n      dup5\n        /* \"#utility.yul\":8247:8250   */\n      dup5\n        /* \"#utility.yul\":8243:8259   */\n      add\n        /* \"#utility.yul\":8240:8265   */\n      gt\n        /* \"#utility.yul\":8237:8349   */\n      iszero\n      tag_255\n      jumpi\n        /* \"#utility.yul\":8268:8347   */\n      tag_256\n      tag_155\n      jump\t// in\n    tag_256:\n        /* \"#utility.yul\":8237:8349   */\n    tag_255:\n        /* \"#utility.yul\":8358:8412   */\n      tag_257\n        /* \"#utility.yul\":8405:8411   */\n      dup5\n        /* \"#utility.yul\":8400:8403   */\n      dup3\n        /* \"#utility.yul\":8395:8398   */\n      dup6\n        /* \"#utility.yul\":8358:8412   */\n      tag_159\n      jump\t// in\n    tag_257:\n        /* \"#utility.yul\":8077:8418   */\n      pop\n        /* \"#utility.yul\":7993:8418   */\n      swap4\n      swap3\n      pop\n      pop\n      pop\n      jump\t// out\n        /* \"#utility.yul\":8438:8778   */\n    tag_161:\n        /* \"#utility.yul\":8494:8499   */\n      0x00\n        /* \"#utility.yul\":8543:8546   */\n      dup3\n        /* \"#utility.yul\":8536:8540   */\n      0x1f\n        /* \"#utility.yul\":8528:8534   */\n      dup4\n        /* \"#utility.yul\":8524:8541   */\n      add\n        /* \"#utility.yul\":8520:8547   */\n      slt\n        /* \"#utility.yul\":8510:8632   */\n      tag_259\n      jumpi\n        /* \"#utility.yul\":8551:8630   */\n      tag_260\n      tag_154\n      jump\t// in\n    tag_260:\n        /* \"#utility.yul\":8510:8632   */\n    tag_259:\n        /* \"#utility.yul\":8668:8674   */\n      dup2\n        /* \"#utility.yul\":8655:8675   */\n      calldataload\n        /* \"#utility.yul\":8693:8772   */\n      tag_261\n        /* \"#utility.yul\":8768:8771   */\n      dup5\n        /* \"#utility.yul\":8760:8766   */\n      dup3\n        /* \"#utility.yul\":8753:8757   */\n      0x20\n        /* \"#utility.yul\":8745:8751   */\n      dup7\n        /* \"#utility.yul\":8741:8758   */\n      add\n        /* \"#utility.yul\":8693:8772   */\n      tag_160\n      jump\t// in\n    tag_261:\n        /* \"#utility.yul\":8684:8772   */\n      swap2\n      pop\n        /* \"#utility.yul\":8500:8778   */\n      pop\n        /* \"#utility.yul\":8438:8778   */\n      swap3\n      swap2\n      pop\n      pop\n      jump\t// out\n        /* \"#utility.yul\":8784:9293   */\n    tag_14:\n        /* \"#utility.yul\":8853:8859   */\n      0x00\n        /* \"#utility.yul\":8902:8904   */\n      0x20\n        /* \"#utility.yul\":8890:8899   */\n      dup3\n        /* \"#utility.yul\":8881:8888   */\n      dup5\n        /* \"#utility.yul\":8877:8900   */\n      sub\n        /* \"#utility.yul\":8873:8905   */\n      slt\n        /* \"#utility.yul\":8870:8989   */\n      iszero\n      tag_263\n      jumpi\n        /* \"#utility.yul\":8908:8987   */\n      tag_264\n      tag_134\n      jump\t// in\n    tag_264:\n        /* \"#utility.yul\":8870:8989   */\n    tag_263:\n        /* \"#utility.yul\":9056:9057   */\n      0x00\n        /* \"#utility.yul\":9045:9054   */\n      dup3\n        /* \"#utility.yul\":9041:9058   */\n      add\n        /* \"#utility.yul\":9028:9059   */\n      calldataload\n        /* \"#utility.yul\":9086:9104   */\n      0xffffffffffffffff\n        /* \"#utility.yul\":9078:9084   */\n      dup2\n        /* \"#utility.yul\":9075:9105   */\n      gt\n        /* \"#utility.yul\":9072:9189   */\n      iszero\n      tag_265\n      jumpi\n        /* \"#utility.yul\":9108:9187   */\n      tag_266\n      tag_135\n      jump\t// in\n    tag_266:\n        /* \"#utility.yul\":9072:9189   */\n    tag_265:\n        /* \"#utility.yul\":9213:9276   */\n      tag_267\n        /* \"#utility.yul\":9268:9275   */\n      dup5\n        /* \"#utility.yul\":9259:9265   */\n      dup3\n        /* \"#utility.yul\":9248:9257   */\n      dup6\n        /* \"#utility.yul\":9244:9266   */\n      add\n        /* \"#utility.yul\":9213:9276   */\n      tag_161\n      jump\t// in\n    tag_267:\n        /* \"#utility.yul\":9203:9276   */\n      swap2\n      pop\n        /* \"#utility.yul\":8999:9286   */\n      pop\n        /* \"#utility.yul\":8784:9293   */\n      swap3\n      swap2\n      pop\n      pop\n      jump\t// out\n        /* \"#utility.yul\":9299:9421   */\n    tag_162:\n        /* \"#utility.yul\":9372:9396   */\n      tag_269\n        /* \"#utility.yul\":9390:9395   */\n      dup2\n        /* \"#utility.yul\":9372:9396   */\n      tag_148\n      jump\t// in\n    tag_269:\n        /* \"#utility.yul\":9365:9370   */\n      dup2\n        /* \"#utility.yul\":9362:9397   */\n      eq\n        /* \"#utility.yul\":9352:9415   */\n      tag_270\n      jumpi\n        /* \"#utility.yul\":9411:9412   */\n      0x00\n        /* \"#utility.yul\":9408:9409   */\n      0x00\n        /* \"#utility.yul\":9401:9413   */\n      revert\n        /* \"#utility.yul\":9352:9415   */\n    tag_270:\n        /* \"#utility.yul\":9299:9421   */\n      pop\n      jump\t// out\n        /* \"#utility.yul\":9427:9566   */\n    tag_163:\n        /* \"#utility.yul\":9473:9478   */\n      0x00\n        /* \"#utility.yul\":9511:9517   */\n      dup2\n        /* \"#utility.yul\":9498:9518   */\n      calldataload\n        /* \"#utility.yul\":9489:9518   */\n      swap1\n      pop\n        /* \"#utility.yul\":9527:9560   */\n      tag_272\n        /* \"#utility.yul\":9554:9559   */\n      dup2\n        /* \"#utility.yul\":9527:9560   */\n      tag_162\n      jump\t// in\n    tag_272:\n        /* \"#utility.yul\":9427:9566   */\n      swap3\n      swap2\n      pop\n      pop\n      jump\t// out\n        /* \"#utility.yul\":9572:11349   */\n    tag_19:\n        /* \"#utility.yul\":9716:9722   */\n      0x00\n        /* \"#utility.yul\":9724:9730   */\n      0x00\n        /* \"#utility.yul\":9732:9738   */\n      0x00\n        /* \"#utility.yul\":9740:9746   */\n      0x00\n        /* \"#utility.yul\":9748:9754   */\n      0x00\n        /* \"#utility.yul\":9756:9762   */\n      0x00\n        /* \"#utility.yul\":9805:9808   */\n      0xc0\n        /* \"#utility.yul\":9793:9802   */\n      dup8\n        /* \"#utility.yul\":9784:9791   */\n      dup10\n        /* \"#utility.yul\":9780:9803   */\n      sub\n        /* \"#utility.yul\":9776:9809   */\n      slt\n        /* \"#utility.yul\":9773:9893   */\n      iszero\n      tag_274\n      jumpi\n        /* \"#utility.yul\":9812:9891   */\n      tag_275\n      tag_134\n      jump\t// in\n    tag_275:\n        /* \"#utility.yul\":9773:9893   */\n    tag_274:\n        /* \"#utility.yul\":9960:9961   */\n      0x00\n        /* \"#utility.yul\":9949:9958   */\n      dup8\n        /* \"#utility.yul\":9945:9962   */\n      add\n        /* \"#utility.yul\":9932:9963   */\n      calldataload\n        /* \"#utility.yul\":9990:10008   */\n      0xffffffffffffffff\n        /* \"#utility.yul\":9982:9988   */\n      dup2\n        /* \"#utility.yul\":9979:10009   */\n      gt\n        /* \"#utility.yul\":9976:10093   */\n      iszero\n      tag_276\n      jumpi\n        /* \"#utility.yul\":10012:10091   */\n      tag_277\n      tag_135\n      jump\t// in\n    tag_277:\n        /* \"#utility.yul\":9976:10093   */\n    tag_276:\n        /* \"#utility.yul\":10117:10180   */\n      tag_278\n        /* \"#utility.yul\":10172:10179   */\n      dup10\n        /* \"#utility.yul\":10163:10169   */\n      dup3\n        /* \"#utility.yul\":10152:10161   */\n      dup11\n        /* \"#utility.yul\":10148:10170   */\n      add\n        /* \"#utility.yul\":10117:10180   */\n      tag_161\n      jump\t// in\n    tag_278:\n        /* \"#utility.yul\":10107:10180   */\n      swap7\n      pop\n        /* \"#utility.yul\":9903:10190   */\n      pop\n        /* \"#utility.yul\":10257:10259   */\n      0x20\n        /* \"#utility.yul\":10246:10255   */\n      dup8\n        /* \"#utility.yul\":10242:10260   */\n      add\n        /* \"#utility.yul\":10229:10261   */\n      calldataload\n        /* \"#utility.yul\":10288:10306   */\n      0xffffffffffffffff\n        /* \"#utility.yul\":10280:10286   */\n      dup2\n        /* \"#utility.yul\":10277:10307   */\n      gt\n        /* \"#utility.yul\":10274:10391   */\n      iszero\n      tag_279\n      jumpi\n        /* \"#utility.yul\":10310:10389   */\n      tag_280\n      tag_135\n      jump\t// in\n    tag_280:\n        /* \"#utility.yul\":10274:10391   */\n    tag_279:\n        /* \"#utility.yul\":10415:10478   */\n      tag_281\n        /* \"#utility.yul\":10470:10477   */\n      dup10\n        /* \"#utility.yul\":10461:10467   */\n      dup3\n        /* \"#utility.yul\":10450:10459   */\n      dup11\n        /* \"#utility.yul\":10446:10468   */\n      add\n        /* \"#utility.yul\":10415:10478   */\n      tag_161\n      jump\t// in\n    tag_281:\n        /* \"#utility.yul\":10405:10478   */\n      swap6\n      pop\n        /* \"#utility.yul\":10200:10488   */\n      pop\n        /* \"#utility.yul\":10527:10529   */\n      0x40\n        /* \"#utility.yul\":10553:10606   */\n      tag_282\n        /* \"#utility.yul\":10598:10605   */\n      dup10\n        /* \"#utility.yul\":10589:10595   */\n      dup3\n        /* \"#utility.yul\":10578:10587   */\n      dup11\n        /* \"#utility.yul\":10574:10596   */\n      add\n        /* \"#utility.yul\":10553:10606   */\n      tag_138\n      jump\t// in\n    tag_282:\n        /* \"#utility.yul\":10543:10606   */\n      swap5\n      pop\n        /* \"#utility.yul\":10498:10616   */\n      pop\n        /* \"#utility.yul\":10683:10685   */\n      0x60\n        /* \"#utility.yul\":10672:10681   */\n      dup8\n        /* \"#utility.yul\":10668:10686   */\n      add\n        /* \"#utility.yul\":10655:10687   */\n      calldataload\n        /* \"#utility.yul\":10714:10732   */\n      0xffffffffffffffff\n        /* \"#utility.yul\":10706:10712   */\n      dup2\n        /* \"#utility.yul\":10703:10733   */\n      gt\n        /* \"#utility.yul\":10700:10817   */\n      iszero\n      tag_283\n      jumpi\n        /* \"#utility.yul\":10736:10815   */\n      tag_284\n      tag_135\n      jump\t// in\n    tag_284:\n        /* \"#utility.yul\":10700:10817   */\n    tag_283:\n        /* \"#utility.yul\":10841:10904   */\n      tag_285\n        /* \"#utility.yul\":10896:10903   */\n      dup10\n        /* \"#utility.yul\":10887:10893   */\n      dup3\n        /* \"#utility.yul\":10876:10885   */\n      dup11\n        /* \"#utility.yul\":10872:10894   */\n      add\n        /* \"#utility.yul\":10841:10904   */\n      tag_161\n      jump\t// in\n    tag_285:\n        /* \"#utility.yul\":10831:10904   */\n      swap4\n      pop\n        /* \"#utility.yul\":10626:10914   */\n      pop\n        /* \"#utility.yul\":10953:10956   */\n      0x80\n        /* \"#utility.yul\":10980:11033   */\n      tag_286\n        /* \"#utility.yul\":11025:11032   */\n      dup10\n        /* \"#utility.yul\":11016:11022   */\n      dup3\n        /* \"#utility.yul\":11005:11014   */\n      dup11\n        /* \"#utility.yul\":11001:11023   */\n      add\n        /* \"#utility.yul\":10980:11033   */\n      tag_163\n      jump\t// in\n    tag_286:\n        /* \"#utility.yul\":10970:11033   */\n      swap3\n      pop\n        /* \"#utility.yul\":10924:11043   */\n      pop\n        /* \"#utility.yul\":11110:11113   */\n      0xa0\n        /* \"#utility.yul\":11099:11108   */\n      dup8\n        /* \"#utility.yul\":11095:11114   */\n      add\n        /* \"#utility.yul\":11082:11115   */\n      calldataload\n        /* \"#utility.yul\":11142:11160   */\n      0xffffffffffffffff\n        /* \"#utility.yul\":11134:11140   */\n      dup2\n        /* \"#utility.yul\":11131:11161   */\n      gt\n        /* \"#utility.yul\":11128:11245   */\n      iszero\n      tag_287\n      jumpi\n        /* \"#utility.yul\":11164:11243   */\n      tag_288\n      tag_135\n      jump\t// in\n    tag_288:\n        /* \"#utility.yul\":11128:11245   */\n    tag_287:\n        /* \"#utility.yul\":11269:11332   */\n      tag_289\n        /* \"#utility.yul\":11324:11331   */\n      dup10\n        /* \"#utility.yul\":11315:11321   */\n      dup3\n        /* \"#utility.yul\":11304:11313   */\n      dup11\n        /* \"#utility.yul\":11300:11322   */\n      add\n        /* \"#utility.yul\":11269:11332   */\n      tag_161\n      jump\t// in\n    tag_289:\n        /* \"#utility.yul\":11259:11332   */\n      swap2\n      pop\n        /* \"#utility.yul\":11053:11342   */\n      pop\n        /* \"#utility.yul\":9572:11349   */\n      swap3\n      swap6\n      pop\n      swap3\n      swap6\n      pop\n      swap3\n      swap6\n      jump\t// out\n        /* \"#utility.yul\":11355:11535   */\n    tag_27:\n        /* \"#utility.yul\":11403:11480   */\n      0x4e487b7100000000000000000000000000000000000000000000000000000000\n        /* \"#utility.yul\":11400:11401   */\n      0x00\n        /* \"#utility.yul\":11393:11481   */\n      mstore\n        /* \"#utility.yul\":11500:11504   */\n      0x32\n        /* \"#utility.yul\":11497:11498   */\n      0x04\n        /* \"#utility.yul\":11490:11505   */\n      mstore\n        /* \"#utility.yul\":11524:11528   */\n      0x24\n        /* \"#utility.yul\":11521:11522   */\n      0x00\n        /* \"#utility.yul\":11514:11529   */\n      revert\n        /* \"#utility.yul\":11541:11721   */\n    tag_164:\n        /* \"#utility.yul\":11589:11666   */\n      0x4e487b7100000000000000000000000000000000000000000000000000000000\n        /* \"#utility.yul\":11586:11587   */\n      0x00\n        /* \"#utility.yul\":11579:11667   */\n      mstore\n        /* \"#utility.yul\":11686:11690   */\n      0x11\n        /* \"#utility.yul\":11683:11684   */\n      0x04\n        /* \"#utility.yul\":11676:11691   */\n      mstore\n        /* \"#utility.yul\":11710:11714   */\n      0x24\n        /* \"#utility.yul\":11707:11708   */\n      0x00\n        /* \"#utility.yul\":11700:11715   */\n      revert\n        /* \"#utility.yul\":11727:11960   */\n    tag_31:\n        /* \"#utility.yul\":11766:11769   */\n      0x00\n        /* \"#utility.yul\":11789:11813   */\n      tag_293\n        /* \"#utility.yul\":11807:11812   */\n      dup3\n        /* \"#utility.yul\":11789:11813   */\n      tag_148\n      jump\t// in\n    tag_293:\n        /* \"#utility.yul\":11780:11813   */\n      swap2\n      pop\n        /* \"#utility.yul\":11835:11901   */\n      0xffffffffffffffffffffffffffffffffffffffffffffffffffffffffffffffff\n        /* \"#utility.yul\":11828:11833   */\n      dup3\n        /* \"#utility.yul\":11825:11902   */\n      sub\n        /* \"#utility.yul\":11822:11925   */\n      tag_294\n      jumpi\n        /* \"#utility.yul\":11905:11923   */\n      tag_295\n      tag_164\n      jump\t// in\n    tag_295:\n        /* \"#utility.yul\":11822:11925   */\n    tag_294:\n        /* \"#utility.yul\":11952:11953   */\n      0x01\n        /* \"#utility.yul\":11945:11950   */\n      dup3\n        /* \"#utility.yul\":11941:11954   */\n      add\n        /* \"#utility.yul\":11934:11954   */\n      swap1\n      pop\n        /* \"#utility.yul\":11727:11960   */\n      swap2\n      swap1\n      pop\n      jump\t// out\n        /* \"#utility.yul\":11966:12146   */\n    tag_165:\n        /* \"#utility.yul\":12014:12091   */\n      0x4e487b7100000000000000000000000000000000000000000000000000000000\n        /* \"#utility.yul\":12011:12012   */\n      0x00\n        /* \"#utility.yul\":12004:12092   */\n      mstore\n        /* \"#utility.yul\":12111:12115   */\n      0x22\n        /* \"#utility.yul\":12108:12109   */\n      0x04\n        /* \"#utility.yul\":12101:12116   */\n      mstore\n        /* \"#utility.yul\":12135:12139   */\n      0x24\n        /* \"#utility.yul\":12132:12133   */\n      0x00\n        /* \"#utility.yul\":12125:12140   */\n      revert\n        /* \"#utility.yul\":12152:12472   */\n    tag_50:\n        /* \"#utility.yul\":12196:12202   */\n      0x00\n        /* \"#utility.yul\":12233:12234   */\n      0x02\n        /* \"#utility.yul\":12227:12231   */\n      dup3\n        /* \"#utility.yul\":12223:12235   */\n      div\n        /* \"#utility.yul\":12213:12235   */\n      swap1\n      pop\n        /* \"#utility.yul\":12280:12281   */\n      0x01\n        /* \"#utility.yul\":12274:12278   */\n      dup3\n        /* \"#utility.yul\":12270:12282   */\n      and\n        /* \"#utility.yul\":12301:12319   */\n      dup1\n        /* \"#utility.yul\":12291:12372   */\n      tag_298\n      jumpi\n        /* \"#utility.yul\":12357:12361   */\n      0x7f\n        /* \"#utility.yul\":12349:12355   */\n      dup3\n        /* \"#utility.yul\":12345:12362   */\n      and\n        /* \"#utility.yul\":12335:12362   */\n      swap2\n      pop\n        /* \"#utility.yul\":12291:12372   */\n    tag_298:\n        /* \"#utility.yul\":12419:12421   */\n      0x20\n        /* \"#utility.yul\":12411:12417   */\n      dup3\n        /* \"#utility.yul\":12408:12422   */\n      lt\n        /* \"#utility.yul\":12388:12406   */\n      dup2\n        /* \"#utility.yul\":12385:12423   */\n      sub\n        /* \"#utility.yul\":12382:12466   */\n      tag_299\n      jumpi\n        /* \"#utility.yul\":12438:12456   */\n      tag_300\n      tag_165\n      jump\t// in\n    tag_300:\n        /* \"#utility.yul\":12382:12466   */\n    tag_299:\n        /* \"#utility.yul\":12203:12472   */\n      pop\n        /* \"#utility.yul\":12152:12472   */\n      swap2\n      swap1\n      pop\n      jump\t// out\n        /* \"#utility.yul\":12478:12626   */\n    tag_166:\n        /* \"#utility.yul\":12580:12591   */\n      0x00\n        /* \"#utility.yul\":12617:12620   */\n      dup2\n        /* \"#utility.yul\":12602:12620   */\n      swap1\n      pop\n        /* \"#utility.yul\":12478:12626   */\n      swap3\n      swap2\n      pop\n      pop\n      jump\t// out\n        /* \"#utility.yul\":12632:13022   */\n    tag_167:\n        /* \"#utility.yul\":12738:12741   */\n      0x00\n        /* \"#utility.yul\":12766:12805   */\n      tag_303\n        /* \"#utility.yul\":12799:12804   */\n      dup3\n        /* \"#utility.yul\":12766:12805   */\n      tag_142\n      jump\t// in\n    tag_303:\n        /* \"#utility.yul\":12821:12910   */\n      tag_304\n        /* \"#utility.yul\":12903:12909   */\n      dup2\n        /* \"#utility.yul\":12898:12901   */\n      dup6\n        /* \"#utility.yul\":12821:12910   */\n      tag_166\n      jump\t// in\n    tag_304:\n        /* \"#utility.yul\":12814:12910   */\n      swap4\n      pop\n        /* \"#utility.yul\":12919:12984   */\n      tag_305\n        /* \"#utility.yul\":12977:12983   */\n      dup2\n        /* \"#utility.yul\":12972:12975   */\n      dup6\n        /* \"#utility.yul\":12965:12969   */\n      0x20\n        /* \"#utility.yul\":12958:12963   */\n      dup7\n        /* \"#utility.yul\":12954:12970   */\n      add\n        /* \"#utility.yul\":12919:12984   */\n      tag_144\n      jump\t// in\n    tag_305:\n        /* \"#utility.yul\":13009:13015   */\n      dup1\n        /* \"#utility.yul\":13004:13007   */\n      dup5\n        /* \"#utility.yul\":13000:13016   */\n      add\n        /* \"#utility.yul\":12993:13016   */\n      swap2\n      pop\n        /* \"#utility.yul\":12742:13022   */\n      pop\n        /* \"#utility.yul\":12632:13022   */\n      swap3\n      swap2\n      pop\n      pop\n      jump\t// out\n        /* \"#utility.yul\":13028:13303   */\n    tag_78:\n        /* \"#utility.yul\":13160:13163   */\n      0x00\n        /* \"#utility.yul\":13182:13277   */\n      tag_307\n        /* \"#utility.yul\":13273:13276   */\n      dup3\n        /* \"#utility.yul\":13264:13270   */\n      dup5\n        /* \"#utility.yul\":13182:13277   */\n      tag_167\n      jump\t// in\n    tag_307:\n        /* \"#utility.yul\":13175:13277   */\n      swap2\n      pop\n        /* \"#utility.yul\":13294:13297   */\n      dup2\n        /* \"#utility.yul\":13287:13297   */\n      swap1\n      pop\n        /* \"#utility.yul\":13028:13303   */\n      swap3\n      swap2\n      pop\n      pop\n      jump\t// out\n        /* \"#utility.yul\":13309:13450   */\n    tag_168:\n        /* \"#utility.yul\":13358:13362   */\n      0x00\n        /* \"#utility.yul\":13381:13384   */\n      dup2\n        /* \"#utility.yul\":13373:13384   */\n      swap1\n      pop\n        /* \"#utility.yul\":13404:13407   */\n      dup2\n        /* \"#utility.yul\":13401:13402   */\n      0x00\n        /* \"#utility.yul\":13394:13408   */\n      mstore\n        /* \"#utility.yul\":13438:13442   */\n      0x20\n        /* \"#utility.yul\":13435:13436   */\n      0x00\n        /* \"#utility.yul\":13425:13443   */\n      keccak256\n        /* \"#utility.yul\":13417:13443   */\n      swap1\n      pop\n        /* \"#utility.yul\":13309:13450   */\n      swap2\n      swap1\n      pop\n      jump\t// out\n        /* \"#utility.yul\":13480:14354   */\n    tag_169:\n        /* \"#utility.yul\":13583:13586   */\n      0x00\n        /* \"#utility.yul\":13620:13625   */\n      dup2\n        /* \"#utility.yul\":13614:13626   */\n      sload\n        /* \"#utility.yul\":13649:13685   */\n      tag_310\n        /* \"#utility.yul\":13675:13684   */\n      dup2\n        /* \"#utility.yul\":13649:13685   */\n      tag_50\n      jump\t// in\n    tag_310:\n        /* \"#utility.yul\":13701:13790   */\n      tag_311\n        /* \"#utility.yul\":13783:13789   */\n      dup2\n        /* \"#utility.yul\":13778:13781   */\n      dup7\n        /* \"#utility.yul\":13701:13790   */\n      tag_166\n      jump\t// in\n    tag_311:\n        /* \"#utility.yul\":13694:13790   */\n      swap5\n      pop\n        /* \"#utility.yul\":13821:13822   */\n      0x01\n        /* \"#utility.yul\":13810:13819   */\n      dup3\n        /* \"#utility.yul\":13806:13823   */\n      and\n        /* \"#utility.yul\":13837:13838   */\n      0x00\n        /* \"#utility.yul\":13832:13998   */\n      dup2\n      eq\n      tag_313\n      jumpi\n        /* \"#utility.yul\":14012:14013   */\n      0x01\n        /* \"#utility.yul\":14007:14348   */\n      dup2\n      eq\n      tag_314\n      jumpi\n        /* \"#utility.yul\":13799:14348   */\n      jump(tag_312)\n        /* \"#utility.yul\":13832:13998   */\n    tag_313:\n        /* \"#utility.yul\":13916:13920   */\n      0xff\n        /* \"#utility.yul\":13912:13921   */\n      not\n        /* \"#utility.yul\":13901:13910   */\n      dup4\n        /* \"#utility.yul\":13897:13922   */\n      and\n        /* \"#utility.yul\":13892:13895   */\n      dup7\n        /* \"#utility.yul\":13885:13923   */\n      mstore\n        /* \"#utility.yul\":13978:13984   */\n      dup2\n        /* \"#utility.yul\":13971:13985   */\n      iszero\n        /* \"#utility.yul\":13964:13986   */\n      iszero\n        /* \"#utility.yul\":13956:13962   */\n      dup3\n        /* \"#utility.yul\":13952:13987   */\n      mul\n        /* \"#utility.yul\":13947:13950   */\n      dup7\n        /* \"#utility.yul\":13943:13988   */\n      add\n        /* \"#utility.yul\":13936:13988   */\n      swap4\n      pop\n        /* \"#utility.yul\":13832:13998   */\n      jump(tag_312)\n        /* \"#utility.yul\":14007:14348   */\n    tag_314:\n        /* \"#utility.yul\":14074:14112   */\n      tag_315\n        /* \"#utility.yul\":14106:14111   */\n      dup6\n        /* \"#utility.yul\":14074:14112   */\n      tag_168\n      jump\t// in\n    tag_315:\n        /* \"#utility.yul\":14134:14135   */\n      0x00\n        /* \"#utility.yul\":14148:14302   */\n    tag_316:\n        /* \"#utility.yul\":14162:14168   */\n      dup4\n        /* \"#utility.yul\":14159:14160   */\n      dup2\n        /* \"#utility.yul\":14156:14169   */\n      lt\n        /* \"#utility.yul\":14148:14302   */\n      iszero\n      tag_318\n      jumpi\n        /* \"#utility.yul\":14236:14243   */\n      dup2\n        /* \"#utility.yul\":14230:14244   */\n      sload\n        /* \"#utility.yul\":14226:14227   */\n      dup2\n        /* \"#utility.yul\":14221:14224   */\n      dup10\n        /* \"#utility.yul\":14217:14228   */\n      add\n        /* \"#utility.yul\":14210:14245   */\n      mstore\n        /* \"#utility.yul\":14286:14287   */\n      0x01\n        /* \"#utility.yul\":14277:14284   */\n      dup3\n        /* \"#utility.yul\":14273:14288   */\n      add\n        /* \"#utility.yul\":14262:14288   */\n      swap2\n      pop\n        /* \"#utility.yul\":14184:14188   */\n      0x20\n        /* \"#utility.yul\":14181:14182   */\n      dup2\n        /* \"#utility.yul\":14177:14189   */\n      add\n        /* \"#utility.yul\":14172:14189   */\n      swap1\n      pop\n        /* \"#utility.yul\":14148:14302   */\n      jump(tag_316)\n    tag_318:\n        /* \"#utility.yul\":14331:14337   */\n      dup4\n        /* \"#utility.yul\":14326:14329   */\n      dup9\n        /* \"#utility.yul\":14322:14338   */\n      add\n        /* \"#utility.yul\":14315:14338   */\n      swap6\n      pop\n        /* \"#utility.yul\":14014:14348   */\n      pop\n      pop\n        /* \"#utility.yul\":13799:14348   */\n    tag_312:\n      pop\n        /* \"#utility.yul\":13587:14354   */\n      pop\n      pop\n        /* \"#utility.yul\":13480:14354   */\n      swap3\n      swap2\n      pop\n      pop\n      jump\t// out\n        /* \"#utility.yul\":14360:14629   */\n    tag_83:\n        /* \"#utility.yul\":14489:14492   */\n      0x00\n        /* \"#utility.yul\":14511:14603   */\n      tag_320\n        /* \"#utility.yul\":14599:14602   */\n      dup3\n        /* \"#utility.yul\":14590:14596   */\n      dup5\n        /* \"#utility.yul\":14511:14603   */\n      tag_169\n      jump\t// in\n    tag_320:\n        /* \"#utility.yul\":14504:14603   */\n      swap2\n      pop\n        /* \"#utility.yul\":14620:14623   */\n      dup2\n        /* \"#utility.yul\":14613:14623   */\n      swap1\n      pop\n        /* \"#utility.yul\":14360:14629   */\n      swap3\n      swap2\n      pop\n      pop\n      jump\t// out\n        /* \"#utility.yul\":14635:14728   */\n    tag_170:\n        /* \"#utility.yul\":14672:14678   */\n      0x00\n        /* \"#utility.yul\":14719:14721   */\n      0x20\n        /* \"#utility.yul\":14714:14716   */\n      0x1f\n        /* \"#utility.yul\":14707:14712   */\n      dup4\n        /* \"#utility.yul\":14703:14717   */\n      add\n        /* \"#utility.yul\":14699:14722   */\n      div\n        /* \"#utility.yul\":14689:14722   */\n      swap1\n      pop\n        /* \"#utility.yul\":14635:14728   */\n      swap2\n      swap1\n      pop\n      jump\t// out\n        /* \"#utility.yul\":14734:14841   */\n    tag_171:\n        /* \"#utility.yul\":14778:14786   */\n      0x00\n        /* \"#utility.yul\":14828:14833   */\n      dup3\n        /* \"#utility.yul\":14822:14826   */\n      dup3\n        /* \"#utility.yul\":14818:14834   */\n      shl\n        /* \"#utility.yul\":14797:14834   */\n      swap1\n      pop\n        /* \"#utility.yul\":14734:14841   */\n      swap3\n      swap2\n      pop\n      pop\n      jump\t// out\n        /* \"#utility.yul\":14847:15240   */\n    tag_172:\n        /* \"#utility.yul\":14916:14922   */\n      0x00\n        /* \"#utility.yul\":14966:14967   */\n      0x08\n        /* \"#utility.yul\":14954:14964   */\n      dup4\n        /* \"#utility.yul\":14950:14968   */\n      mul\n        /* \"#utility.yul\":14989:15086   */\n      tag_324\n        /* \"#utility.yul\":15019:15085   */\n      0xffffffffffffffffffffffffffffffffffffffffffffffffffffffffffffffff\n        /* \"#utility.yul\":15008:15017   */\n      dup3\n        /* \"#utility.yul\":14989:15086   */\n      tag_171\n      jump\t// in\n    tag_324:\n        /* \"#utility.yul\":15107:15146   */\n      tag_325\n        /* \"#utility.yul\":15137:15145   */\n      dup7\n        /* \"#utility.yul\":15126:15135   */\n      dup4\n        /* \"#utility.yul\":15107:15146   */\n      tag_171\n      jump\t// in\n    tag_325:\n        /* \"#utility.yul\":15095:15146   */\n      swap6\n      pop\n        /* \"#utility.yul\":15179:15183   */\n      dup1\n        /* \"#utility.yul\":15175:15184   */\n      not\n        /* \"#utility.yul\":15168:15173   */\n      dup5\n        /* \"#utility.yul\":15164:15185   */\n      and\n        /* \"#utility.yul\":15155:15185   */\n      swap4\n      pop\n        /* \"#utility.yul\":15228:15232   */\n      dup1\n        /* \"#utility.yul\":15218:15226   */\n      dup7\n        /* \"#utility.yul\":15214:15233   */\n      and\n        /* \"#utility.yul\":15207:15212   */\n      dup5\n        /* \"#utility.yul\":15204:15234   */\n      or\n        /* \"#utility.yul\":15194:15234   */\n      swap3\n      pop\n        /* \"#utility.yul\":14923:15240   */\n      pop\n      pop\n        /* \"#utility.yul\":14847:15240   */\n      swap4\n      swap3\n      pop\n      pop\n      pop\n      jump\t// out\n        /* \"#utility.yul\":15246:15306   */\n    tag_173:\n        /* \"#utility.yul\":15274:15277   */\n      0x00\n        /* \"#utility.yul\":15295:15300   */\n      dup2\n        /* \"#utility.yul\":15288:15300   */\n      swap1\n      pop\n        /* \"#utility.yul\":15246:15306   */\n      swap2\n      swap1\n      pop\n      jump\t// out\n        /* \"#utility.yul\":15312:15454   */\n    tag_174:\n        /* \"#utility.yul\":15362:15371   */\n      0x00\n        /* \"#utility.yul\":15395:15448   */\n      tag_328\n        /* \"#utility.yul\":15413:15447   */\n      tag_329\n        /* \"#utility.yul\":15422:15446   */\n      tag_330\n        /* \"#utility.yul\":15440:15445   */\n      dup5\n        /* \"#utility.yul\":15422:15446   */\n      tag_148\n      jump\t// in\n    tag_330:\n        /* \"#utility.yul\":15413:15447   */\n      tag_173\n      jump\t// in\n    tag_329:\n        /* \"#utility.yul\":15395:15448   */\n      tag_148\n      jump\t// in\n    tag_328:\n        /* \"#utility.yul\":15382:15448   */\n      swap1\n      pop\n        /* \"#utility.yul\":15312:15454   */\n      swap2\n      swap1\n      pop\n      jump\t// out\n        /* \"#utility.yul\":15460:15535   */\n    tag_175:\n        /* \"#utility.yul\":15503:15506   */\n      0x00\n        /* \"#utility.yul\":15524:15529   */\n      dup2\n        /* \"#utility.yul\":15517:15529   */\n      swap1\n      pop\n        /* \"#utility.yul\":15460:15535   */\n      swap2\n      swap1\n      pop\n      jump\t// out\n        /* \"#utility.yul\":15541:15810   */\n    tag_176:\n        /* \"#utility.yul\":15651:15690   */\n      tag_333\n        /* \"#utility.yul\":15682:15689   */\n      dup4\n        /* \"#utility.yul\":15651:15690   */\n      tag_174\n      jump\t// in\n    tag_333:\n        /* \"#utility.yul\":15712:15803   */\n      tag_334\n        /* \"#utility.yul\":15761:15802   */\n      tag_335\n        /* \"#utility.yul\":15785:15801   */\n      dup3\n        /* \"#utility.yul\":15761:15802   */\n      tag_175\n      jump\t// in\n    tag_335:\n        /* \"#utility.yul\":15753:15759   */\n      dup5\n        /* \"#utility.yul\":15746:15750   */\n      dup5\n        /* \"#utility.yul\":15740:15751   */\n      sload\n        /* \"#utility.yul\":15712:15803   */\n      tag_172\n      jump\t// in\n    tag_334:\n        /* \"#utility.yul\":15706:15710   */\n      dup3\n        /* \"#utility.yul\":15699:15804   */\n      sstore\n        /* \"#utility.yul\":15617:15810   */\n      pop\n        /* \"#utility.yul\":15541:15810   */\n      pop\n      pop\n      pop\n      jump\t// out\n        /* \"#utility.yul\":15816:15889   */\n    tag_177:\n        /* \"#utility.yul\":15861:15864   */\n      0x00\n        /* \"#utility.yul\":15882:15883   */\n      0x00\n        /* \"#utility.yul\":15875:15883   */\n      swap1\n      pop\n        /* \"#utility.yul\":15816:15889   */\n      swap1\n      jump\t// out\n        /* \"#utility.yul\":15895:16084   */\n    tag_178:\n        /* \"#utility.yul\":15972:16004   */\n      tag_338\n      tag_177\n      jump\t// in\n    tag_338:\n        /* \"#utility.yul\":16013:16078   */\n      tag_339\n        /* \"#utility.yul\":16071:16077   */\n      dup2\n        /* \"#utility.yul\":16063:16069   */\n      dup5\n        /* \"#utility.yul\":16057:16061   */\n      dup5\n        /* \"#utility.yul\":16013:16078   */\n      tag_176\n      jump\t// in\n    tag_339:\n        /* \"#utility.yul\":15948:16084   */\n      pop\n        /* \"#utility.yul\":15895:16084   */\n      pop\n      pop\n      jump\t// out\n        /* \"#utility.yul\":16090:16276   */\n    tag_179:\n        /* \"#utility.yul\":16150:16270   */\n    tag_341:\n        /* \"#utility.yul\":16167:16170   */\n      dup2\n        /* \"#utility.yul\":16160:16165   */\n      dup2\n        /* \"#utility.yul\":16157:16171   */\n      lt\n        /* \"#utility.yul\":16150:16270   */\n      iszero\n      tag_343\n      jumpi\n        /* \"#utility.yul\":16221:16260   */\n      tag_344\n        /* \"#utility.yul\":16258:16259   */\n      0x00\n        /* \"#utility.yul\":16251:16256   */\n      dup3\n        /* \"#utility.yul\":16221:16260   */\n      tag_178\n      jump\t// in\n    tag_344:\n        /* \"#utility.yul\":16194:16195   */\n      0x01\n        /* \"#utility.yul\":16187:16192   */\n      dup2\n        /* \"#utility.yul\":16183:16196   */\n      add\n        /* \"#utility.yul\":16174:16196   */\n      swap1\n      pop\n        /* \"#utility.yul\":16150:16270   */\n      jump(tag_341)\n    tag_343:\n        /* \"#utility.yul\":16090:16276   */\n      pop\n      pop\n      jump\t// out\n        /* \"#utility.yul\":16282:16825   */\n    tag_180:\n        /* \"#utility.yul\":16383:16385   */\n      0x1f\n        /* \"#utility.yul\":16378:16381   */\n      dup3\n        /* \"#utility.yul\":16375:16386   */\n      gt\n        /* \"#utility.yul\":16372:16818   */\n      iszero\n      tag_346\n      jumpi\n        /* \"#utility.yul\":16417:16455   */\n      tag_347\n        /* \"#utility.yul\":16449:16454   */\n      dup2\n        /* \"#utility.yul\":16417:16455   */\n      tag_168\n      jump\t// in\n    tag_347:\n        /* \"#utility.yul\":16501:16530   */\n      tag_348\n        /* \"#utility.yul\":16519:16529   */\n      dup5\n        /* \"#utility.yul\":16501:16530   */\n      tag_170\n      jump\t// in\n    tag_348:\n        /* \"#utility.yul\":16491:16499   */\n      dup2\n        /* \"#utility.yul\":16487:16531   */\n      add\n        /* \"#utility.yul\":16684:16686   */\n      0x20\n        /* \"#utility.yul\":16672:16682   */\n      dup6\n        /* \"#utility.yul\":16669:16687   */\n      lt\n        /* \"#utility.yul\":16666:16715   */\n      iszero\n      tag_349\n      jumpi\n        /* \"#utility.yul\":16705:16713   */\n      dup2\n        /* \"#utility.yul\":16690:16713   */\n      swap1\n      pop\n        /* \"#utility.yul\":16666:16715   */\n    tag_349:\n        /* \"#utility.yul\":16728:16808   */\n      tag_350\n        /* \"#utility.yul\":16784:16806   */\n      tag_351\n        /* \"#utility.yul\":16802:16805   */\n      dup6\n        /* \"#utility.yul\":16784:16806   */\n      tag_170\n      jump\t// in\n    tag_351:\n        /* \"#utility.yul\":16774:16782   */\n      dup4\n        /* \"#utility.yul\":16770:16807   */\n      add\n        /* \"#utility.yul\":16757:16768   */\n      dup3\n        /* \"#utility.yul\":16728:16808   */\n      tag_179\n      jump\t// in\n    tag_350:\n        /* \"#utility.yul\":16387:16818   */\n      pop\n      pop\n        /* \"#utility.yul\":16372:16818   */\n    tag_346:\n        /* \"#utility.yul\":16282:16825   */\n      pop\n      pop\n      pop\n      jump\t// out\n        /* \"#utility.yul\":16831:16948   */\n    tag_181:\n        /* \"#utility.yul\":16885:16893   */\n      0x00\n        /* \"#utility.yul\":16935:16940   */\n      dup3\n        /* \"#utility.yul\":16929:16933   */\n      dup3\n        /* \"#utility.yul\":16925:16941   */\n      shr\n        /* \"#utility.yul\":16904:16941   */\n      swap1\n      pop\n        /* \"#utility.yul\":16831:16948   */\n      swap3\n      swap2\n      pop\n      pop\n      jump\t// out\n        /* \"#utility.yul\":16954:17123   */\n    tag_182:\n        /* \"#utility.yul\":16998:17004   */\n      0x00\n        /* \"#utility.yul\":17031:17082   */\n      tag_354\n        /* \"#utility.yul\":17079:17080   */\n      0x00\n        /* \"#utility.yul\":17075:17081   */\n      not\n        /* \"#utility.yul\":17067:17072   */\n      dup5\n        /* \"#utility.yul\":17064:17065   */\n      0x08\n        /* \"#utility.yul\":17060:17073   */\n      mul\n        /* \"#utility.yul\":17031:17082   */\n      tag_181\n      jump\t// in\n    tag_354:\n        /* \"#utility.yul\":17027:17083   */\n      not\n        /* \"#utility.yul\":17112:17116   */\n      dup1\n        /* \"#utility.yul\":17106:17110   */\n      dup4\n        /* \"#utility.yul\":17102:17117   */\n      and\n        /* \"#utility.yul\":17092:17117   */\n      swap2\n      pop\n        /* \"#utility.yul\":17005:17123   */\n      pop\n        /* \"#utility.yul\":16954:17123   */\n      swap3\n      swap2\n      pop\n      pop\n      jump\t// out\n        /* \"#utility.yul\":17128:17423   */\n    tag_183:\n        /* \"#utility.yul\":17204:17208   */\n      0x00\n        /* \"#utility.yul\":17350:17379   */\n      tag_356\n        /* \"#utility.yul\":17375:17378   */\n      dup4\n        /* \"#utility.yul\":17369:17373   */\n      dup4\n        /* \"#utility.yul\":17350:17379   */\n      tag_182\n      jump\t// in\n    tag_356:\n        /* \"#utility.yul\":17342:17379   */\n      swap2\n      pop\n        /* \"#utility.yul\":17412:17415   */\n      dup3\n        /* \"#utility.yul\":17409:17410   */\n      0x02\n        /* \"#utility.yul\":17405:17416   */\n      mul\n        /* \"#utility.yul\":17399:17403   */\n      dup3\n        /* \"#utility.yul\":17396:17417   */\n      or\n        /* \"#utility.yul\":17388:17417   */\n      swap1\n      pop\n        /* \"#utility.yul\":17128:17423   */\n      swap3\n      swap2\n      pop\n      pop\n      jump\t// out\n        /* \"#utility.yul\":17428:18823   */\n    tag_129:\n        /* \"#utility.yul\":17545:17582   */\n      tag_358\n        /* \"#utility.yul\":17578:17581   */\n      dup3\n        /* \"#utility.yul\":17545:17582   */\n      tag_142\n      jump\t// in\n    tag_358:\n        /* \"#utility.yul\":17647:17665   */\n      0xffffffffffffffff\n        /* \"#utility.yul\":17639:17645   */\n      dup2\n        /* \"#utility.yul\":17636:17666   */\n      gt\n        /* \"#utility.yul\":17633:17689   */\n      iszero\n      tag_359\n      jumpi\n        /* \"#utility.yul\":17669:17687   */\n      tag_360\n      tag_34\n      jump\t// in\n    tag_360:\n        /* \"#utility.yul\":17633:17689   */\n    tag_359:\n        /* \"#utility.yul\":17713:17751   */\n      tag_361\n        /* \"#utility.yul\":17745:17749   */\n      dup3\n        /* \"#utility.yul\":17739:17750   */\n      sload\n        /* \"#utility.yul\":17713:17751   */\n      tag_50\n      jump\t// in\n    tag_361:\n        /* \"#utility.yul\":17798:17865   */\n      tag_362\n        /* \"#utility.yul\":17858:17864   */\n      dup3\n        /* \"#utility.yul\":17850:17856   */\n      dup3\n        /* \"#utility.yul\":17844:17848   */\n      dup6\n        /* \"#utility.yul\":17798:17865   */\n      tag_180\n      jump\t// in\n    tag_362:\n        /* \"#utility.yul\":17892:17893   */\n      0x00\n        /* \"#utility.yul\":17916:17920   */\n      0x20\n        /* \"#utility.yul\":17903:17920   */\n      swap1\n      pop\n        /* \"#utility.yul\":17948:17950   */\n      0x1f\n        /* \"#utility.yul\":17940:17946   */\n      dup4\n        /* \"#utility.yul\":17937:17951   */\n      gt\n        /* \"#utility.yul\":17965:17966   */\n      0x01\n        /* \"#utility.yul\":17960:18578   */\n      dup2\n      eq\n      tag_364\n      jumpi\n        /* \"#utility.yul\":18622:18623   */\n      0x00\n        /* \"#utility.yul\":18639:18645   */\n      dup5\n        /* \"#utility.yul\":18636:18713   */\n      iszero\n      tag_365\n      jumpi\n        /* \"#utility.yul\":18688:18697   */\n      dup3\n        /* \"#utility.yul\":18683:18686   */\n      dup8\n        /* \"#utility.yul\":18679:18698   */\n      add\n        /* \"#utility.yul\":18673:18699   */\n      mload\n        /* \"#utility.yul\":18664:18699   */\n      swap1\n      pop\n        /* \"#utility.yul\":18636:18713   */\n    tag_365:\n        /* \"#utility.yul\":18739:18806   */\n      tag_366\n        /* \"#utility.yul\":18799:18805   */\n      dup6\n        /* \"#utility.yul\":18792:18797   */\n      dup3\n        /* \"#utility.yul\":18739:18806   */\n      tag_183\n      jump\t// in\n    tag_366:\n        /* \"#utility.yul\":18733:18737   */\n      dup7\n        /* \"#utility.yul\":18726:18807   */\n      sstore\n        /* \"#utility.yul\":18595:18817   */\n      pop\n        /* \"#utility.yul\":17930:18817   */\n      jump(tag_363)\n        /* \"#utility.yul\":17960:18578   */\n    tag_364:\n        /* \"#utility.yul\":18012:18016   */\n      0x1f\n        /* \"#utility.yul\":18008:18017   */\n      not\n        /* \"#utility.yul\":18000:18006   */\n      dup5\n        /* \"#utility.yul\":17996:18018   */\n      and\n        /* \"#utility.yul\":18046:18083   */\n      tag_367\n        /* \"#utility.yul\":18078:18082   */\n      dup7\n        /* \"#utility.yul\":18046:18083   */\n      tag_168\n      jump\t// in\n    tag_367:\n        /* \"#utility.yul\":18105:18106   */\n      0x00\n        /* \"#utility.yul\":18119:18327   */\n    tag_368:\n        /* \"#utility.yul\":18133:18140   */\n      dup3\n        /* \"#utility.yul\":18130:18131   */\n      dup2\n        /* \"#utility.yul\":18127:18141   */\n      lt\n        /* \"#utility.yul\":18119:18327   */\n      iszero\n      tag_370\n      jumpi\n        /* \"#utility.yul\":18212:18221   */\n      dup5\n        /* \"#utility.yul\":18207:18210   */\n      dup10\n        /* \"#utility.yul\":18203:18222   */\n      add\n        /* \"#utility.yul\":18197:18223   */\n      mload\n        /* \"#utility.yul\":18189:18195   */\n      dup3\n        /* \"#utility.yul\":18182:18224   */\n      sstore\n        /* \"#utility.yul\":18263:18264   */\n      0x01\n        /* \"#utility.yul\":18255:18261   */\n      dup3\n        /* \"#utility.yul\":18251:18265   */\n      add\n        /* \"#utility.yul\":18241:18265   */\n      swap2\n      pop\n        /* \"#utility.yul\":18310:18312   */\n      0x20\n        /* \"#utility.yul\":18299:18308   */\n      dup6\n        /* \"#utility.yul\":18295:18313   */\n      add\n        /* \"#utility.yul\":18282:18313   */\n      swap5\n      pop\n        /* \"#utility.yul\":18156:18160   */\n      0x20\n        /* \"#utility.yul\":18153:18154   */\n      dup2\n        /* \"#utility.yul\":18149:18161   */\n      add\n        /* \"#utility.yul\":18144:18161   */\n      swap1\n      pop\n        /* \"#utility.yul\":18119:18327   */\n      jump(tag_368)\n    tag_370:\n        /* \"#utility.yul\":18355:18361   */\n      dup7\n        /* \"#utility.yul\":18346:18353   */\n      dup4\n        /* \"#utility.yul\":18343:18362   */\n      lt\n        /* \"#utility.yul\":18340:18519   */\n      iszero\n      tag_371\n      jumpi\n        /* \"#utility.yul\":18413:18422   */\n      dup5\n        /* \"#utility.yul\":18408:18411   */\n      dup10\n        /* \"#utility.yul\":18404:18423   */\n      add\n        /* \"#utility.yul\":18398:18424   */\n      mload\n        /* \"#utility.yul\":18456:18504   */\n      tag_372\n        /* \"#utility.yul\":18498:18502   */\n      0x1f\n        /* \"#utility.yul\":18490:18496   */\n      dup10\n        /* \"#utility.yul\":18486:18503   */\n      and\n        /* \"#utility.yul\":18475:18484   */\n      dup3\n        /* \"#utility.yul\":18456:18504   */\n      tag_182\n      jump\t// in\n    tag_372:\n        /* \"#utility.yul\":18448:18454   */\n      dup4\n        /* \"#utility.yul\":18441:18505   */\n      sstore\n        /* \"#utility.yul\":18363:18519   */\n      pop\n        /* \"#utility.yul\":18340:18519   */\n    tag_371:\n        /* \"#utility.yul\":18565:18566   */\n      0x01\n        /* \"#utility.yul\":18561:18562   */\n      0x02\n        /* \"#utility.yul\":18553:18559   */\n      dup9\n        /* \"#utility.yul\":18549:18563   */\n      mul\n        /* \"#utility.yul\":18545:18567   */\n      add\n        /* \"#utility.yul\":18539:18543   */\n      dup9\n        /* \"#utility.yul\":18532:18568   */\n      sstore\n        /* \"#utility.yul\":17967:18578   */\n      pop\n      pop\n      pop\n        /* \"#utility.yul\":17930:18817   */\n    tag_363:\n      pop\n        /* \"#utility.yul\":17520:18823   */\n      pop\n      pop\n      pop\n        /* \"#utility.yul\":17428:18823   */\n      pop\n      pop\n      jump\t// out\n\n    auxdata: 0xa2646970667358221220ccb4e71544c9b77e5bfe967f5aedc39a6427b52249ceced24ad619aac8fc12f964736f6c634300081e0033\n}\n",
				"bytecode": {
					"linkReferences": {},
					"object": "6080604052348015600e575f5ffd5b506114c58061001c5f395ff3fe608060405234801561000f575f5ffd5b506004361061003f575f3560e01c8063283ef0c1146100435780638a830ec114610073578063eff53565146100a3575b5f5ffd5b61005d60048036038101906100589190610b5b565b6100bf565b60405161006a9190610d86565b60405180910390f35b61008d60048036038101906100889190610ed2565b610514565b60405161009a9190610d86565b60405180910390f35b6100bd60048036038101906100b89190610f43565b610997565b005b60605f5f5f90505b5f8054905081101561014c578370ffffffffffffffffffffffffffffffffff19165f82815481106100fb576100fa61103c565b5b905f5260205f2090600702016002015f9054906101000a900460881b70ffffffffffffffffffffffffffffffffff19160361013f57818061013b90611096565b9250505b80806001019150506100c7565b505f8167ffffffffffffffff81111561016857610167610dae565b5b6040519080825280602002602001820160405280156101a157816020015b61018e610aa7565b8152602001906001900390816101865790505b5090505f5f5f90505b5f80549050811015610508578570ffffffffffffffffffffffffffffffffff19165f82815481106101de576101dd61103c565b5b905f5260205f2090600702016002015f9054906101000a900460881b70ffffffffffffffffffffffffffffffffff1916036104fb575f81815481106102265761022561103c565b5b905f5260205f2090600702016040518060e00160405290815f8201805461024c9061110a565b80601f01602080910402602001604051908101604052809291908181526020018280546102789061110a565b80156102c35780601f1061029a576101008083540402835291602001916102c3565b820191905f5260205f20905b8154815290600101906020018083116102a657829003601f168201915b505050505081526020016001820180546102dc9061110a565b80601f01602080910402602001604051908101604052809291908181526020018280546103089061110a565b80156103535780601f1061032a57610100808354040283529160200191610353565b820191905f5260205f20905b81548152906001019060200180831161033657829003601f168201915b50505050508152602001600282015f9054906101000a900460881b70ffffffffffffffffffffffffffffffffff191670ffffffffffffffffffffffffffffffffff191681526020016003820180546103aa9061110a565b80601f01602080910402602001604051908101604052809291908181526020018280546103d69061110a565b80156104215780601f106103f857610100808354040283529160200191610421565b820191905f5260205f20905b81548152906001019060200180831161040457829003601f168201915b50505050508152602001600482015481526020016005820180546104449061110a565b80601f01602080910402602001604051908101604052809291908181526020018280546104709061110a565b80156104bb5780601f10610492576101008083540402835291602001916104bb565b820191905f5260205f20905b81548152906001019060200180831161049e57829003601f168201915b505050505081526020016006820154815250508383815181106104e1576104e061103c565b5b602002602001018190525081806104f790611096565b9250505b80806001019150506101aa565b50819350505050919050565b60605f5f5f90505b5f805490508110156105b857836040516020016105399190611174565b604051602081830303815290604052805190602001205f82815481106105625761056161103c565b5b905f5260205f209060070201600301604051602001610581919061121c565b60405160208183030381529060405280519060200120036105ab5781806105a790611096565b9250505b808060010191505061051c565b505f8167ffffffffffffffff8111156105d4576105d3610dae565b5b60405190808252806020026020018201604052801561060d57816020015b6105fa610aa7565b8152602001906001900390816105f25790505b5090505f5f5f90505b5f8054905081101561098b57856040516020016106339190611174565b604051602081830303815290604052805190602001205f828154811061065c5761065b61103c565b5b905f5260205f20906007020160030160405160200161067b919061121c565b604051602081830303815290604052805190602001200361097e575f81815481106106a9576106a861103c565b5b905f5260205f2090600702016040518060e00160405290815f820180546106cf9061110a565b80601f01602080910402602001604051908101604052809291908181526020018280546106fb9061110a565b80156107465780601f1061071d57610100808354040283529160200191610746565b820191905f5260205f20905b81548152906001019060200180831161072957829003601f168201915b5050505050815260200160018201805461075f9061110a565b80601f016020809104026020016040519081016040528092919081815260200182805461078b9061110a565b80156107d65780601f106107ad576101008083540402835291602001916107d6565b820191905f5260205f20905b8154815290600101906020018083116107b957829003601f168201915b50505050508152602001600282015f9054906101000a900460881b70ffffffffffffffffffffffffffffffffff191670ffffffffffffffffffffffffffffffffff1916815260200160038201805461082d9061110a565b80601f01602080910402602001604051908101604052809291908181526020018280546108599061110a565b80156108a45780601f1061087b576101008083540402835291602001916108a4565b820191905f5260205f20905b81548152906001019060200180831161088757829003601f168201915b50505050508152602001600482015481526020016005820180546108c79061110a565b80601f01602080910402602001604051908101604052809291908181526020018280546108f39061110a565b801561093e5780601f106109155761010080835404028352916020019161093e565b820191905f5260205f20905b81548152906001019060200180831161092157829003601f168201915b505050505081526020016006820154815250508383815181106109645761096361103c565b5b6020026020010181905250818061097a90611096565b9250505b8080600101915050610616565b50819350505050919050565b5f6040518060e001604052808881526020018781526020018670ffffffffffffffffffffffffffffffffff1916815260200185815260200184815260200183815260200142815250908060018154018082558091505060019003905f5260205f2090600702015f909190919091505f820151815f019081610a1891906113c0565b506020820151816001019081610a2e91906113c0565b506040820151816002015f6101000a8154816effffffffffffffffffffffffffffff021916908360881c02179055506060820151816003019081610a7291906113c0565b506080820151816004015560a0820151816005019081610a9291906113c0565b5060c082015181600601555050505050505050565b6040518060e0016040528060608152602001606081526020015f70ffffffffffffffffffffffffffffffffff19168152602001606081526020015f8152602001606081526020015f81525090565b5f604051905090565b5f5ffd5b5f5ffd5b5f7fffffffffffffffffffffffffffffff000000000000000000000000000000000082169050919050565b610b3a81610b06565b8114610b44575f5ffd5b50565b5f81359050610b5581610b31565b92915050565b5f60208284031215610b7057610b6f610afe565b5b5f610b7d84828501610b47565b91505092915050565b5f81519050919050565b5f82825260208201905092915050565b5f819050602082019050919050565b5f81519050919050565b5f82825260208201905092915050565b8281835e5f83830152505050565b5f601f19601f8301169050919050565b5f610bf182610baf565b610bfb8185610bb9565b9350610c0b818560208601610bc9565b610c1481610bd7565b840191505092915050565b610c2881610b06565b82525050565b5f819050919050565b610c4081610c2e565b82525050565b5f60e083015f8301518482035f860152610c608282610be7565b91505060208301518482036020860152610c7a8282610be7565b9150506040830151610c8f6040860182610c1f565b5060608301518482036060860152610ca78282610be7565b9150506080830151610cbc6080860182610c37565b5060a083015184820360a0860152610cd48282610be7565b91505060c0830151610ce960c0860182610c37565b508091505092915050565b5f610cff8383610c46565b905092915050565b5f602082019050919050565b5f610d1d82610b86565b610d278185610b90565b935083602082028501610d3985610ba0565b805f5b85811015610d745784840389528151610d558582610cf4565b9450610d6083610d07565b925060208a01995050600181019050610d3c565b50829750879550505050505092915050565b5f6020820190508181035f830152610d9e8184610d13565b905092915050565b5f5ffd5b5f5ffd5b7f4e487b71000000000000000000000000000000000000000000000000000000005f52604160045260245ffd5b610de482610bd7565b810181811067ffffffffffffffff82111715610e0357610e02610dae565b5b80604052505050565b5f610e15610af5565b9050610e218282610ddb565b919050565b5f67ffffffffffffffff821115610e4057610e3f610dae565b5b610e4982610bd7565b9050602081019050919050565b828183375f83830152505050565b5f610e76610e7184610e26565b610e0c565b905082815260208101848484011115610e9257610e91610daa565b5b610e9d848285610e56565b509392505050565b5f82601f830112610eb957610eb8610da6565b5b8135610ec9848260208601610e64565b91505092915050565b5f60208284031215610ee757610ee6610afe565b5b5f82013567ffffffffffffffff811115610f0457610f03610b02565b5b610f1084828501610ea5565b91505092915050565b610f2281610c2e565b8114610f2c575f5ffd5b50565b5f81359050610f3d81610f19565b92915050565b5f5f5f5f5f5f60c08789031215610f5d57610f5c610afe565b5b5f87013567ffffffffffffffff811115610f7a57610f79610b02565b5b610f8689828a01610ea5565b965050602087013567ffffffffffffffff811115610fa757610fa6610b02565b5b610fb389828a01610ea5565b9550506040610fc489828a01610b47565b945050606087013567ffffffffffffffff811115610fe557610fe4610b02565b5b610ff189828a01610ea5565b935050608061100289828a01610f2f565b92505060a087013567ffffffffffffffff81111561102357611022610b02565b5b61102f89828a01610ea5565b9150509295509295509295565b7f4e487b71000000000000000000000000000000000000000000000000000000005f52603260045260245ffd5b7f4e487b71000000000000000000000000000000000000000000000000000000005f52601160045260245ffd5b5f6110a082610c2e565b91507fffffffffffffffffffffffffffffffffffffffffffffffffffffffffffffffff82036110d2576110d1611069565b5b600182019050919050565b7f4e487b71000000000000000000000000000000000000000000000000000000005f52602260045260245ffd5b5f600282049050600182168061112157607f821691505b602082108103611134576111336110dd565b5b50919050565b5f81905092915050565b5f61114e82610baf565b611158818561113a565b9350611168818560208601610bc9565b80840191505092915050565b5f61117f8284611144565b915081905092915050565b5f819050815f5260205f209050919050565b5f81546111a88161110a565b6111b2818661113a565b9450600182165f81146111cc57600181146111e157611213565b60ff1983168652811515820286019350611213565b6111ea8561118a565b5f5b8381101561120b578154818901526001820191506020810190506111ec565b838801955050505b50505092915050565b5f611227828461119c565b915081905092915050565b5f6020601f8301049050919050565b5f82821b905092915050565b5f6008830261127c7fffffffffffffffffffffffffffffffffffffffffffffffffffffffffffffffff82611241565b6112868683611241565b95508019841693508086168417925050509392505050565b5f819050919050565b5f6112c16112bc6112b784610c2e565b61129e565b610c2e565b9050919050565b5f819050919050565b6112da836112a7565b6112ee6112e6826112c8565b84845461124d565b825550505050565b5f5f905090565b6113056112f6565b6113108184846112d1565b505050565b5b81811015611333576113285f826112fd565b600181019050611316565b5050565b601f821115611378576113498161118a565b61135284611232565b81016020851015611361578190505b61137561136d85611232565b830182611315565b50505b505050565b5f82821c905092915050565b5f6113985f198460080261137d565b1980831691505092915050565b5f6113b08383611389565b9150826002028217905092915050565b6113c982610baf565b67ffffffffffffffff8111156113e2576113e1610dae565b5b6113ec825461110a565b6113f7828285611337565b5f60209050601f831160018114611428575f8415611416578287015190505b61142085826113a5565b865550611487565b601f1984166114368661118a565b5f5b8281101561145d57848901518255600182019150602085019450602081019050611438565b8683101561147a5784890151611476601f891682611389565b8355505b6001600288020188555050505b50505050505056fea2646970667358221220ccb4e71544c9b77e5bfe967f5aedc39a6427b52249ceced24ad619aac8fc12f964736f6c634300081e0033",
					"opcodes": "PUSH1 0x80 PUSH1 0x40 MSTORE CALLVALUE DUP1 ISZERO PUSH1 0xE JUMPI PUSH0 PUSH0 REVERT JUMPDEST POP PUSH2 0x14C5 DUP1 PUSH2 0x1C PUSH0 CODECOPY PUSH0 RETURN INVALID PUSH1 0x80 PUSH1 0x40 MSTORE CALLVALUE DUP1 ISZERO PUSH2 0xF JUMPI PUSH0 PUSH0 REVERT JUMPDEST POP PUSH1 0x4 CALLDATASIZE LT PUSH2 0x3F JUMPI PUSH0 CALLDATALOAD PUSH1 0xE0 SHR DUP1 PUSH4 0x283EF0C1 EQ PUSH2 0x43 JUMPI DUP1 PUSH4 0x8A830EC1 EQ PUSH2 0x73 JUMPI DUP1 PUSH4 0xEFF53565 EQ PUSH2 0xA3 JUMPI JUMPDEST PUSH0 PUSH0 REVERT JUMPDEST PUSH2 0x5D PUSH1 0x4 DUP1 CALLDATASIZE SUB DUP2 ADD SWAP1 PUSH2 0x58 SWAP2 SWAP1 PUSH2 0xB5B JUMP JUMPDEST PUSH2 0xBF JUMP JUMPDEST PUSH1 0x40 MLOAD PUSH2 0x6A SWAP2 SWAP1 PUSH2 0xD86 JUMP JUMPDEST PUSH1 0x40 MLOAD DUP1 SWAP2 SUB SWAP1 RETURN JUMPDEST PUSH2 0x8D PUSH1 0x4 DUP1 CALLDATASIZE SUB DUP2 ADD SWAP1 PUSH2 0x88 SWAP2 SWAP1 PUSH2 0xED2 JUMP JUMPDEST PUSH2 0x514 JUMP JUMPDEST PUSH1 0x40 MLOAD PUSH2 0x9A SWAP2 SWAP1 PUSH2 0xD86 JUMP JUMPDEST PUSH1 0x40 MLOAD DUP1 SWAP2 SUB SWAP1 RETURN JUMPDEST PUSH2 0xBD PUSH1 0x4 DUP1 CALLDATASIZE SUB DUP2 ADD SWAP1 PUSH2 0xB8 SWAP2 SWAP1 PUSH2 0xF43 JUMP JUMPDEST PUSH2 0x997 JUMP JUMPDEST STOP JUMPDEST PUSH1 0x60 PUSH0 PUSH0 PUSH0 SWAP1 POP JUMPDEST PUSH0 DUP1 SLOAD SWAP1 POP DUP2 LT ISZERO PUSH2 0x14C JUMPI DUP4 PUSH17 0xFFFFFFFFFFFFFFFFFFFFFFFFFFFFFFFFFF NOT AND PUSH0 DUP3 DUP2 SLOAD DUP2 LT PUSH2 0xFB JUMPI PUSH2 0xFA PUSH2 0x103C JUMP JUMPDEST JUMPDEST SWAP1 PUSH0 MSTORE PUSH1 0x20 PUSH0 KECCAK256 SWAP1 PUSH1 0x7 MUL ADD PUSH1 0x2 ADD PUSH0 SWAP1 SLOAD SWAP1 PUSH2 0x100 EXP SWAP1 DIV PUSH1 0x88 SHL PUSH17 0xFFFFFFFFFFFFFFFFFFFFFFFFFFFFFFFFFF NOT AND SUB PUSH2 0x13F JUMPI DUP2 DUP1 PUSH2 0x13B SWAP1 PUSH2 0x1096 JUMP JUMPDEST SWAP3 POP POP JUMPDEST DUP1 DUP1 PUSH1 0x1 ADD SWAP2 POP POP PUSH2 0xC7 JUMP JUMPDEST POP PUSH0 DUP2 PUSH8 0xFFFFFFFFFFFFFFFF DUP2 GT ISZERO PUSH2 0x168 JUMPI PUSH2 0x167 PUSH2 0xDAE JUMP JUMPDEST JUMPDEST PUSH1 0x40 MLOAD SWAP1 DUP1 DUP3 MSTORE DUP1 PUSH1 0x20 MUL PUSH1 0x20 ADD DUP3 ADD PUSH1 0x40 MSTORE DUP1 ISZERO PUSH2 0x1A1 JUMPI DUP2 PUSH1 0x20 ADD JUMPDEST PUSH2 0x18E PUSH2 0xAA7 JUMP JUMPDEST DUP2 MSTORE PUSH1 0x20 ADD SWAP1 PUSH1 0x1 SWAP1 SUB SWAP1 DUP2 PUSH2 0x186 JUMPI SWAP1 POP JUMPDEST POP SWAP1 POP PUSH0 PUSH0 PUSH0 SWAP1 POP JUMPDEST PUSH0 DUP1 SLOAD SWAP1 POP DUP2 LT ISZERO PUSH2 0x508 JUMPI DUP6 PUSH17 0xFFFFFFFFFFFFFFFFFFFFFFFFFFFFFFFFFF NOT AND PUSH0 DUP3 DUP2 SLOAD DUP2 LT PUSH2 0x1DE JUMPI PUSH2 0x1DD PUSH2 0x103C JUMP JUMPDEST JUMPDEST SWAP1 PUSH0 MSTORE PUSH1 0x20 PUSH0 KECCAK256 SWAP1 PUSH1 0x7 MUL ADD PUSH1 0x2 ADD PUSH0 SWAP1 SLOAD SWAP1 PUSH2 0x100 EXP SWAP1 DIV PUSH1 0x88 SHL PUSH17 0xFFFFFFFFFFFFFFFFFFFFFFFFFFFFFFFFFF NOT AND SUB PUSH2 0x4FB JUMPI PUSH0 DUP2 DUP2 SLOAD DUP2 LT PUSH2 0x226 JUMPI PUSH2 0x225 PUSH2 0x103C JUMP JUMPDEST JUMPDEST SWAP1 PUSH0 MSTORE PUSH1 0x20 PUSH0 KECCAK256 SWAP1 PUSH1 0x7 MUL ADD PUSH1 0x40 MLOAD DUP1 PUSH1 0xE0 ADD PUSH1 0x40 MSTORE SWAP1 DUP2 PUSH0 DUP3 ADD DUP1 SLOAD PUSH2 0x24C SWAP1 PUSH2 0x110A JUMP JUMPDEST DUP1 PUSH1 0x1F ADD PUSH1 0x20 DUP1 SWAP2 DIV MUL PUSH1 0x20 ADD PUSH1 0x40 MLOAD SWAP1 DUP2 ADD PUSH1 0x40 MSTORE DUP1 SWAP3 SWAP2 SWAP1 DUP2 DUP2 MSTORE PUSH1 0x20 ADD DUP3 DUP1 SLOAD PUSH2 0x278 SWAP1 PUSH2 0x110A JUMP JUMPDEST DUP1 ISZERO PUSH2 0x2C3 JUMPI DUP1 PUSH1 0x1F LT PUSH2 0x29A JUMPI PUSH2 0x100 DUP1 DUP4 SLOAD DIV MUL DUP4 MSTORE SWAP2 PUSH1 0x20 ADD SWAP2 PUSH2 0x2C3 JUMP JUMPDEST DUP3 ADD SWAP2 SWAP1 PUSH0 MSTORE PUSH1 0x20 PUSH0 KECCAK256 SWAP1 JUMPDEST DUP2 SLOAD DUP2 MSTORE SWAP1 PUSH1 0x1 ADD SWAP1 PUSH1 0x20 ADD DUP1 DUP4 GT PUSH2 0x2A6 JUMPI DUP3 SWAP1 SUB PUSH1 0x1F AND DUP3 ADD SWAP2 JUMPDEST POP POP POP POP POP DUP2 MSTORE PUSH1 0x20 ADD PUSH1 0x1 DUP3 ADD DUP1 SLOAD PUSH2 0x2DC SWAP1 PUSH2 0x110A JUMP JUMPDEST DUP1 PUSH1 0x1F ADD PUSH1 0x20 DUP1 SWAP2 DIV MUL PUSH1 0x20 ADD PUSH1 0x40 MLOAD SWAP1 DUP2 ADD PUSH1 0x40 MSTORE DUP1 SWAP3 SWAP2 SWAP1 DUP2 DUP2 MSTORE PUSH1 0x20 ADD DUP3 DUP1 SLOAD PUSH2 0x308 SWAP1 PUSH2 0x110A JUMP JUMPDEST DUP1 ISZERO PUSH2 0x353 JUMPI DUP1 PUSH1 0x1F LT PUSH2 0x32A JUMPI PUSH2 0x100 DUP1 DUP4 SLOAD DIV MUL DUP4 MSTORE SWAP2 PUSH1 0x20 ADD SWAP2 PUSH2 0x353 JUMP JUMPDEST DUP3 ADD SWAP2 SWAP1 PUSH0 MSTORE PUSH1 0x20 PUSH0 KECCAK256 SWAP1 JUMPDEST DUP2 SLOAD DUP2 MSTORE SWAP1 PUSH1 0x1 ADD SWAP1 PUSH1 0x20 ADD DUP1 DUP4 GT PUSH2 0x336 JUMPI DUP3 SWAP1 SUB PUSH1 0x1F AND DUP3 ADD SWAP2 JUMPDEST POP POP POP POP POP DUP2 MSTORE PUSH1 0x20 ADD PUSH1 0x2 DUP3 ADD PUSH0 SWAP1 SLOAD SWAP1 PUSH2 0x100 EXP SWAP1 DIV PUSH1 0x88 SHL PUSH17 0xFFFFFFFFFFFFFFFFFFFFFFFFFFFFFFFFFF NOT AND PUSH17 0xFFFFFFFFFFFFFFFFFFFFFFFFFFFFFFFFFF NOT AND DUP2 MSTORE PUSH1 0x20 ADD PUSH1 0x3 DUP3 ADD DUP1 SLOAD PUSH2 0x3AA SWAP1 PUSH2 0x110A JUMP JUMPDEST DUP1 PUSH1 0x1F ADD PUSH1 0x20 DUP1 SWAP2 DIV MUL PUSH1 0x20 ADD PUSH1 0x40 MLOAD SWAP1 DUP2 ADD PUSH1 0x40 MSTORE DUP1 SWAP3 SWAP2 SWAP1 DUP2 DUP2 MSTORE PUSH1 0x20 ADD DUP3 DUP1 SLOAD PUSH2 0x3D6 SWAP1 PUSH2 0x110A JUMP JUMPDEST DUP1 ISZERO PUSH2 0x421 JUMPI DUP1 PUSH1 0x1F LT PUSH2 0x3F8 JUMPI PUSH2 0x100 DUP1 DUP4 SLOAD DIV MUL DUP4 MSTORE SWAP2 PUSH1 0x20 ADD SWAP2 PUSH2 0x421 JUMP JUMPDEST DUP3 ADD SWAP2 SWAP1 PUSH0 MSTORE PUSH1 0x20 PUSH0 KECCAK256 SWAP1 JUMPDEST DUP2 SLOAD DUP2 MSTORE SWAP1 PUSH1 0x1 ADD SWAP1 PUSH1 0x20 ADD DUP1 DUP4 GT PUSH2 0x404 JUMPI DUP3 SWAP1 SUB PUSH1 0x1F AND DUP3 ADD SWAP2 JUMPDEST POP POP POP POP POP DUP2 MSTORE PUSH1 0x20 ADD PUSH1 0x4 DUP3 ADD SLOAD DUP2 MSTORE PUSH1 0x20 ADD PUSH1 0x5 DUP3 ADD DUP1 SLOAD PUSH2 0x444 SWAP1 PUSH2 0x110A JUMP JUMPDEST DUP1 PUSH1 0x1F ADD PUSH1 0x20 DUP1 SWAP2 DIV MUL PUSH1 0x20 ADD PUSH1 0x40 MLOAD SWAP1 DUP2 ADD PUSH1 0x40 MSTORE DUP1 SWAP3 SWAP2 SWAP1 DUP2 DUP2 MSTORE PUSH1 0x20 ADD DUP3 DUP1 SLOAD PUSH2 0x470 SWAP1 PUSH2 0x110A JUMP JUMPDEST DUP1 ISZERO PUSH2 0x4BB JUMPI DUP1 PUSH1 0x1F LT PUSH2 0x492 JUMPI PUSH2 0x100 DUP1 DUP4 SLOAD DIV MUL DUP4 MSTORE SWAP2 PUSH1 0x20 ADD SWAP2 PUSH2 0x4BB JUMP JUMPDEST DUP3 ADD SWAP2 SWAP1 PUSH0 MSTORE PUSH1 0x20 PUSH0 KECCAK256 SWAP1 JUMPDEST DUP2 SLOAD DUP2 MSTORE SWAP1 PUSH1 0x1 ADD SWAP1 PUSH1 0x20 ADD DUP1 DUP4 GT PUSH2 0x49E JUMPI DUP3 SWAP1 SUB PUSH1 0x1F AND DUP3 ADD SWAP2 JUMPDEST POP POP POP POP POP DUP2 MSTORE PUSH1 0x20 ADD PUSH1 0x6 DUP3 ADD SLOAD DUP2 MSTORE POP POP DUP4 DUP4 DUP2 MLOAD DUP2 LT PUSH2 0x4E1 JUMPI PUSH2 0x4E0 PUSH2 0x103C JUMP JUMPDEST JUMPDEST PUSH1 0x20 MUL PUSH1 0x20 ADD ADD DUP2 SWAP1 MSTORE POP DUP2 DUP1 PUSH2 0x4F7 SWAP1 PUSH2 0x1096 JUMP JUMPDEST SWAP3 POP POP JUMPDEST DUP1 DUP1 PUSH1 0x1 ADD SWAP2 POP POP PUSH2 0x1AA JUMP JUMPDEST POP DUP2 SWAP4 POP POP POP POP SWAP2 SWAP1 POP JUMP JUMPDEST PUSH1 0x60 PUSH0 PUSH0 PUSH0 SWAP1 POP JUMPDEST PUSH0 DUP1 SLOAD SWAP1 POP DUP2 LT ISZERO PUSH2 0x5B8 JUMPI DUP4 PUSH1 0x40 MLOAD PUSH1 0x20 ADD PUSH2 0x539 SWAP2 SWAP1 PUSH2 0x1174 JUMP JUMPDEST PUSH1 0x40 MLOAD PUSH1 0x20 DUP2 DUP4 SUB SUB DUP2 MSTORE SWAP1 PUSH1 0x40 MSTORE DUP1 MLOAD SWAP1 PUSH1 0x20 ADD KECCAK256 PUSH0 DUP3 DUP2 SLOAD DUP2 LT PUSH2 0x562 JUMPI PUSH2 0x561 PUSH2 0x103C JUMP JUMPDEST JUMPDEST SWAP1 PUSH0 MSTORE PUSH1 0x20 PUSH0 KECCAK256 SWAP1 PUSH1 0x7 MUL ADD PUSH1 0x3 ADD PUSH1 0x40 MLOAD PUSH1 0x20 ADD PUSH2 0x581 SWAP2 SWAP1 PUSH2 0x121C JUMP JUMPDEST PUSH1 0x40 MLOAD PUSH1 0x20 DUP2 DUP4 SUB SUB DUP2 MSTORE SWAP1 PUSH1 0x40 MSTORE DUP1 MLOAD SWAP1 PUSH1 0x20 ADD KECCAK256 SUB PUSH2 0x5AB JUMPI DUP2 DUP1 PUSH2 0x5A7 SWAP1 PUSH2 0x1096 JUMP JUMPDEST SWAP3 POP POP JUMPDEST DUP1 DUP1 PUSH1 0x1 ADD SWAP2 POP POP PUSH2 0x51C JUMP JUMPDEST POP PUSH0 DUP2 PUSH8 0xFFFFFFFFFFFFFFFF DUP2 GT ISZERO PUSH2 0x5D4 JUMPI PUSH2 0x5D3 PUSH2 0xDAE JUMP JUMPDEST JUMPDEST PUSH1 0x40 MLOAD SWAP1 DUP1 DUP3 MSTORE DUP1 PUSH1 0x20 MUL PUSH1 0x20 ADD DUP3 ADD PUSH1 0x40 MSTORE DUP1 ISZERO PUSH2 0x60D JUMPI DUP2 PUSH1 0x20 ADD JUMPDEST PUSH2 0x5FA PUSH2 0xAA7 JUMP JUMPDEST DUP2 MSTORE PUSH1 0x20 ADD SWAP1 PUSH1 0x1 SWAP1 SUB SWAP1 DUP2 PUSH2 0x5F2 JUMPI SWAP1 POP JUMPDEST POP SWAP1 POP PUSH0 PUSH0 PUSH0 SWAP1 POP JUMPDEST PUSH0 DUP1 SLOAD SWAP1 POP DUP2 LT ISZERO PUSH2 0x98B JUMPI DUP6 PUSH1 0x40 MLOAD PUSH1 0x20 ADD PUSH2 0x633 SWAP2 SWAP1 PUSH2 0x1174 JUMP JUMPDEST PUSH1 0x40 MLOAD PUSH1 0x20 DUP2 DUP4 SUB SUB DUP2 MSTORE SWAP1 PUSH1 0x40 MSTORE DUP1 MLOAD SWAP1 PUSH1 0x20 ADD KECCAK256 PUSH0 DUP3 DUP2 SLOAD DUP2 LT PUSH2 0x65C JUMPI PUSH2 0x65B PUSH2 0x103C JUMP JUMPDEST JUMPDEST SWAP1 PUSH0 MSTORE PUSH1 0x20 PUSH0 KECCAK256 SWAP1 PUSH1 0x7 MUL ADD PUSH1 0x3 ADD PUSH1 0x40 MLOAD PUSH1 0x20 ADD PUSH2 0x67B SWAP2 SWAP1 PUSH2 0x121C JUMP JUMPDEST PUSH1 0x40 MLOAD PUSH1 0x20 DUP2 DUP4 SUB SUB DUP2 MSTORE SWAP1 PUSH1 0x40 MSTORE DUP1 MLOAD SWAP1 PUSH1 0x20 ADD KECCAK256 SUB PUSH2 0x97E JUMPI PUSH0 DUP2 DUP2 SLOAD DUP2 LT PUSH2 0x6A9 JUMPI PUSH2 0x6A8 PUSH2 0x103C JUMP JUMPDEST JUMPDEST SWAP1 PUSH0 MSTORE PUSH1 0x20 PUSH0 KECCAK256 SWAP1 PUSH1 0x7 MUL ADD PUSH1 0x40 MLOAD DUP1 PUSH1 0xE0 ADD PUSH1 0x40 MSTORE SWAP1 DUP2 PUSH0 DUP3 ADD DUP1 SLOAD PUSH2 0x6CF SWAP1 PUSH2 0x110A JUMP JUMPDEST DUP1 PUSH1 0x1F ADD PUSH1 0x20 DUP1 SWAP2 DIV MUL PUSH1 0x20 ADD PUSH1 0x40 MLOAD SWAP1 DUP2 ADD PUSH1 0x40 MSTORE DUP1 SWAP3 SWAP2 SWAP1 DUP2 DUP2 MSTORE PUSH1 0x20 ADD DUP3 DUP1 SLOAD PUSH2 0x6FB SWAP1 PUSH2 0x110A JUMP JUMPDEST DUP1 ISZERO PUSH2 0x746 JUMPI DUP1 PUSH1 0x1F LT PUSH2 0x71D JUMPI PUSH2 0x100 DUP1 DUP4 SLOAD DIV MUL DUP4 MSTORE SWAP2 PUSH1 0x20 ADD SWAP2 PUSH2 0x746 JUMP JUMPDEST DUP3 ADD SWAP2 SWAP1 PUSH0 MSTORE PUSH1 0x20 PUSH0 KECCAK256 SWAP1 JUMPDEST DUP2 SLOAD DUP2 MSTORE SWAP1 PUSH1 0x1 ADD SWAP1 PUSH1 0x20 ADD DUP1 DUP4 GT PUSH2 0x729 JUMPI DUP3 SWAP1 SUB PUSH1 0x1F AND DUP3 ADD SWAP2 JUMPDEST POP POP POP POP POP DUP2 MSTORE PUSH1 0x20 ADD PUSH1 0x1 DUP3 ADD DUP1 SLOAD PUSH2 0x75F SWAP1 PUSH2 0x110A JUMP JUMPDEST DUP1 PUSH1 0x1F ADD PUSH1 0x20 DUP1 SWAP2 DIV MUL PUSH1 0x20 ADD PUSH1 0x40 MLOAD SWAP1 DUP2 ADD PUSH1 0x40 MSTORE DUP1 SWAP3 SWAP2 SWAP1 DUP2 DUP2 MSTORE PUSH1 0x20 ADD DUP3 DUP1 SLOAD PUSH2 0x78B SWAP1 PUSH2 0x110A JUMP JUMPDEST DUP1 ISZERO PUSH2 0x7D6 JUMPI DUP1 PUSH1 0x1F LT PUSH2 0x7AD JUMPI PUSH2 0x100 DUP1 DUP4 SLOAD DIV MUL DUP4 MSTORE SWAP2 PUSH1 0x20 ADD SWAP2 PUSH2 0x7D6 JUMP JUMPDEST DUP3 ADD SWAP2 SWAP1 PUSH0 MSTORE PUSH1 0x20 PUSH0 KECCAK256 SWAP1 JUMPDEST DUP2 SLOAD DUP2 MSTORE SWAP1 PUSH1 0x1 ADD SWAP1 PUSH1 0x20 ADD DUP1 DUP4 GT PUSH2 0x7B9 JUMPI DUP3 SWAP1 SUB PUSH1 0x1F AND DUP3 ADD SWAP2 JUMPDEST POP POP POP POP POP DUP2 MSTORE PUSH1 0x20 ADD PUSH1 0x2 DUP3 ADD PUSH0 SWAP1 SLOAD SWAP1 PUSH2 0x100 EXP SWAP1 DIV PUSH1 0x88 SHL PUSH17 0xFFFFFFFFFFFFFFFFFFFFFFFFFFFFFFFFFF NOT AND PUSH17 0xFFFFFFFFFFFFFFFFFFFFFFFFFFFFFFFFFF NOT AND DUP2 MSTORE PUSH1 0x20 ADD PUSH1 0x3 DUP3 ADD DUP1 SLOAD PUSH2 0x82D SWAP1 PUSH2 0x110A JUMP JUMPDEST DUP1 PUSH1 0x1F ADD PUSH1 0x20 DUP1 SWAP2 DIV MUL PUSH1 0x20 ADD PUSH1 0x40 MLOAD SWAP1 DUP2 ADD PUSH1 0x40 MSTORE DUP1 SWAP3 SWAP2 SWAP1 DUP2 DUP2 MSTORE PUSH1 0x20 ADD DUP3 DUP1 SLOAD PUSH2 0x859 SWAP1 PUSH2 0x110A JUMP JUMPDEST DUP1 ISZERO PUSH2 0x8A4 JUMPI DUP1 PUSH1 0x1F LT PUSH2 0x87B JUMPI PUSH2 0x100 DUP1 DUP4 SLOAD DIV MUL DUP4 MSTORE SWAP2 PUSH1 0x20 ADD SWAP2 PUSH2 0x8A4 JUMP JUMPDEST DUP3 ADD SWAP2 SWAP1 PUSH0 MSTORE PUSH1 0x20 PUSH0 KECCAK256 SWAP1 JUMPDEST DUP2 SLOAD DUP2 MSTORE SWAP1 PUSH1 0x1 ADD SWAP1 PUSH1 0x20 ADD DUP1 DUP4 GT PUSH2 0x887 JUMPI DUP3 SWAP1 SUB PUSH1 0x1F AND DUP3 ADD SWAP2 JUMPDEST POP POP POP POP POP DUP2 MSTORE PUSH1 0x20 ADD PUSH1 0x4 DUP3 ADD SLOAD DUP2 MSTORE PUSH1 0x20 ADD PUSH1 0x5 DUP3 ADD DUP1 SLOAD PUSH2 0x8C7 SWAP1 PUSH2 0x110A JUMP JUMPDEST DUP1 PUSH1 0x1F ADD PUSH1 0x20 DUP1 SWAP2 DIV MUL PUSH1 0x20 ADD PUSH1 0x40 MLOAD SWAP1 DUP2 ADD PUSH1 0x40 MSTORE DUP1 SWAP3 SWAP2 SWAP1 DUP2 DUP2 MSTORE PUSH1 0x20 ADD DUP3 DUP1 SLOAD PUSH2 0x8F3 SWAP1 PUSH2 0x110A JUMP JUMPDEST DUP1 ISZERO PUSH2 0x93E JUMPI DUP1 PUSH1 0x1F LT PUSH2 0x915 JUMPI PUSH2 0x100 DUP1 DUP4 SLOAD DIV MUL DUP4 MSTORE SWAP2 PUSH1 0x20 ADD SWAP2 PUSH2 0x93E JUMP JUMPDEST DUP3 ADD SWAP2 SWAP1 PUSH0 MSTORE PUSH1 0x20 PUSH0 KECCAK256 SWAP1 JUMPDEST DUP2 SLOAD DUP2 MSTORE SWAP1 PUSH1 0x1 ADD SWAP1 PUSH1 0x20 ADD DUP1 DUP4 GT PUSH2 0x921 JUMPI DUP3 SWAP1 SUB PUSH1 0x1F AND DUP3 ADD SWAP2 JUMPDEST POP POP POP POP POP DUP2 MSTORE PUSH1 0x20 ADD PUSH1 0x6 DUP3 ADD SLOAD DUP2 MSTORE POP POP DUP4 DUP4 DUP2 MLOAD DUP2 LT PUSH2 0x964 JUMPI PUSH2 0x963 PUSH2 0x103C JUMP JUMPDEST JUMPDEST PUSH1 0x20 MUL PUSH1 0x20 ADD ADD DUP2 SWAP1 MSTORE POP DUP2 DUP1 PUSH2 0x97A SWAP1 PUSH2 0x1096 JUMP JUMPDEST SWAP3 POP POP JUMPDEST DUP1 DUP1 PUSH1 0x1 ADD SWAP2 POP POP PUSH2 0x616 JUMP JUMPDEST POP DUP2 SWAP4 POP POP POP POP SWAP2 SWAP1 POP JUMP JUMPDEST PUSH0 PUSH1 0x40 MLOAD DUP1 PUSH1 0xE0 ADD PUSH1 0x40 MSTORE DUP1 DUP9 DUP2 MSTORE PUSH1 0x20 ADD DUP8 DUP2 MSTORE PUSH1 0x20 ADD DUP7 PUSH17 0xFFFFFFFFFFFFFFFFFFFFFFFFFFFFFFFFFF NOT AND DUP2 MSTORE PUSH1 0x20 ADD DUP6 DUP2 MSTORE PUSH1 0x20 ADD DUP5 DUP2 MSTORE PUSH1 0x20 ADD DUP4 DUP2 MSTORE PUSH1 0x20 ADD TIMESTAMP DUP2 MSTORE POP SWAP1 DUP1 PUSH1 0x1 DUP2 SLOAD ADD DUP1 DUP3 SSTORE DUP1 SWAP2 POP POP PUSH1 0x1 SWAP1 SUB SWAP1 PUSH0 MSTORE PUSH1 0x20 PUSH0 KECCAK256 SWAP1 PUSH1 0x7 MUL ADD PUSH0 SWAP1 SWAP2 SWAP1 SWAP2 SWAP1 SWAP2 POP PUSH0 DUP3 ADD MLOAD DUP2 PUSH0 ADD SWAP1 DUP2 PUSH2 0xA18 SWAP2 SWAP1 PUSH2 0x13C0 JUMP JUMPDEST POP PUSH1 0x20 DUP3 ADD MLOAD DUP2 PUSH1 0x1 ADD SWAP1 DUP2 PUSH2 0xA2E SWAP2 SWAP1 PUSH2 0x13C0 JUMP JUMPDEST POP PUSH1 0x40 DUP3 ADD MLOAD DUP2 PUSH1 0x2 ADD PUSH0 PUSH2 0x100 EXP DUP2 SLOAD DUP2 PUSH15 0xFFFFFFFFFFFFFFFFFFFFFFFFFFFFFF MUL NOT AND SWAP1 DUP4 PUSH1 0x88 SHR MUL OR SWAP1 SSTORE POP PUSH1 0x60 DUP3 ADD MLOAD DUP2 PUSH1 0x3 ADD SWAP1 DUP2 PUSH2 0xA72 SWAP2 SWAP1 PUSH2 0x13C0 JUMP JUMPDEST POP PUSH1 0x80 DUP3 ADD MLOAD DUP2 PUSH1 0x4 ADD SSTORE PUSH1 0xA0 DUP3 ADD MLOAD DUP2 PUSH1 0x5 ADD SWAP1 DUP2 PUSH2 0xA92 SWAP2 SWAP1 PUSH2 0x13C0 JUMP JUMPDEST POP PUSH1 0xC0 DUP3 ADD MLOAD DUP2 PUSH1 0x6 ADD SSTORE POP POP POP POP POP POP POP POP JUMP JUMPDEST PUSH1 0x40 MLOAD DUP1 PUSH1 0xE0 ADD PUSH1 0x40 MSTORE DUP1 PUSH1 0x60 DUP2 MSTORE PUSH1 0x20 ADD PUSH1 0x60 DUP2 MSTORE PUSH1 0x20 ADD PUSH0 PUSH17 0xFFFFFFFFFFFFFFFFFFFFFFFFFFFFFFFFFF NOT AND DUP2 MSTORE PUSH1 0x20 ADD PUSH1 0x60 DUP2 MSTORE PUSH1 0x20 ADD PUSH0 DUP2 MSTORE PUSH1 0x20 ADD PUSH1 0x60 DUP2 MSTORE PUSH1 0x20 ADD PUSH0 DUP2 MSTORE POP SWAP1 JUMP JUMPDEST PUSH0 PUSH1 0x40 MLOAD SWAP1 POP SWAP1 JUMP JUMPDEST PUSH0 PUSH0 REVERT JUMPDEST PUSH0 PUSH0 REVERT JUMPDEST PUSH0 PUSH32 0xFFFFFFFFFFFFFFFFFFFFFFFFFFFFFF0000000000000000000000000000000000 DUP3 AND SWAP1 POP SWAP2 SWAP1 POP JUMP JUMPDEST PUSH2 0xB3A DUP2 PUSH2 0xB06 JUMP JUMPDEST DUP2 EQ PUSH2 0xB44 JUMPI PUSH0 PUSH0 REVERT JUMPDEST POP JUMP JUMPDEST PUSH0 DUP2 CALLDATALOAD SWAP1 POP PUSH2 0xB55 DUP2 PUSH2 0xB31 JUMP JUMPDEST SWAP3 SWAP2 POP POP JUMP JUMPDEST PUSH0 PUSH1 0x20 DUP3 DUP5 SUB SLT ISZERO PUSH2 0xB70 JUMPI PUSH2 0xB6F PUSH2 0xAFE JUMP JUMPDEST JUMPDEST PUSH0 PUSH2 0xB7D DUP5 DUP3 DUP6 ADD PUSH2 0xB47 JUMP JUMPDEST SWAP2 POP POP SWAP3 SWAP2 POP POP JUMP JUMPDEST PUSH0 DUP2 MLOAD SWAP1 POP SWAP2 SWAP1 POP JUMP JUMPDEST PUSH0 DUP3 DUP3 MSTORE PUSH1 0x20 DUP3 ADD SWAP1 POP SWAP3 SWAP2 POP POP JUMP JUMPDEST PUSH0 DUP2 SWAP1 POP PUSH1 0x20 DUP3 ADD SWAP1 POP SWAP2 SWAP1 POP JUMP JUMPDEST PUSH0 DUP2 MLOAD SWAP1 POP SWAP2 SWAP1 POP JUMP JUMPDEST PUSH0 DUP3 DUP3 MSTORE PUSH1 0x20 DUP3 ADD SWAP1 POP SWAP3 SWAP2 POP POP JUMP JUMPDEST DUP3 DUP2 DUP4 MCOPY PUSH0 DUP4 DUP4 ADD MSTORE POP POP POP JUMP JUMPDEST PUSH0 PUSH1 0x1F NOT PUSH1 0x1F DUP4 ADD AND SWAP1 POP SWAP2 SWAP1 POP JUMP JUMPDEST PUSH0 PUSH2 0xBF1 DUP3 PUSH2 0xBAF JUMP JUMPDEST PUSH2 0xBFB DUP2 DUP6 PUSH2 0xBB9 JUMP JUMPDEST SWAP4 POP PUSH2 0xC0B DUP2 DUP6 PUSH1 0x20 DUP7 ADD PUSH2 0xBC9 JUMP JUMPDEST PUSH2 0xC14 DUP2 PUSH2 0xBD7 JUMP JUMPDEST DUP5 ADD SWAP2 POP POP SWAP3 SWAP2 POP POP JUMP JUMPDEST PUSH2 0xC28 DUP2 PUSH2 0xB06 JUMP JUMPDEST DUP3 MSTORE POP POP JUMP JUMPDEST PUSH0 DUP2 SWAP1 POP SWAP2 SWAP1 POP JUMP JUMPDEST PUSH2 0xC40 DUP2 PUSH2 0xC2E JUMP JUMPDEST DUP3 MSTORE POP POP JUMP JUMPDEST PUSH0 PUSH1 0xE0 DUP4 ADD PUSH0 DUP4 ADD MLOAD DUP5 DUP3 SUB PUSH0 DUP7 ADD MSTORE PUSH2 0xC60 DUP3 DUP3 PUSH2 0xBE7 JUMP JUMPDEST SWAP2 POP POP PUSH1 0x20 DUP4 ADD MLOAD DUP5 DUP3 SUB PUSH1 0x20 DUP7 ADD MSTORE PUSH2 0xC7A DUP3 DUP3 PUSH2 0xBE7 JUMP JUMPDEST SWAP2 POP POP PUSH1 0x40 DUP4 ADD MLOAD PUSH2 0xC8F PUSH1 0x40 DUP7 ADD DUP3 PUSH2 0xC1F JUMP JUMPDEST POP PUSH1 0x60 DUP4 ADD MLOAD DUP5 DUP3 SUB PUSH1 0x60 DUP7 ADD MSTORE PUSH2 0xCA7 DUP3 DUP3 PUSH2 0xBE7 JUMP JUMPDEST SWAP2 POP POP PUSH1 0x80 DUP4 ADD MLOAD PUSH2 0xCBC PUSH1 0x80 DUP7 ADD DUP3 PUSH2 0xC37 JUMP JUMPDEST POP PUSH1 0xA0 DUP4 ADD MLOAD DUP5 DUP3 SUB PUSH1 0xA0 DUP7 ADD MSTORE PUSH2 0xCD4 DUP3 DUP3 PUSH2 0xBE7 JUMP JUMPDEST SWAP2 POP POP PUSH1 0xC0 DUP4 ADD MLOAD PUSH2 0xCE9 PUSH1 0xC0 DUP7 ADD DUP3 PUSH2 0xC37 JUMP JUMPDEST POP DUP1 SWAP2 POP POP SWAP3 SWAP2 POP POP JUMP JUMPDEST PUSH0 PUSH2 0xCFF DUP4 DUP4 PUSH2 0xC46 JUMP JUMPDEST SWAP1 POP SWAP3 SWAP2 POP POP JUMP JUMPDEST PUSH0 PUSH1 0x20 DUP3 ADD SWAP1 POP SWAP2 SWAP1 POP JUMP JUMPDEST PUSH0 PUSH2 0xD1D DUP3 PUSH2 0xB86 JUMP JUMPDEST PUSH2 0xD27 DUP2 DUP6 PUSH2 0xB90 JUMP JUMPDEST SWAP4 POP DUP4 PUSH1 0x20 DUP3 MUL DUP6 ADD PUSH2 0xD39 DUP6 PUSH2 0xBA0 JUMP JUMPDEST DUP1 PUSH0 JUMPDEST DUP6 DUP2 LT ISZERO PUSH2 0xD74 JUMPI DUP5 DUP5 SUB DUP10 MSTORE DUP2 MLOAD PUSH2 0xD55 DUP6 DUP3 PUSH2 0xCF4 JUMP JUMPDEST SWAP5 POP PUSH2 0xD60 DUP4 PUSH2 0xD07 JUMP JUMPDEST SWAP3 POP PUSH1 0x20 DUP11 ADD SWAP10 POP POP PUSH1 0x1 DUP2 ADD SWAP1 POP PUSH2 0xD3C JUMP JUMPDEST POP DUP3 SWAP8 POP DUP8 SWAP6 POP POP POP POP POP POP SWAP3 SWAP2 POP POP JUMP JUMPDEST PUSH0 PUSH1 0x20 DUP3 ADD SWAP1 POP DUP2 DUP2 SUB PUSH0 DUP4 ADD MSTORE PUSH2 0xD9E DUP2 DUP5 PUSH2 0xD13 JUMP JUMPDEST SWAP1 POP SWAP3 SWAP2 POP POP JUMP JUMPDEST PUSH0 PUSH0 REVERT JUMPDEST PUSH0 PUSH0 REVERT JUMPDEST PUSH32 0x4E487B7100000000000000000000000000000000000000000000000000000000 PUSH0 MSTORE PUSH1 0x41 PUSH1 0x4 MSTORE PUSH1 0x24 PUSH0 REVERT JUMPDEST PUSH2 0xDE4 DUP3 PUSH2 0xBD7 JUMP JUMPDEST DUP2 ADD DUP2 DUP2 LT PUSH8 0xFFFFFFFFFFFFFFFF DUP3 GT OR ISZERO PUSH2 0xE03 JUMPI PUSH2 0xE02 PUSH2 0xDAE JUMP JUMPDEST JUMPDEST DUP1 PUSH1 0x40 MSTORE POP POP POP JUMP JUMPDEST PUSH0 PUSH2 0xE15 PUSH2 0xAF5 JUMP JUMPDEST SWAP1 POP PUSH2 0xE21 DUP3 DUP3 PUSH2 0xDDB JUMP JUMPDEST SWAP2 SWAP1 POP JUMP JUMPDEST PUSH0 PUSH8 0xFFFFFFFFFFFFFFFF DUP3 GT ISZERO PUSH2 0xE40 JUMPI PUSH2 0xE3F PUSH2 0xDAE JUMP JUMPDEST JUMPDEST PUSH2 0xE49 DUP3 PUSH2 0xBD7 JUMP JUMPDEST SWAP1 POP PUSH1 0x20 DUP2 ADD SWAP1 POP SWAP2 SWAP1 POP JUMP JUMPDEST DUP3 DUP2 DUP4 CALLDATACOPY PUSH0 DUP4 DUP4 ADD MSTORE POP POP POP JUMP JUMPDEST PUSH0 PUSH2 0xE76 PUSH2 0xE71 DUP5 PUSH2 0xE26 JUMP JUMPDEST PUSH2 0xE0C JUMP JUMPDEST SWAP1 POP DUP3 DUP2 MSTORE PUSH1 0x20 DUP2 ADD DUP5 DUP5 DUP5 ADD GT ISZERO PUSH2 0xE92 JUMPI PUSH2 0xE91 PUSH2 0xDAA JUMP JUMPDEST JUMPDEST PUSH2 0xE9D DUP5 DUP3 DUP6 PUSH2 0xE56 JUMP JUMPDEST POP SWAP4 SWAP3 POP POP POP JUMP JUMPDEST PUSH0 DUP3 PUSH1 0x1F DUP4 ADD SLT PUSH2 0xEB9 JUMPI PUSH2 0xEB8 PUSH2 0xDA6 JUMP JUMPDEST JUMPDEST DUP2 CALLDATALOAD PUSH2 0xEC9 DUP5 DUP3 PUSH1 0x20 DUP7 ADD PUSH2 0xE64 JUMP JUMPDEST SWAP2 POP POP SWAP3 SWAP2 POP POP JUMP JUMPDEST PUSH0 PUSH1 0x20 DUP3 DUP5 SUB SLT ISZERO PUSH2 0xEE7 JUMPI PUSH2 0xEE6 PUSH2 0xAFE JUMP JUMPDEST JUMPDEST PUSH0 DUP3 ADD CALLDATALOAD PUSH8 0xFFFFFFFFFFFFFFFF DUP2 GT ISZERO PUSH2 0xF04 JUMPI PUSH2 0xF03 PUSH2 0xB02 JUMP JUMPDEST JUMPDEST PUSH2 0xF10 DUP5 DUP3 DUP6 ADD PUSH2 0xEA5 JUMP JUMPDEST SWAP2 POP POP SWAP3 SWAP2 POP POP JUMP JUMPDEST PUSH2 0xF22 DUP2 PUSH2 0xC2E JUMP JUMPDEST DUP2 EQ PUSH2 0xF2C JUMPI PUSH0 PUSH0 REVERT JUMPDEST POP JUMP JUMPDEST PUSH0 DUP2 CALLDATALOAD SWAP1 POP PUSH2 0xF3D DUP2 PUSH2 0xF19 JUMP JUMPDEST SWAP3 SWAP2 POP POP JUMP JUMPDEST PUSH0 PUSH0 PUSH0 PUSH0 PUSH0 PUSH0 PUSH1 0xC0 DUP8 DUP10 SUB SLT ISZERO PUSH2 0xF5D JUMPI PUSH2 0xF5C PUSH2 0xAFE JUMP JUMPDEST JUMPDEST PUSH0 DUP8 ADD CALLDATALOAD PUSH8 0xFFFFFFFFFFFFFFFF DUP2 GT ISZERO PUSH2 0xF7A JUMPI PUSH2 0xF79 PUSH2 0xB02 JUMP JUMPDEST JUMPDEST PUSH2 0xF86 DUP10 DUP3 DUP11 ADD PUSH2 0xEA5 JUMP JUMPDEST SWAP7 POP POP PUSH1 0x20 DUP8 ADD CALLDATALOAD PUSH8 0xFFFFFFFFFFFFFFFF DUP2 GT ISZERO PUSH2 0xFA7 JUMPI PUSH2 0xFA6 PUSH2 0xB02 JUMP JUMPDEST JUMPDEST PUSH2 0xFB3 DUP10 DUP3 DUP11 ADD PUSH2 0xEA5 JUMP JUMPDEST SWAP6 POP POP PUSH1 0x40 PUSH2 0xFC4 DUP10 DUP3 DUP11 ADD PUSH2 0xB47 JUMP JUMPDEST SWAP5 POP POP PUSH1 0x60 DUP8 ADD CALLDATALOAD PUSH8 0xFFFFFFFFFFFFFFFF DUP2 GT ISZERO PUSH2 0xFE5 JUMPI PUSH2 0xFE4 PUSH2 0xB02 JUMP JUMPDEST JUMPDEST PUSH2 0xFF1 DUP10 DUP3 DUP11 ADD PUSH2 0xEA5 JUMP JUMPDEST SWAP4 POP POP PUSH1 0x80 PUSH2 0x1002 DUP10 DUP3 DUP11 ADD PUSH2 0xF2F JUMP JUMPDEST SWAP3 POP POP PUSH1 0xA0 DUP8 ADD CALLDATALOAD PUSH8 0xFFFFFFFFFFFFFFFF DUP2 GT ISZERO PUSH2 0x1023 JUMPI PUSH2 0x1022 PUSH2 0xB02 JUMP JUMPDEST JUMPDEST PUSH2 0x102F DUP10 DUP3 DUP11 ADD PUSH2 0xEA5 JUMP JUMPDEST SWAP2 POP POP SWAP3 SWAP6 POP SWAP3 SWAP6 POP SWAP3 SWAP6 JUMP JUMPDEST PUSH32 0x4E487B7100000000000000000000000000000000000000000000000000000000 PUSH0 MSTORE PUSH1 0x32 PUSH1 0x4 MSTORE PUSH1 0x24 PUSH0 REVERT JUMPDEST PUSH32 0x4E487B7100000000000000000000000000000000000000000000000000000000 PUSH0 MSTORE PUSH1 0x11 PUSH1 0x4 MSTORE PUSH1 0x24 PUSH0 REVERT JUMPDEST PUSH0 PUSH2 0x10A0 DUP3 PUSH2 0xC2E JUMP JUMPDEST SWAP2 POP PUSH32 0xFFFFFFFFFFFFFFFFFFFFFFFFFFFFFFFFFFFFFFFFFFFFFFFFFFFFFFFFFFFFFFFF DUP3 SUB PUSH2 0x10D2 JUMPI PUSH2 0x10D1 PUSH2 0x1069 JUMP JUMPDEST JUMPDEST PUSH1 0x1 DUP3 ADD SWAP1 POP SWAP2 SWAP1 POP JUMP JUMPDEST PUSH32 0x4E487B7100000000000000000000000000000000000000000000000000000000 PUSH0 MSTORE PUSH1 0x22 PUSH1 0x4 MSTORE PUSH1 0x24 PUSH0 REVERT JUMPDEST PUSH0 PUSH1 0x2 DUP3 DIV SWAP1 POP PUSH1 0x1 DUP3 AND DUP1 PUSH2 0x1121 JUMPI PUSH1 0x7F DUP3 AND SWAP2 POP JUMPDEST PUSH1 0x20 DUP3 LT DUP2 SUB PUSH2 0x1134 JUMPI PUSH2 0x1133 PUSH2 0x10DD JUMP JUMPDEST JUMPDEST POP SWAP2 SWAP1 POP JUMP JUMPDEST PUSH0 DUP2 SWAP1 POP SWAP3 SWAP2 POP POP JUMP JUMPDEST PUSH0 PUSH2 0x114E DUP3 PUSH2 0xBAF JUMP JUMPDEST PUSH2 0x1158 DUP2 DUP6 PUSH2 0x113A JUMP JUMPDEST SWAP4 POP PUSH2 0x1168 DUP2 DUP6 PUSH1 0x20 DUP7 ADD PUSH2 0xBC9 JUMP JUMPDEST DUP1 DUP5 ADD SWAP2 POP POP SWAP3 SWAP2 POP POP JUMP JUMPDEST PUSH0 PUSH2 0x117F DUP3 DUP5 PUSH2 0x1144 JUMP JUMPDEST SWAP2 POP DUP2 SWAP1 POP SWAP3 SWAP2 POP POP JUMP JUMPDEST PUSH0 DUP2 SWAP1 POP DUP2 PUSH0 MSTORE PUSH1 0x20 PUSH0 KECCAK256 SWAP1 POP SWAP2 SWAP1 POP JUMP JUMPDEST PUSH0 DUP2 SLOAD PUSH2 0x11A8 DUP2 PUSH2 0x110A JUMP JUMPDEST PUSH2 0x11B2 DUP2 DUP7 PUSH2 0x113A JUMP JUMPDEST SWAP5 POP PUSH1 0x1 DUP3 AND PUSH0 DUP2 EQ PUSH2 0x11CC JUMPI PUSH1 0x1 DUP2 EQ PUSH2 0x11E1 JUMPI PUSH2 0x1213 JUMP JUMPDEST PUSH1 0xFF NOT DUP4 AND DUP7 MSTORE DUP2 ISZERO ISZERO DUP3 MUL DUP7 ADD SWAP4 POP PUSH2 0x1213 JUMP JUMPDEST PUSH2 0x11EA DUP6 PUSH2 0x118A JUMP JUMPDEST PUSH0 JUMPDEST DUP4 DUP2 LT ISZERO PUSH2 0x120B JUMPI DUP2 SLOAD DUP2 DUP10 ADD MSTORE PUSH1 0x1 DUP3 ADD SWAP2 POP PUSH1 0x20 DUP2 ADD SWAP1 POP PUSH2 0x11EC JUMP JUMPDEST DUP4 DUP9 ADD SWAP6 POP POP POP JUMPDEST POP POP POP SWAP3 SWAP2 POP POP JUMP JUMPDEST PUSH0 PUSH2 0x1227 DUP3 DUP5 PUSH2 0x119C JUMP JUMPDEST SWAP2 POP DUP2 SWAP1 POP SWAP3 SWAP2 POP POP JUMP JUMPDEST PUSH0 PUSH1 0x20 PUSH1 0x1F DUP4 ADD DIV SWAP1 POP SWAP2 SWAP1 POP JUMP JUMPDEST PUSH0 DUP3 DUP3 SHL SWAP1 POP SWAP3 SWAP2 POP POP JUMP JUMPDEST PUSH0 PUSH1 0x8 DUP4 MUL PUSH2 0x127C PUSH32 0xFFFFFFFFFFFFFFFFFFFFFFFFFFFFFFFFFFFFFFFFFFFFFFFFFFFFFFFFFFFFFFFF DUP3 PUSH2 0x1241 JUMP JUMPDEST PUSH2 0x1286 DUP7 DUP4 PUSH2 0x1241 JUMP JUMPDEST SWAP6 POP DUP1 NOT DUP5 AND SWAP4 POP DUP1 DUP7 AND DUP5 OR SWAP3 POP POP POP SWAP4 SWAP3 POP POP POP JUMP JUMPDEST PUSH0 DUP2 SWAP1 POP SWAP2 SWAP1 POP JUMP JUMPDEST PUSH0 PUSH2 0x12C1 PUSH2 0x12BC PUSH2 0x12B7 DUP5 PUSH2 0xC2E JUMP JUMPDEST PUSH2 0x129E JUMP JUMPDEST PUSH2 0xC2E JUMP JUMPDEST SWAP1 POP SWAP2 SWAP1 POP JUMP JUMPDEST PUSH0 DUP2 SWAP1 POP SWAP2 SWAP1 POP JUMP JUMPDEST PUSH2 0x12DA DUP4 PUSH2 0x12A7 JUMP JUMPDEST PUSH2 0x12EE PUSH2 0x12E6 DUP3 PUSH2 0x12C8 JUMP JUMPDEST DUP5 DUP5 SLOAD PUSH2 0x124D JUMP JUMPDEST DUP3 SSTORE POP POP POP POP JUMP JUMPDEST PUSH0 PUSH0 SWAP1 POP SWAP1 JUMP JUMPDEST PUSH2 0x1305 PUSH2 0x12F6 JUMP JUMPDEST PUSH2 0x1310 DUP2 DUP5 DUP5 PUSH2 0x12D1 JUMP JUMPDEST POP POP POP JUMP JUMPDEST JUMPDEST DUP2 DUP2 LT ISZERO PUSH2 0x1333 JUMPI PUSH2 0x1328 PUSH0 DUP3 PUSH2 0x12FD JUMP JUMPDEST PUSH1 0x1 DUP2 ADD SWAP1 POP PUSH2 0x1316 JUMP JUMPDEST POP POP JUMP JUMPDEST PUSH1 0x1F DUP3 GT ISZERO PUSH2 0x1378 JUMPI PUSH2 0x1349 DUP2 PUSH2 0x118A JUMP JUMPDEST PUSH2 0x1352 DUP5 PUSH2 0x1232 JUMP JUMPDEST DUP2 ADD PUSH1 0x20 DUP6 LT ISZERO PUSH2 0x1361 JUMPI DUP2 SWAP1 POP JUMPDEST PUSH2 0x1375 PUSH2 0x136D DUP6 PUSH2 0x1232 JUMP JUMPDEST DUP4 ADD DUP3 PUSH2 0x1315 JUMP JUMPDEST POP POP JUMPDEST POP POP POP JUMP JUMPDEST PUSH0 DUP3 DUP3 SHR SWAP1 POP SWAP3 SWAP2 POP POP JUMP JUMPDEST PUSH0 PUSH2 0x1398 PUSH0 NOT DUP5 PUSH1 0x8 MUL PUSH2 0x137D JUMP JUMPDEST NOT DUP1 DUP4 AND SWAP2 POP POP SWAP3 SWAP2 POP POP JUMP JUMPDEST PUSH0 PUSH2 0x13B0 DUP4 DUP4 PUSH2 0x1389 JUMP JUMPDEST SWAP2 POP DUP3 PUSH1 0x2 MUL DUP3 OR SWAP1 POP SWAP3 SWAP2 POP POP JUMP JUMPDEST PUSH2 0x13C9 DUP3 PUSH2 0xBAF JUMP JUMPDEST PUSH8 0xFFFFFFFFFFFFFFFF DUP2 GT ISZERO PUSH2 0x13E2 JUMPI PUSH2 0x13E1 PUSH2 0xDAE JUMP JUMPDEST JUMPDEST PUSH2 0x13EC DUP3 SLOAD PUSH2 0x110A JUMP JUMPDEST PUSH2 0x13F7 DUP3 DUP3 DUP6 PUSH2 0x1337 JUMP JUMPDEST PUSH0 PUSH1 0x20 SWAP1 POP PUSH1 0x1F DUP4 GT PUSH1 0x1 DUP2 EQ PUSH2 0x1428 JUMPI PUSH0 DUP5 ISZERO PUSH2 0x1416 JUMPI DUP3 DUP8 ADD MLOAD SWAP1 POP JUMPDEST PUSH2 0x1420 DUP6 DUP3 PUSH2 0x13A5 JUMP JUMPDEST DUP7 SSTORE POP PUSH2 0x1487 JUMP JUMPDEST PUSH1 0x1F NOT DUP5 AND PUSH2 0x1436 DUP7 PUSH2 0x118A JUMP JUMPDEST PUSH0 JUMPDEST DUP3 DUP2 LT ISZERO PUSH2 0x145D JUMPI DUP5 DUP10 ADD MLOAD DUP3 SSTORE PUSH1 0x1 DUP3 ADD SWAP2 POP PUSH1 0x20 DUP6 ADD SWAP5 POP PUSH1 0x20 DUP2 ADD SWAP1 POP PUSH2 0x1438 JUMP JUMPDEST DUP7 DUP4 LT ISZERO PUSH2 0x147A JUMPI DUP5 DUP10 ADD MLOAD PUSH2 0x1476 PUSH1 0x1F DUP10 AND DUP3 PUSH2 0x1389 JUMP JUMPDEST DUP4 SSTORE POP JUMPDEST PUSH1 0x1 PUSH1 0x2 DUP9 MUL ADD DUP9 SSTORE POP POP POP JUMPDEST POP POP POP POP POP POP JUMP INVALID LOG2 PUSH5 0x6970667358 0x22 SLT KECCAK256 0xCC 0xB4 SWAPN 0x15 PREVRANDAO 0xC9 0xB7 PUSH31 0x5BFE967F5AEDC39A6427B52249CECED24AD619AAC8FC12F964736F6C634300 ADDMOD 0x1E STOP CALLER "
				},
				"gasEstimates": {
					"creation": {
						"codeDepositCost": "1063400",
						"executionCost": "1105",
						"totalCost": "1064505"
					},
					"external": {
						"donate(string,string,bytes15,string,uint256,string)": "infinite",
						"getDonationsByDonorId(bytes15)": "infinite",
						"getDonationsByDonorUsername(string)": "infinite"
					}
				},
				"methodIdentifiers": {
					"donate(string,string,bytes15,string,uint256,string)": "eff53565",
					"getDonationsByDonorId(bytes15)": "283ef0c1",
					"getDonationsByDonorUsername(string)": "8a830ec1"
				}
			},
			"storageLayout": {
				"storage": [
					{
						"astId": 20,
						"contract": "contracts/DonationManager.sol:DonationManager",
						"label": "donations",
						"offset": 0,
						"slot": "0",
						"type": "t_array(t_struct(Donation)16_storage)dyn_storage"
					}
				],
				"types": {
					"t_array(t_struct(Donation)16_storage)dyn_storage": {
						"base": "t_struct(Donation)16_storage",
						"encoding": "dynamic_array",
						"label": "struct DonationManager.Donation[]",
						"numberOfBytes": "32"
					},
					"t_bytes15": {
						"encoding": "inplace",
						"label": "bytes15",
						"numberOfBytes": "15"
					},
					"t_string_storage": {
						"encoding": "bytes",
						"label": "string",
						"numberOfBytes": "32"
					},
					"t_struct(Donation)16_storage": {
						"encoding": "inplace",
						"label": "struct DonationManager.Donation",
						"members": [
							{
								"astId": 3,
								"contract": "contracts/DonationManager.sol:DonationManager",
								"label": "donationId",
								"offset": 0,
								"slot": "0",
								"type": "t_string_storage"
							},
							{
								"astId": 5,
								"contract": "contracts/DonationManager.sol:DonationManager",
								"label": "campaignId",
								"offset": 0,
								"slot": "1",
								"type": "t_string_storage"
							},
							{
								"astId": 7,
								"contract": "contracts/DonationManager.sol:DonationManager",
								"label": "donorId",
								"offset": 0,
								"slot": "2",
								"type": "t_bytes15"
							},
							{
								"astId": 9,
								"contract": "contracts/DonationManager.sol:DonationManager",
								"label": "donorUserName",
								"offset": 0,
								"slot": "3",
								"type": "t_string_storage"
							},
							{
								"astId": 11,
								"contract": "contracts/DonationManager.sol:DonationManager",
								"label": "amount",
								"offset": 0,
								"slot": "4",
								"type": "t_uint256"
							},
							{
								"astId": 13,
								"contract": "contracts/DonationManager.sol:DonationManager",
								"label": "proofHash",
								"offset": 0,
								"slot": "5",
								"type": "t_string_storage"
							},
							{
								"astId": 15,
								"contract": "contracts/DonationManager.sol:DonationManager",
								"label": "timestamp",
								"offset": 0,
								"slot": "6",
								"type": "t_uint256"
							}
						],
						"numberOfBytes": "224"
					},
					"t_uint256": {
						"encoding": "inplace",
						"label": "uint256",
						"numberOfBytes": "32"
					}
				}
			},
			"userdoc": {
				"kind": "user",
				"methods": {},
				"version": 1
			}
		}
	}
}