{
	"contracts/DonorManager.sol": {
		"DonorManager": {
			"abi": [
				{
					"inputs": [
						{
							"internalType": "string",
							"name": "_donorUserName",
							"type": "string"
						},
						{
							"internalType": "bool",
							"name": "_isVerified",
							"type": "bool"
						}
					],
					"name": "addDonor",
					"outputs": [],
					"stateMutability": "nonpayable",
					"type": "function"
				},
				{
					"inputs": [
						{
							"internalType": "string",
							"name": "_username",
							"type": "string"
						}
					],
					"name": "getDonorDetails",
					"outputs": [
						{
							"internalType": "bytes15",
							"name": "",
							"type": "bytes15"
						},
						{
							"internalType": "string",
							"name": "",
							"type": "string"
						},
						{
							"internalType": "bool",
							"name": "",
							"type": "bool"
						}
					],
					"stateMutability": "view",
					"type": "function"
				}
			],
			"devdoc": {
				"kind": "dev",
				"methods": {},
				"version": 1
			},
			"evm": {
				"assembly": "    /* \"contracts/DonorManager.sol\":72:1844  contract DonorManager {... */\n  mstore(0x40, 0x80)\n  callvalue\n  dup1\n  iszero\n  tag_1\n  jumpi\n  revert(0x00, 0x00)\ntag_1:\n  pop\n  dataSize(sub_0)\n  dup1\n  dataOffset(sub_0)\n  0x00\n  codecopy\n  0x00\n  return\nstop\n\nsub_0: assembly {\n        /* \"contracts/DonorManager.sol\":72:1844  contract DonorManager {... */\n      mstore(0x40, 0x80)\n      callvalue\n      dup1\n      iszero\n      tag_1\n      jumpi\n      revert(0x00, 0x00)\n    tag_1:\n      pop\n      jumpi(tag_2, lt(calldatasize, 0x04))\n      shr(0xe0, calldataload(0x00))\n      dup1\n      0xb897e7b0\n      eq\n      tag_3\n      jumpi\n      dup1\n      0xccf11a02\n      eq\n      tag_4\n      jumpi\n    tag_2:\n      revert(0x00, 0x00)\n        /* \"contracts/DonorManager.sol\":1325:1841  function getDonorDetails(string memory _username) public view returns (bytes15, string memory, bool) {... */\n    tag_3:\n      tag_5\n      0x04\n      dup1\n      calldatasize\n      sub\n      dup2\n      add\n      swap1\n      tag_6\n      swap2\n      swap1\n      tag_7\n      jump\t// in\n    tag_6:\n      tag_8\n      jump\t// in\n    tag_5:\n      mload(0x40)\n      tag_9\n      swap4\n      swap3\n      swap2\n      swap1\n      tag_10\n      jump\t// in\n    tag_9:\n      mload(0x40)\n      dup1\n      swap2\n      sub\n      swap1\n      return\n        /* \"contracts/DonorManager.sol\":756:1279  function addDonor(string memory _donorUserName, bool _isVerified) public {... */\n    tag_4:\n      tag_11\n      0x04\n      dup1\n      calldatasize\n      sub\n      dup2\n      add\n      swap1\n      tag_12\n      swap2\n      swap1\n      tag_13\n      jump\t// in\n    tag_12:\n      tag_14\n      jump\t// in\n    tag_11:\n      stop\n        /* \"contracts/DonorManager.sol\":1325:1841  function getDonorDetails(string memory _username) public view returns (bytes15, string memory, bool) {... */\n    tag_8:\n        /* \"contracts/DonorManager.sol\":1396:1403  bytes15 */\n      0x00\n        /* \"contracts/DonorManager.sol\":1405:1418  string memory */\n      0x60\n        /* \"contracts/DonorManager.sol\":1420:1424  bool */\n      0x00\n        /* \"contracts/DonorManager.sol\":1437:1451  Donor memory d */\n      0x00\n        /* \"contracts/DonorManager.sol\":1454:1466  donorsByName */\n      0x00\n        /* \"contracts/DonorManager.sol\":1467:1476  _username */\n      dup6\n        /* \"contracts/DonorManager.sol\":1454:1477  donorsByName[_username] */\n      mload(0x40)\n      tag_16\n      swap2\n      swap1\n      tag_17\n      jump\t// in\n    tag_16:\n      swap1\n      dup2\n      mstore\n      0x20\n      add\n      mload(0x40)\n      dup1\n      swap2\n      sub\n      swap1\n      keccak256\n        /* \"contracts/DonorManager.sol\":1437:1477  Donor memory d = donorsByName[_username] */\n      mload(0x40)\n      dup1\n      0x60\n      add\n      0x40\n      mstore\n      swap1\n      dup2\n      0x00\n      dup3\n      add\n      0x00\n      swap1\n      sload\n      swap1\n      0x0100\n      exp\n      swap1\n      div\n      0x88\n      shl\n      not(0xffffffffffffffffffffffffffffffffff)\n      and\n      not(0xffffffffffffffffffffffffffffffffff)\n      and\n      dup2\n      mstore\n      0x20\n      add\n      0x01\n      dup3\n      add\n      dup1\n      sload\n      tag_18\n      swap1\n      tag_19\n      jump\t// in\n    tag_18:\n      dup1\n      0x1f\n      add\n      0x20\n      dup1\n      swap2\n      div\n      mul\n      0x20\n      add\n      mload(0x40)\n      swap1\n      dup2\n      add\n      0x40\n      mstore\n      dup1\n      swap3\n      swap2\n      swap1\n      dup2\n      dup2\n      mstore\n      0x20\n      add\n      dup3\n      dup1\n      sload\n      tag_20\n      swap1\n      tag_19\n      jump\t// in\n    tag_20:\n      dup1\n      iszero\n      tag_21\n      jumpi\n      dup1\n      0x1f\n      lt\n      tag_22\n      jumpi\n      0x0100\n      dup1\n      dup4\n      sload\n      div\n      mul\n      dup4\n      mstore\n      swap2\n      0x20\n      add\n      swap2\n      jump(tag_21)\n    tag_22:\n      dup3\n      add\n      swap2\n      swap1\n      0x00\n      mstore\n      keccak256(0x00, 0x20)\n      swap1\n    tag_23:\n      dup2\n      sload\n      dup2\n      mstore\n      swap1\n      0x01\n      add\n      swap1\n      0x20\n      add\n      dup1\n      dup4\n      gt\n      tag_23\n      jumpi\n      dup3\n      swap1\n      sub\n      0x1f\n      and\n      dup3\n      add\n      swap2\n    tag_21:\n      pop\n      pop\n      pop\n      pop\n      pop\n      dup2\n      mstore\n      0x20\n      add\n      0x02\n      dup3\n      add\n      0x00\n      swap1\n      sload\n      swap1\n      0x0100\n      exp\n      swap1\n      div\n      0xff\n      and\n      iszero\n      iszero\n      iszero\n      iszero\n      dup2\n      mstore\n      pop\n      pop\n      swap1\n      pop\n        /* \"contracts/DonorManager.sol\":1583:1584  0 */\n      0x00\n        /* \"contracts/DonorManager.sol\":1575:1585  bytes15(0) */\n      0x88\n      shl\n        /* \"contracts/DonorManager.sol\":1562:1585  d.donorId == bytes15(0) */\n      not(0xffffffffffffffffffffffffffffffffff)\n      and\n        /* \"contracts/DonorManager.sol\":1562:1563  d */\n      dup2\n        /* \"contracts/DonorManager.sol\":1562:1571  d.donorId */\n      0x00\n      add\n      mload\n        /* \"contracts/DonorManager.sol\":1562:1585  d.donorId == bytes15(0) */\n      not(0xffffffffffffffffffffffffffffffffff)\n      and\n      sub\n        /* \"contracts/DonorManager.sol\":1558:1709  if (d.donorId == bytes15(0)) {... */\n      tag_24\n      jumpi\n        /* \"contracts/DonorManager.sol\":1682:1683  0 */\n      0x00\n        /* \"contracts/DonorManager.sol\":1674:1684  bytes15(0) */\n      0x88\n      shl\n        /* \"contracts/DonorManager.sol\":1690:1695  false */\n      0x00\n        /* \"contracts/DonorManager.sol\":1666:1696  return (bytes15(0), \"\", false) */\n      mload(0x40)\n      dup1\n      0x20\n      add\n      0x40\n      mstore\n      dup1\n      0x00\n      dup2\n      mstore\n      pop\n      swap1\n      swap4\n      pop\n      swap4\n      pop\n      swap4\n      pop\n      pop\n      jump(tag_15)\n        /* \"contracts/DonorManager.sol\":1558:1709  if (d.donorId == bytes15(0)) {... */\n    tag_24:\n        /* \"contracts/DonorManager.sol\":1792:1793  d */\n      dup1\n        /* \"contracts/DonorManager.sol\":1792:1801  d.donorId */\n      0x00\n      add\n      mload\n        /* \"contracts/DonorManager.sol\":1803:1804  d */\n      dup2\n        /* \"contracts/DonorManager.sol\":1803:1818  d.donorUserName */\n      0x20\n      add\n      mload\n        /* \"contracts/DonorManager.sol\":1820:1821  d */\n      dup3\n        /* \"contracts/DonorManager.sol\":1820:1832  d.isVerified */\n      0x40\n      add\n      mload\n        /* \"contracts/DonorManager.sol\":1784:1833  return (d.donorId, d.donorUserName, d.isVerified) */\n      swap4\n      pop\n      swap4\n      pop\n      swap4\n      pop\n      pop\n        /* \"contracts/DonorManager.sol\":1325:1841  function getDonorDetails(string memory _username) public view returns (bytes15, string memory, bool) {... */\n    tag_15:\n      swap2\n      swap4\n      swap1\n      swap3\n      pop\n      jump\t// out\n        /* \"contracts/DonorManager.sol\":756:1279  function addDonor(string memory _donorUserName, bool _isVerified) public {... */\n    tag_14:\n        /* \"contracts/DonorManager.sol\":879:880  0 */\n      0x00\n        /* \"contracts/DonorManager.sol\":854:868  _donorUserName */\n      dup3\n        /* \"contracts/DonorManager.sol\":848:876  bytes(_donorUserName).length */\n      mload\n        /* \"contracts/DonorManager.sol\":848:880  bytes(_donorUserName).length > 0 */\n      gt\n        /* \"contracts/DonorManager.sol\":840:909  require(bytes(_donorUserName).length > 0, \"Username cannot be empty\") */\n      tag_26\n      jumpi\n      mload(0x40)\n      0x08c379a000000000000000000000000000000000000000000000000000000000\n      dup2\n      mstore\n      0x04\n      add\n      tag_27\n      swap1\n      tag_28\n      jump\t// in\n    tag_27:\n      mload(0x40)\n      dup1\n      swap2\n      sub\n      swap1\n      revert\n    tag_26:\n        /* \"contracts/DonorManager.sol\":976:977  0 */\n      0x00\n        /* \"contracts/DonorManager.sol\":968:978  bytes15(0) */\n      0x88\n      shl\n        /* \"contracts/DonorManager.sol\":928:978  donorsByName[_donorUserName].donorId == bytes15(0) */\n      not(0xffffffffffffffffffffffffffffffffff)\n      and\n        /* \"contracts/DonorManager.sol\":928:940  donorsByName */\n      0x00\n        /* \"contracts/DonorManager.sol\":941:955  _donorUserName */\n      dup4\n        /* \"contracts/DonorManager.sol\":928:956  donorsByName[_donorUserName] */\n      mload(0x40)\n      tag_29\n      swap2\n      swap1\n      tag_17\n      jump\t// in\n    tag_29:\n      swap1\n      dup2\n      mstore\n      0x20\n      add\n      mload(0x40)\n      dup1\n      swap2\n      sub\n      swap1\n      keccak256\n        /* \"contracts/DonorManager.sol\":928:964  donorsByName[_donorUserName].donorId */\n      0x00\n      add\n      0x00\n      swap1\n      sload\n      swap1\n      0x0100\n      exp\n      swap1\n      div\n      0x88\n      shl\n        /* \"contracts/DonorManager.sol\":928:978  donorsByName[_donorUserName].donorId == bytes15(0) */\n      not(0xffffffffffffffffffffffffffffffffff)\n      and\n      eq\n        /* \"contracts/DonorManager.sol\":920:1006  require(donorsByName[_donorUserName].donorId == bytes15(0), \"Username already exists\") */\n      tag_30\n      jumpi\n      mload(0x40)\n      0x08c379a000000000000000000000000000000000000000000000000000000000\n      dup2\n      mstore\n      0x04\n      add\n      tag_31\n      swap1\n      tag_32\n      jump\t// in\n    tag_31:\n      mload(0x40)\n      dup1\n      swap2\n      sub\n      swap1\n      revert\n    tag_30:\n        /* \"contracts/DonorManager.sol\":1019:1032  bytes15 newId */\n      0x00\n        /* \"contracts/DonorManager.sol\":1035:1053  donorIdGenerator() */\n      tag_33\n        /* \"contracts/DonorManager.sol\":1035:1051  donorIdGenerator */\n      tag_34\n        /* \"contracts/DonorManager.sol\":1035:1053  donorIdGenerator() */\n      jump\t// in\n    tag_33:\n        /* \"contracts/DonorManager.sol\":1019:1053  bytes15 newId = donorIdGenerator() */\n      swap1\n      pop\n        /* \"contracts/DonorManager.sol\":1066:1087  Donor memory newDonor */\n      0x00\n        /* \"contracts/DonorManager.sol\":1090:1219  Donor({... */\n      mload(0x40)\n      dup1\n      0x60\n      add\n      0x40\n      mstore\n      dup1\n        /* \"contracts/DonorManager.sol\":1120:1125  newId */\n      dup4\n        /* \"contracts/DonorManager.sol\":1090:1219  Donor({... */\n      not(0xffffffffffffffffffffffffffffffffff)\n      and\n      dup2\n      mstore\n      0x20\n      add\n        /* \"contracts/DonorManager.sol\":1155:1169  _donorUserName */\n      dup6\n        /* \"contracts/DonorManager.sol\":1090:1219  Donor({... */\n      dup2\n      mstore\n      0x20\n      add\n        /* \"contracts/DonorManager.sol\":1196:1207  _isVerified */\n      dup5\n        /* \"contracts/DonorManager.sol\":1090:1219  Donor({... */\n      iszero\n      iszero\n      dup2\n      mstore\n      pop\n        /* \"contracts/DonorManager.sol\":1066:1219  Donor memory newDonor = Donor({... */\n      swap1\n      pop\n        /* \"contracts/DonorManager.sol\":1263:1271  newDonor */\n      dup1\n        /* \"contracts/DonorManager.sol\":1232:1244  donorsByName */\n      0x00\n        /* \"contracts/DonorManager.sol\":1245:1259  _donorUserName */\n      dup6\n        /* \"contracts/DonorManager.sol\":1232:1260  donorsByName[_donorUserName] */\n      mload(0x40)\n      tag_35\n      swap2\n      swap1\n      tag_17\n      jump\t// in\n    tag_35:\n      swap1\n      dup2\n      mstore\n      0x20\n      add\n      mload(0x40)\n      dup1\n      swap2\n      sub\n      swap1\n      keccak256\n        /* \"contracts/DonorManager.sol\":1232:1271  donorsByName[_donorUserName] = newDonor */\n      0x00\n      dup3\n      add\n      mload\n      dup2\n      0x00\n      add\n      exp(0x0100, 0x00)\n      dup2\n      sload\n      dup2\n      0xffffffffffffffffffffffffffffff\n      mul\n      not\n      and\n      swap1\n      dup4\n      0x88\n      shr\n      mul\n      or\n      swap1\n      sstore\n      pop\n      0x20\n      dup3\n      add\n      mload\n      dup2\n      0x01\n      add\n      swap1\n      dup2\n      tag_36\n      swap2\n      swap1\n      tag_37\n      jump\t// in\n    tag_36:\n      pop\n      0x40\n      dup3\n      add\n      mload\n      dup2\n      0x02\n      add\n      exp(0x0100, 0x00)\n      dup2\n      sload\n      dup2\n      0xff\n      mul\n      not\n      and\n      swap1\n      dup4\n      iszero\n      iszero\n      mul\n      or\n      swap1\n      sstore\n      pop\n      swap1\n      pop\n      pop\n        /* \"contracts/DonorManager.sol\":829:1279  {... */\n      pop\n      pop\n        /* \"contracts/DonorManager.sol\":756:1279  function addDonor(string memory _donorUserName, bool _isVerified) public {... */\n      pop\n      pop\n      jump\t// out\n        /* \"contracts/DonorManager.sol\":361:728  function donorIdGenerator() private returns (bytes15) {... */\n    tag_34:\n        /* \"contracts/DonorManager.sol\":406:413  bytes15 */\n      0x00\n        /* \"contracts/DonorManager.sol\":426:435  idCounter */\n      0x01\n      0x00\n        /* \"contracts/DonorManager.sol\":426:437  idCounter++ */\n      dup2\n      sload\n      dup1\n      swap3\n      swap2\n      swap1\n      tag_39\n      swap1\n      tag_40\n      jump\t// in\n    tag_39:\n      swap2\n      swap1\n      pop\n      sstore\n      pop\n        /* \"contracts/DonorManager.sol\":513:525  bytes32 hash */\n      0x00\n        /* \"contracts/DonorManager.sol\":555:564  idCounter */\n      sload(0x01)\n        /* \"contracts/DonorManager.sol\":566:576  msg.sender */\n      caller\n        /* \"contracts/DonorManager.sol\":538:577  abi.encodePacked(idCounter, msg.sender) */\n      add(0x20, mload(0x40))\n      tag_41\n      swap3\n      swap2\n      swap1\n      tag_42\n      jump\t// in\n    tag_41:\n      mload(0x40)\n      0x20\n      dup2\n      dup4\n      sub\n      sub\n      dup2\n      mstore\n      swap1\n      0x40\n      mstore\n        /* \"contracts/DonorManager.sol\":528:578  keccak256(abi.encodePacked(idCounter, msg.sender)) */\n      dup1\n      mload\n      swap1\n      0x20\n      add\n      keccak256\n        /* \"contracts/DonorManager.sol\":513:578  bytes32 hash = keccak256(abi.encodePacked(idCounter, msg.sender)) */\n      swap1\n      pop\n        /* \"contracts/DonorManager.sol\":589:604  bytes15 donorId */\n      0x00\n        /* \"contracts/DonorManager.sol\":657:661  hash */\n      dup2\n        /* \"contracts/DonorManager.sol\":654:655  8 */\n      0x08\n        /* \"contracts/DonorManager.sol\":650:662  shr(8, hash) */\n      shr\n        /* \"contracts/DonorManager.sol\":639:662  donorId := shr(8, hash) */\n      swap1\n      pop\n        /* \"contracts/DonorManager.sol\":713:720  donorId */\n      dup1\n        /* \"contracts/DonorManager.sol\":706:720  return donorId */\n      swap3\n      pop\n      pop\n      pop\n        /* \"contracts/DonorManager.sol\":361:728  function donorIdGenerator() private returns (bytes15) {... */\n      swap1\n      jump\t// out\n        /* \"#utility.yul\":7:82   */\n    tag_43:\n        /* \"#utility.yul\":40:46   */\n      0x00\n        /* \"#utility.yul\":73:75   */\n      0x40\n        /* \"#utility.yul\":67:76   */\n      mload\n        /* \"#utility.yul\":57:76   */\n      swap1\n      pop\n        /* \"#utility.yul\":7:82   */\n      swap1\n      jump\t// out\n        /* \"#utility.yul\":88:205   */\n    tag_44:\n        /* \"#utility.yul\":197:198   */\n      0x00\n        /* \"#utility.yul\":194:195   */\n      0x00\n        /* \"#utility.yul\":187:199   */\n      revert\n        /* \"#utility.yul\":211:328   */\n    tag_45:\n        /* \"#utility.yul\":320:321   */\n      0x00\n        /* \"#utility.yul\":317:318   */\n      0x00\n        /* \"#utility.yul\":310:322   */\n      revert\n        /* \"#utility.yul\":334:451   */\n    tag_46:\n        /* \"#utility.yul\":443:444   */\n      0x00\n        /* \"#utility.yul\":440:441   */\n      0x00\n        /* \"#utility.yul\":433:445   */\n      revert\n        /* \"#utility.yul\":457:574   */\n    tag_47:\n        /* \"#utility.yul\":566:567   */\n      0x00\n        /* \"#utility.yul\":563:564   */\n      0x00\n        /* \"#utility.yul\":556:568   */\n      revert\n        /* \"#utility.yul\":580:682   */\n    tag_48:\n        /* \"#utility.yul\":621:627   */\n      0x00\n        /* \"#utility.yul\":672:674   */\n      0x1f\n        /* \"#utility.yul\":668:675   */\n      not\n        /* \"#utility.yul\":663:665   */\n      0x1f\n        /* \"#utility.yul\":656:661   */\n      dup4\n        /* \"#utility.yul\":652:666   */\n      add\n        /* \"#utility.yul\":648:676   */\n      and\n        /* \"#utility.yul\":638:676   */\n      swap1\n      pop\n        /* \"#utility.yul\":580:682   */\n      swap2\n      swap1\n      pop\n      jump\t// out\n        /* \"#utility.yul\":688:868   */\n    tag_49:\n        /* \"#utility.yul\":736:813   */\n      0x4e487b7100000000000000000000000000000000000000000000000000000000\n        /* \"#utility.yul\":733:734   */\n      0x00\n        /* \"#utility.yul\":726:814   */\n      mstore\n        /* \"#utility.yul\":833:837   */\n      0x41\n        /* \"#utility.yul\":830:831   */\n      0x04\n        /* \"#utility.yul\":823:838   */\n      mstore\n        /* \"#utility.yul\":857:861   */\n      0x24\n        /* \"#utility.yul\":854:855   */\n      0x00\n        /* \"#utility.yul\":847:862   */\n      revert\n        /* \"#utility.yul\":874:1155   */\n    tag_50:\n        /* \"#utility.yul\":957:984   */\n      tag_107\n        /* \"#utility.yul\":979:983   */\n      dup3\n        /* \"#utility.yul\":957:984   */\n      tag_48\n      jump\t// in\n    tag_107:\n        /* \"#utility.yul\":949:955   */\n      dup2\n        /* \"#utility.yul\":945:985   */\n      add\n        /* \"#utility.yul\":1087:1093   */\n      dup2\n        /* \"#utility.yul\":1075:1085   */\n      dup2\n        /* \"#utility.yul\":1072:1094   */\n      lt\n        /* \"#utility.yul\":1051:1069   */\n      0xffffffffffffffff\n        /* \"#utility.yul\":1039:1049   */\n      dup3\n        /* \"#utility.yul\":1036:1070   */\n      gt\n        /* \"#utility.yul\":1033:1095   */\n      or\n        /* \"#utility.yul\":1030:1118   */\n      iszero\n      tag_108\n      jumpi\n        /* \"#utility.yul\":1098:1116   */\n      tag_109\n      tag_49\n      jump\t// in\n    tag_109:\n        /* \"#utility.yul\":1030:1118   */\n    tag_108:\n        /* \"#utility.yul\":1138:1148   */\n      dup1\n        /* \"#utility.yul\":1134:1136   */\n      0x40\n        /* \"#utility.yul\":1127:1149   */\n      mstore\n        /* \"#utility.yul\":917:1155   */\n      pop\n        /* \"#utility.yul\":874:1155   */\n      pop\n      pop\n      jump\t// out\n        /* \"#utility.yul\":1161:1290   */\n    tag_51:\n        /* \"#utility.yul\":1195:1201   */\n      0x00\n        /* \"#utility.yul\":1222:1242   */\n      tag_111\n      tag_43\n      jump\t// in\n    tag_111:\n        /* \"#utility.yul\":1212:1242   */\n      swap1\n      pop\n        /* \"#utility.yul\":1251:1284   */\n      tag_112\n        /* \"#utility.yul\":1279:1283   */\n      dup3\n        /* \"#utility.yul\":1271:1277   */\n      dup3\n        /* \"#utility.yul\":1251:1284   */\n      tag_50\n      jump\t// in\n    tag_112:\n        /* \"#utility.yul\":1161:1290   */\n      swap2\n      swap1\n      pop\n      jump\t// out\n        /* \"#utility.yul\":1296:1604   */\n    tag_52:\n        /* \"#utility.yul\":1358:1362   */\n      0x00\n        /* \"#utility.yul\":1448:1466   */\n      0xffffffffffffffff\n        /* \"#utility.yul\":1440:1446   */\n      dup3\n        /* \"#utility.yul\":1437:1467   */\n      gt\n        /* \"#utility.yul\":1434:1490   */\n      iszero\n      tag_114\n      jumpi\n        /* \"#utility.yul\":1470:1488   */\n      tag_115\n      tag_49\n      jump\t// in\n    tag_115:\n        /* \"#utility.yul\":1434:1490   */\n    tag_114:\n        /* \"#utility.yul\":1508:1537   */\n      tag_116\n        /* \"#utility.yul\":1530:1536   */\n      dup3\n        /* \"#utility.yul\":1508:1537   */\n      tag_48\n      jump\t// in\n    tag_116:\n        /* \"#utility.yul\":1500:1537   */\n      swap1\n      pop\n        /* \"#utility.yul\":1592:1596   */\n      0x20\n        /* \"#utility.yul\":1586:1590   */\n      dup2\n        /* \"#utility.yul\":1582:1597   */\n      add\n        /* \"#utility.yul\":1574:1597   */\n      swap1\n      pop\n        /* \"#utility.yul\":1296:1604   */\n      swap2\n      swap1\n      pop\n      jump\t// out\n        /* \"#utility.yul\":1610:1758   */\n    tag_53:\n        /* \"#utility.yul\":1708:1714   */\n      dup3\n        /* \"#utility.yul\":1703:1706   */\n      dup2\n        /* \"#utility.yul\":1698:1701   */\n      dup4\n        /* \"#utility.yul\":1685:1715   */\n      calldatacopy\n        /* \"#utility.yul\":1749:1750   */\n      0x00\n        /* \"#utility.yul\":1740:1746   */\n      dup4\n        /* \"#utility.yul\":1735:1738   */\n      dup4\n        /* \"#utility.yul\":1731:1747   */\n      add\n        /* \"#utility.yul\":1724:1751   */\n      mstore\n        /* \"#utility.yul\":1610:1758   */\n      pop\n      pop\n      pop\n      jump\t// out\n        /* \"#utility.yul\":1764:2189   */\n    tag_54:\n        /* \"#utility.yul\":1842:1847   */\n      0x00\n        /* \"#utility.yul\":1867:1933   */\n      tag_119\n        /* \"#utility.yul\":1883:1932   */\n      tag_120\n        /* \"#utility.yul\":1925:1931   */\n      dup5\n        /* \"#utility.yul\":1883:1932   */\n      tag_52\n      jump\t// in\n    tag_120:\n        /* \"#utility.yul\":1867:1933   */\n      tag_51\n      jump\t// in\n    tag_119:\n        /* \"#utility.yul\":1858:1933   */\n      swap1\n      pop\n        /* \"#utility.yul\":1956:1962   */\n      dup3\n        /* \"#utility.yul\":1949:1954   */\n      dup2\n        /* \"#utility.yul\":1942:1963   */\n      mstore\n        /* \"#utility.yul\":1994:1998   */\n      0x20\n        /* \"#utility.yul\":1987:1992   */\n      dup2\n        /* \"#utility.yul\":1983:1999   */\n      add\n        /* \"#utility.yul\":2032:2035   */\n      dup5\n        /* \"#utility.yul\":2023:2029   */\n      dup5\n        /* \"#utility.yul\":2018:2021   */\n      dup5\n        /* \"#utility.yul\":2014:2030   */\n      add\n        /* \"#utility.yul\":2011:2036   */\n      gt\n        /* \"#utility.yul\":2008:2120   */\n      iszero\n      tag_121\n      jumpi\n        /* \"#utility.yul\":2039:2118   */\n      tag_122\n      tag_47\n      jump\t// in\n    tag_122:\n        /* \"#utility.yul\":2008:2120   */\n    tag_121:\n        /* \"#utility.yul\":2129:2183   */\n      tag_123\n        /* \"#utility.yul\":2176:2182   */\n      dup5\n        /* \"#utility.yul\":2171:2174   */\n      dup3\n        /* \"#utility.yul\":2166:2169   */\n      dup6\n        /* \"#utility.yul\":2129:2183   */\n      tag_53\n      jump\t// in\n    tag_123:\n        /* \"#utility.yul\":1848:2189   */\n      pop\n        /* \"#utility.yul\":1764:2189   */\n      swap4\n      swap3\n      pop\n      pop\n      pop\n      jump\t// out\n        /* \"#utility.yul\":2209:2549   */\n    tag_55:\n        /* \"#utility.yul\":2265:2270   */\n      0x00\n        /* \"#utility.yul\":2314:2317   */\n      dup3\n        /* \"#utility.yul\":2307:2311   */\n      0x1f\n        /* \"#utility.yul\":2299:2305   */\n      dup4\n        /* \"#utility.yul\":2295:2312   */\n      add\n        /* \"#utility.yul\":2291:2318   */\n      slt\n        /* \"#utility.yul\":2281:2403   */\n      tag_125\n      jumpi\n        /* \"#utility.yul\":2322:2401   */\n      tag_126\n      tag_46\n      jump\t// in\n    tag_126:\n        /* \"#utility.yul\":2281:2403   */\n    tag_125:\n        /* \"#utility.yul\":2439:2445   */\n      dup2\n        /* \"#utility.yul\":2426:2446   */\n      calldataload\n        /* \"#utility.yul\":2464:2543   */\n      tag_127\n        /* \"#utility.yul\":2539:2542   */\n      dup5\n        /* \"#utility.yul\":2531:2537   */\n      dup3\n        /* \"#utility.yul\":2524:2528   */\n      0x20\n        /* \"#utility.yul\":2516:2522   */\n      dup7\n        /* \"#utility.yul\":2512:2529   */\n      add\n        /* \"#utility.yul\":2464:2543   */\n      tag_54\n      jump\t// in\n    tag_127:\n        /* \"#utility.yul\":2455:2543   */\n      swap2\n      pop\n        /* \"#utility.yul\":2271:2549   */\n      pop\n        /* \"#utility.yul\":2209:2549   */\n      swap3\n      swap2\n      pop\n      pop\n      jump\t// out\n        /* \"#utility.yul\":2555:3064   */\n    tag_7:\n        /* \"#utility.yul\":2624:2630   */\n      0x00\n        /* \"#utility.yul\":2673:2675   */\n      0x20\n        /* \"#utility.yul\":2661:2670   */\n      dup3\n        /* \"#utility.yul\":2652:2659   */\n      dup5\n        /* \"#utility.yul\":2648:2671   */\n      sub\n        /* \"#utility.yul\":2644:2676   */\n      slt\n        /* \"#utility.yul\":2641:2760   */\n      iszero\n      tag_129\n      jumpi\n        /* \"#utility.yul\":2679:2758   */\n      tag_130\n      tag_44\n      jump\t// in\n    tag_130:\n        /* \"#utility.yul\":2641:2760   */\n    tag_129:\n        /* \"#utility.yul\":2827:2828   */\n      0x00\n        /* \"#utility.yul\":2816:2825   */\n      dup3\n        /* \"#utility.yul\":2812:2829   */\n      add\n        /* \"#utility.yul\":2799:2830   */\n      calldataload\n        /* \"#utility.yul\":2857:2875   */\n      0xffffffffffffffff\n        /* \"#utility.yul\":2849:2855   */\n      dup2\n        /* \"#utility.yul\":2846:2876   */\n      gt\n        /* \"#utility.yul\":2843:2960   */\n      iszero\n      tag_131\n      jumpi\n        /* \"#utility.yul\":2879:2958   */\n      tag_132\n      tag_45\n      jump\t// in\n    tag_132:\n        /* \"#utility.yul\":2843:2960   */\n    tag_131:\n        /* \"#utility.yul\":2984:3047   */\n      tag_133\n        /* \"#utility.yul\":3039:3046   */\n      dup5\n        /* \"#utility.yul\":3030:3036   */\n      dup3\n        /* \"#utility.yul\":3019:3028   */\n      dup6\n        /* \"#utility.yul\":3015:3037   */\n      add\n        /* \"#utility.yul\":2984:3047   */\n      tag_55\n      jump\t// in\n    tag_133:\n        /* \"#utility.yul\":2974:3047   */\n      swap2\n      pop\n        /* \"#utility.yul\":2770:3057   */\n      pop\n        /* \"#utility.yul\":2555:3064   */\n      swap3\n      swap2\n      pop\n      pop\n      jump\t// out\n        /* \"#utility.yul\":3070:3220   */\n    tag_56:\n        /* \"#utility.yul\":3107:3114   */\n      0x00\n        /* \"#utility.yul\":3147:3213   */\n      0xffffffffffffffffffffffffffffff0000000000000000000000000000000000\n        /* \"#utility.yul\":3140:3145   */\n      dup3\n        /* \"#utility.yul\":3136:3214   */\n      and\n        /* \"#utility.yul\":3125:3214   */\n      swap1\n      pop\n        /* \"#utility.yul\":3070:3220   */\n      swap2\n      swap1\n      pop\n      jump\t// out\n        /* \"#utility.yul\":3226:3344   */\n    tag_57:\n        /* \"#utility.yul\":3313:3337   */\n      tag_136\n        /* \"#utility.yul\":3331:3336   */\n      dup2\n        /* \"#utility.yul\":3313:3337   */\n      tag_56\n      jump\t// in\n    tag_136:\n        /* \"#utility.yul\":3308:3311   */\n      dup3\n        /* \"#utility.yul\":3301:3338   */\n      mstore\n        /* \"#utility.yul\":3226:3344   */\n      pop\n      pop\n      jump\t// out\n        /* \"#utility.yul\":3350:3449   */\n    tag_58:\n        /* \"#utility.yul\":3402:3408   */\n      0x00\n        /* \"#utility.yul\":3436:3441   */\n      dup2\n        /* \"#utility.yul\":3430:3442   */\n      mload\n        /* \"#utility.yul\":3420:3442   */\n      swap1\n      pop\n        /* \"#utility.yul\":3350:3449   */\n      swap2\n      swap1\n      pop\n      jump\t// out\n        /* \"#utility.yul\":3455:3624   */\n    tag_59:\n        /* \"#utility.yul\":3539:3550   */\n      0x00\n        /* \"#utility.yul\":3573:3579   */\n      dup3\n        /* \"#utility.yul\":3568:3571   */\n      dup3\n        /* \"#utility.yul\":3561:3580   */\n      mstore\n        /* \"#utility.yul\":3613:3617   */\n      0x20\n        /* \"#utility.yul\":3608:3611   */\n      dup3\n        /* \"#utility.yul\":3604:3618   */\n      add\n        /* \"#utility.yul\":3589:3618   */\n      swap1\n      pop\n        /* \"#utility.yul\":3455:3624   */\n      swap3\n      swap2\n      pop\n      pop\n      jump\t// out\n        /* \"#utility.yul\":3630:3769   */\n    tag_60:\n        /* \"#utility.yul\":3719:3725   */\n      dup3\n        /* \"#utility.yul\":3714:3717   */\n      dup2\n        /* \"#utility.yul\":3709:3712   */\n      dup4\n        /* \"#utility.yul\":3703:3726   */\n      mcopy\n        /* \"#utility.yul\":3760:3761   */\n      0x00\n        /* \"#utility.yul\":3751:3757   */\n      dup4\n        /* \"#utility.yul\":3746:3749   */\n      dup4\n        /* \"#utility.yul\":3742:3758   */\n      add\n        /* \"#utility.yul\":3735:3762   */\n      mstore\n        /* \"#utility.yul\":3630:3769   */\n      pop\n      pop\n      pop\n      jump\t// out\n        /* \"#utility.yul\":3775:4152   */\n    tag_61:\n        /* \"#utility.yul\":3863:3866   */\n      0x00\n        /* \"#utility.yul\":3891:3930   */\n      tag_141\n        /* \"#utility.yul\":3924:3929   */\n      dup3\n        /* \"#utility.yul\":3891:3930   */\n      tag_58\n      jump\t// in\n    tag_141:\n        /* \"#utility.yul\":3946:4017   */\n      tag_142\n        /* \"#utility.yul\":4010:4016   */\n      dup2\n        /* \"#utility.yul\":4005:4008   */\n      dup6\n        /* \"#utility.yul\":3946:4017   */\n      tag_59\n      jump\t// in\n    tag_142:\n        /* \"#utility.yul\":3939:4017   */\n      swap4\n      pop\n        /* \"#utility.yul\":4026:4091   */\n      tag_143\n        /* \"#utility.yul\":4084:4090   */\n      dup2\n        /* \"#utility.yul\":4079:4082   */\n      dup6\n        /* \"#utility.yul\":4072:4076   */\n      0x20\n        /* \"#utility.yul\":4065:4070   */\n      dup7\n        /* \"#utility.yul\":4061:4077   */\n      add\n        /* \"#utility.yul\":4026:4091   */\n      tag_60\n      jump\t// in\n    tag_143:\n        /* \"#utility.yul\":4116:4145   */\n      tag_144\n        /* \"#utility.yul\":4138:4144   */\n      dup2\n        /* \"#utility.yul\":4116:4145   */\n      tag_48\n      jump\t// in\n    tag_144:\n        /* \"#utility.yul\":4111:4114   */\n      dup5\n        /* \"#utility.yul\":4107:4146   */\n      add\n        /* \"#utility.yul\":4100:4146   */\n      swap2\n      pop\n        /* \"#utility.yul\":3867:4152   */\n      pop\n        /* \"#utility.yul\":3775:4152   */\n      swap3\n      swap2\n      pop\n      pop\n      jump\t// out\n        /* \"#utility.yul\":4158:4248   */\n    tag_62:\n        /* \"#utility.yul\":4192:4199   */\n      0x00\n        /* \"#utility.yul\":4235:4240   */\n      dup2\n        /* \"#utility.yul\":4228:4241   */\n      iszero\n        /* \"#utility.yul\":4221:4242   */\n      iszero\n        /* \"#utility.yul\":4210:4242   */\n      swap1\n      pop\n        /* \"#utility.yul\":4158:4248   */\n      swap2\n      swap1\n      pop\n      jump\t// out\n        /* \"#utility.yul\":4254:4363   */\n    tag_63:\n        /* \"#utility.yul\":4335:4356   */\n      tag_147\n        /* \"#utility.yul\":4350:4355   */\n      dup2\n        /* \"#utility.yul\":4335:4356   */\n      tag_62\n      jump\t// in\n    tag_147:\n        /* \"#utility.yul\":4330:4333   */\n      dup3\n        /* \"#utility.yul\":4323:4357   */\n      mstore\n        /* \"#utility.yul\":4254:4363   */\n      pop\n      pop\n      jump\t// out\n        /* \"#utility.yul\":4369:4890   */\n    tag_10:\n        /* \"#utility.yul\":4532:4536   */\n      0x00\n        /* \"#utility.yul\":4570:4572   */\n      0x60\n        /* \"#utility.yul\":4559:4568   */\n      dup3\n        /* \"#utility.yul\":4555:4573   */\n      add\n        /* \"#utility.yul\":4547:4573   */\n      swap1\n      pop\n        /* \"#utility.yul\":4583:4654   */\n      tag_149\n        /* \"#utility.yul\":4651:4652   */\n      0x00\n        /* \"#utility.yul\":4640:4649   */\n      dup4\n        /* \"#utility.yul\":4636:4653   */\n      add\n        /* \"#utility.yul\":4627:4633   */\n      dup7\n        /* \"#utility.yul\":4583:4654   */\n      tag_57\n      jump\t// in\n    tag_149:\n        /* \"#utility.yul\":4701:4710   */\n      dup2\n        /* \"#utility.yul\":4695:4699   */\n      dup2\n        /* \"#utility.yul\":4691:4711   */\n      sub\n        /* \"#utility.yul\":4686:4688   */\n      0x20\n        /* \"#utility.yul\":4675:4684   */\n      dup4\n        /* \"#utility.yul\":4671:4689   */\n      add\n        /* \"#utility.yul\":4664:4712   */\n      mstore\n        /* \"#utility.yul\":4729:4807   */\n      tag_150\n        /* \"#utility.yul\":4802:4806   */\n      dup2\n        /* \"#utility.yul\":4793:4799   */\n      dup6\n        /* \"#utility.yul\":4729:4807   */\n      tag_61\n      jump\t// in\n    tag_150:\n        /* \"#utility.yul\":4721:4807   */\n      swap1\n      pop\n        /* \"#utility.yul\":4817:4883   */\n      tag_151\n        /* \"#utility.yul\":4879:4881   */\n      0x40\n        /* \"#utility.yul\":4868:4877   */\n      dup4\n        /* \"#utility.yul\":4864:4882   */\n      add\n        /* \"#utility.yul\":4855:4861   */\n      dup5\n        /* \"#utility.yul\":4817:4883   */\n      tag_63\n      jump\t// in\n    tag_151:\n        /* \"#utility.yul\":4369:4890   */\n      swap5\n      swap4\n      pop\n      pop\n      pop\n      pop\n      jump\t// out\n        /* \"#utility.yul\":4896:5012   */\n    tag_64:\n        /* \"#utility.yul\":4966:4987   */\n      tag_153\n        /* \"#utility.yul\":4981:4986   */\n      dup2\n        /* \"#utility.yul\":4966:4987   */\n      tag_62\n      jump\t// in\n    tag_153:\n        /* \"#utility.yul\":4959:4964   */\n      dup2\n        /* \"#utility.yul\":4956:4988   */\n      eq\n        /* \"#utility.yul\":4946:5006   */\n      tag_154\n      jumpi\n        /* \"#utility.yul\":5002:5003   */\n      0x00\n        /* \"#utility.yul\":4999:5000   */\n      0x00\n        /* \"#utility.yul\":4992:5004   */\n      revert\n        /* \"#utility.yul\":4946:5006   */\n    tag_154:\n        /* \"#utility.yul\":4896:5012   */\n      pop\n      jump\t// out\n        /* \"#utility.yul\":5018:5151   */\n    tag_65:\n        /* \"#utility.yul\":5061:5066   */\n      0x00\n        /* \"#utility.yul\":5099:5105   */\n      dup2\n        /* \"#utility.yul\":5086:5106   */\n      calldataload\n        /* \"#utility.yul\":5077:5106   */\n      swap1\n      pop\n        /* \"#utility.yul\":5115:5145   */\n      tag_156\n        /* \"#utility.yul\":5139:5144   */\n      dup2\n        /* \"#utility.yul\":5115:5145   */\n      tag_64\n      jump\t// in\n    tag_156:\n        /* \"#utility.yul\":5018:5151   */\n      swap3\n      swap2\n      pop\n      pop\n      jump\t// out\n        /* \"#utility.yul\":5157:5805   */\n    tag_13:\n        /* \"#utility.yul\":5232:5238   */\n      0x00\n        /* \"#utility.yul\":5240:5246   */\n      0x00\n        /* \"#utility.yul\":5289:5291   */\n      0x40\n        /* \"#utility.yul\":5277:5286   */\n      dup4\n        /* \"#utility.yul\":5268:5275   */\n      dup6\n        /* \"#utility.yul\":5264:5287   */\n      sub\n        /* \"#utility.yul\":5260:5292   */\n      slt\n        /* \"#utility.yul\":5257:5376   */\n      iszero\n      tag_158\n      jumpi\n        /* \"#utility.yul\":5295:5374   */\n      tag_159\n      tag_44\n      jump\t// in\n    tag_159:\n        /* \"#utility.yul\":5257:5376   */\n    tag_158:\n        /* \"#utility.yul\":5443:5444   */\n      0x00\n        /* \"#utility.yul\":5432:5441   */\n      dup4\n        /* \"#utility.yul\":5428:5445   */\n      add\n        /* \"#utility.yul\":5415:5446   */\n      calldataload\n        /* \"#utility.yul\":5473:5491   */\n      0xffffffffffffffff\n        /* \"#utility.yul\":5465:5471   */\n      dup2\n        /* \"#utility.yul\":5462:5492   */\n      gt\n        /* \"#utility.yul\":5459:5576   */\n      iszero\n      tag_160\n      jumpi\n        /* \"#utility.yul\":5495:5574   */\n      tag_161\n      tag_45\n      jump\t// in\n    tag_161:\n        /* \"#utility.yul\":5459:5576   */\n    tag_160:\n        /* \"#utility.yul\":5600:5663   */\n      tag_162\n        /* \"#utility.yul\":5655:5662   */\n      dup6\n        /* \"#utility.yul\":5646:5652   */\n      dup3\n        /* \"#utility.yul\":5635:5644   */\n      dup7\n        /* \"#utility.yul\":5631:5653   */\n      add\n        /* \"#utility.yul\":5600:5663   */\n      tag_55\n      jump\t// in\n    tag_162:\n        /* \"#utility.yul\":5590:5663   */\n      swap3\n      pop\n        /* \"#utility.yul\":5386:5673   */\n      pop\n        /* \"#utility.yul\":5712:5714   */\n      0x20\n        /* \"#utility.yul\":5738:5788   */\n      tag_163\n        /* \"#utility.yul\":5780:5787   */\n      dup6\n        /* \"#utility.yul\":5771:5777   */\n      dup3\n        /* \"#utility.yul\":5760:5769   */\n      dup7\n        /* \"#utility.yul\":5756:5778   */\n      add\n        /* \"#utility.yul\":5738:5788   */\n      tag_65\n      jump\t// in\n    tag_163:\n        /* \"#utility.yul\":5728:5788   */\n      swap2\n      pop\n        /* \"#utility.yul\":5683:5798   */\n      pop\n        /* \"#utility.yul\":5157:5805   */\n      swap3\n      pop\n      swap3\n      swap1\n      pop\n      jump\t// out\n        /* \"#utility.yul\":5811:5959   */\n    tag_66:\n        /* \"#utility.yul\":5913:5924   */\n      0x00\n        /* \"#utility.yul\":5950:5953   */\n      dup2\n        /* \"#utility.yul\":5935:5953   */\n      swap1\n      pop\n        /* \"#utility.yul\":5811:5959   */\n      swap3\n      swap2\n      pop\n      pop\n      jump\t// out\n        /* \"#utility.yul\":5965:6355   */\n    tag_67:\n        /* \"#utility.yul\":6071:6074   */\n      0x00\n        /* \"#utility.yul\":6099:6138   */\n      tag_166\n        /* \"#utility.yul\":6132:6137   */\n      dup3\n        /* \"#utility.yul\":6099:6138   */\n      tag_58\n      jump\t// in\n    tag_166:\n        /* \"#utility.yul\":6154:6243   */\n      tag_167\n        /* \"#utility.yul\":6236:6242   */\n      dup2\n        /* \"#utility.yul\":6231:6234   */\n      dup6\n        /* \"#utility.yul\":6154:6243   */\n      tag_66\n      jump\t// in\n    tag_167:\n        /* \"#utility.yul\":6147:6243   */\n      swap4\n      pop\n        /* \"#utility.yul\":6252:6317   */\n      tag_168\n        /* \"#utility.yul\":6310:6316   */\n      dup2\n        /* \"#utility.yul\":6305:6308   */\n      dup6\n        /* \"#utility.yul\":6298:6302   */\n      0x20\n        /* \"#utility.yul\":6291:6296   */\n      dup7\n        /* \"#utility.yul\":6287:6303   */\n      add\n        /* \"#utility.yul\":6252:6317   */\n      tag_60\n      jump\t// in\n    tag_168:\n        /* \"#utility.yul\":6342:6348   */\n      dup1\n        /* \"#utility.yul\":6337:6340   */\n      dup5\n        /* \"#utility.yul\":6333:6349   */\n      add\n        /* \"#utility.yul\":6326:6349   */\n      swap2\n      pop\n        /* \"#utility.yul\":6075:6355   */\n      pop\n        /* \"#utility.yul\":5965:6355   */\n      swap3\n      swap2\n      pop\n      pop\n      jump\t// out\n        /* \"#utility.yul\":6361:6636   */\n    tag_17:\n        /* \"#utility.yul\":6493:6496   */\n      0x00\n        /* \"#utility.yul\":6515:6610   */\n      tag_170\n        /* \"#utility.yul\":6606:6609   */\n      dup3\n        /* \"#utility.yul\":6597:6603   */\n      dup5\n        /* \"#utility.yul\":6515:6610   */\n      tag_67\n      jump\t// in\n    tag_170:\n        /* \"#utility.yul\":6508:6610   */\n      swap2\n      pop\n        /* \"#utility.yul\":6627:6630   */\n      dup2\n        /* \"#utility.yul\":6620:6630   */\n      swap1\n      pop\n        /* \"#utility.yul\":6361:6636   */\n      swap3\n      swap2\n      pop\n      pop\n      jump\t// out\n        /* \"#utility.yul\":6642:6822   */\n    tag_68:\n        /* \"#utility.yul\":6690:6767   */\n      0x4e487b7100000000000000000000000000000000000000000000000000000000\n        /* \"#utility.yul\":6687:6688   */\n      0x00\n        /* \"#utility.yul\":6680:6768   */\n      mstore\n        /* \"#utility.yul\":6787:6791   */\n      0x22\n        /* \"#utility.yul\":6784:6785   */\n      0x04\n        /* \"#utility.yul\":6777:6792   */\n      mstore\n        /* \"#utility.yul\":6811:6815   */\n      0x24\n        /* \"#utility.yul\":6808:6809   */\n      0x00\n        /* \"#utility.yul\":6801:6816   */\n      revert\n        /* \"#utility.yul\":6828:7148   */\n    tag_19:\n        /* \"#utility.yul\":6872:6878   */\n      0x00\n        /* \"#utility.yul\":6909:6910   */\n      0x02\n        /* \"#utility.yul\":6903:6907   */\n      dup3\n        /* \"#utility.yul\":6899:6911   */\n      div\n        /* \"#utility.yul\":6889:6911   */\n      swap1\n      pop\n        /* \"#utility.yul\":6956:6957   */\n      0x01\n        /* \"#utility.yul\":6950:6954   */\n      dup3\n        /* \"#utility.yul\":6946:6958   */\n      and\n        /* \"#utility.yul\":6977:6995   */\n      dup1\n        /* \"#utility.yul\":6967:7048   */\n      tag_173\n      jumpi\n        /* \"#utility.yul\":7033:7037   */\n      0x7f\n        /* \"#utility.yul\":7025:7031   */\n      dup3\n        /* \"#utility.yul\":7021:7038   */\n      and\n        /* \"#utility.yul\":7011:7038   */\n      swap2\n      pop\n        /* \"#utility.yul\":6967:7048   */\n    tag_173:\n        /* \"#utility.yul\":7095:7097   */\n      0x20\n        /* \"#utility.yul\":7087:7093   */\n      dup3\n        /* \"#utility.yul\":7084:7098   */\n      lt\n        /* \"#utility.yul\":7064:7082   */\n      dup2\n        /* \"#utility.yul\":7061:7099   */\n      sub\n        /* \"#utility.yul\":7058:7142   */\n      tag_174\n      jumpi\n        /* \"#utility.yul\":7114:7132   */\n      tag_175\n      tag_68\n      jump\t// in\n    tag_175:\n        /* \"#utility.yul\":7058:7142   */\n    tag_174:\n        /* \"#utility.yul\":6879:7148   */\n      pop\n        /* \"#utility.yul\":6828:7148   */\n      swap2\n      swap1\n      pop\n      jump\t// out\n        /* \"#utility.yul\":7154:7328   */\n    tag_69:\n        /* \"#utility.yul\":7294:7320   */\n      0x557365726e616d652063616e6e6f7420626520656d7074790000000000000000\n        /* \"#utility.yul\":7290:7291   */\n      0x00\n        /* \"#utility.yul\":7282:7288   */\n      dup3\n        /* \"#utility.yul\":7278:7292   */\n      add\n        /* \"#utility.yul\":7271:7321   */\n      mstore\n        /* \"#utility.yul\":7154:7328   */\n      pop\n      jump\t// out\n        /* \"#utility.yul\":7334:7700   */\n    tag_70:\n        /* \"#utility.yul\":7476:7479   */\n      0x00\n        /* \"#utility.yul\":7497:7564   */\n      tag_178\n        /* \"#utility.yul\":7561:7563   */\n      0x18\n        /* \"#utility.yul\":7556:7559   */\n      dup4\n        /* \"#utility.yul\":7497:7564   */\n      tag_59\n      jump\t// in\n    tag_178:\n        /* \"#utility.yul\":7490:7564   */\n      swap2\n      pop\n        /* \"#utility.yul\":7573:7666   */\n      tag_179\n        /* \"#utility.yul\":7662:7665   */\n      dup3\n        /* \"#utility.yul\":7573:7666   */\n      tag_69\n      jump\t// in\n    tag_179:\n        /* \"#utility.yul\":7691:7693   */\n      0x20\n        /* \"#utility.yul\":7686:7689   */\n      dup3\n        /* \"#utility.yul\":7682:7694   */\n      add\n        /* \"#utility.yul\":7675:7694   */\n      swap1\n      pop\n        /* \"#utility.yul\":7334:7700   */\n      swap2\n      swap1\n      pop\n      jump\t// out\n        /* \"#utility.yul\":7706:8125   */\n    tag_28:\n        /* \"#utility.yul\":7872:7876   */\n      0x00\n        /* \"#utility.yul\":7910:7912   */\n      0x20\n        /* \"#utility.yul\":7899:7908   */\n      dup3\n        /* \"#utility.yul\":7895:7913   */\n      add\n        /* \"#utility.yul\":7887:7913   */\n      swap1\n      pop\n        /* \"#utility.yul\":7959:7968   */\n      dup2\n        /* \"#utility.yul\":7953:7957   */\n      dup2\n        /* \"#utility.yul\":7949:7969   */\n      sub\n        /* \"#utility.yul\":7945:7946   */\n      0x00\n        /* \"#utility.yul\":7934:7943   */\n      dup4\n        /* \"#utility.yul\":7930:7947   */\n      add\n        /* \"#utility.yul\":7923:7970   */\n      mstore\n        /* \"#utility.yul\":7987:8118   */\n      tag_181\n        /* \"#utility.yul\":8113:8117   */\n      dup2\n        /* \"#utility.yul\":7987:8118   */\n      tag_70\n      jump\t// in\n    tag_181:\n        /* \"#utility.yul\":7979:8118   */\n      swap1\n      pop\n        /* \"#utility.yul\":7706:8125   */\n      swap2\n      swap1\n      pop\n      jump\t// out\n        /* \"#utility.yul\":8131:8304   */\n    tag_71:\n        /* \"#utility.yul\":8271:8296   */\n      0x557365726e616d6520616c726561647920657869737473000000000000000000\n        /* \"#utility.yul\":8267:8268   */\n      0x00\n        /* \"#utility.yul\":8259:8265   */\n      dup3\n        /* \"#utility.yul\":8255:8269   */\n      add\n        /* \"#utility.yul\":8248:8297   */\n      mstore\n        /* \"#utility.yul\":8131:8304   */\n      pop\n      jump\t// out\n        /* \"#utility.yul\":8310:8676   */\n    tag_72:\n        /* \"#utility.yul\":8452:8455   */\n      0x00\n        /* \"#utility.yul\":8473:8540   */\n      tag_184\n        /* \"#utility.yul\":8537:8539   */\n      0x17\n        /* \"#utility.yul\":8532:8535   */\n      dup4\n        /* \"#utility.yul\":8473:8540   */\n      tag_59\n      jump\t// in\n    tag_184:\n        /* \"#utility.yul\":8466:8540   */\n      swap2\n      pop\n        /* \"#utility.yul\":8549:8642   */\n      tag_185\n        /* \"#utility.yul\":8638:8641   */\n      dup3\n        /* \"#utility.yul\":8549:8642   */\n      tag_71\n      jump\t// in\n    tag_185:\n        /* \"#utility.yul\":8667:8669   */\n      0x20\n        /* \"#utility.yul\":8662:8665   */\n      dup3\n        /* \"#utility.yul\":8658:8670   */\n      add\n        /* \"#utility.yul\":8651:8670   */\n      swap1\n      pop\n        /* \"#utility.yul\":8310:8676   */\n      swap2\n      swap1\n      pop\n      jump\t// out\n        /* \"#utility.yul\":8682:9101   */\n    tag_32:\n        /* \"#utility.yul\":8848:8852   */\n      0x00\n        /* \"#utility.yul\":8886:8888   */\n      0x20\n        /* \"#utility.yul\":8875:8884   */\n      dup3\n        /* \"#utility.yul\":8871:8889   */\n      add\n        /* \"#utility.yul\":8863:8889   */\n      swap1\n      pop\n        /* \"#utility.yul\":8935:8944   */\n      dup2\n        /* \"#utility.yul\":8929:8933   */\n      dup2\n        /* \"#utility.yul\":8925:8945   */\n      sub\n        /* \"#utility.yul\":8921:8922   */\n      0x00\n        /* \"#utility.yul\":8910:8919   */\n      dup4\n        /* \"#utility.yul\":8906:8923   */\n      add\n        /* \"#utility.yul\":8899:8946   */\n      mstore\n        /* \"#utility.yul\":8963:9094   */\n      tag_187\n        /* \"#utility.yul\":9089:9093   */\n      dup2\n        /* \"#utility.yul\":8963:9094   */\n      tag_72\n      jump\t// in\n    tag_187:\n        /* \"#utility.yul\":8955:9094   */\n      swap1\n      pop\n        /* \"#utility.yul\":8682:9101   */\n      swap2\n      swap1\n      pop\n      jump\t// out\n        /* \"#utility.yul\":9107:9248   */\n    tag_73:\n        /* \"#utility.yul\":9156:9160   */\n      0x00\n        /* \"#utility.yul\":9179:9182   */\n      dup2\n        /* \"#utility.yul\":9171:9182   */\n      swap1\n      pop\n        /* \"#utility.yul\":9202:9205   */\n      dup2\n        /* \"#utility.yul\":9199:9200   */\n      0x00\n        /* \"#utility.yul\":9192:9206   */\n      mstore\n        /* \"#utility.yul\":9236:9240   */\n      0x20\n        /* \"#utility.yul\":9233:9234   */\n      0x00\n        /* \"#utility.yul\":9223:9241   */\n      keccak256\n        /* \"#utility.yul\":9215:9241   */\n      swap1\n      pop\n        /* \"#utility.yul\":9107:9248   */\n      swap2\n      swap1\n      pop\n      jump\t// out\n        /* \"#utility.yul\":9254:9347   */\n    tag_74:\n        /* \"#utility.yul\":9291:9297   */\n      0x00\n        /* \"#utility.yul\":9338:9340   */\n      0x20\n        /* \"#utility.yul\":9333:9335   */\n      0x1f\n        /* \"#utility.yul\":9326:9331   */\n      dup4\n        /* \"#utility.yul\":9322:9336   */\n      add\n        /* \"#utility.yul\":9318:9341   */\n      div\n        /* \"#utility.yul\":9308:9341   */\n      swap1\n      pop\n        /* \"#utility.yul\":9254:9347   */\n      swap2\n      swap1\n      pop\n      jump\t// out\n        /* \"#utility.yul\":9353:9460   */\n    tag_75:\n        /* \"#utility.yul\":9397:9405   */\n      0x00\n        /* \"#utility.yul\":9447:9452   */\n      dup3\n        /* \"#utility.yul\":9441:9445   */\n      dup3\n        /* \"#utility.yul\":9437:9453   */\n      shl\n        /* \"#utility.yul\":9416:9453   */\n      swap1\n      pop\n        /* \"#utility.yul\":9353:9460   */\n      swap3\n      swap2\n      pop\n      pop\n      jump\t// out\n        /* \"#utility.yul\":9466:9859   */\n    tag_76:\n        /* \"#utility.yul\":9535:9541   */\n      0x00\n        /* \"#utility.yul\":9585:9586   */\n      0x08\n        /* \"#utility.yul\":9573:9583   */\n      dup4\n        /* \"#utility.yul\":9569:9587   */\n      mul\n        /* \"#utility.yul\":9608:9705   */\n      tag_192\n        /* \"#utility.yul\":9638:9704   */\n      0xffffffffffffffffffffffffffffffffffffffffffffffffffffffffffffffff\n        /* \"#utility.yul\":9627:9636   */\n      dup3\n        /* \"#utility.yul\":9608:9705   */\n      tag_75\n      jump\t// in\n    tag_192:\n        /* \"#utility.yul\":9726:9765   */\n      tag_193\n        /* \"#utility.yul\":9756:9764   */\n      dup7\n        /* \"#utility.yul\":9745:9754   */\n      dup4\n        /* \"#utility.yul\":9726:9765   */\n      tag_75\n      jump\t// in\n    tag_193:\n        /* \"#utility.yul\":9714:9765   */\n      swap6\n      pop\n        /* \"#utility.yul\":9798:9802   */\n      dup1\n        /* \"#utility.yul\":9794:9803   */\n      not\n        /* \"#utility.yul\":9787:9792   */\n      dup5\n        /* \"#utility.yul\":9783:9804   */\n      and\n        /* \"#utility.yul\":9774:9804   */\n      swap4\n      pop\n        /* \"#utility.yul\":9847:9851   */\n      dup1\n        /* \"#utility.yul\":9837:9845   */\n      dup7\n        /* \"#utility.yul\":9833:9852   */\n      and\n        /* \"#utility.yul\":9826:9831   */\n      dup5\n        /* \"#utility.yul\":9823:9853   */\n      or\n        /* \"#utility.yul\":9813:9853   */\n      swap3\n      pop\n        /* \"#utility.yul\":9542:9859   */\n      pop\n      pop\n        /* \"#utility.yul\":9466:9859   */\n      swap4\n      swap3\n      pop\n      pop\n      pop\n      jump\t// out\n        /* \"#utility.yul\":9865:9942   */\n    tag_77:\n        /* \"#utility.yul\":9902:9909   */\n      0x00\n        /* \"#utility.yul\":9931:9936   */\n      dup2\n        /* \"#utility.yul\":9920:9936   */\n      swap1\n      pop\n        /* \"#utility.yul\":9865:9942   */\n      swap2\n      swap1\n      pop\n      jump\t// out\n        /* \"#utility.yul\":9948:10008   */\n    tag_78:\n        /* \"#utility.yul\":9976:9979   */\n      0x00\n        /* \"#utility.yul\":9997:10002   */\n      dup2\n        /* \"#utility.yul\":9990:10002   */\n      swap1\n      pop\n        /* \"#utility.yul\":9948:10008   */\n      swap2\n      swap1\n      pop\n      jump\t// out\n        /* \"#utility.yul\":10014:10156   */\n    tag_79:\n        /* \"#utility.yul\":10064:10073   */\n      0x00\n        /* \"#utility.yul\":10097:10150   */\n      tag_197\n        /* \"#utility.yul\":10115:10149   */\n      tag_198\n        /* \"#utility.yul\":10124:10148   */\n      tag_199\n        /* \"#utility.yul\":10142:10147   */\n      dup5\n        /* \"#utility.yul\":10124:10148   */\n      tag_77\n      jump\t// in\n    tag_199:\n        /* \"#utility.yul\":10115:10149   */\n      tag_78\n      jump\t// in\n    tag_198:\n        /* \"#utility.yul\":10097:10150   */\n      tag_77\n      jump\t// in\n    tag_197:\n        /* \"#utility.yul\":10084:10150   */\n      swap1\n      pop\n        /* \"#utility.yul\":10014:10156   */\n      swap2\n      swap1\n      pop\n      jump\t// out\n        /* \"#utility.yul\":10162:10237   */\n    tag_80:\n        /* \"#utility.yul\":10205:10208   */\n      0x00\n        /* \"#utility.yul\":10226:10231   */\n      dup2\n        /* \"#utility.yul\":10219:10231   */\n      swap1\n      pop\n        /* \"#utility.yul\":10162:10237   */\n      swap2\n      swap1\n      pop\n      jump\t// out\n        /* \"#utility.yul\":10243:10512   */\n    tag_81:\n        /* \"#utility.yul\":10353:10392   */\n      tag_202\n        /* \"#utility.yul\":10384:10391   */\n      dup4\n        /* \"#utility.yul\":10353:10392   */\n      tag_79\n      jump\t// in\n    tag_202:\n        /* \"#utility.yul\":10414:10505   */\n      tag_203\n        /* \"#utility.yul\":10463:10504   */\n      tag_204\n        /* \"#utility.yul\":10487:10503   */\n      dup3\n        /* \"#utility.yul\":10463:10504   */\n      tag_80\n      jump\t// in\n    tag_204:\n        /* \"#utility.yul\":10455:10461   */\n      dup5\n        /* \"#utility.yul\":10448:10452   */\n      dup5\n        /* \"#utility.yul\":10442:10453   */\n      sload\n        /* \"#utility.yul\":10414:10505   */\n      tag_76\n      jump\t// in\n    tag_203:\n        /* \"#utility.yul\":10408:10412   */\n      dup3\n        /* \"#utility.yul\":10401:10506   */\n      sstore\n        /* \"#utility.yul\":10319:10512   */\n      pop\n        /* \"#utility.yul\":10243:10512   */\n      pop\n      pop\n      pop\n      jump\t// out\n        /* \"#utility.yul\":10518:10591   */\n    tag_82:\n        /* \"#utility.yul\":10563:10566   */\n      0x00\n        /* \"#utility.yul\":10584:10585   */\n      0x00\n        /* \"#utility.yul\":10577:10585   */\n      swap1\n      pop\n        /* \"#utility.yul\":10518:10591   */\n      swap1\n      jump\t// out\n        /* \"#utility.yul\":10597:10786   */\n    tag_83:\n        /* \"#utility.yul\":10674:10706   */\n      tag_207\n      tag_82\n      jump\t// in\n    tag_207:\n        /* \"#utility.yul\":10715:10780   */\n      tag_208\n        /* \"#utility.yul\":10773:10779   */\n      dup2\n        /* \"#utility.yul\":10765:10771   */\n      dup5\n        /* \"#utility.yul\":10759:10763   */\n      dup5\n        /* \"#utility.yul\":10715:10780   */\n      tag_81\n      jump\t// in\n    tag_208:\n        /* \"#utility.yul\":10650:10786   */\n      pop\n        /* \"#utility.yul\":10597:10786   */\n      pop\n      pop\n      jump\t// out\n        /* \"#utility.yul\":10792:10978   */\n    tag_84:\n        /* \"#utility.yul\":10852:10972   */\n    tag_210:\n        /* \"#utility.yul\":10869:10872   */\n      dup2\n        /* \"#utility.yul\":10862:10867   */\n      dup2\n        /* \"#utility.yul\":10859:10873   */\n      lt\n        /* \"#utility.yul\":10852:10972   */\n      iszero\n      tag_212\n      jumpi\n        /* \"#utility.yul\":10923:10962   */\n      tag_213\n        /* \"#utility.yul\":10960:10961   */\n      0x00\n        /* \"#utility.yul\":10953:10958   */\n      dup3\n        /* \"#utility.yul\":10923:10962   */\n      tag_83\n      jump\t// in\n    tag_213:\n        /* \"#utility.yul\":10896:10897   */\n      0x01\n        /* \"#utility.yul\":10889:10894   */\n      dup2\n        /* \"#utility.yul\":10885:10898   */\n      add\n        /* \"#utility.yul\":10876:10898   */\n      swap1\n      pop\n        /* \"#utility.yul\":10852:10972   */\n      jump(tag_210)\n    tag_212:\n        /* \"#utility.yul\":10792:10978   */\n      pop\n      pop\n      jump\t// out\n        /* \"#utility.yul\":10984:11527   */\n    tag_85:\n        /* \"#utility.yul\":11085:11087   */\n      0x1f\n        /* \"#utility.yul\":11080:11083   */\n      dup3\n        /* \"#utility.yul\":11077:11088   */\n      gt\n        /* \"#utility.yul\":11074:11520   */\n      iszero\n      tag_215\n      jumpi\n        /* \"#utility.yul\":11119:11157   */\n      tag_216\n        /* \"#utility.yul\":11151:11156   */\n      dup2\n        /* \"#utility.yul\":11119:11157   */\n      tag_73\n      jump\t// in\n    tag_216:\n        /* \"#utility.yul\":11203:11232   */\n      tag_217\n        /* \"#utility.yul\":11221:11231   */\n      dup5\n        /* \"#utility.yul\":11203:11232   */\n      tag_74\n      jump\t// in\n    tag_217:\n        /* \"#utility.yul\":11193:11201   */\n      dup2\n        /* \"#utility.yul\":11189:11233   */\n      add\n        /* \"#utility.yul\":11386:11388   */\n      0x20\n        /* \"#utility.yul\":11374:11384   */\n      dup6\n        /* \"#utility.yul\":11371:11389   */\n      lt\n        /* \"#utility.yul\":11368:11417   */\n      iszero\n      tag_218\n      jumpi\n        /* \"#utility.yul\":11407:11415   */\n      dup2\n        /* \"#utility.yul\":11392:11415   */\n      swap1\n      pop\n        /* \"#utility.yul\":11368:11417   */\n    tag_218:\n        /* \"#utility.yul\":11430:11510   */\n      tag_219\n        /* \"#utility.yul\":11486:11508   */\n      tag_220\n        /* \"#utility.yul\":11504:11507   */\n      dup6\n        /* \"#utility.yul\":11486:11508   */\n      tag_74\n      jump\t// in\n    tag_220:\n        /* \"#utility.yul\":11476:11484   */\n      dup4\n        /* \"#utility.yul\":11472:11509   */\n      add\n        /* \"#utility.yul\":11459:11470   */\n      dup3\n        /* \"#utility.yul\":11430:11510   */\n      tag_84\n      jump\t// in\n    tag_219:\n        /* \"#utility.yul\":11089:11520   */\n      pop\n      pop\n        /* \"#utility.yul\":11074:11520   */\n    tag_215:\n        /* \"#utility.yul\":10984:11527   */\n      pop\n      pop\n      pop\n      jump\t// out\n        /* \"#utility.yul\":11533:11650   */\n    tag_86:\n        /* \"#utility.yul\":11587:11595   */\n      0x00\n        /* \"#utility.yul\":11637:11642   */\n      dup3\n        /* \"#utility.yul\":11631:11635   */\n      dup3\n        /* \"#utility.yul\":11627:11643   */\n      shr\n        /* \"#utility.yul\":11606:11643   */\n      swap1\n      pop\n        /* \"#utility.yul\":11533:11650   */\n      swap3\n      swap2\n      pop\n      pop\n      jump\t// out\n        /* \"#utility.yul\":11656:11825   */\n    tag_87:\n        /* \"#utility.yul\":11700:11706   */\n      0x00\n        /* \"#utility.yul\":11733:11784   */\n      tag_223\n        /* \"#utility.yul\":11781:11782   */\n      0x00\n        /* \"#utility.yul\":11777:11783   */\n      not\n        /* \"#utility.yul\":11769:11774   */\n      dup5\n        /* \"#utility.yul\":11766:11767   */\n      0x08\n        /* \"#utility.yul\":11762:11775   */\n      mul\n        /* \"#utility.yul\":11733:11784   */\n      tag_86\n      jump\t// in\n    tag_223:\n        /* \"#utility.yul\":11729:11785   */\n      not\n        /* \"#utility.yul\":11814:11818   */\n      dup1\n        /* \"#utility.yul\":11808:11812   */\n      dup4\n        /* \"#utility.yul\":11804:11819   */\n      and\n        /* \"#utility.yul\":11794:11819   */\n      swap2\n      pop\n        /* \"#utility.yul\":11707:11825   */\n      pop\n        /* \"#utility.yul\":11656:11825   */\n      swap3\n      swap2\n      pop\n      pop\n      jump\t// out\n        /* \"#utility.yul\":11830:12125   */\n    tag_88:\n        /* \"#utility.yul\":11906:11910   */\n      0x00\n        /* \"#utility.yul\":12052:12081   */\n      tag_225\n        /* \"#utility.yul\":12077:12080   */\n      dup4\n        /* \"#utility.yul\":12071:12075   */\n      dup4\n        /* \"#utility.yul\":12052:12081   */\n      tag_87\n      jump\t// in\n    tag_225:\n        /* \"#utility.yul\":12044:12081   */\n      swap2\n      pop\n        /* \"#utility.yul\":12114:12117   */\n      dup3\n        /* \"#utility.yul\":12111:12112   */\n      0x02\n        /* \"#utility.yul\":12107:12118   */\n      mul\n        /* \"#utility.yul\":12101:12105   */\n      dup3\n        /* \"#utility.yul\":12098:12119   */\n      or\n        /* \"#utility.yul\":12090:12119   */\n      swap1\n      pop\n        /* \"#utility.yul\":11830:12125   */\n      swap3\n      swap2\n      pop\n      pop\n      jump\t// out\n        /* \"#utility.yul\":12130:13525   */\n    tag_37:\n        /* \"#utility.yul\":12247:12284   */\n      tag_227\n        /* \"#utility.yul\":12280:12283   */\n      dup3\n        /* \"#utility.yul\":12247:12284   */\n      tag_58\n      jump\t// in\n    tag_227:\n        /* \"#utility.yul\":12349:12367   */\n      0xffffffffffffffff\n        /* \"#utility.yul\":12341:12347   */\n      dup2\n        /* \"#utility.yul\":12338:12368   */\n      gt\n        /* \"#utility.yul\":12335:12391   */\n      iszero\n      tag_228\n      jumpi\n        /* \"#utility.yul\":12371:12389   */\n      tag_229\n      tag_49\n      jump\t// in\n    tag_229:\n        /* \"#utility.yul\":12335:12391   */\n    tag_228:\n        /* \"#utility.yul\":12415:12453   */\n      tag_230\n        /* \"#utility.yul\":12447:12451   */\n      dup3\n        /* \"#utility.yul\":12441:12452   */\n      sload\n        /* \"#utility.yul\":12415:12453   */\n      tag_19\n      jump\t// in\n    tag_230:\n        /* \"#utility.yul\":12500:12567   */\n      tag_231\n        /* \"#utility.yul\":12560:12566   */\n      dup3\n        /* \"#utility.yul\":12552:12558   */\n      dup3\n        /* \"#utility.yul\":12546:12550   */\n      dup6\n        /* \"#utility.yul\":12500:12567   */\n      tag_85\n      jump\t// in\n    tag_231:\n        /* \"#utility.yul\":12594:12595   */\n      0x00\n        /* \"#utility.yul\":12618:12622   */\n      0x20\n        /* \"#utility.yul\":12605:12622   */\n      swap1\n      pop\n        /* \"#utility.yul\":12650:12652   */\n      0x1f\n        /* \"#utility.yul\":12642:12648   */\n      dup4\n        /* \"#utility.yul\":12639:12653   */\n      gt\n        /* \"#utility.yul\":12667:12668   */\n      0x01\n        /* \"#utility.yul\":12662:13280   */\n      dup2\n      eq\n      tag_233\n      jumpi\n        /* \"#utility.yul\":13324:13325   */\n      0x00\n        /* \"#utility.yul\":13341:13347   */\n      dup5\n        /* \"#utility.yul\":13338:13415   */\n      iszero\n      tag_234\n      jumpi\n        /* \"#utility.yul\":13390:13399   */\n      dup3\n        /* \"#utility.yul\":13385:13388   */\n      dup8\n        /* \"#utility.yul\":13381:13400   */\n      add\n        /* \"#utility.yul\":13375:13401   */\n      mload\n        /* \"#utility.yul\":13366:13401   */\n      swap1\n      pop\n        /* \"#utility.yul\":13338:13415   */\n    tag_234:\n        /* \"#utility.yul\":13441:13508   */\n      tag_235\n        /* \"#utility.yul\":13501:13507   */\n      dup6\n        /* \"#utility.yul\":13494:13499   */\n      dup3\n        /* \"#utility.yul\":13441:13508   */\n      tag_88\n      jump\t// in\n    tag_235:\n        /* \"#utility.yul\":13435:13439   */\n      dup7\n        /* \"#utility.yul\":13428:13509   */\n      sstore\n        /* \"#utility.yul\":13297:13519   */\n      pop\n        /* \"#utility.yul\":12632:13519   */\n      jump(tag_232)\n        /* \"#utility.yul\":12662:13280   */\n    tag_233:\n        /* \"#utility.yul\":12714:12718   */\n      0x1f\n        /* \"#utility.yul\":12710:12719   */\n      not\n        /* \"#utility.yul\":12702:12708   */\n      dup5\n        /* \"#utility.yul\":12698:12720   */\n      and\n        /* \"#utility.yul\":12748:12785   */\n      tag_236\n        /* \"#utility.yul\":12780:12784   */\n      dup7\n        /* \"#utility.yul\":12748:12785   */\n      tag_73\n      jump\t// in\n    tag_236:\n        /* \"#utility.yul\":12807:12808   */\n      0x00\n        /* \"#utility.yul\":12821:13029   */\n    tag_237:\n        /* \"#utility.yul\":12835:12842   */\n      dup3\n        /* \"#utility.yul\":12832:12833   */\n      dup2\n        /* \"#utility.yul\":12829:12843   */\n      lt\n        /* \"#utility.yul\":12821:13029   */\n      iszero\n      tag_239\n      jumpi\n        /* \"#utility.yul\":12914:12923   */\n      dup5\n        /* \"#utility.yul\":12909:12912   */\n      dup10\n        /* \"#utility.yul\":12905:12924   */\n      add\n        /* \"#utility.yul\":12899:12925   */\n      mload\n        /* \"#utility.yul\":12891:12897   */\n      dup3\n        /* \"#utility.yul\":12884:12926   */\n      sstore\n        /* \"#utility.yul\":12965:12966   */\n      0x01\n        /* \"#utility.yul\":12957:12963   */\n      dup3\n        /* \"#utility.yul\":12953:12967   */\n      add\n        /* \"#utility.yul\":12943:12967   */\n      swap2\n      pop\n        /* \"#utility.yul\":13012:13014   */\n      0x20\n        /* \"#utility.yul\":13001:13010   */\n      dup6\n        /* \"#utility.yul\":12997:13015   */\n      add\n        /* \"#utility.yul\":12984:13015   */\n      swap5\n      pop\n        /* \"#utility.yul\":12858:12862   */\n      0x20\n        /* \"#utility.yul\":12855:12856   */\n      dup2\n        /* \"#utility.yul\":12851:12863   */\n      add\n        /* \"#utility.yul\":12846:12863   */\n      swap1\n      pop\n        /* \"#utility.yul\":12821:13029   */\n      jump(tag_237)\n    tag_239:\n        /* \"#utility.yul\":13057:13063   */\n      dup7\n        /* \"#utility.yul\":13048:13055   */\n      dup4\n        /* \"#utility.yul\":13045:13064   */\n      lt\n        /* \"#utility.yul\":13042:13221   */\n      iszero\n      tag_240\n      jumpi\n        /* \"#utility.yul\":13115:13124   */\n      dup5\n        /* \"#utility.yul\":13110:13113   */\n      dup10\n        /* \"#utility.yul\":13106:13125   */\n      add\n        /* \"#utility.yul\":13100:13126   */\n      mload\n        /* \"#utility.yul\":13158:13206   */\n      tag_241\n        /* \"#utility.yul\":13200:13204   */\n      0x1f\n        /* \"#utility.yul\":13192:13198   */\n      dup10\n        /* \"#utility.yul\":13188:13205   */\n      and\n        /* \"#utility.yul\":13177:13186   */\n      dup3\n        /* \"#utility.yul\":13158:13206   */\n      tag_87\n      jump\t// in\n    tag_241:\n        /* \"#utility.yul\":13150:13156   */\n      dup4\n        /* \"#utility.yul\":13143:13207   */\n      sstore\n        /* \"#utility.yul\":13065:13221   */\n      pop\n        /* \"#utility.yul\":13042:13221   */\n    tag_240:\n        /* \"#utility.yul\":13267:13268   */\n      0x01\n        /* \"#utility.yul\":13263:13264   */\n      0x02\n        /* \"#utility.yul\":13255:13261   */\n      dup9\n        /* \"#utility.yul\":13251:13265   */\n      mul\n        /* \"#utility.yul\":13247:13269   */\n      add\n        /* \"#utility.yul\":13241:13245   */\n      dup9\n        /* \"#utility.yul\":13234:13270   */\n      sstore\n        /* \"#utility.yul\":12669:13280   */\n      pop\n      pop\n      pop\n        /* \"#utility.yul\":12632:13519   */\n    tag_232:\n      pop\n        /* \"#utility.yul\":12222:13525   */\n      pop\n      pop\n      pop\n        /* \"#utility.yul\":12130:13525   */\n      pop\n      pop\n      jump\t// out\n        /* \"#utility.yul\":13531:13711   */\n    tag_89:\n        /* \"#utility.yul\":13579:13656   */\n      0x4e487b7100000000000000000000000000000000000000000000000000000000\n        /* \"#utility.yul\":13576:13577   */\n      0x00\n        /* \"#utility.yul\":13569:13657   */\n      mstore\n        /* \"#utility.yul\":13676:13680   */\n      0x11\n        /* \"#utility.yul\":13673:13674   */\n      0x04\n        /* \"#utility.yul\":13666:13681   */\n      mstore\n        /* \"#utility.yul\":13700:13704   */\n      0x24\n        /* \"#utility.yul\":13697:13698   */\n      0x00\n        /* \"#utility.yul\":13690:13705   */\n      revert\n        /* \"#utility.yul\":13717:13950   */\n    tag_40:\n        /* \"#utility.yul\":13756:13759   */\n      0x00\n        /* \"#utility.yul\":13779:13803   */\n      tag_244\n        /* \"#utility.yul\":13797:13802   */\n      dup3\n        /* \"#utility.yul\":13779:13803   */\n      tag_77\n      jump\t// in\n    tag_244:\n        /* \"#utility.yul\":13770:13803   */\n      swap2\n      pop\n        /* \"#utility.yul\":13825:13891   */\n      0xffffffffffffffffffffffffffffffffffffffffffffffffffffffffffffffff\n        /* \"#utility.yul\":13818:13823   */\n      dup3\n        /* \"#utility.yul\":13815:13892   */\n      sub\n        /* \"#utility.yul\":13812:13915   */\n      tag_245\n      jumpi\n        /* \"#utility.yul\":13895:13913   */\n      tag_246\n      tag_89\n      jump\t// in\n    tag_246:\n        /* \"#utility.yul\":13812:13915   */\n    tag_245:\n        /* \"#utility.yul\":13942:13943   */\n      0x01\n        /* \"#utility.yul\":13935:13940   */\n      dup3\n        /* \"#utility.yul\":13931:13944   */\n      add\n        /* \"#utility.yul\":13924:13944   */\n      swap1\n      pop\n        /* \"#utility.yul\":13717:13950   */\n      swap2\n      swap1\n      pop\n      jump\t// out\n        /* \"#utility.yul\":13956:14035   */\n    tag_90:\n        /* \"#utility.yul\":13995:14002   */\n      0x00\n        /* \"#utility.yul\":14024:14029   */\n      dup2\n        /* \"#utility.yul\":14013:14029   */\n      swap1\n      pop\n        /* \"#utility.yul\":13956:14035   */\n      swap2\n      swap1\n      pop\n      jump\t// out\n        /* \"#utility.yul\":14041:14198   */\n    tag_91:\n        /* \"#utility.yul\":14146:14191   */\n      tag_249\n        /* \"#utility.yul\":14166:14190   */\n      tag_250\n        /* \"#utility.yul\":14184:14189   */\n      dup3\n        /* \"#utility.yul\":14166:14190   */\n      tag_77\n      jump\t// in\n    tag_250:\n        /* \"#utility.yul\":14146:14191   */\n      tag_90\n      jump\t// in\n    tag_249:\n        /* \"#utility.yul\":14141:14144   */\n      dup3\n        /* \"#utility.yul\":14134:14192   */\n      mstore\n        /* \"#utility.yul\":14041:14198   */\n      pop\n      pop\n      jump\t// out\n        /* \"#utility.yul\":14204:14330   */\n    tag_92:\n        /* \"#utility.yul\":14241:14248   */\n      0x00\n        /* \"#utility.yul\":14281:14323   */\n      0xffffffffffffffffffffffffffffffffffffffff\n        /* \"#utility.yul\":14274:14279   */\n      dup3\n        /* \"#utility.yul\":14270:14324   */\n      and\n        /* \"#utility.yul\":14259:14324   */\n      swap1\n      pop\n        /* \"#utility.yul\":14204:14330   */\n      swap2\n      swap1\n      pop\n      jump\t// out\n        /* \"#utility.yul\":14336:14432   */\n    tag_93:\n        /* \"#utility.yul\":14373:14380   */\n      0x00\n        /* \"#utility.yul\":14402:14426   */\n      tag_253\n        /* \"#utility.yul\":14420:14425   */\n      dup3\n        /* \"#utility.yul\":14402:14426   */\n      tag_92\n      jump\t// in\n    tag_253:\n        /* \"#utility.yul\":14391:14426   */\n      swap1\n      pop\n        /* \"#utility.yul\":14336:14432   */\n      swap2\n      swap1\n      pop\n      jump\t// out\n        /* \"#utility.yul\":14438:14532   */\n    tag_94:\n        /* \"#utility.yul\":14471:14479   */\n      0x00\n        /* \"#utility.yul\":14519:14524   */\n      dup2\n        /* \"#utility.yul\":14515:14517   */\n      0x60\n        /* \"#utility.yul\":14511:14525   */\n      shl\n        /* \"#utility.yul\":14490:14525   */\n      swap1\n      pop\n        /* \"#utility.yul\":14438:14532   */\n      swap2\n      swap1\n      pop\n      jump\t// out\n        /* \"#utility.yul\":14538:14632   */\n    tag_95:\n        /* \"#utility.yul\":14577:14584   */\n      0x00\n        /* \"#utility.yul\":14606:14626   */\n      tag_256\n        /* \"#utility.yul\":14620:14625   */\n      dup3\n        /* \"#utility.yul\":14606:14626   */\n      tag_94\n      jump\t// in\n    tag_256:\n        /* \"#utility.yul\":14595:14626   */\n      swap1\n      pop\n        /* \"#utility.yul\":14538:14632   */\n      swap2\n      swap1\n      pop\n      jump\t// out\n        /* \"#utility.yul\":14638:14738   */\n    tag_96:\n        /* \"#utility.yul\":14677:14684   */\n      0x00\n        /* \"#utility.yul\":14706:14732   */\n      tag_258\n        /* \"#utility.yul\":14726:14731   */\n      dup3\n        /* \"#utility.yul\":14706:14732   */\n      tag_95\n      jump\t// in\n    tag_258:\n        /* \"#utility.yul\":14695:14732   */\n      swap1\n      pop\n        /* \"#utility.yul\":14638:14738   */\n      swap2\n      swap1\n      pop\n      jump\t// out\n        /* \"#utility.yul\":14744:14901   */\n    tag_97:\n        /* \"#utility.yul\":14849:14894   */\n      tag_260\n        /* \"#utility.yul\":14869:14893   */\n      tag_261\n        /* \"#utility.yul\":14887:14892   */\n      dup3\n        /* \"#utility.yul\":14869:14893   */\n      tag_93\n      jump\t// in\n    tag_261:\n        /* \"#utility.yul\":14849:14894   */\n      tag_96\n      jump\t// in\n    tag_260:\n        /* \"#utility.yul\":14844:14847   */\n      dup3\n        /* \"#utility.yul\":14837:14895   */\n      mstore\n        /* \"#utility.yul\":14744:14901   */\n      pop\n      pop\n      jump\t// out\n        /* \"#utility.yul\":14907:15304   */\n    tag_42:\n        /* \"#utility.yul\":15047:15050   */\n      0x00\n        /* \"#utility.yul\":15062:15137   */\n      tag_263\n        /* \"#utility.yul\":15133:15136   */\n      dup3\n        /* \"#utility.yul\":15124:15130   */\n      dup6\n        /* \"#utility.yul\":15062:15137   */\n      tag_91\n      jump\t// in\n    tag_263:\n        /* \"#utility.yul\":15162:15164   */\n      0x20\n        /* \"#utility.yul\":15157:15160   */\n      dup3\n        /* \"#utility.yul\":15153:15165   */\n      add\n        /* \"#utility.yul\":15146:15165   */\n      swap2\n      pop\n        /* \"#utility.yul\":15175:15250   */\n      tag_264\n        /* \"#utility.yul\":15246:15249   */\n      dup3\n        /* \"#utility.yul\":15237:15243   */\n      dup5\n        /* \"#utility.yul\":15175:15250   */\n      tag_97\n      jump\t// in\n    tag_264:\n        /* \"#utility.yul\":15275:15277   */\n      0x14\n        /* \"#utility.yul\":15270:15273   */\n      dup3\n        /* \"#utility.yul\":15266:15278   */\n      add\n        /* \"#utility.yul\":15259:15278   */\n      swap2\n      pop\n        /* \"#utility.yul\":15295:15298   */\n      dup2\n        /* \"#utility.yul\":15288:15298   */\n      swap1\n      pop\n        /* \"#utility.yul\":14907:15304   */\n      swap4\n      swap3\n      pop\n      pop\n      pop\n      jump\t// out\n\n    auxdata: 0xa26469706673582212208f31309ea95df631b22894412d5c212b133f0b8bfe90d95f3b318add01bd284264736f6c634300081e0033\n}\n",
				"bytecode": {
					"linkReferences": {},
					"object": "6080604052348015600e575f5ffd5b50610c6d8061001c5f395ff3fe608060405234801561000f575f5ffd5b5060043610610034575f3560e01c8063b897e7b014610038578063ccf11a021461006a575b5f5ffd5b610052600480360381019061004d9190610553565b610086565b6040516100619392919061064e565b60405180910390f35b610084600480360381019061007f91906106b4565b61020f565b005b5f60605f5f5f8560405161009a9190610748565b90815260200160405180910390206040518060600160405290815f82015f9054906101000a900460881b70ffffffffffffffffffffffffffffffffff191670ffffffffffffffffffffffffffffffffff191681526020016001820180546101009061078b565b80601f016020809104026020016040519081016040528092919081815260200182805461012c9061078b565b80156101775780601f1061014e57610100808354040283529160200191610177565b820191905f5260205f20905b81548152906001019060200180831161015a57829003601f168201915b50505050508152602001600282015f9054906101000a900460ff16151515158152505090505f60881b70ffffffffffffffffffffffffffffffffff1916815f015170ffffffffffffffffffffffffffffffffff1916036101f2575f60881b5f60405180602001604052805f8152509093509350935050610208565b805f015181602001518260400151935093509350505b9193909250565b5f825111610252576040517f08c379a000000000000000000000000000000000000000000000000000000000815260040161024990610805565b60405180910390fd5b5f60881b70ffffffffffffffffffffffffffffffffff19165f836040516102799190610748565b90815260200160405180910390205f015f9054906101000a900460881b70ffffffffffffffffffffffffffffffffff1916146102ea576040517f08c379a00000000000000000000000000000000000000000000000000000000081526004016102e19061086d565b60405180910390fd5b5f6102f36103b1565b90505f60405180606001604052808370ffffffffffffffffffffffffffffffffff191681526020018581526020018415158152509050805f856040516103399190610748565b90815260200160405180910390205f820151815f015f6101000a8154816effffffffffffffffffffffffffffff021916908360881c021790555060208201518160010190816103889190610a34565b506040820151816002015f6101000a81548160ff02191690831515021790555090505050505050565b5f60015f8154809291906103c490610b30565b91905055505f600154336040516020016103df929190610c0c565b6040516020818303038152906040528051906020012090505f8160081c9050809250505090565b5f604051905090565b5f5ffd5b5f5ffd5b5f5ffd5b5f5ffd5b5f601f19601f8301169050919050565b7f4e487b71000000000000000000000000000000000000000000000000000000005f52604160045260245ffd5b6104658261041f565b810181811067ffffffffffffffff821117156104845761048361042f565b5b80604052505050565b5f610496610406565b90506104a2828261045c565b919050565b5f67ffffffffffffffff8211156104c1576104c061042f565b5b6104ca8261041f565b9050602081019050919050565b828183375f83830152505050565b5f6104f76104f2846104a7565b61048d565b9050828152602081018484840111156105135761051261041b565b5b61051e8482856104d7565b509392505050565b5f82601f83011261053a57610539610417565b5b813561054a8482602086016104e5565b91505092915050565b5f602082840312156105685761056761040f565b5b5f82013567ffffffffffffffff81111561058557610584610413565b5b61059184828501610526565b91505092915050565b5f7fffffffffffffffffffffffffffffff000000000000000000000000000000000082169050919050565b6105ce8161059a565b82525050565b5f81519050919050565b5f82825260208201905092915050565b8281835e5f83830152505050565b5f610606826105d4565b61061081856105de565b93506106208185602086016105ee565b6106298161041f565b840191505092915050565b5f8115159050919050565b61064881610634565b82525050565b5f6060820190506106615f8301866105c5565b818103602083015261067381856105fc565b9050610682604083018461063f565b949350505050565b61069381610634565b811461069d575f5ffd5b50565b5f813590506106ae8161068a565b92915050565b5f5f604083850312156106ca576106c961040f565b5b5f83013567ffffffffffffffff8111156106e7576106e6610413565b5b6106f385828601610526565b9250506020610704858286016106a0565b9150509250929050565b5f81905092915050565b5f610722826105d4565b61072c818561070e565b935061073c8185602086016105ee565b80840191505092915050565b5f6107538284610718565b915081905092915050565b7f4e487b71000000000000000000000000000000000000000000000000000000005f52602260045260245ffd5b5f60028204905060018216806107a257607f821691505b6020821081036107b5576107b461075e565b5b50919050565b7f557365726e616d652063616e6e6f7420626520656d70747900000000000000005f82015250565b5f6107ef6018836105de565b91506107fa826107bb565b602082019050919050565b5f6020820190508181035f83015261081c816107e3565b9050919050565b7f557365726e616d6520616c7265616479206578697374730000000000000000005f82015250565b5f6108576017836105de565b915061086282610823565b602082019050919050565b5f6020820190508181035f8301526108848161084b565b9050919050565b5f819050815f5260205f209050919050565b5f6020601f8301049050919050565b5f82821b905092915050565b5f600883026108e77fffffffffffffffffffffffffffffffffffffffffffffffffffffffffffffffff826108ac565b6108f186836108ac565b95508019841693508086168417925050509392505050565b5f819050919050565b5f819050919050565b5f61093561093061092b84610909565b610912565b610909565b9050919050565b5f819050919050565b61094e8361091b565b61096261095a8261093c565b8484546108b8565b825550505050565b5f5f905090565b61097961096a565b610984818484610945565b505050565b5b818110156109a75761099c5f82610971565b60018101905061098a565b5050565b601f8211156109ec576109bd8161088b565b6109c68461089d565b810160208510156109d5578190505b6109e96109e18561089d565b830182610989565b50505b505050565b5f82821c905092915050565b5f610a0c5f19846008026109f1565b1980831691505092915050565b5f610a2483836109fd565b9150826002028217905092915050565b610a3d826105d4565b67ffffffffffffffff811115610a5657610a5561042f565b5b610a60825461078b565b610a6b8282856109ab565b5f60209050601f831160018114610a9c575f8415610a8a578287015190505b610a948582610a19565b865550610afb565b601f198416610aaa8661088b565b5f5b82811015610ad157848901518255600182019150602085019450602081019050610aac565b86831015610aee5784890151610aea601f8916826109fd565b8355505b6001600288020188555050505b505050505050565b7f4e487b71000000000000000000000000000000000000000000000000000000005f52601160045260245ffd5b5f610b3a82610909565b91507fffffffffffffffffffffffffffffffffffffffffffffffffffffffffffffffff8203610b6c57610b6b610b03565b5b600182019050919050565b5f819050919050565b610b91610b8c82610909565b610b77565b82525050565b5f73ffffffffffffffffffffffffffffffffffffffff82169050919050565b5f610bc082610b97565b9050919050565b5f8160601b9050919050565b5f610bdd82610bc7565b9050919050565b5f610bee82610bd3565b9050919050565b610c06610c0182610bb6565b610be4565b82525050565b5f610c178285610b80565b602082019150610c278284610bf5565b601482019150819050939250505056fea26469706673582212208f31309ea95df631b22894412d5c212b133f0b8bfe90d95f3b318add01bd284264736f6c634300081e0033",
					"opcodes": "PUSH1 0x80 PUSH1 0x40 MSTORE CALLVALUE DUP1 ISZERO PUSH1 0xE JUMPI PUSH0 PUSH0 REVERT JUMPDEST POP PUSH2 0xC6D DUP1 PUSH2 0x1C PUSH0 CODECOPY PUSH0 RETURN INVALID PUSH1 0x80 PUSH1 0x40 MSTORE CALLVALUE DUP1 ISZERO PUSH2 0xF JUMPI PUSH0 PUSH0 REVERT JUMPDEST POP PUSH1 0x4 CALLDATASIZE LT PUSH2 0x34 JUMPI PUSH0 CALLDATALOAD PUSH1 0xE0 SHR DUP1 PUSH4 0xB897E7B0 EQ PUSH2 0x38 JUMPI DUP1 PUSH4 0xCCF11A02 EQ PUSH2 0x6A JUMPI JUMPDEST PUSH0 PUSH0 REVERT JUMPDEST PUSH2 0x52 PUSH1 0x4 DUP1 CALLDATASIZE SUB DUP2 ADD SWAP1 PUSH2 0x4D SWAP2 SWAP1 PUSH2 0x553 JUMP JUMPDEST PUSH2 0x86 JUMP JUMPDEST PUSH1 0x40 MLOAD PUSH2 0x61 SWAP4 SWAP3 SWAP2 SWAP1 PUSH2 0x64E JUMP JUMPDEST PUSH1 0x40 MLOAD DUP1 SWAP2 SUB SWAP1 RETURN JUMPDEST PUSH2 0x84 PUSH1 0x4 DUP1 CALLDATASIZE SUB DUP2 ADD SWAP1 PUSH2 0x7F SWAP2 SWAP1 PUSH2 0x6B4 JUMP JUMPDEST PUSH2 0x20F JUMP JUMPDEST STOP JUMPDEST PUSH0 PUSH1 0x60 PUSH0 PUSH0 PUSH0 DUP6 PUSH1 0x40 MLOAD PUSH2 0x9A SWAP2 SWAP1 PUSH2 0x748 JUMP JUMPDEST SWAP1 DUP2 MSTORE PUSH1 0x20 ADD PUSH1 0x40 MLOAD DUP1 SWAP2 SUB SWAP1 KECCAK256 PUSH1 0x40 MLOAD DUP1 PUSH1 0x60 ADD PUSH1 0x40 MSTORE SWAP1 DUP2 PUSH0 DUP3 ADD PUSH0 SWAP1 SLOAD SWAP1 PUSH2 0x100 EXP SWAP1 DIV PUSH1 0x88 SHL PUSH17 0xFFFFFFFFFFFFFFFFFFFFFFFFFFFFFFFFFF NOT AND PUSH17 0xFFFFFFFFFFFFFFFFFFFFFFFFFFFFFFFFFF NOT AND DUP2 MSTORE PUSH1 0x20 ADD PUSH1 0x1 DUP3 ADD DUP1 SLOAD PUSH2 0x100 SWAP1 PUSH2 0x78B JUMP JUMPDEST DUP1 PUSH1 0x1F ADD PUSH1 0x20 DUP1 SWAP2 DIV MUL PUSH1 0x20 ADD PUSH1 0x40 MLOAD SWAP1 DUP2 ADD PUSH1 0x40 MSTORE DUP1 SWAP3 SWAP2 SWAP1 DUP2 DUP2 MSTORE PUSH1 0x20 ADD DUP3 DUP1 SLOAD PUSH2 0x12C SWAP1 PUSH2 0x78B JUMP JUMPDEST DUP1 ISZERO PUSH2 0x177 JUMPI DUP1 PUSH1 0x1F LT PUSH2 0x14E JUMPI PUSH2 0x100 DUP1 DUP4 SLOAD DIV MUL DUP4 MSTORE SWAP2 PUSH1 0x20 ADD SWAP2 PUSH2 0x177 JUMP JUMPDEST DUP3 ADD SWAP2 SWAP1 PUSH0 MSTORE PUSH1 0x20 PUSH0 KECCAK256 SWAP1 JUMPDEST DUP2 SLOAD DUP2 MSTORE SWAP1 PUSH1 0x1 ADD SWAP1 PUSH1 0x20 ADD DUP1 DUP4 GT PUSH2 0x15A JUMPI DUP3 SWAP1 SUB PUSH1 0x1F AND DUP3 ADD SWAP2 JUMPDEST POP POP POP POP POP DUP2 MSTORE PUSH1 0x20 ADD PUSH1 0x2 DUP3 ADD PUSH0 SWAP1 SLOAD SWAP1 PUSH2 0x100 EXP SWAP1 DIV PUSH1 0xFF AND ISZERO ISZERO ISZERO ISZERO DUP2 MSTORE POP POP SWAP1 POP PUSH0 PUSH1 0x88 SHL PUSH17 0xFFFFFFFFFFFFFFFFFFFFFFFFFFFFFFFFFF NOT AND DUP2 PUSH0 ADD MLOAD PUSH17 0xFFFFFFFFFFFFFFFFFFFFFFFFFFFFFFFFFF NOT AND SUB PUSH2 0x1F2 JUMPI PUSH0 PUSH1 0x88 SHL PUSH0 PUSH1 0x40 MLOAD DUP1 PUSH1 0x20 ADD PUSH1 0x40 MSTORE DUP1 PUSH0 DUP2 MSTORE POP SWAP1 SWAP4 POP SWAP4 POP SWAP4 POP POP PUSH2 0x208 JUMP JUMPDEST DUP1 PUSH0 ADD MLOAD DUP2 PUSH1 0x20 ADD MLOAD DUP3 PUSH1 0x40 ADD MLOAD SWAP4 POP SWAP4 POP SWAP4 POP POP JUMPDEST SWAP2 SWAP4 SWAP1 SWAP3 POP JUMP JUMPDEST PUSH0 DUP3 MLOAD GT PUSH2 0x252 JUMPI PUSH1 0x40 MLOAD PUSH32 0x8C379A000000000000000000000000000000000000000000000000000000000 DUP2 MSTORE PUSH1 0x4 ADD PUSH2 0x249 SWAP1 PUSH2 0x805 JUMP JUMPDEST PUSH1 0x40 MLOAD DUP1 SWAP2 SUB SWAP1 REVERT JUMPDEST PUSH0 PUSH1 0x88 SHL PUSH17 0xFFFFFFFFFFFFFFFFFFFFFFFFFFFFFFFFFF NOT AND PUSH0 DUP4 PUSH1 0x40 MLOAD PUSH2 0x279 SWAP2 SWAP1 PUSH2 0x748 JUMP JUMPDEST SWAP1 DUP2 MSTORE PUSH1 0x20 ADD PUSH1 0x40 MLOAD DUP1 SWAP2 SUB SWAP1 KECCAK256 PUSH0 ADD PUSH0 SWAP1 SLOAD SWAP1 PUSH2 0x100 EXP SWAP1 DIV PUSH1 0x88 SHL PUSH17 0xFFFFFFFFFFFFFFFFFFFFFFFFFFFFFFFFFF NOT AND EQ PUSH2 0x2EA JUMPI PUSH1 0x40 MLOAD PUSH32 0x8C379A000000000000000000000000000000000000000000000000000000000 DUP2 MSTORE PUSH1 0x4 ADD PUSH2 0x2E1 SWAP1 PUSH2 0x86D JUMP JUMPDEST PUSH1 0x40 MLOAD DUP1 SWAP2 SUB SWAP1 REVERT JUMPDEST PUSH0 PUSH2 0x2F3 PUSH2 0x3B1 JUMP JUMPDEST SWAP1 POP PUSH0 PUSH1 0x40 MLOAD DUP1 PUSH1 0x60 ADD PUSH1 0x40 MSTORE DUP1 DUP4 PUSH17 0xFFFFFFFFFFFFFFFFFFFFFFFFFFFFFFFFFF NOT AND DUP2 MSTORE PUSH1 0x20 ADD DUP6 DUP2 MSTORE PUSH1 0x20 ADD DUP5 ISZERO ISZERO DUP2 MSTORE POP SWAP1 POP DUP1 PUSH0 DUP6 PUSH1 0x40 MLOAD PUSH2 0x339 SWAP2 SWAP1 PUSH2 0x748 JUMP JUMPDEST SWAP1 DUP2 MSTORE PUSH1 0x20 ADD PUSH1 0x40 MLOAD DUP1 SWAP2 SUB SWAP1 KECCAK256 PUSH0 DUP3 ADD MLOAD DUP2 PUSH0 ADD PUSH0 PUSH2 0x100 EXP DUP2 SLOAD DUP2 PUSH15 0xFFFFFFFFFFFFFFFFFFFFFFFFFFFFFF MUL NOT AND SWAP1 DUP4 PUSH1 0x88 SHR MUL OR SWAP1 SSTORE POP PUSH1 0x20 DUP3 ADD MLOAD DUP2 PUSH1 0x1 ADD SWAP1 DUP2 PUSH2 0x388 SWAP2 SWAP1 PUSH2 0xA34 JUMP JUMPDEST POP PUSH1 0x40 DUP3 ADD MLOAD DUP2 PUSH1 0x2 ADD PUSH0 PUSH2 0x100 EXP DUP2 SLOAD DUP2 PUSH1 0xFF MUL NOT AND SWAP1 DUP4 ISZERO ISZERO MUL OR SWAP1 SSTORE POP SWAP1 POP POP POP POP POP POP JUMP JUMPDEST PUSH0 PUSH1 0x1 PUSH0 DUP2 SLOAD DUP1 SWAP3 SWAP2 SWAP1 PUSH2 0x3C4 SWAP1 PUSH2 0xB30 JUMP JUMPDEST SWAP2 SWAP1 POP SSTORE POP PUSH0 PUSH1 0x1 SLOAD CALLER PUSH1 0x40 MLOAD PUSH1 0x20 ADD PUSH2 0x3DF SWAP3 SWAP2 SWAP1 PUSH2 0xC0C JUMP JUMPDEST PUSH1 0x40 MLOAD PUSH1 0x20 DUP2 DUP4 SUB SUB DUP2 MSTORE SWAP1 PUSH1 0x40 MSTORE DUP1 MLOAD SWAP1 PUSH1 0x20 ADD KECCAK256 SWAP1 POP PUSH0 DUP2 PUSH1 0x8 SHR SWAP1 POP DUP1 SWAP3 POP POP POP SWAP1 JUMP JUMPDEST PUSH0 PUSH1 0x40 MLOAD SWAP1 POP SWAP1 JUMP JUMPDEST PUSH0 PUSH0 REVERT JUMPDEST PUSH0 PUSH0 REVERT JUMPDEST PUSH0 PUSH0 REVERT JUMPDEST PUSH0 PUSH0 REVERT JUMPDEST PUSH0 PUSH1 0x1F NOT PUSH1 0x1F DUP4 ADD AND SWAP1 POP SWAP2 SWAP1 POP JUMP JUMPDEST PUSH32 0x4E487B7100000000000000000000000000000000000000000000000000000000 PUSH0 MSTORE PUSH1 0x41 PUSH1 0x4 MSTORE PUSH1 0x24 PUSH0 REVERT JUMPDEST PUSH2 0x465 DUP3 PUSH2 0x41F JUMP JUMPDEST DUP2 ADD DUP2 DUP2 LT PUSH8 0xFFFFFFFFFFFFFFFF DUP3 GT OR ISZERO PUSH2 0x484 JUMPI PUSH2 0x483 PUSH2 0x42F JUMP JUMPDEST JUMPDEST DUP1 PUSH1 0x40 MSTORE POP POP POP JUMP JUMPDEST PUSH0 PUSH2 0x496 PUSH2 0x406 JUMP JUMPDEST SWAP1 POP PUSH2 0x4A2 DUP3 DUP3 PUSH2 0x45C JUMP JUMPDEST SWAP2 SWAP1 POP JUMP JUMPDEST PUSH0 PUSH8 0xFFFFFFFFFFFFFFFF DUP3 GT ISZERO PUSH2 0x4C1 JUMPI PUSH2 0x4C0 PUSH2 0x42F JUMP JUMPDEST JUMPDEST PUSH2 0x4CA DUP3 PUSH2 0x41F JUMP JUMPDEST SWAP1 POP PUSH1 0x20 DUP2 ADD SWAP1 POP SWAP2 SWAP1 POP JUMP JUMPDEST DUP3 DUP2 DUP4 CALLDATACOPY PUSH0 DUP4 DUP4 ADD MSTORE POP POP POP JUMP JUMPDEST PUSH0 PUSH2 0x4F7 PUSH2 0x4F2 DUP5 PUSH2 0x4A7 JUMP JUMPDEST PUSH2 0x48D JUMP JUMPDEST SWAP1 POP DUP3 DUP2 MSTORE PUSH1 0x20 DUP2 ADD DUP5 DUP5 DUP5 ADD GT ISZERO PUSH2 0x513 JUMPI PUSH2 0x512 PUSH2 0x41B JUMP JUMPDEST JUMPDEST PUSH2 0x51E DUP5 DUP3 DUP6 PUSH2 0x4D7 JUMP JUMPDEST POP SWAP4 SWAP3 POP POP POP JUMP JUMPDEST PUSH0 DUP3 PUSH1 0x1F DUP4 ADD SLT PUSH2 0x53A JUMPI PUSH2 0x539 PUSH2 0x417 JUMP JUMPDEST JUMPDEST DUP2 CALLDATALOAD PUSH2 0x54A DUP5 DUP3 PUSH1 0x20 DUP7 ADD PUSH2 0x4E5 JUMP JUMPDEST SWAP2 POP POP SWAP3 SWAP2 POP POP JUMP JUMPDEST PUSH0 PUSH1 0x20 DUP3 DUP5 SUB SLT ISZERO PUSH2 0x568 JUMPI PUSH2 0x567 PUSH2 0x40F JUMP JUMPDEST JUMPDEST PUSH0 DUP3 ADD CALLDATALOAD PUSH8 0xFFFFFFFFFFFFFFFF DUP2 GT ISZERO PUSH2 0x585 JUMPI PUSH2 0x584 PUSH2 0x413 JUMP JUMPDEST JUMPDEST PUSH2 0x591 DUP5 DUP3 DUP6 ADD PUSH2 0x526 JUMP JUMPDEST SWAP2 POP POP SWAP3 SWAP2 POP POP JUMP JUMPDEST PUSH0 PUSH32 0xFFFFFFFFFFFFFFFFFFFFFFFFFFFFFF0000000000000000000000000000000000 DUP3 AND SWAP1 POP SWAP2 SWAP1 POP JUMP JUMPDEST PUSH2 0x5CE DUP2 PUSH2 0x59A JUMP JUMPDEST DUP3 MSTORE POP POP JUMP JUMPDEST PUSH0 DUP2 MLOAD SWAP1 POP SWAP2 SWAP1 POP JUMP JUMPDEST PUSH0 DUP3 DUP3 MSTORE PUSH1 0x20 DUP3 ADD SWAP1 POP SWAP3 SWAP2 POP POP JUMP JUMPDEST DUP3 DUP2 DUP4 MCOPY PUSH0 DUP4 DUP4 ADD MSTORE POP POP POP JUMP JUMPDEST PUSH0 PUSH2 0x606 DUP3 PUSH2 0x5D4 JUMP JUMPDEST PUSH2 0x610 DUP2 DUP6 PUSH2 0x5DE JUMP JUMPDEST SWAP4 POP PUSH2 0x620 DUP2 DUP6 PUSH1 0x20 DUP7 ADD PUSH2 0x5EE JUMP JUMPDEST PUSH2 0x629 DUP2 PUSH2 0x41F JUMP JUMPDEST DUP5 ADD SWAP2 POP POP SWAP3 SWAP2 POP POP JUMP JUMPDEST PUSH0 DUP2 ISZERO ISZERO SWAP1 POP SWAP2 SWAP1 POP JUMP JUMPDEST PUSH2 0x648 DUP2 PUSH2 0x634 JUMP JUMPDEST DUP3 MSTORE POP POP JUMP JUMPDEST PUSH0 PUSH1 0x60 DUP3 ADD SWAP1 POP PUSH2 0x661 PUSH0 DUP4 ADD DUP7 PUSH2 0x5C5 JUMP JUMPDEST DUP2 DUP2 SUB PUSH1 0x20 DUP4 ADD MSTORE PUSH2 0x673 DUP2 DUP6 PUSH2 0x5FC JUMP JUMPDEST SWAP1 POP PUSH2 0x682 PUSH1 0x40 DUP4 ADD DUP5 PUSH2 0x63F JUMP JUMPDEST SWAP5 SWAP4 POP POP POP POP JUMP JUMPDEST PUSH2 0x693 DUP2 PUSH2 0x634 JUMP JUMPDEST DUP2 EQ PUSH2 0x69D JUMPI PUSH0 PUSH0 REVERT JUMPDEST POP JUMP JUMPDEST PUSH0 DUP2 CALLDATALOAD SWAP1 POP PUSH2 0x6AE DUP2 PUSH2 0x68A JUMP JUMPDEST SWAP3 SWAP2 POP POP JUMP JUMPDEST PUSH0 PUSH0 PUSH1 0x40 DUP4 DUP6 SUB SLT ISZERO PUSH2 0x6CA JUMPI PUSH2 0x6C9 PUSH2 0x40F JUMP JUMPDEST JUMPDEST PUSH0 DUP4 ADD CALLDATALOAD PUSH8 0xFFFFFFFFFFFFFFFF DUP2 GT ISZERO PUSH2 0x6E7 JUMPI PUSH2 0x6E6 PUSH2 0x413 JUMP JUMPDEST JUMPDEST PUSH2 0x6F3 DUP6 DUP3 DUP7 ADD PUSH2 0x526 JUMP JUMPDEST SWAP3 POP POP PUSH1 0x20 PUSH2 0x704 DUP6 DUP3 DUP7 ADD PUSH2 0x6A0 JUMP JUMPDEST SWAP2 POP POP SWAP3 POP SWAP3 SWAP1 POP JUMP JUMPDEST PUSH0 DUP2 SWAP1 POP SWAP3 SWAP2 POP POP JUMP JUMPDEST PUSH0 PUSH2 0x722 DUP3 PUSH2 0x5D4 JUMP JUMPDEST PUSH2 0x72C DUP2 DUP6 PUSH2 0x70E JUMP JUMPDEST SWAP4 POP PUSH2 0x73C DUP2 DUP6 PUSH1 0x20 DUP7 ADD PUSH2 0x5EE JUMP JUMPDEST DUP1 DUP5 ADD SWAP2 POP POP SWAP3 SWAP2 POP POP JUMP JUMPDEST PUSH0 PUSH2 0x753 DUP3 DUP5 PUSH2 0x718 JUMP JUMPDEST SWAP2 POP DUP2 SWAP1 POP SWAP3 SWAP2 POP POP JUMP JUMPDEST PUSH32 0x4E487B7100000000000000000000000000000000000000000000000000000000 PUSH0 MSTORE PUSH1 0x22 PUSH1 0x4 MSTORE PUSH1 0x24 PUSH0 REVERT JUMPDEST PUSH0 PUSH1 0x2 DUP3 DIV SWAP1 POP PUSH1 0x1 DUP3 AND DUP1 PUSH2 0x7A2 JUMPI PUSH1 0x7F DUP3 AND SWAP2 POP JUMPDEST PUSH1 0x20 DUP3 LT DUP2 SUB PUSH2 0x7B5 JUMPI PUSH2 0x7B4 PUSH2 0x75E JUMP JUMPDEST JUMPDEST POP SWAP2 SWAP1 POP JUMP JUMPDEST PUSH32 0x557365726E616D652063616E6E6F7420626520656D7074790000000000000000 PUSH0 DUP3 ADD MSTORE POP JUMP JUMPDEST PUSH0 PUSH2 0x7EF PUSH1 0x18 DUP4 PUSH2 0x5DE JUMP JUMPDEST SWAP2 POP PUSH2 0x7FA DUP3 PUSH2 0x7BB JUMP JUMPDEST PUSH1 0x20 DUP3 ADD SWAP1 POP SWAP2 SWAP1 POP JUMP JUMPDEST PUSH0 PUSH1 0x20 DUP3 ADD SWAP1 POP DUP2 DUP2 SUB PUSH0 DUP4 ADD MSTORE PUSH2 0x81C DUP2 PUSH2 0x7E3 JUMP JUMPDEST SWAP1 POP SWAP2 SWAP1 POP JUMP JUMPDEST PUSH32 0x557365726E616D6520616C726561647920657869737473000000000000000000 PUSH0 DUP3 ADD MSTORE POP JUMP JUMPDEST PUSH0 PUSH2 0x857 PUSH1 0x17 DUP4 PUSH2 0x5DE JUMP JUMPDEST SWAP2 POP PUSH2 0x862 DUP3 PUSH2 0x823 JUMP JUMPDEST PUSH1 0x20 DUP3 ADD SWAP1 POP SWAP2 SWAP1 POP JUMP JUMPDEST PUSH0 PUSH1 0x20 DUP3 ADD SWAP1 POP DUP2 DUP2 SUB PUSH0 DUP4 ADD MSTORE PUSH2 0x884 DUP2 PUSH2 0x84B JUMP JUMPDEST SWAP1 POP SWAP2 SWAP1 POP JUMP JUMPDEST PUSH0 DUP2 SWAP1 POP DUP2 PUSH0 MSTORE PUSH1 0x20 PUSH0 KECCAK256 SWAP1 POP SWAP2 SWAP1 POP JUMP JUMPDEST PUSH0 PUSH1 0x20 PUSH1 0x1F DUP4 ADD DIV SWAP1 POP SWAP2 SWAP1 POP JUMP JUMPDEST PUSH0 DUP3 DUP3 SHL SWAP1 POP SWAP3 SWAP2 POP POP JUMP JUMPDEST PUSH0 PUSH1 0x8 DUP4 MUL PUSH2 0x8E7 PUSH32 0xFFFFFFFFFFFFFFFFFFFFFFFFFFFFFFFFFFFFFFFFFFFFFFFFFFFFFFFFFFFFFFFF DUP3 PUSH2 0x8AC JUMP JUMPDEST PUSH2 0x8F1 DUP7 DUP4 PUSH2 0x8AC JUMP JUMPDEST SWAP6 POP DUP1 NOT DUP5 AND SWAP4 POP DUP1 DUP7 AND DUP5 OR SWAP3 POP POP POP SWAP4 SWAP3 POP POP POP JUMP JUMPDEST PUSH0 DUP2 SWAP1 POP SWAP2 SWAP1 POP JUMP JUMPDEST PUSH0 DUP2 SWAP1 POP SWAP2 SWAP1 POP JUMP JUMPDEST PUSH0 PUSH2 0x935 PUSH2 0x930 PUSH2 0x92B DUP5 PUSH2 0x909 JUMP JUMPDEST PUSH2 0x912 JUMP JUMPDEST PUSH2 0x909 JUMP JUMPDEST SWAP1 POP SWAP2 SWAP1 POP JUMP JUMPDEST PUSH0 DUP2 SWAP1 POP SWAP2 SWAP1 POP JUMP JUMPDEST PUSH2 0x94E DUP4 PUSH2 0x91B JUMP JUMPDEST PUSH2 0x962 PUSH2 0x95A DUP3 PUSH2 0x93C JUMP JUMPDEST DUP5 DUP5 SLOAD PUSH2 0x8B8 JUMP JUMPDEST DUP3 SSTORE POP POP POP POP JUMP JUMPDEST PUSH0 PUSH0 SWAP1 POP SWAP1 JUMP JUMPDEST PUSH2 0x979 PUSH2 0x96A JUMP JUMPDEST PUSH2 0x984 DUP2 DUP5 DUP5 PUSH2 0x945 JUMP JUMPDEST POP POP POP JUMP JUMPDEST JUMPDEST DUP2 DUP2 LT ISZERO PUSH2 0x9A7 JUMPI PUSH2 0x99C PUSH0 DUP3 PUSH2 0x971 JUMP JUMPDEST PUSH1 0x1 DUP2 ADD SWAP1 POP PUSH2 0x98A JUMP JUMPDEST POP POP JUMP JUMPDEST PUSH1 0x1F DUP3 GT ISZERO PUSH2 0x9EC JUMPI PUSH2 0x9BD DUP2 PUSH2 0x88B JUMP JUMPDEST PUSH2 0x9C6 DUP5 PUSH2 0x89D JUMP JUMPDEST DUP2 ADD PUSH1 0x20 DUP6 LT ISZERO PUSH2 0x9D5 JUMPI DUP2 SWAP1 POP JUMPDEST PUSH2 0x9E9 PUSH2 0x9E1 DUP6 PUSH2 0x89D JUMP JUMPDEST DUP4 ADD DUP3 PUSH2 0x989 JUMP JUMPDEST POP POP JUMPDEST POP POP POP JUMP JUMPDEST PUSH0 DUP3 DUP3 SHR SWAP1 POP SWAP3 SWAP2 POP POP JUMP JUMPDEST PUSH0 PUSH2 0xA0C PUSH0 NOT DUP5 PUSH1 0x8 MUL PUSH2 0x9F1 JUMP JUMPDEST NOT DUP1 DUP4 AND SWAP2 POP POP SWAP3 SWAP2 POP POP JUMP JUMPDEST PUSH0 PUSH2 0xA24 DUP4 DUP4 PUSH2 0x9FD JUMP JUMPDEST SWAP2 POP DUP3 PUSH1 0x2 MUL DUP3 OR SWAP1 POP SWAP3 SWAP2 POP POP JUMP JUMPDEST PUSH2 0xA3D DUP3 PUSH2 0x5D4 JUMP JUMPDEST PUSH8 0xFFFFFFFFFFFFFFFF DUP2 GT ISZERO PUSH2 0xA56 JUMPI PUSH2 0xA55 PUSH2 0x42F JUMP JUMPDEST JUMPDEST PUSH2 0xA60 DUP3 SLOAD PUSH2 0x78B JUMP JUMPDEST PUSH2 0xA6B DUP3 DUP3 DUP6 PUSH2 0x9AB JUMP JUMPDEST PUSH0 PUSH1 0x20 SWAP1 POP PUSH1 0x1F DUP4 GT PUSH1 0x1 DUP2 EQ PUSH2 0xA9C JUMPI PUSH0 DUP5 ISZERO PUSH2 0xA8A JUMPI DUP3 DUP8 ADD MLOAD SWAP1 POP JUMPDEST PUSH2 0xA94 DUP6 DUP3 PUSH2 0xA19 JUMP JUMPDEST DUP7 SSTORE POP PUSH2 0xAFB JUMP JUMPDEST PUSH1 0x1F NOT DUP5 AND PUSH2 0xAAA DUP7 PUSH2 0x88B JUMP JUMPDEST PUSH0 JUMPDEST DUP3 DUP2 LT ISZERO PUSH2 0xAD1 JUMPI DUP5 DUP10 ADD MLOAD DUP3 SSTORE PUSH1 0x1 DUP3 ADD SWAP2 POP PUSH1 0x20 DUP6 ADD SWAP5 POP PUSH1 0x20 DUP2 ADD SWAP1 POP PUSH2 0xAAC JUMP JUMPDEST DUP7 DUP4 LT ISZERO PUSH2 0xAEE JUMPI DUP5 DUP10 ADD MLOAD PUSH2 0xAEA PUSH1 0x1F DUP10 AND DUP3 PUSH2 0x9FD JUMP JUMPDEST DUP4 SSTORE POP JUMPDEST PUSH1 0x1 PUSH1 0x2 DUP9 MUL ADD DUP9 SSTORE POP POP POP JUMPDEST POP POP POP POP POP POP JUMP JUMPDEST PUSH32 0x4E487B7100000000000000000000000000000000000000000000000000000000 PUSH0 MSTORE PUSH1 0x11 PUSH1 0x4 MSTORE PUSH1 0x24 PUSH0 REVERT JUMPDEST PUSH0 PUSH2 0xB3A DUP3 PUSH2 0x909 JUMP JUMPDEST SWAP2 POP PUSH32 0xFFFFFFFFFFFFFFFFFFFFFFFFFFFFFFFFFFFFFFFFFFFFFFFFFFFFFFFFFFFFFFFF DUP3 SUB PUSH2 0xB6C JUMPI PUSH2 0xB6B PUSH2 0xB03 JUMP JUMPDEST JUMPDEST PUSH1 0x1 DUP3 ADD SWAP1 POP SWAP2 SWAP1 POP JUMP JUMPDEST PUSH0 DUP2 SWAP1 POP SWAP2 SWAP1 POP JUMP JUMPDEST PUSH2 0xB91 PUSH2 0xB8C DUP3 PUSH2 0x909 JUMP JUMPDEST PUSH2 0xB77 JUMP JUMPDEST DUP3 MSTORE POP POP JUMP JUMPDEST PUSH0 PUSH20 0xFFFFFFFFFFFFFFFFFFFFFFFFFFFFFFFFFFFFFFFF DUP3 AND SWAP1 POP SWAP2 SWAP1 POP JUMP JUMPDEST PUSH0 PUSH2 0xBC0 DUP3 PUSH2 0xB97 JUMP JUMPDEST SWAP1 POP SWAP2 SWAP1 POP JUMP JUMPDEST PUSH0 DUP2 PUSH1 0x60 SHL SWAP1 POP SWAP2 SWAP1 POP JUMP JUMPDEST PUSH0 PUSH2 0xBDD DUP3 PUSH2 0xBC7 JUMP JUMPDEST SWAP1 POP SWAP2 SWAP1 POP JUMP JUMPDEST PUSH0 PUSH2 0xBEE DUP3 PUSH2 0xBD3 JUMP JUMPDEST SWAP1 POP SWAP2 SWAP1 POP JUMP JUMPDEST PUSH2 0xC06 PUSH2 0xC01 DUP3 PUSH2 0xBB6 JUMP JUMPDEST PUSH2 0xBE4 JUMP JUMPDEST DUP3 MSTORE POP POP JUMP JUMPDEST PUSH0 PUSH2 0xC17 DUP3 DUP6 PUSH2 0xB80 JUMP JUMPDEST PUSH1 0x20 DUP3 ADD SWAP2 POP PUSH2 0xC27 DUP3 DUP5 PUSH2 0xBF5 JUMP JUMPDEST PUSH1 0x14 DUP3 ADD SWAP2 POP DUP2 SWAP1 POP SWAP4 SWAP3 POP POP POP JUMP INVALID LOG2 PUSH5 0x6970667358 0x22 SLT KECCAK256 DUP16 BALANCE ADDRESS SWAP15 0xA9 TSTORE 0xF6 BALANCE 0xB2 0x28 SWAP5 COINBASE 0x2D TLOAD 0x21 0x2B SGT EXTCODEHASH SIGNEXTEND DUP12 INVALID SWAP1 0xD9 PUSH0 EXTCODESIZE BALANCE DUP11 0xDD ADD 0xBD 0x28 TIMESTAMP PUSH5 0x736F6C6343 STOP ADDMOD 0x1E STOP CALLER "
				},
				"gasEstimates": {
					"creation": {
						"codeDepositCost": "636200",
						"executionCost": "668",
						"totalCost": "636868"
					},
					"external": {
						"addDonor(string,bool)": "infinite",
						"getDonorDetails(string)": "infinite"
					},
					"internal": {
						"donorIdGenerator()": "infinite"
					}
				},
				"methodIdentifiers": {
					"addDonor(string,bool)": "ccf11a02",
					"getDonorDetails(string)": "b897e7b0"
				}
			},
			"storageLayout": {
				"storage": [
					{
						"astId": 13,
						"contract": "contracts/DonorManager.sol:DonorManager",
						"label": "donorsByName",
						"offset": 0,
						"slot": "0",
						"type": "t_mapping(t_string_memory_ptr,t_struct(Donor)8_storage)"
					},
					{
						"astId": 15,
						"contract": "contracts/DonorManager.sol:DonorManager",
						"label": "idCounter",
						"offset": 0,
						"slot": "1",
						"type": "t_uint256"
					}
				],
				"types": {
					"t_bool": {
						"encoding": "inplace",
						"label": "bool",
						"numberOfBytes": "1"
					},
					"t_bytes15": {
						"encoding": "inplace",
						"label": "bytes15",
						"numberOfBytes": "15"
					},
					"t_mapping(t_string_memory_ptr,t_struct(Donor)8_storage)": {
						"encoding": "mapping",
						"key": "t_string_memory_ptr",
						"label": "mapping(string => struct DonorManager.Donor)",
						"numberOfBytes": "32",
						"value": "t_struct(Donor)8_storage"
					},
					"t_string_memory_ptr": {
						"encoding": "bytes",
						"label": "string",
						"numberOfBytes": "32"
					},
					"t_string_storage": {
						"encoding": "bytes",
						"label": "string",
						"numberOfBytes": "32"
					},
					"t_struct(Donor)8_storage": {
						"encoding": "inplace",
						"label": "struct DonorManager.Donor",
						"members": [
							{
								"astId": 3,
								"contract": "contracts/DonorManager.sol:DonorManager",
								"label": "donorId",
								"offset": 0,
								"slot": "0",
								"type": "t_bytes15"
							},
							{
								"astId": 5,
								"contract": "contracts/DonorManager.sol:DonorManager",
								"label": "donorUserName",
								"offset": 0,
								"slot": "1",
								"type": "t_string_storage"
							},
							{
								"astId": 7,
								"contract": "contracts/DonorManager.sol:DonorManager",
								"label": "isVerified",
								"offset": 0,
								"slot": "2",
								"type": "t_bool"
							}
						],
						"numberOfBytes": "96"
					},
					"t_uint256": {
						"encoding": "inplace",
						"label": "uint256",
						"numberOfBytes": "32"
					}
				}
			},
			"userdoc": {
				"kind": "user",
				"methods": {},
				"version": 1
			}
		}
	}
}