{
	"contracts/NgoManager.sol": {
		"NgoManager": {
			"abi": [
				{
					"anonymous": false,
					"inputs": [
						{
							"indexed": true,
							"internalType": "bytes32",
							"name": "ngoId",
							"type": "bytes32"
						},
						{
							"indexed": false,
							"internalType": "string",
							"name": "NgoName",
							"type": "string"
						},
						{
							"indexed": false,
							"internalType": "uint256",
							"name": "regNo",
							"type": "uint256"
						},
						{
							"indexed": false,
							"internalType": "string",
							"name": "website",
							"type": "string"
						},
						{
							"indexed": false,
							"internalType": "string",
							"name": "contactPerson",
							"type": "string"
						},
						{
							"indexed": false,
							"internalType": "string",
							"name": "contactEmail",
							"type": "string"
						}
					],
					"name": "NgoRegistered",
					"type": "event"
				},
				{
					"inputs": [
						{
							"internalType": "string",
							"name": "_email",
							"type": "string"
						}
					],
					"name": "findNgoByEmail",
					"outputs": [
						{
							"internalType": "bool",
							"name": "found",
							"type": "bool"
						},
						{
							"components": [
								{
									"internalType": "bytes32",
									"name": "Ngo_id",
									"type": "bytes32"
								},
								{
									"internalType": "string",
									"name": "NgoName",
									"type": "string"
								},
								{
									"internalType": "uint256",
									"name": "regNo",
									"type": "uint256"
								},
								{
									"internalType": "string",
									"name": "website",
									"type": "string"
								},
								{
									"internalType": "string",
									"name": "contactPerson",
									"type": "string"
								},
								{
									"internalType": "string",
									"name": "contactEmail",
									"type": "string"
								}
							],
							"internalType": "struct NgoManager.NGO",
							"name": "ngo",
							"type": "tuple"
						}
					],
					"stateMutability": "view",
					"type": "function"
				},
				{
					"inputs": [
						{
							"internalType": "bytes32",
							"name": "_ngoId",
							"type": "bytes32"
						}
					],
					"name": "getNgoById",
					"outputs": [
						{
							"components": [
								{
									"internalType": "bytes32",
									"name": "Ngo_id",
									"type": "bytes32"
								},
								{
									"internalType": "string",
									"name": "NgoName",
									"type": "string"
								},
								{
									"internalType": "uint256",
									"name": "regNo",
									"type": "uint256"
								},
								{
									"internalType": "string",
									"name": "website",
									"type": "string"
								},
								{
									"internalType": "string",
									"name": "contactPerson",
									"type": "string"
								},
								{
									"internalType": "string",
									"name": "contactEmail",
									"type": "string"
								}
							],
							"internalType": "struct NgoManager.NGO",
							"name": "",
							"type": "tuple"
						}
					],
					"stateMutability": "view",
					"type": "function"
				},
				{
					"inputs": [
						{
							"internalType": "string",
							"name": "_ngoName",
							"type": "string"
						},
						{
							"internalType": "uint256",
							"name": "_regNo",
							"type": "uint256"
						},
						{
							"internalType": "string",
							"name": "_website",
							"type": "string"
						},
						{
							"internalType": "string",
							"name": "_contactPerson",
							"type": "string"
						},
						{
							"internalType": "string",
							"name": "_contactEmail",
							"type": "string"
						}
					],
					"name": "registerNgo",
					"outputs": [],
					"stateMutability": "nonpayable",
					"type": "function"
				}
			],
			"devdoc": {
				"kind": "dev",
				"methods": {},
				"version": 1
			},
			"evm": {
				"assembly": "    /* \"contracts/NgoManager.sol\":72:2479  contract NgoManager {... */\n  mstore(0x40, 0x80)\n  callvalue\n  dup1\n  iszero\n  tag_1\n  jumpi\n  0x00\n  dup1\n  revert\ntag_1:\n  pop\n  dataSize(sub_0)\n  dup1\n  dataOffset(sub_0)\n  0x00\n  codecopy\n  0x00\n  return\nstop\n\nsub_0: assembly {\n        /* \"contracts/NgoManager.sol\":72:2479  contract NgoManager {... */\n      mstore(0x40, 0x80)\n      callvalue\n      dup1\n      iszero\n      tag_1\n      jumpi\n      0x00\n      dup1\n      revert\n    tag_1:\n      pop\n      jumpi(tag_2, lt(calldatasize, 0x04))\n      shr(0xe0, calldataload(0x00))\n      dup1\n      0x3cb203c8\n      eq\n      tag_3\n      jumpi\n      dup1\n      0x67b0ca96\n      eq\n      tag_4\n      jumpi\n      dup1\n      0x978de799\n      eq\n      tag_5\n      jumpi\n    tag_2:\n      0x00\n      dup1\n      revert\n        /* \"contracts/NgoManager.sol\":2006:2476  function findNgoByEmail(string memory _email) public view returns (bool found, NGO memory ngo) {... */\n    tag_3:\n      tag_6\n      0x04\n      dup1\n      calldatasize\n      sub\n      dup2\n      add\n      swap1\n      tag_7\n      swap2\n      swap1\n      tag_8\n      jump\t// in\n    tag_7:\n      tag_9\n      jump\t// in\n    tag_6:\n      mload(0x40)\n      tag_10\n      swap3\n      swap2\n      swap1\n      tag_11\n      jump\t// in\n    tag_10:\n      mload(0x40)\n      dup1\n      swap2\n      sub\n      swap1\n      return\n        /* \"contracts/NgoManager.sol\":728:1728  function registerNgo(... */\n    tag_4:\n      tag_12\n      0x04\n      dup1\n      calldatasize\n      sub\n      dup2\n      add\n      swap1\n      tag_13\n      swap2\n      swap1\n      tag_14\n      jump\t// in\n    tag_13:\n      tag_15\n      jump\t// in\n    tag_12:\n      stop\n        /* \"contracts/NgoManager.sol\":1778:1956  function getNgoById(bytes32 _ngoId) public view returns (NGO memory) {... */\n    tag_5:\n      tag_16\n      0x04\n      dup1\n      calldatasize\n      sub\n      dup2\n      add\n      swap1\n      tag_17\n      swap2\n      swap1\n      tag_18\n      jump\t// in\n    tag_17:\n      tag_19\n      jump\t// in\n    tag_16:\n      mload(0x40)\n      tag_20\n      swap2\n      swap1\n      tag_21\n      jump\t// in\n    tag_20:\n      mload(0x40)\n      dup1\n      swap2\n      sub\n      swap1\n      return\n        /* \"contracts/NgoManager.sol\":2006:2476  function findNgoByEmail(string memory _email) public view returns (bool found, NGO memory ngo) {... */\n    tag_9:\n        /* \"contracts/NgoManager.sol\":2073:2083  bool found */\n      0x00\n        /* \"contracts/NgoManager.sol\":2085:2099  NGO memory ngo */\n      tag_22\n      tag_23\n      jump\t// in\n    tag_22:\n        /* \"contracts/NgoManager.sol\":2112:2125  bytes32 ngoId */\n      0x00\n        /* \"contracts/NgoManager.sol\":2128:2140  ngoIdByEmail */\n      0x01\n        /* \"contracts/NgoManager.sol\":2141:2147  _email */\n      dup5\n        /* \"contracts/NgoManager.sol\":2128:2148  ngoIdByEmail[_email] */\n      mload(0x40)\n      tag_25\n      swap2\n      swap1\n      tag_26\n      jump\t// in\n    tag_25:\n      swap1\n      dup2\n      mstore\n      0x20\n      add\n      mload(0x40)\n      dup1\n      swap2\n      sub\n      swap1\n      keccak256\n      sload\n        /* \"contracts/NgoManager.sol\":2112:2148  bytes32 ngoId = ngoIdByEmail[_email] */\n      swap1\n      pop\n        /* \"contracts/NgoManager.sol\":2172:2175  0x0 */\n      0x00\n        /* \"contracts/NgoManager.sol\":2163:2175  ngoId == 0x0 */\n      dup1\n      shl\n        /* \"contracts/NgoManager.sol\":2163:2168  ngoId */\n      dup2\n        /* \"contracts/NgoManager.sol\":2163:2175  ngoId == 0x0 */\n      sub\n        /* \"contracts/NgoManager.sol\":2159:2428  if (ngoId == 0x0) {... */\n      tag_27\n      jumpi\n        /* \"contracts/NgoManager.sol\":2200:2205  false */\n      0x00\n        /* \"contracts/NgoManager.sol\":2207:2415  NGO({... */\n      mload(0x40)\n      dup1\n      0xc0\n      add\n      0x40\n      mstore\n      dup1\n        /* \"contracts/NgoManager.sol\":2238:2241  0x0 */\n      0x00\n        /* \"contracts/NgoManager.sol\":2207:2415  NGO({... */\n      dup1\n      shl\n      dup2\n      mstore\n      0x20\n      add\n      mload(0x40)\n      dup1\n      0x20\n      add\n      0x40\n      mstore\n      dup1\n      0x00\n      dup2\n      mstore\n      pop\n      dup2\n      mstore\n      0x20\n      add\n        /* \"contracts/NgoManager.sol\":2297:2298  0 */\n      0x00\n        /* \"contracts/NgoManager.sol\":2207:2415  NGO({... */\n      dup2\n      mstore\n      0x20\n      add\n      mload(0x40)\n      dup1\n      0x20\n      add\n      0x40\n      mstore\n      dup1\n      0x00\n      dup2\n      mstore\n      pop\n      dup2\n      mstore\n      0x20\n      add\n      mload(0x40)\n      dup1\n      0x20\n      add\n      0x40\n      mstore\n      dup1\n      0x00\n      dup2\n      mstore\n      pop\n      dup2\n      mstore\n      0x20\n      add\n      mload(0x40)\n      dup1\n      0x20\n      add\n      0x40\n      mstore\n      dup1\n      0x00\n      dup2\n      mstore\n      pop\n      dup2\n      mstore\n      pop\n        /* \"contracts/NgoManager.sol\":2192:2416  return (false, NGO({... */\n      swap3\n      pop\n      swap3\n      pop\n      pop\n      jump(tag_24)\n        /* \"contracts/NgoManager.sol\":2159:2428  if (ngoId == 0x0) {... */\n    tag_27:\n        /* \"contracts/NgoManager.sol\":2446:2450  true */\n      0x01\n        /* \"contracts/NgoManager.sol\":2452:2460  ngosById */\n      0x00\n        /* \"contracts/NgoManager.sol\":2452:2467  ngosById[ngoId] */\n      dup1\n        /* \"contracts/NgoManager.sol\":2461:2466  ngoId */\n      dup4\n        /* \"contracts/NgoManager.sol\":2452:2467  ngosById[ngoId] */\n      dup2\n      mstore\n      0x20\n      add\n      swap1\n      dup2\n      mstore\n      0x20\n      add\n      0x00\n      keccak256\n        /* \"contracts/NgoManager.sol\":2438:2468  return (true, ngosById[ngoId]) */\n      dup1\n      mload(0x40)\n      dup1\n      0xc0\n      add\n      0x40\n      mstore\n      swap1\n      dup2\n      0x00\n      dup3\n      add\n      sload\n      dup2\n      mstore\n      0x20\n      add\n      0x01\n      dup3\n      add\n      dup1\n      sload\n      tag_28\n      swap1\n      tag_29\n      jump\t// in\n    tag_28:\n      dup1\n      0x1f\n      add\n      0x20\n      dup1\n      swap2\n      div\n      mul\n      0x20\n      add\n      mload(0x40)\n      swap1\n      dup2\n      add\n      0x40\n      mstore\n      dup1\n      swap3\n      swap2\n      swap1\n      dup2\n      dup2\n      mstore\n      0x20\n      add\n      dup3\n      dup1\n      sload\n      tag_30\n      swap1\n      tag_29\n      jump\t// in\n    tag_30:\n      dup1\n      iszero\n      tag_31\n      jumpi\n      dup1\n      0x1f\n      lt\n      tag_32\n      jumpi\n      0x0100\n      dup1\n      dup4\n      sload\n      div\n      mul\n      dup4\n      mstore\n      swap2\n      0x20\n      add\n      swap2\n      jump(tag_31)\n    tag_32:\n      dup3\n      add\n      swap2\n      swap1\n      0x00\n      mstore\n      keccak256(0x00, 0x20)\n      swap1\n    tag_33:\n      dup2\n      sload\n      dup2\n      mstore\n      swap1\n      0x01\n      add\n      swap1\n      0x20\n      add\n      dup1\n      dup4\n      gt\n      tag_33\n      jumpi\n      dup3\n      swap1\n      sub\n      0x1f\n      and\n      dup3\n      add\n      swap2\n    tag_31:\n      pop\n      pop\n      pop\n      pop\n      pop\n      dup2\n      mstore\n      0x20\n      add\n      0x02\n      dup3\n      add\n      sload\n      dup2\n      mstore\n      0x20\n      add\n      0x03\n      dup3\n      add\n      dup1\n      sload\n      tag_34\n      swap1\n      tag_29\n      jump\t// in\n    tag_34:\n      dup1\n      0x1f\n      add\n      0x20\n      dup1\n      swap2\n      div\n      mul\n      0x20\n      add\n      mload(0x40)\n      swap1\n      dup2\n      add\n      0x40\n      mstore\n      dup1\n      swap3\n      swap2\n      swap1\n      dup2\n      dup2\n      mstore\n      0x20\n      add\n      dup3\n      dup1\n      sload\n      tag_35\n      swap1\n      tag_29\n      jump\t// in\n    tag_35:\n      dup1\n      iszero\n      tag_36\n      jumpi\n      dup1\n      0x1f\n      lt\n      tag_37\n      jumpi\n      0x0100\n      dup1\n      dup4\n      sload\n      div\n      mul\n      dup4\n      mstore\n      swap2\n      0x20\n      add\n      swap2\n      jump(tag_36)\n    tag_37:\n      dup3\n      add\n      swap2\n      swap1\n      0x00\n      mstore\n      keccak256(0x00, 0x20)\n      swap1\n    tag_38:\n      dup2\n      sload\n      dup2\n      mstore\n      swap1\n      0x01\n      add\n      swap1\n      0x20\n      add\n      dup1\n      dup4\n      gt\n      tag_38\n      jumpi\n      dup3\n      swap1\n      sub\n      0x1f\n      and\n      dup3\n      add\n      swap2\n    tag_36:\n      pop\n      pop\n      pop\n      pop\n      pop\n      dup2\n      mstore\n      0x20\n      add\n      0x04\n      dup3\n      add\n      dup1\n      sload\n      tag_39\n      swap1\n      tag_29\n      jump\t// in\n    tag_39:\n      dup1\n      0x1f\n      add\n      0x20\n      dup1\n      swap2\n      div\n      mul\n      0x20\n      add\n      mload(0x40)\n      swap1\n      dup2\n      add\n      0x40\n      mstore\n      dup1\n      swap3\n      swap2\n      swap1\n      dup2\n      dup2\n      mstore\n      0x20\n      add\n      dup3\n      dup1\n      sload\n      tag_40\n      swap1\n      tag_29\n      jump\t// in\n    tag_40:\n      dup1\n      iszero\n      tag_41\n      jumpi\n      dup1\n      0x1f\n      lt\n      tag_42\n      jumpi\n      0x0100\n      dup1\n      dup4\n      sload\n      div\n      mul\n      dup4\n      mstore\n      swap2\n      0x20\n      add\n      swap2\n      jump(tag_41)\n    tag_42:\n      dup3\n      add\n      swap2\n      swap1\n      0x00\n      mstore\n      keccak256(0x00, 0x20)\n      swap1\n    tag_43:\n      dup2\n      sload\n      dup2\n      mstore\n      swap1\n      0x01\n      add\n      swap1\n      0x20\n      add\n      dup1\n      dup4\n      gt\n      tag_43\n      jumpi\n      dup3\n      swap1\n      sub\n      0x1f\n      and\n      dup3\n      add\n      swap2\n    tag_41:\n      pop\n      pop\n      pop\n      pop\n      pop\n      dup2\n      mstore\n      0x20\n      add\n      0x05\n      dup3\n      add\n      dup1\n      sload\n      tag_44\n      swap1\n      tag_29\n      jump\t// in\n    tag_44:\n      dup1\n      0x1f\n      add\n      0x20\n      dup1\n      swap2\n      div\n      mul\n      0x20\n      add\n      mload(0x40)\n      swap1\n      dup2\n      add\n      0x40\n      mstore\n      dup1\n      swap3\n      swap2\n      swap1\n      dup2\n      dup2\n      mstore\n      0x20\n      add\n      dup3\n      dup1\n      sload\n      tag_45\n      swap1\n      tag_29\n      jump\t// in\n    tag_45:\n      dup1\n      iszero\n      tag_46\n      jumpi\n      dup1\n      0x1f\n      lt\n      tag_47\n      jumpi\n      0x0100\n      dup1\n      dup4\n      sload\n      div\n      mul\n      dup4\n      mstore\n      swap2\n      0x20\n      add\n      swap2\n      jump(tag_46)\n    tag_47:\n      dup3\n      add\n      swap2\n      swap1\n      0x00\n      mstore\n      keccak256(0x00, 0x20)\n      swap1\n    tag_48:\n      dup2\n      sload\n      dup2\n      mstore\n      swap1\n      0x01\n      add\n      swap1\n      0x20\n      add\n      dup1\n      dup4\n      gt\n      tag_48\n      jumpi\n      dup3\n      swap1\n      sub\n      0x1f\n      and\n      dup3\n      add\n      swap2\n    tag_46:\n      pop\n      pop\n      pop\n      pop\n      pop\n      dup2\n      mstore\n      pop\n      pop\n      swap1\n      pop\n      swap3\n      pop\n      swap3\n      pop\n      pop\n        /* \"contracts/NgoManager.sol\":2006:2476  function findNgoByEmail(string memory _email) public view returns (bool found, NGO memory ngo) {... */\n    tag_24:\n      swap2\n      pop\n      swap2\n      jump\t// out\n        /* \"contracts/NgoManager.sol\":728:1728  function registerNgo(... */\n    tag_15:\n        /* \"contracts/NgoManager.sol\":1023:1036  bytes32 ngoId */\n      0x00\n        /* \"contracts/NgoManager.sol\":1066:1079  _contactEmail */\n      dup2\n        /* \"contracts/NgoManager.sol\":1081:1096  block.timestamp */\n      timestamp\n        /* \"contracts/NgoManager.sol\":1049:1097  abi.encodePacked(_contactEmail, block.timestamp) */\n      add(0x20, mload(0x40))\n      tag_50\n      swap3\n      swap2\n      swap1\n      tag_51\n      jump\t// in\n    tag_50:\n      mload(0x40)\n      0x20\n      dup2\n      dup4\n      sub\n      sub\n      dup2\n      mstore\n      swap1\n      0x40\n      mstore\n        /* \"contracts/NgoManager.sol\":1039:1098  keccak256(abi.encodePacked(_contactEmail, block.timestamp)) */\n      dup1\n      mload\n      swap1\n      0x20\n      add\n      keccak256\n        /* \"contracts/NgoManager.sol\":1023:1098  bytes32 ngoId = keccak256(abi.encodePacked(_contactEmail, block.timestamp)) */\n      swap1\n      pop\n        /* \"contracts/NgoManager.sol\":1150:1153  0x0 */\n      0x00\n        /* \"contracts/NgoManager.sol\":1119:1153  ngoIdByEmail[_contactEmail] == 0x0 */\n      dup1\n      shl\n        /* \"contracts/NgoManager.sol\":1119:1131  ngoIdByEmail */\n      0x01\n        /* \"contracts/NgoManager.sol\":1132:1145  _contactEmail */\n      dup4\n        /* \"contracts/NgoManager.sol\":1119:1146  ngoIdByEmail[_contactEmail] */\n      mload(0x40)\n      tag_52\n      swap2\n      swap1\n      tag_26\n      jump\t// in\n    tag_52:\n      swap1\n      dup2\n      mstore\n      0x20\n      add\n      mload(0x40)\n      dup1\n      swap2\n      sub\n      swap1\n      keccak256\n      sload\n        /* \"contracts/NgoManager.sol\":1119:1153  ngoIdByEmail[_contactEmail] == 0x0 */\n      eq\n        /* \"contracts/NgoManager.sol\":1111:1196  require(ngoIdByEmail[_contactEmail] == 0x0, \"NGO already registered with this email\") */\n      tag_53\n      jumpi\n      mload(0x40)\n      0x08c379a000000000000000000000000000000000000000000000000000000000\n      dup2\n      mstore\n      0x04\n      add\n      tag_54\n      swap1\n      tag_55\n      jump\t// in\n    tag_54:\n      mload(0x40)\n      dup1\n      swap2\n      sub\n      swap1\n      revert\n    tag_53:\n        /* \"contracts/NgoManager.sol\":1209:1226  NGO memory newNgo */\n      0x00\n        /* \"contracts/NgoManager.sol\":1229:1451  NGO({... */\n      mload(0x40)\n      dup1\n      0xc0\n      add\n      0x40\n      mstore\n      dup1\n        /* \"contracts/NgoManager.sol\":1256:1261  ngoId */\n      dup4\n        /* \"contracts/NgoManager.sol\":1229:1451  NGO({... */\n      dup2\n      mstore\n      0x20\n      add\n        /* \"contracts/NgoManager.sol\":1285:1293  _ngoName */\n      dup9\n        /* \"contracts/NgoManager.sol\":1229:1451  NGO({... */\n      dup2\n      mstore\n      0x20\n      add\n        /* \"contracts/NgoManager.sol\":1315:1321  _regNo */\n      dup8\n        /* \"contracts/NgoManager.sol\":1229:1451  NGO({... */\n      dup2\n      mstore\n      0x20\n      add\n        /* \"contracts/NgoManager.sol\":1345:1353  _website */\n      dup7\n        /* \"contracts/NgoManager.sol\":1229:1451  NGO({... */\n      dup2\n      mstore\n      0x20\n      add\n        /* \"contracts/NgoManager.sol\":1383:1397  _contactPerson */\n      dup6\n        /* \"contracts/NgoManager.sol\":1229:1451  NGO({... */\n      dup2\n      mstore\n      0x20\n      add\n        /* \"contracts/NgoManager.sol\":1426:1439  _contactEmail */\n      dup5\n        /* \"contracts/NgoManager.sol\":1229:1451  NGO({... */\n      dup2\n      mstore\n      pop\n        /* \"contracts/NgoManager.sol\":1209:1451  NGO memory newNgo = NGO({... */\n      swap1\n      pop\n        /* \"contracts/NgoManager.sol\":1482:1488  newNgo */\n      dup1\n        /* \"contracts/NgoManager.sol\":1464:1472  ngosById */\n      0x00\n        /* \"contracts/NgoManager.sol\":1464:1479  ngosById[ngoId] */\n      dup1\n        /* \"contracts/NgoManager.sol\":1473:1478  ngoId */\n      dup5\n        /* \"contracts/NgoManager.sol\":1464:1479  ngosById[ngoId] */\n      dup2\n      mstore\n      0x20\n      add\n      swap1\n      dup2\n      mstore\n      0x20\n      add\n      0x00\n      keccak256\n        /* \"contracts/NgoManager.sol\":1464:1488  ngosById[ngoId] = newNgo */\n      0x00\n      dup3\n      add\n      mload\n      dup2\n      0x00\n      add\n      sstore\n      0x20\n      dup3\n      add\n      mload\n      dup2\n      0x01\n      add\n      swap1\n      dup2\n      tag_56\n      swap2\n      swap1\n      tag_57\n      jump\t// in\n    tag_56:\n      pop\n      0x40\n      dup3\n      add\n      mload\n      dup2\n      0x02\n      add\n      sstore\n      0x60\n      dup3\n      add\n      mload\n      dup2\n      0x03\n      add\n      swap1\n      dup2\n      tag_58\n      swap2\n      swap1\n      tag_57\n      jump\t// in\n    tag_58:\n      pop\n      0x80\n      dup3\n      add\n      mload\n      dup2\n      0x04\n      add\n      swap1\n      dup2\n      tag_59\n      swap2\n      swap1\n      tag_57\n      jump\t// in\n    tag_59:\n      pop\n      0xa0\n      dup3\n      add\n      mload\n      dup2\n      0x05\n      add\n      swap1\n      dup2\n      tag_60\n      swap2\n      swap1\n      tag_57\n      jump\t// in\n    tag_60:\n      pop\n      swap1\n      pop\n      pop\n        /* \"contracts/NgoManager.sol\":1529:1534  ngoId */\n      dup2\n        /* \"contracts/NgoManager.sol\":1499:1511  ngoIdByEmail */\n      0x01\n        /* \"contracts/NgoManager.sol\":1512:1525  _contactEmail */\n      dup5\n        /* \"contracts/NgoManager.sol\":1499:1526  ngoIdByEmail[_contactEmail] */\n      mload(0x40)\n      tag_61\n      swap2\n      swap1\n      tag_26\n      jump\t// in\n    tag_61:\n      swap1\n      dup2\n      mstore\n      0x20\n      add\n      mload(0x40)\n      dup1\n      swap2\n      sub\n      swap1\n      keccak256\n        /* \"contracts/NgoManager.sol\":1499:1534  ngoIdByEmail[_contactEmail] = ngoId */\n      dup2\n      swap1\n      sstore\n      pop\n        /* \"contracts/NgoManager.sol\":1580:1585  ngoId */\n      dup2\n        /* \"contracts/NgoManager.sol\":1552:1720  NgoRegistered(... */\n      0x6b2e404ec26e09315810a3a8cbe4d7281794425520fcffd8d9da1f411b7e3367\n        /* \"contracts/NgoManager.sol\":1600:1608  _ngoName */\n      dup9\n        /* \"contracts/NgoManager.sol\":1623:1629  _regNo */\n      dup9\n        /* \"contracts/NgoManager.sol\":1644:1652  _website */\n      dup9\n        /* \"contracts/NgoManager.sol\":1667:1681  _contactPerson */\n      dup9\n        /* \"contracts/NgoManager.sol\":1696:1709  _contactEmail */\n      dup9\n        /* \"contracts/NgoManager.sol\":1552:1720  NgoRegistered(... */\n      mload(0x40)\n      tag_62\n      swap6\n      swap5\n      swap4\n      swap3\n      swap2\n      swap1\n      tag_63\n      jump\t// in\n    tag_62:\n      mload(0x40)\n      dup1\n      swap2\n      sub\n      swap1\n      log2\n        /* \"contracts/NgoManager.sol\":931:1728  {... */\n      pop\n      pop\n        /* \"contracts/NgoManager.sol\":728:1728  function registerNgo(... */\n      pop\n      pop\n      pop\n      pop\n      pop\n      jump\t// out\n        /* \"contracts/NgoManager.sol\":1778:1956  function getNgoById(bytes32 _ngoId) public view returns (NGO memory) {... */\n    tag_19:\n        /* \"contracts/NgoManager.sol\":1835:1845  NGO memory */\n      tag_64\n      tag_23\n      jump\t// in\n    tag_64:\n        /* \"contracts/NgoManager.sol\":1893:1896  0x0 */\n      0x00\n        /* \"contracts/NgoManager.sol\":1866:1896  ngosById[_ngoId].Ngo_id != 0x0 */\n      dup1\n      shl\n        /* \"contracts/NgoManager.sol\":1866:1874  ngosById */\n      0x00\n        /* \"contracts/NgoManager.sol\":1866:1882  ngosById[_ngoId] */\n      dup1\n        /* \"contracts/NgoManager.sol\":1875:1881  _ngoId */\n      dup5\n        /* \"contracts/NgoManager.sol\":1866:1882  ngosById[_ngoId] */\n      dup2\n      mstore\n      0x20\n      add\n      swap1\n      dup2\n      mstore\n      0x20\n      add\n      0x00\n      keccak256\n        /* \"contracts/NgoManager.sol\":1866:1889  ngosById[_ngoId].Ngo_id */\n      0x00\n      add\n      sload\n        /* \"contracts/NgoManager.sol\":1866:1896  ngosById[_ngoId].Ngo_id != 0x0 */\n      sub\n        /* \"contracts/NgoManager.sol\":1858:1914  require(ngosById[_ngoId].Ngo_id != 0x0, \"NGO not found\") */\n      tag_66\n      jumpi\n      mload(0x40)\n      0x08c379a000000000000000000000000000000000000000000000000000000000\n      dup2\n      mstore\n      0x04\n      add\n      tag_67\n      swap1\n      tag_68\n      jump\t// in\n    tag_67:\n      mload(0x40)\n      dup1\n      swap2\n      sub\n      swap1\n      revert\n    tag_66:\n        /* \"contracts/NgoManager.sol\":1932:1940  ngosById */\n      0x00\n        /* \"contracts/NgoManager.sol\":1932:1948  ngosById[_ngoId] */\n      dup1\n        /* \"contracts/NgoManager.sol\":1941:1947  _ngoId */\n      dup4\n        /* \"contracts/NgoManager.sol\":1932:1948  ngosById[_ngoId] */\n      dup2\n      mstore\n      0x20\n      add\n      swap1\n      dup2\n      mstore\n      0x20\n      add\n      0x00\n      keccak256\n        /* \"contracts/NgoManager.sol\":1925:1948  return ngosById[_ngoId] */\n      mload(0x40)\n      dup1\n      0xc0\n      add\n      0x40\n      mstore\n      swap1\n      dup2\n      0x00\n      dup3\n      add\n      sload\n      dup2\n      mstore\n      0x20\n      add\n      0x01\n      dup3\n      add\n      dup1\n      sload\n      tag_69\n      swap1\n      tag_29\n      jump\t// in\n    tag_69:\n      dup1\n      0x1f\n      add\n      0x20\n      dup1\n      swap2\n      div\n      mul\n      0x20\n      add\n      mload(0x40)\n      swap1\n      dup2\n      add\n      0x40\n      mstore\n      dup1\n      swap3\n      swap2\n      swap1\n      dup2\n      dup2\n      mstore\n      0x20\n      add\n      dup3\n      dup1\n      sload\n      tag_70\n      swap1\n      tag_29\n      jump\t// in\n    tag_70:\n      dup1\n      iszero\n      tag_71\n      jumpi\n      dup1\n      0x1f\n      lt\n      tag_72\n      jumpi\n      0x0100\n      dup1\n      dup4\n      sload\n      div\n      mul\n      dup4\n      mstore\n      swap2\n      0x20\n      add\n      swap2\n      jump(tag_71)\n    tag_72:\n      dup3\n      add\n      swap2\n      swap1\n      0x00\n      mstore\n      keccak256(0x00, 0x20)\n      swap1\n    tag_73:\n      dup2\n      sload\n      dup2\n      mstore\n      swap1\n      0x01\n      add\n      swap1\n      0x20\n      add\n      dup1\n      dup4\n      gt\n      tag_73\n      jumpi\n      dup3\n      swap1\n      sub\n      0x1f\n      and\n      dup3\n      add\n      swap2\n    tag_71:\n      pop\n      pop\n      pop\n      pop\n      pop\n      dup2\n      mstore\n      0x20\n      add\n      0x02\n      dup3\n      add\n      sload\n      dup2\n      mstore\n      0x20\n      add\n      0x03\n      dup3\n      add\n      dup1\n      sload\n      tag_74\n      swap1\n      tag_29\n      jump\t// in\n    tag_74:\n      dup1\n      0x1f\n      add\n      0x20\n      dup1\n      swap2\n      div\n      mul\n      0x20\n      add\n      mload(0x40)\n      swap1\n      dup2\n      add\n      0x40\n      mstore\n      dup1\n      swap3\n      swap2\n      swap1\n      dup2\n      dup2\n      mstore\n      0x20\n      add\n      dup3\n      dup1\n      sload\n      tag_75\n      swap1\n      tag_29\n      jump\t// in\n    tag_75:\n      dup1\n      iszero\n      tag_76\n      jumpi\n      dup1\n      0x1f\n      lt\n      tag_77\n      jumpi\n      0x0100\n      dup1\n      dup4\n      sload\n      div\n      mul\n      dup4\n      mstore\n      swap2\n      0x20\n      add\n      swap2\n      jump(tag_76)\n    tag_77:\n      dup3\n      add\n      swap2\n      swap1\n      0x00\n      mstore\n      keccak256(0x00, 0x20)\n      swap1\n    tag_78:\n      dup2\n      sload\n      dup2\n      mstore\n      swap1\n      0x01\n      add\n      swap1\n      0x20\n      add\n      dup1\n      dup4\n      gt\n      tag_78\n      jumpi\n      dup3\n      swap1\n      sub\n      0x1f\n      and\n      dup3\n      add\n      swap2\n    tag_76:\n      pop\n      pop\n      pop\n      pop\n      pop\n      dup2\n      mstore\n      0x20\n      add\n      0x04\n      dup3\n      add\n      dup1\n      sload\n      tag_79\n      swap1\n      tag_29\n      jump\t// in\n    tag_79:\n      dup1\n      0x1f\n      add\n      0x20\n      dup1\n      swap2\n      div\n      mul\n      0x20\n      add\n      mload(0x40)\n      swap1\n      dup2\n      add\n      0x40\n      mstore\n      dup1\n      swap3\n      swap2\n      swap1\n      dup2\n      dup2\n      mstore\n      0x20\n      add\n      dup3\n      dup1\n      sload\n      tag_80\n      swap1\n      tag_29\n      jump\t// in\n    tag_80:\n      dup1\n      iszero\n      tag_81\n      jumpi\n      dup1\n      0x1f\n      lt\n      tag_82\n      jumpi\n      0x0100\n      dup1\n      dup4\n      sload\n      div\n      mul\n      dup4\n      mstore\n      swap2\n      0x20\n      add\n      swap2\n      jump(tag_81)\n    tag_82:\n      dup3\n      add\n      swap2\n      swap1\n      0x00\n      mstore\n      keccak256(0x00, 0x20)\n      swap1\n    tag_83:\n      dup2\n      sload\n      dup2\n      mstore\n      swap1\n      0x01\n      add\n      swap1\n      0x20\n      add\n      dup1\n      dup4\n      gt\n      tag_83\n      jumpi\n      dup3\n      swap1\n      sub\n      0x1f\n      and\n      dup3\n      add\n      swap2\n    tag_81:\n      pop\n      pop\n      pop\n      pop\n      pop\n      dup2\n      mstore\n      0x20\n      add\n      0x05\n      dup3\n      add\n      dup1\n      sload\n      tag_84\n      swap1\n      tag_29\n      jump\t// in\n    tag_84:\n      dup1\n      0x1f\n      add\n      0x20\n      dup1\n      swap2\n      div\n      mul\n      0x20\n      add\n      mload(0x40)\n      swap1\n      dup2\n      add\n      0x40\n      mstore\n      dup1\n      swap3\n      swap2\n      swap1\n      dup2\n      dup2\n      mstore\n      0x20\n      add\n      dup3\n      dup1\n      sload\n      tag_85\n      swap1\n      tag_29\n      jump\t// in\n    tag_85:\n      dup1\n      iszero\n      tag_86\n      jumpi\n      dup1\n      0x1f\n      lt\n      tag_87\n      jumpi\n      0x0100\n      dup1\n      dup4\n      sload\n      div\n      mul\n      dup4\n      mstore\n      swap2\n      0x20\n      add\n      swap2\n      jump(tag_86)\n    tag_87:\n      dup3\n      add\n      swap2\n      swap1\n      0x00\n      mstore\n      keccak256(0x00, 0x20)\n      swap1\n    tag_88:\n      dup2\n      sload\n      dup2\n      mstore\n      swap1\n      0x01\n      add\n      swap1\n      0x20\n      add\n      dup1\n      dup4\n      gt\n      tag_88\n      jumpi\n      dup3\n      swap1\n      sub\n      0x1f\n      and\n      dup3\n      add\n      swap2\n    tag_86:\n      pop\n      pop\n      pop\n      pop\n      pop\n      dup2\n      mstore\n      pop\n      pop\n      swap1\n      pop\n        /* \"contracts/NgoManager.sol\":1778:1956  function getNgoById(bytes32 _ngoId) public view returns (NGO memory) {... */\n      swap2\n      swap1\n      pop\n      jump\t// out\n    tag_23:\n      mload(0x40)\n      dup1\n      0xc0\n      add\n      0x40\n      mstore\n      dup1\n      0x00\n      dup1\n      not\n      and\n      dup2\n      mstore\n      0x20\n      add\n      0x60\n      dup2\n      mstore\n      0x20\n      add\n      0x00\n      dup2\n      mstore\n      0x20\n      add\n      0x60\n      dup2\n      mstore\n      0x20\n      add\n      0x60\n      dup2\n      mstore\n      0x20\n      add\n      0x60\n      dup2\n      mstore\n      pop\n      swap1\n      jump\t// out\n        /* \"#utility.yul\":7:82   */\n    tag_89:\n        /* \"#utility.yul\":40:46   */\n      0x00\n        /* \"#utility.yul\":73:75   */\n      0x40\n        /* \"#utility.yul\":67:76   */\n      mload\n        /* \"#utility.yul\":57:76   */\n      swap1\n      pop\n        /* \"#utility.yul\":7:82   */\n      swap1\n      jump\t// out\n        /* \"#utility.yul\":88:205   */\n    tag_90:\n        /* \"#utility.yul\":197:198   */\n      0x00\n        /* \"#utility.yul\":194:195   */\n      dup1\n        /* \"#utility.yul\":187:199   */\n      revert\n        /* \"#utility.yul\":211:328   */\n    tag_91:\n        /* \"#utility.yul\":320:321   */\n      0x00\n        /* \"#utility.yul\":317:318   */\n      dup1\n        /* \"#utility.yul\":310:322   */\n      revert\n        /* \"#utility.yul\":334:451   */\n    tag_92:\n        /* \"#utility.yul\":443:444   */\n      0x00\n        /* \"#utility.yul\":440:441   */\n      dup1\n        /* \"#utility.yul\":433:445   */\n      revert\n        /* \"#utility.yul\":457:574   */\n    tag_93:\n        /* \"#utility.yul\":566:567   */\n      0x00\n        /* \"#utility.yul\":563:564   */\n      dup1\n        /* \"#utility.yul\":556:568   */\n      revert\n        /* \"#utility.yul\":580:682   */\n    tag_94:\n        /* \"#utility.yul\":621:627   */\n      0x00\n        /* \"#utility.yul\":672:674   */\n      0x1f\n        /* \"#utility.yul\":668:675   */\n      not\n        /* \"#utility.yul\":663:665   */\n      0x1f\n        /* \"#utility.yul\":656:661   */\n      dup4\n        /* \"#utility.yul\":652:666   */\n      add\n        /* \"#utility.yul\":648:676   */\n      and\n        /* \"#utility.yul\":638:676   */\n      swap1\n      pop\n        /* \"#utility.yul\":580:682   */\n      swap2\n      swap1\n      pop\n      jump\t// out\n        /* \"#utility.yul\":688:868   */\n    tag_95:\n        /* \"#utility.yul\":736:813   */\n      0x4e487b7100000000000000000000000000000000000000000000000000000000\n        /* \"#utility.yul\":733:734   */\n      0x00\n        /* \"#utility.yul\":726:814   */\n      mstore\n        /* \"#utility.yul\":833:837   */\n      0x41\n        /* \"#utility.yul\":830:831   */\n      0x04\n        /* \"#utility.yul\":823:838   */\n      mstore\n        /* \"#utility.yul\":857:861   */\n      0x24\n        /* \"#utility.yul\":854:855   */\n      0x00\n        /* \"#utility.yul\":847:862   */\n      revert\n        /* \"#utility.yul\":874:1155   */\n    tag_96:\n        /* \"#utility.yul\":957:984   */\n      tag_153\n        /* \"#utility.yul\":979:983   */\n      dup3\n        /* \"#utility.yul\":957:984   */\n      tag_94\n      jump\t// in\n    tag_153:\n        /* \"#utility.yul\":949:955   */\n      dup2\n        /* \"#utility.yul\":945:985   */\n      add\n        /* \"#utility.yul\":1087:1093   */\n      dup2\n        /* \"#utility.yul\":1075:1085   */\n      dup2\n        /* \"#utility.yul\":1072:1094   */\n      lt\n        /* \"#utility.yul\":1051:1069   */\n      0xffffffffffffffff\n        /* \"#utility.yul\":1039:1049   */\n      dup3\n        /* \"#utility.yul\":1036:1070   */\n      gt\n        /* \"#utility.yul\":1033:1095   */\n      or\n        /* \"#utility.yul\":1030:1118   */\n      iszero\n      tag_154\n      jumpi\n        /* \"#utility.yul\":1098:1116   */\n      tag_155\n      tag_95\n      jump\t// in\n    tag_155:\n        /* \"#utility.yul\":1030:1118   */\n    tag_154:\n        /* \"#utility.yul\":1138:1148   */\n      dup1\n        /* \"#utility.yul\":1134:1136   */\n      0x40\n        /* \"#utility.yul\":1127:1149   */\n      mstore\n        /* \"#utility.yul\":917:1155   */\n      pop\n        /* \"#utility.yul\":874:1155   */\n      pop\n      pop\n      jump\t// out\n        /* \"#utility.yul\":1161:1290   */\n    tag_97:\n        /* \"#utility.yul\":1195:1201   */\n      0x00\n        /* \"#utility.yul\":1222:1242   */\n      tag_157\n      tag_89\n      jump\t// in\n    tag_157:\n        /* \"#utility.yul\":1212:1242   */\n      swap1\n      pop\n        /* \"#utility.yul\":1251:1284   */\n      tag_158\n        /* \"#utility.yul\":1279:1283   */\n      dup3\n        /* \"#utility.yul\":1271:1277   */\n      dup3\n        /* \"#utility.yul\":1251:1284   */\n      tag_96\n      jump\t// in\n    tag_158:\n        /* \"#utility.yul\":1161:1290   */\n      swap2\n      swap1\n      pop\n      jump\t// out\n        /* \"#utility.yul\":1296:1604   */\n    tag_98:\n        /* \"#utility.yul\":1358:1362   */\n      0x00\n        /* \"#utility.yul\":1448:1466   */\n      0xffffffffffffffff\n        /* \"#utility.yul\":1440:1446   */\n      dup3\n        /* \"#utility.yul\":1437:1467   */\n      gt\n        /* \"#utility.yul\":1434:1490   */\n      iszero\n      tag_160\n      jumpi\n        /* \"#utility.yul\":1470:1488   */\n      tag_161\n      tag_95\n      jump\t// in\n    tag_161:\n        /* \"#utility.yul\":1434:1490   */\n    tag_160:\n        /* \"#utility.yul\":1508:1537   */\n      tag_162\n        /* \"#utility.yul\":1530:1536   */\n      dup3\n        /* \"#utility.yul\":1508:1537   */\n      tag_94\n      jump\t// in\n    tag_162:\n        /* \"#utility.yul\":1500:1537   */\n      swap1\n      pop\n        /* \"#utility.yul\":1592:1596   */\n      0x20\n        /* \"#utility.yul\":1586:1590   */\n      dup2\n        /* \"#utility.yul\":1582:1597   */\n      add\n        /* \"#utility.yul\":1574:1597   */\n      swap1\n      pop\n        /* \"#utility.yul\":1296:1604   */\n      swap2\n      swap1\n      pop\n      jump\t// out\n        /* \"#utility.yul\":1610:1756   */\n    tag_99:\n        /* \"#utility.yul\":1707:1713   */\n      dup3\n        /* \"#utility.yul\":1702:1705   */\n      dup2\n        /* \"#utility.yul\":1697:1700   */\n      dup4\n        /* \"#utility.yul\":1684:1714   */\n      calldatacopy\n        /* \"#utility.yul\":1748:1749   */\n      0x00\n        /* \"#utility.yul\":1739:1745   */\n      dup4\n        /* \"#utility.yul\":1734:1737   */\n      dup4\n        /* \"#utility.yul\":1730:1746   */\n      add\n        /* \"#utility.yul\":1723:1750   */\n      mstore\n        /* \"#utility.yul\":1610:1756   */\n      pop\n      pop\n      pop\n      jump\t// out\n        /* \"#utility.yul\":1762:2187   */\n    tag_100:\n        /* \"#utility.yul\":1840:1845   */\n      0x00\n        /* \"#utility.yul\":1865:1931   */\n      tag_165\n        /* \"#utility.yul\":1881:1930   */\n      tag_166\n        /* \"#utility.yul\":1923:1929   */\n      dup5\n        /* \"#utility.yul\":1881:1930   */\n      tag_98\n      jump\t// in\n    tag_166:\n        /* \"#utility.yul\":1865:1931   */\n      tag_97\n      jump\t// in\n    tag_165:\n        /* \"#utility.yul\":1856:1931   */\n      swap1\n      pop\n        /* \"#utility.yul\":1954:1960   */\n      dup3\n        /* \"#utility.yul\":1947:1952   */\n      dup2\n        /* \"#utility.yul\":1940:1961   */\n      mstore\n        /* \"#utility.yul\":1992:1996   */\n      0x20\n        /* \"#utility.yul\":1985:1990   */\n      dup2\n        /* \"#utility.yul\":1981:1997   */\n      add\n        /* \"#utility.yul\":2030:2033   */\n      dup5\n        /* \"#utility.yul\":2021:2027   */\n      dup5\n        /* \"#utility.yul\":2016:2019   */\n      dup5\n        /* \"#utility.yul\":2012:2028   */\n      add\n        /* \"#utility.yul\":2009:2034   */\n      gt\n        /* \"#utility.yul\":2006:2118   */\n      iszero\n      tag_167\n      jumpi\n        /* \"#utility.yul\":2037:2116   */\n      tag_168\n      tag_93\n      jump\t// in\n    tag_168:\n        /* \"#utility.yul\":2006:2118   */\n    tag_167:\n        /* \"#utility.yul\":2127:2181   */\n      tag_169\n        /* \"#utility.yul\":2174:2180   */\n      dup5\n        /* \"#utility.yul\":2169:2172   */\n      dup3\n        /* \"#utility.yul\":2164:2167   */\n      dup6\n        /* \"#utility.yul\":2127:2181   */\n      tag_99\n      jump\t// in\n    tag_169:\n        /* \"#utility.yul\":1846:2187   */\n      pop\n        /* \"#utility.yul\":1762:2187   */\n      swap4\n      swap3\n      pop\n      pop\n      pop\n      jump\t// out\n        /* \"#utility.yul\":2207:2547   */\n    tag_101:\n        /* \"#utility.yul\":2263:2268   */\n      0x00\n        /* \"#utility.yul\":2312:2315   */\n      dup3\n        /* \"#utility.yul\":2305:2309   */\n      0x1f\n        /* \"#utility.yul\":2297:2303   */\n      dup4\n        /* \"#utility.yul\":2293:2310   */\n      add\n        /* \"#utility.yul\":2289:2316   */\n      slt\n        /* \"#utility.yul\":2279:2401   */\n      tag_171\n      jumpi\n        /* \"#utility.yul\":2320:2399   */\n      tag_172\n      tag_92\n      jump\t// in\n    tag_172:\n        /* \"#utility.yul\":2279:2401   */\n    tag_171:\n        /* \"#utility.yul\":2437:2443   */\n      dup2\n        /* \"#utility.yul\":2424:2444   */\n      calldataload\n        /* \"#utility.yul\":2462:2541   */\n      tag_173\n        /* \"#utility.yul\":2537:2540   */\n      dup5\n        /* \"#utility.yul\":2529:2535   */\n      dup3\n        /* \"#utility.yul\":2522:2526   */\n      0x20\n        /* \"#utility.yul\":2514:2520   */\n      dup7\n        /* \"#utility.yul\":2510:2527   */\n      add\n        /* \"#utility.yul\":2462:2541   */\n      tag_100\n      jump\t// in\n    tag_173:\n        /* \"#utility.yul\":2453:2541   */\n      swap2\n      pop\n        /* \"#utility.yul\":2269:2547   */\n      pop\n        /* \"#utility.yul\":2207:2547   */\n      swap3\n      swap2\n      pop\n      pop\n      jump\t// out\n        /* \"#utility.yul\":2553:3062   */\n    tag_8:\n        /* \"#utility.yul\":2622:2628   */\n      0x00\n        /* \"#utility.yul\":2671:2673   */\n      0x20\n        /* \"#utility.yul\":2659:2668   */\n      dup3\n        /* \"#utility.yul\":2650:2657   */\n      dup5\n        /* \"#utility.yul\":2646:2669   */\n      sub\n        /* \"#utility.yul\":2642:2674   */\n      slt\n        /* \"#utility.yul\":2639:2758   */\n      iszero\n      tag_175\n      jumpi\n        /* \"#utility.yul\":2677:2756   */\n      tag_176\n      tag_90\n      jump\t// in\n    tag_176:\n        /* \"#utility.yul\":2639:2758   */\n    tag_175:\n        /* \"#utility.yul\":2825:2826   */\n      0x00\n        /* \"#utility.yul\":2814:2823   */\n      dup3\n        /* \"#utility.yul\":2810:2827   */\n      add\n        /* \"#utility.yul\":2797:2828   */\n      calldataload\n        /* \"#utility.yul\":2855:2873   */\n      0xffffffffffffffff\n        /* \"#utility.yul\":2847:2853   */\n      dup2\n        /* \"#utility.yul\":2844:2874   */\n      gt\n        /* \"#utility.yul\":2841:2958   */\n      iszero\n      tag_177\n      jumpi\n        /* \"#utility.yul\":2877:2956   */\n      tag_178\n      tag_91\n      jump\t// in\n    tag_178:\n        /* \"#utility.yul\":2841:2958   */\n    tag_177:\n        /* \"#utility.yul\":2982:3045   */\n      tag_179\n        /* \"#utility.yul\":3037:3044   */\n      dup5\n        /* \"#utility.yul\":3028:3034   */\n      dup3\n        /* \"#utility.yul\":3017:3026   */\n      dup6\n        /* \"#utility.yul\":3013:3035   */\n      add\n        /* \"#utility.yul\":2982:3045   */\n      tag_101\n      jump\t// in\n    tag_179:\n        /* \"#utility.yul\":2972:3045   */\n      swap2\n      pop\n        /* \"#utility.yul\":2768:3055   */\n      pop\n        /* \"#utility.yul\":2553:3062   */\n      swap3\n      swap2\n      pop\n      pop\n      jump\t// out\n        /* \"#utility.yul\":3068:3158   */\n    tag_102:\n        /* \"#utility.yul\":3102:3109   */\n      0x00\n        /* \"#utility.yul\":3145:3150   */\n      dup2\n        /* \"#utility.yul\":3138:3151   */\n      iszero\n        /* \"#utility.yul\":3131:3152   */\n      iszero\n        /* \"#utility.yul\":3120:3152   */\n      swap1\n      pop\n        /* \"#utility.yul\":3068:3158   */\n      swap2\n      swap1\n      pop\n      jump\t// out\n        /* \"#utility.yul\":3164:3273   */\n    tag_103:\n        /* \"#utility.yul\":3245:3266   */\n      tag_182\n        /* \"#utility.yul\":3260:3265   */\n      dup2\n        /* \"#utility.yul\":3245:3266   */\n      tag_102\n      jump\t// in\n    tag_182:\n        /* \"#utility.yul\":3240:3243   */\n      dup3\n        /* \"#utility.yul\":3233:3267   */\n      mstore\n        /* \"#utility.yul\":3164:3273   */\n      pop\n      pop\n      jump\t// out\n        /* \"#utility.yul\":3279:3356   */\n    tag_104:\n        /* \"#utility.yul\":3316:3323   */\n      0x00\n        /* \"#utility.yul\":3345:3350   */\n      dup2\n        /* \"#utility.yul\":3334:3350   */\n      swap1\n      pop\n        /* \"#utility.yul\":3279:3356   */\n      swap2\n      swap1\n      pop\n      jump\t// out\n        /* \"#utility.yul\":3362:3470   */\n    tag_105:\n        /* \"#utility.yul\":3439:3463   */\n      tag_185\n        /* \"#utility.yul\":3457:3462   */\n      dup2\n        /* \"#utility.yul\":3439:3463   */\n      tag_104\n      jump\t// in\n    tag_185:\n        /* \"#utility.yul\":3434:3437   */\n      dup3\n        /* \"#utility.yul\":3427:3464   */\n      mstore\n        /* \"#utility.yul\":3362:3470   */\n      pop\n      pop\n      jump\t// out\n        /* \"#utility.yul\":3476:3575   */\n    tag_106:\n        /* \"#utility.yul\":3528:3534   */\n      0x00\n        /* \"#utility.yul\":3562:3567   */\n      dup2\n        /* \"#utility.yul\":3556:3568   */\n      mload\n        /* \"#utility.yul\":3546:3568   */\n      swap1\n      pop\n        /* \"#utility.yul\":3476:3575   */\n      swap2\n      swap1\n      pop\n      jump\t// out\n        /* \"#utility.yul\":3581:3740   */\n    tag_107:\n        /* \"#utility.yul\":3655:3666   */\n      0x00\n        /* \"#utility.yul\":3689:3695   */\n      dup3\n        /* \"#utility.yul\":3684:3687   */\n      dup3\n        /* \"#utility.yul\":3677:3696   */\n      mstore\n        /* \"#utility.yul\":3729:3733   */\n      0x20\n        /* \"#utility.yul\":3724:3727   */\n      dup3\n        /* \"#utility.yul\":3720:3734   */\n      add\n        /* \"#utility.yul\":3705:3734   */\n      swap1\n      pop\n        /* \"#utility.yul\":3581:3740   */\n      swap3\n      swap2\n      pop\n      pop\n      jump\t// out\n        /* \"#utility.yul\":3746:3992   */\n    tag_108:\n        /* \"#utility.yul\":3827:3828   */\n      0x00\n        /* \"#utility.yul\":3837:3950   */\n    tag_189:\n        /* \"#utility.yul\":3851:3857   */\n      dup4\n        /* \"#utility.yul\":3848:3849   */\n      dup2\n        /* \"#utility.yul\":3845:3858   */\n      lt\n        /* \"#utility.yul\":3837:3950   */\n      iszero\n      tag_191\n      jumpi\n        /* \"#utility.yul\":3936:3937   */\n      dup1\n        /* \"#utility.yul\":3931:3934   */\n      dup3\n        /* \"#utility.yul\":3927:3938   */\n      add\n        /* \"#utility.yul\":3921:3939   */\n      mload\n        /* \"#utility.yul\":3917:3918   */\n      dup2\n        /* \"#utility.yul\":3912:3915   */\n      dup5\n        /* \"#utility.yul\":3908:3919   */\n      add\n        /* \"#utility.yul\":3901:3940   */\n      mstore\n        /* \"#utility.yul\":3873:3875   */\n      0x20\n        /* \"#utility.yul\":3870:3871   */\n      dup2\n        /* \"#utility.yul\":3866:3876   */\n      add\n        /* \"#utility.yul\":3861:3876   */\n      swap1\n      pop\n        /* \"#utility.yul\":3837:3950   */\n      jump(tag_189)\n    tag_191:\n        /* \"#utility.yul\":3984:3985   */\n      0x00\n        /* \"#utility.yul\":3975:3981   */\n      dup5\n        /* \"#utility.yul\":3970:3973   */\n      dup5\n        /* \"#utility.yul\":3966:3982   */\n      add\n        /* \"#utility.yul\":3959:3986   */\n      mstore\n        /* \"#utility.yul\":3808:3992   */\n      pop\n        /* \"#utility.yul\":3746:3992   */\n      pop\n      pop\n      pop\n      jump\t// out\n        /* \"#utility.yul\":3998:4355   */\n    tag_109:\n        /* \"#utility.yul\":4076:4079   */\n      0x00\n        /* \"#utility.yul\":4104:4143   */\n      tag_193\n        /* \"#utility.yul\":4137:4142   */\n      dup3\n        /* \"#utility.yul\":4104:4143   */\n      tag_106\n      jump\t// in\n    tag_193:\n        /* \"#utility.yul\":4159:4220   */\n      tag_194\n        /* \"#utility.yul\":4213:4219   */\n      dup2\n        /* \"#utility.yul\":4208:4211   */\n      dup6\n        /* \"#utility.yul\":4159:4220   */\n      tag_107\n      jump\t// in\n    tag_194:\n        /* \"#utility.yul\":4152:4220   */\n      swap4\n      pop\n        /* \"#utility.yul\":4229:4294   */\n      tag_195\n        /* \"#utility.yul\":4287:4293   */\n      dup2\n        /* \"#utility.yul\":4282:4285   */\n      dup6\n        /* \"#utility.yul\":4275:4279   */\n      0x20\n        /* \"#utility.yul\":4268:4273   */\n      dup7\n        /* \"#utility.yul\":4264:4280   */\n      add\n        /* \"#utility.yul\":4229:4294   */\n      tag_108\n      jump\t// in\n    tag_195:\n        /* \"#utility.yul\":4319:4348   */\n      tag_196\n        /* \"#utility.yul\":4341:4347   */\n      dup2\n        /* \"#utility.yul\":4319:4348   */\n      tag_94\n      jump\t// in\n    tag_196:\n        /* \"#utility.yul\":4314:4317   */\n      dup5\n        /* \"#utility.yul\":4310:4349   */\n      add\n        /* \"#utility.yul\":4303:4349   */\n      swap2\n      pop\n        /* \"#utility.yul\":4080:4355   */\n      pop\n        /* \"#utility.yul\":3998:4355   */\n      swap3\n      swap2\n      pop\n      pop\n      jump\t// out\n        /* \"#utility.yul\":4361:4438   */\n    tag_110:\n        /* \"#utility.yul\":4398:4405   */\n      0x00\n        /* \"#utility.yul\":4427:4432   */\n      dup2\n        /* \"#utility.yul\":4416:4432   */\n      swap1\n      pop\n        /* \"#utility.yul\":4361:4438   */\n      swap2\n      swap1\n      pop\n      jump\t// out\n        /* \"#utility.yul\":4444:4552   */\n    tag_111:\n        /* \"#utility.yul\":4521:4545   */\n      tag_199\n        /* \"#utility.yul\":4539:4544   */\n      dup2\n        /* \"#utility.yul\":4521:4545   */\n      tag_110\n      jump\t// in\n    tag_199:\n        /* \"#utility.yul\":4516:4519   */\n      dup3\n        /* \"#utility.yul\":4509:4546   */\n      mstore\n        /* \"#utility.yul\":4444:4552   */\n      pop\n      pop\n      jump\t// out\n        /* \"#utility.yul\":4612:6141   */\n    tag_112:\n        /* \"#utility.yul\":4719:4722   */\n      0x00\n        /* \"#utility.yul\":4755:4759   */\n      0xc0\n        /* \"#utility.yul\":4750:4753   */\n      dup4\n        /* \"#utility.yul\":4746:4760   */\n      add\n        /* \"#utility.yul\":4844:4848   */\n      0x00\n        /* \"#utility.yul\":4837:4842   */\n      dup4\n        /* \"#utility.yul\":4833:4849   */\n      add\n        /* \"#utility.yul\":4827:4850   */\n      mload\n        /* \"#utility.yul\":4863:4926   */\n      tag_201\n        /* \"#utility.yul\":4920:4924   */\n      0x00\n        /* \"#utility.yul\":4915:4918   */\n      dup7\n        /* \"#utility.yul\":4911:4925   */\n      add\n        /* \"#utility.yul\":4897:4909   */\n      dup3\n        /* \"#utility.yul\":4863:4926   */\n      tag_105\n      jump\t// in\n    tag_201:\n        /* \"#utility.yul\":4770:4936   */\n      pop\n        /* \"#utility.yul\":5021:5025   */\n      0x20\n        /* \"#utility.yul\":5014:5019   */\n      dup4\n        /* \"#utility.yul\":5010:5026   */\n      add\n        /* \"#utility.yul\":5004:5027   */\n      mload\n        /* \"#utility.yul\":5074:5077   */\n      dup5\n        /* \"#utility.yul\":5068:5072   */\n      dup3\n        /* \"#utility.yul\":5064:5078   */\n      sub\n        /* \"#utility.yul\":5057:5061   */\n      0x20\n        /* \"#utility.yul\":5052:5055   */\n      dup7\n        /* \"#utility.yul\":5048:5062   */\n      add\n        /* \"#utility.yul\":5041:5079   */\n      mstore\n        /* \"#utility.yul\":5100:5173   */\n      tag_202\n        /* \"#utility.yul\":5168:5172   */\n      dup3\n        /* \"#utility.yul\":5154:5166   */\n      dup3\n        /* \"#utility.yul\":5100:5173   */\n      tag_109\n      jump\t// in\n    tag_202:\n        /* \"#utility.yul\":5092:5173   */\n      swap2\n      pop\n        /* \"#utility.yul\":4946:5184   */\n      pop\n        /* \"#utility.yul\":5267:5271   */\n      0x40\n        /* \"#utility.yul\":5260:5265   */\n      dup4\n        /* \"#utility.yul\":5256:5272   */\n      add\n        /* \"#utility.yul\":5250:5273   */\n      mload\n        /* \"#utility.yul\":5286:5349   */\n      tag_203\n        /* \"#utility.yul\":5343:5347   */\n      0x40\n        /* \"#utility.yul\":5338:5341   */\n      dup7\n        /* \"#utility.yul\":5334:5348   */\n      add\n        /* \"#utility.yul\":5320:5332   */\n      dup3\n        /* \"#utility.yul\":5286:5349   */\n      tag_111\n      jump\t// in\n    tag_203:\n        /* \"#utility.yul\":5194:5359   */\n      pop\n        /* \"#utility.yul\":5444:5448   */\n      0x60\n        /* \"#utility.yul\":5437:5442   */\n      dup4\n        /* \"#utility.yul\":5433:5449   */\n      add\n        /* \"#utility.yul\":5427:5450   */\n      mload\n        /* \"#utility.yul\":5497:5500   */\n      dup5\n        /* \"#utility.yul\":5491:5495   */\n      dup3\n        /* \"#utility.yul\":5487:5501   */\n      sub\n        /* \"#utility.yul\":5480:5484   */\n      0x60\n        /* \"#utility.yul\":5475:5478   */\n      dup7\n        /* \"#utility.yul\":5471:5485   */\n      add\n        /* \"#utility.yul\":5464:5502   */\n      mstore\n        /* \"#utility.yul\":5523:5596   */\n      tag_204\n        /* \"#utility.yul\":5591:5595   */\n      dup3\n        /* \"#utility.yul\":5577:5589   */\n      dup3\n        /* \"#utility.yul\":5523:5596   */\n      tag_109\n      jump\t// in\n    tag_204:\n        /* \"#utility.yul\":5515:5596   */\n      swap2\n      pop\n        /* \"#utility.yul\":5369:5607   */\n      pop\n        /* \"#utility.yul\":5698:5702   */\n      0x80\n        /* \"#utility.yul\":5691:5696   */\n      dup4\n        /* \"#utility.yul\":5687:5703   */\n      add\n        /* \"#utility.yul\":5681:5704   */\n      mload\n        /* \"#utility.yul\":5751:5754   */\n      dup5\n        /* \"#utility.yul\":5745:5749   */\n      dup3\n        /* \"#utility.yul\":5741:5755   */\n      sub\n        /* \"#utility.yul\":5734:5738   */\n      0x80\n        /* \"#utility.yul\":5729:5732   */\n      dup7\n        /* \"#utility.yul\":5725:5739   */\n      add\n        /* \"#utility.yul\":5718:5756   */\n      mstore\n        /* \"#utility.yul\":5777:5850   */\n      tag_205\n        /* \"#utility.yul\":5845:5849   */\n      dup3\n        /* \"#utility.yul\":5831:5843   */\n      dup3\n        /* \"#utility.yul\":5777:5850   */\n      tag_109\n      jump\t// in\n    tag_205:\n        /* \"#utility.yul\":5769:5850   */\n      swap2\n      pop\n        /* \"#utility.yul\":5617:5861   */\n      pop\n        /* \"#utility.yul\":5951:5955   */\n      0xa0\n        /* \"#utility.yul\":5944:5949   */\n      dup4\n        /* \"#utility.yul\":5940:5956   */\n      add\n        /* \"#utility.yul\":5934:5957   */\n      mload\n        /* \"#utility.yul\":6004:6007   */\n      dup5\n        /* \"#utility.yul\":5998:6002   */\n      dup3\n        /* \"#utility.yul\":5994:6008   */\n      sub\n        /* \"#utility.yul\":5987:5991   */\n      0xa0\n        /* \"#utility.yul\":5982:5985   */\n      dup7\n        /* \"#utility.yul\":5978:5992   */\n      add\n        /* \"#utility.yul\":5971:6009   */\n      mstore\n        /* \"#utility.yul\":6030:6103   */\n      tag_206\n        /* \"#utility.yul\":6098:6102   */\n      dup3\n        /* \"#utility.yul\":6084:6096   */\n      dup3\n        /* \"#utility.yul\":6030:6103   */\n      tag_109\n      jump\t// in\n    tag_206:\n        /* \"#utility.yul\":6022:6103   */\n      swap2\n      pop\n        /* \"#utility.yul\":5871:6114   */\n      pop\n        /* \"#utility.yul\":6131:6135   */\n      dup1\n        /* \"#utility.yul\":6124:6135   */\n      swap2\n      pop\n        /* \"#utility.yul\":4724:6141   */\n      pop\n        /* \"#utility.yul\":4612:6141   */\n      swap3\n      swap2\n      pop\n      pop\n      jump\t// out\n        /* \"#utility.yul\":6147:6594   */\n    tag_11:\n        /* \"#utility.yul\":6300:6304   */\n      0x00\n        /* \"#utility.yul\":6338:6340   */\n      0x40\n        /* \"#utility.yul\":6327:6336   */\n      dup3\n        /* \"#utility.yul\":6323:6341   */\n      add\n        /* \"#utility.yul\":6315:6341   */\n      swap1\n      pop\n        /* \"#utility.yul\":6351:6416   */\n      tag_208\n        /* \"#utility.yul\":6413:6414   */\n      0x00\n        /* \"#utility.yul\":6402:6411   */\n      dup4\n        /* \"#utility.yul\":6398:6415   */\n      add\n        /* \"#utility.yul\":6389:6395   */\n      dup6\n        /* \"#utility.yul\":6351:6416   */\n      tag_103\n      jump\t// in\n    tag_208:\n        /* \"#utility.yul\":6463:6472   */\n      dup2\n        /* \"#utility.yul\":6457:6461   */\n      dup2\n        /* \"#utility.yul\":6453:6473   */\n      sub\n        /* \"#utility.yul\":6448:6450   */\n      0x20\n        /* \"#utility.yul\":6437:6446   */\n      dup4\n        /* \"#utility.yul\":6433:6451   */\n      add\n        /* \"#utility.yul\":6426:6474   */\n      mstore\n        /* \"#utility.yul\":6491:6587   */\n      tag_209\n        /* \"#utility.yul\":6582:6586   */\n      dup2\n        /* \"#utility.yul\":6573:6579   */\n      dup5\n        /* \"#utility.yul\":6491:6587   */\n      tag_112\n      jump\t// in\n    tag_209:\n        /* \"#utility.yul\":6483:6587   */\n      swap1\n      pop\n        /* \"#utility.yul\":6147:6594   */\n      swap4\n      swap3\n      pop\n      pop\n      pop\n      jump\t// out\n        /* \"#utility.yul\":6600:6722   */\n    tag_113:\n        /* \"#utility.yul\":6673:6697   */\n      tag_211\n        /* \"#utility.yul\":6691:6696   */\n      dup2\n        /* \"#utility.yul\":6673:6697   */\n      tag_110\n      jump\t// in\n    tag_211:\n        /* \"#utility.yul\":6666:6671   */\n      dup2\n        /* \"#utility.yul\":6663:6698   */\n      eq\n        /* \"#utility.yul\":6653:6716   */\n      tag_212\n      jumpi\n        /* \"#utility.yul\":6712:6713   */\n      0x00\n        /* \"#utility.yul\":6709:6710   */\n      dup1\n        /* \"#utility.yul\":6702:6714   */\n      revert\n        /* \"#utility.yul\":6653:6716   */\n    tag_212:\n        /* \"#utility.yul\":6600:6722   */\n      pop\n      jump\t// out\n        /* \"#utility.yul\":6728:6867   */\n    tag_114:\n        /* \"#utility.yul\":6774:6779   */\n      0x00\n        /* \"#utility.yul\":6812:6818   */\n      dup2\n        /* \"#utility.yul\":6799:6819   */\n      calldataload\n        /* \"#utility.yul\":6790:6819   */\n      swap1\n      pop\n        /* \"#utility.yul\":6828:6861   */\n      tag_214\n        /* \"#utility.yul\":6855:6860   */\n      dup2\n        /* \"#utility.yul\":6828:6861   */\n      tag_113\n      jump\t// in\n    tag_214:\n        /* \"#utility.yul\":6728:6867   */\n      swap3\n      swap2\n      pop\n      pop\n      jump\t// out\n        /* \"#utility.yul\":6873:8504   */\n    tag_14:\n        /* \"#utility.yul\":7008:7014   */\n      0x00\n        /* \"#utility.yul\":7016:7022   */\n      dup1\n        /* \"#utility.yul\":7024:7030   */\n      0x00\n        /* \"#utility.yul\":7032:7038   */\n      dup1\n        /* \"#utility.yul\":7040:7046   */\n      0x00\n        /* \"#utility.yul\":7089:7092   */\n      0xa0\n        /* \"#utility.yul\":7077:7086   */\n      dup7\n        /* \"#utility.yul\":7068:7075   */\n      dup9\n        /* \"#utility.yul\":7064:7087   */\n      sub\n        /* \"#utility.yul\":7060:7093   */\n      slt\n        /* \"#utility.yul\":7057:7177   */\n      iszero\n      tag_216\n      jumpi\n        /* \"#utility.yul\":7096:7175   */\n      tag_217\n      tag_90\n      jump\t// in\n    tag_217:\n        /* \"#utility.yul\":7057:7177   */\n    tag_216:\n        /* \"#utility.yul\":7244:7245   */\n      0x00\n        /* \"#utility.yul\":7233:7242   */\n      dup7\n        /* \"#utility.yul\":7229:7246   */\n      add\n        /* \"#utility.yul\":7216:7247   */\n      calldataload\n        /* \"#utility.yul\":7274:7292   */\n      0xffffffffffffffff\n        /* \"#utility.yul\":7266:7272   */\n      dup2\n        /* \"#utility.yul\":7263:7293   */\n      gt\n        /* \"#utility.yul\":7260:7377   */\n      iszero\n      tag_218\n      jumpi\n        /* \"#utility.yul\":7296:7375   */\n      tag_219\n      tag_91\n      jump\t// in\n    tag_219:\n        /* \"#utility.yul\":7260:7377   */\n    tag_218:\n        /* \"#utility.yul\":7401:7464   */\n      tag_220\n        /* \"#utility.yul\":7456:7463   */\n      dup9\n        /* \"#utility.yul\":7447:7453   */\n      dup3\n        /* \"#utility.yul\":7436:7445   */\n      dup10\n        /* \"#utility.yul\":7432:7454   */\n      add\n        /* \"#utility.yul\":7401:7464   */\n      tag_101\n      jump\t// in\n    tag_220:\n        /* \"#utility.yul\":7391:7464   */\n      swap6\n      pop\n        /* \"#utility.yul\":7187:7474   */\n      pop\n        /* \"#utility.yul\":7513:7515   */\n      0x20\n        /* \"#utility.yul\":7539:7592   */\n      tag_221\n        /* \"#utility.yul\":7584:7591   */\n      dup9\n        /* \"#utility.yul\":7575:7581   */\n      dup3\n        /* \"#utility.yul\":7564:7573   */\n      dup10\n        /* \"#utility.yul\":7560:7582   */\n      add\n        /* \"#utility.yul\":7539:7592   */\n      tag_114\n      jump\t// in\n    tag_221:\n        /* \"#utility.yul\":7529:7592   */\n      swap5\n      pop\n        /* \"#utility.yul\":7484:7602   */\n      pop\n        /* \"#utility.yul\":7669:7671   */\n      0x40\n        /* \"#utility.yul\":7658:7667   */\n      dup7\n        /* \"#utility.yul\":7654:7672   */\n      add\n        /* \"#utility.yul\":7641:7673   */\n      calldataload\n        /* \"#utility.yul\":7700:7718   */\n      0xffffffffffffffff\n        /* \"#utility.yul\":7692:7698   */\n      dup2\n        /* \"#utility.yul\":7689:7719   */\n      gt\n        /* \"#utility.yul\":7686:7803   */\n      iszero\n      tag_222\n      jumpi\n        /* \"#utility.yul\":7722:7801   */\n      tag_223\n      tag_91\n      jump\t// in\n    tag_223:\n        /* \"#utility.yul\":7686:7803   */\n    tag_222:\n        /* \"#utility.yul\":7827:7890   */\n      tag_224\n        /* \"#utility.yul\":7882:7889   */\n      dup9\n        /* \"#utility.yul\":7873:7879   */\n      dup3\n        /* \"#utility.yul\":7862:7871   */\n      dup10\n        /* \"#utility.yul\":7858:7880   */\n      add\n        /* \"#utility.yul\":7827:7890   */\n      tag_101\n      jump\t// in\n    tag_224:\n        /* \"#utility.yul\":7817:7890   */\n      swap4\n      pop\n        /* \"#utility.yul\":7612:7900   */\n      pop\n        /* \"#utility.yul\":7967:7969   */\n      0x60\n        /* \"#utility.yul\":7956:7965   */\n      dup7\n        /* \"#utility.yul\":7952:7970   */\n      add\n        /* \"#utility.yul\":7939:7971   */\n      calldataload\n        /* \"#utility.yul\":7998:8016   */\n      0xffffffffffffffff\n        /* \"#utility.yul\":7990:7996   */\n      dup2\n        /* \"#utility.yul\":7987:8017   */\n      gt\n        /* \"#utility.yul\":7984:8101   */\n      iszero\n      tag_225\n      jumpi\n        /* \"#utility.yul\":8020:8099   */\n      tag_226\n      tag_91\n      jump\t// in\n    tag_226:\n        /* \"#utility.yul\":7984:8101   */\n    tag_225:\n        /* \"#utility.yul\":8125:8188   */\n      tag_227\n        /* \"#utility.yul\":8180:8187   */\n      dup9\n        /* \"#utility.yul\":8171:8177   */\n      dup3\n        /* \"#utility.yul\":8160:8169   */\n      dup10\n        /* \"#utility.yul\":8156:8178   */\n      add\n        /* \"#utility.yul\":8125:8188   */\n      tag_101\n      jump\t// in\n    tag_227:\n        /* \"#utility.yul\":8115:8188   */\n      swap3\n      pop\n        /* \"#utility.yul\":7910:8198   */\n      pop\n        /* \"#utility.yul\":8265:8268   */\n      0x80\n        /* \"#utility.yul\":8254:8263   */\n      dup7\n        /* \"#utility.yul\":8250:8269   */\n      add\n        /* \"#utility.yul\":8237:8270   */\n      calldataload\n        /* \"#utility.yul\":8297:8315   */\n      0xffffffffffffffff\n        /* \"#utility.yul\":8289:8295   */\n      dup2\n        /* \"#utility.yul\":8286:8316   */\n      gt\n        /* \"#utility.yul\":8283:8400   */\n      iszero\n      tag_228\n      jumpi\n        /* \"#utility.yul\":8319:8398   */\n      tag_229\n      tag_91\n      jump\t// in\n    tag_229:\n        /* \"#utility.yul\":8283:8400   */\n    tag_228:\n        /* \"#utility.yul\":8424:8487   */\n      tag_230\n        /* \"#utility.yul\":8479:8486   */\n      dup9\n        /* \"#utility.yul\":8470:8476   */\n      dup3\n        /* \"#utility.yul\":8459:8468   */\n      dup10\n        /* \"#utility.yul\":8455:8477   */\n      add\n        /* \"#utility.yul\":8424:8487   */\n      tag_101\n      jump\t// in\n    tag_230:\n        /* \"#utility.yul\":8414:8487   */\n      swap2\n      pop\n        /* \"#utility.yul\":8208:8497   */\n      pop\n        /* \"#utility.yul\":6873:8504   */\n      swap3\n      swap6\n      pop\n      swap3\n      swap6\n      swap1\n      swap4\n      pop\n      jump\t// out\n        /* \"#utility.yul\":8510:8632   */\n    tag_115:\n        /* \"#utility.yul\":8583:8607   */\n      tag_232\n        /* \"#utility.yul\":8601:8606   */\n      dup2\n        /* \"#utility.yul\":8583:8607   */\n      tag_104\n      jump\t// in\n    tag_232:\n        /* \"#utility.yul\":8576:8581   */\n      dup2\n        /* \"#utility.yul\":8573:8608   */\n      eq\n        /* \"#utility.yul\":8563:8626   */\n      tag_233\n      jumpi\n        /* \"#utility.yul\":8622:8623   */\n      0x00\n        /* \"#utility.yul\":8619:8620   */\n      dup1\n        /* \"#utility.yul\":8612:8624   */\n      revert\n        /* \"#utility.yul\":8563:8626   */\n    tag_233:\n        /* \"#utility.yul\":8510:8632   */\n      pop\n      jump\t// out\n        /* \"#utility.yul\":8638:8777   */\n    tag_116:\n        /* \"#utility.yul\":8684:8689   */\n      0x00\n        /* \"#utility.yul\":8722:8728   */\n      dup2\n        /* \"#utility.yul\":8709:8729   */\n      calldataload\n        /* \"#utility.yul\":8700:8729   */\n      swap1\n      pop\n        /* \"#utility.yul\":8738:8771   */\n      tag_235\n        /* \"#utility.yul\":8765:8770   */\n      dup2\n        /* \"#utility.yul\":8738:8771   */\n      tag_115\n      jump\t// in\n    tag_235:\n        /* \"#utility.yul\":8638:8777   */\n      swap3\n      swap2\n      pop\n      pop\n      jump\t// out\n        /* \"#utility.yul\":8783:9112   */\n    tag_18:\n        /* \"#utility.yul\":8842:8848   */\n      0x00\n        /* \"#utility.yul\":8891:8893   */\n      0x20\n        /* \"#utility.yul\":8879:8888   */\n      dup3\n        /* \"#utility.yul\":8870:8877   */\n      dup5\n        /* \"#utility.yul\":8866:8889   */\n      sub\n        /* \"#utility.yul\":8862:8894   */\n      slt\n        /* \"#utility.yul\":8859:8978   */\n      iszero\n      tag_237\n      jumpi\n        /* \"#utility.yul\":8897:8976   */\n      tag_238\n      tag_90\n      jump\t// in\n    tag_238:\n        /* \"#utility.yul\":8859:8978   */\n    tag_237:\n        /* \"#utility.yul\":9017:9018   */\n      0x00\n        /* \"#utility.yul\":9042:9095   */\n      tag_239\n        /* \"#utility.yul\":9087:9094   */\n      dup5\n        /* \"#utility.yul\":9078:9084   */\n      dup3\n        /* \"#utility.yul\":9067:9076   */\n      dup6\n        /* \"#utility.yul\":9063:9085   */\n      add\n        /* \"#utility.yul\":9042:9095   */\n      tag_116\n      jump\t// in\n    tag_239:\n        /* \"#utility.yul\":9032:9095   */\n      swap2\n      pop\n        /* \"#utility.yul\":8988:9105   */\n      pop\n        /* \"#utility.yul\":8783:9112   */\n      swap3\n      swap2\n      pop\n      pop\n      jump\t// out\n        /* \"#utility.yul\":9118:9467   */\n    tag_21:\n        /* \"#utility.yul\":9249:9253   */\n      0x00\n        /* \"#utility.yul\":9287:9289   */\n      0x20\n        /* \"#utility.yul\":9276:9285   */\n      dup3\n        /* \"#utility.yul\":9272:9290   */\n      add\n        /* \"#utility.yul\":9264:9290   */\n      swap1\n      pop\n        /* \"#utility.yul\":9336:9345   */\n      dup2\n        /* \"#utility.yul\":9330:9334   */\n      dup2\n        /* \"#utility.yul\":9326:9346   */\n      sub\n        /* \"#utility.yul\":9322:9323   */\n      0x00\n        /* \"#utility.yul\":9311:9320   */\n      dup4\n        /* \"#utility.yul\":9307:9324   */\n      add\n        /* \"#utility.yul\":9300:9347   */\n      mstore\n        /* \"#utility.yul\":9364:9460   */\n      tag_241\n        /* \"#utility.yul\":9455:9459   */\n      dup2\n        /* \"#utility.yul\":9446:9452   */\n      dup5\n        /* \"#utility.yul\":9364:9460   */\n      tag_112\n      jump\t// in\n    tag_241:\n        /* \"#utility.yul\":9356:9460   */\n      swap1\n      pop\n        /* \"#utility.yul\":9118:9467   */\n      swap3\n      swap2\n      pop\n      pop\n      jump\t// out\n        /* \"#utility.yul\":9473:9621   */\n    tag_117:\n        /* \"#utility.yul\":9575:9586   */\n      0x00\n        /* \"#utility.yul\":9612:9615   */\n      dup2\n        /* \"#utility.yul\":9597:9615   */\n      swap1\n      pop\n        /* \"#utility.yul\":9473:9621   */\n      swap3\n      swap2\n      pop\n      pop\n      jump\t// out\n        /* \"#utility.yul\":9627:10017   */\n    tag_118:\n        /* \"#utility.yul\":9733:9736   */\n      0x00\n        /* \"#utility.yul\":9761:9800   */\n      tag_244\n        /* \"#utility.yul\":9794:9799   */\n      dup3\n        /* \"#utility.yul\":9761:9800   */\n      tag_106\n      jump\t// in\n    tag_244:\n        /* \"#utility.yul\":9816:9905   */\n      tag_245\n        /* \"#utility.yul\":9898:9904   */\n      dup2\n        /* \"#utility.yul\":9893:9896   */\n      dup6\n        /* \"#utility.yul\":9816:9905   */\n      tag_117\n      jump\t// in\n    tag_245:\n        /* \"#utility.yul\":9809:9905   */\n      swap4\n      pop\n        /* \"#utility.yul\":9914:9979   */\n      tag_246\n        /* \"#utility.yul\":9972:9978   */\n      dup2\n        /* \"#utility.yul\":9967:9970   */\n      dup6\n        /* \"#utility.yul\":9960:9964   */\n      0x20\n        /* \"#utility.yul\":9953:9958   */\n      dup7\n        /* \"#utility.yul\":9949:9965   */\n      add\n        /* \"#utility.yul\":9914:9979   */\n      tag_108\n      jump\t// in\n    tag_246:\n        /* \"#utility.yul\":10004:10010   */\n      dup1\n        /* \"#utility.yul\":9999:10002   */\n      dup5\n        /* \"#utility.yul\":9995:10011   */\n      add\n        /* \"#utility.yul\":9988:10011   */\n      swap2\n      pop\n        /* \"#utility.yul\":9737:10017   */\n      pop\n        /* \"#utility.yul\":9627:10017   */\n      swap3\n      swap2\n      pop\n      pop\n      jump\t// out\n        /* \"#utility.yul\":10023:10298   */\n    tag_26:\n        /* \"#utility.yul\":10155:10158   */\n      0x00\n        /* \"#utility.yul\":10177:10272   */\n      tag_248\n        /* \"#utility.yul\":10268:10271   */\n      dup3\n        /* \"#utility.yul\":10259:10265   */\n      dup5\n        /* \"#utility.yul\":10177:10272   */\n      tag_118\n      jump\t// in\n    tag_248:\n        /* \"#utility.yul\":10170:10272   */\n      swap2\n      pop\n        /* \"#utility.yul\":10289:10292   */\n      dup2\n        /* \"#utility.yul\":10282:10292   */\n      swap1\n      pop\n        /* \"#utility.yul\":10023:10298   */\n      swap3\n      swap2\n      pop\n      pop\n      jump\t// out\n        /* \"#utility.yul\":10304:10484   */\n    tag_119:\n        /* \"#utility.yul\":10352:10429   */\n      0x4e487b7100000000000000000000000000000000000000000000000000000000\n        /* \"#utility.yul\":10349:10350   */\n      0x00\n        /* \"#utility.yul\":10342:10430   */\n      mstore\n        /* \"#utility.yul\":10449:10453   */\n      0x22\n        /* \"#utility.yul\":10446:10447   */\n      0x04\n        /* \"#utility.yul\":10439:10454   */\n      mstore\n        /* \"#utility.yul\":10473:10477   */\n      0x24\n        /* \"#utility.yul\":10470:10471   */\n      0x00\n        /* \"#utility.yul\":10463:10478   */\n      revert\n        /* \"#utility.yul\":10490:10810   */\n    tag_29:\n        /* \"#utility.yul\":10534:10540   */\n      0x00\n        /* \"#utility.yul\":10571:10572   */\n      0x02\n        /* \"#utility.yul\":10565:10569   */\n      dup3\n        /* \"#utility.yul\":10561:10573   */\n      div\n        /* \"#utility.yul\":10551:10573   */\n      swap1\n      pop\n        /* \"#utility.yul\":10618:10619   */\n      0x01\n        /* \"#utility.yul\":10612:10616   */\n      dup3\n        /* \"#utility.yul\":10608:10620   */\n      and\n        /* \"#utility.yul\":10639:10657   */\n      dup1\n        /* \"#utility.yul\":10629:10710   */\n      tag_251\n      jumpi\n        /* \"#utility.yul\":10695:10699   */\n      0x7f\n        /* \"#utility.yul\":10687:10693   */\n      dup3\n        /* \"#utility.yul\":10683:10700   */\n      and\n        /* \"#utility.yul\":10673:10700   */\n      swap2\n      pop\n        /* \"#utility.yul\":10629:10710   */\n    tag_251:\n        /* \"#utility.yul\":10757:10759   */\n      0x20\n        /* \"#utility.yul\":10749:10755   */\n      dup3\n        /* \"#utility.yul\":10746:10760   */\n      lt\n        /* \"#utility.yul\":10726:10744   */\n      dup2\n        /* \"#utility.yul\":10723:10761   */\n      sub\n        /* \"#utility.yul\":10720:10804   */\n      tag_252\n      jumpi\n        /* \"#utility.yul\":10776:10794   */\n      tag_253\n      tag_119\n      jump\t// in\n    tag_253:\n        /* \"#utility.yul\":10720:10804   */\n    tag_252:\n        /* \"#utility.yul\":10541:10810   */\n      pop\n        /* \"#utility.yul\":10490:10810   */\n      swap2\n      swap1\n      pop\n      jump\t// out\n        /* \"#utility.yul\":10816:10895   */\n    tag_120:\n        /* \"#utility.yul\":10855:10862   */\n      0x00\n        /* \"#utility.yul\":10884:10889   */\n      dup2\n        /* \"#utility.yul\":10873:10889   */\n      swap1\n      pop\n        /* \"#utility.yul\":10816:10895   */\n      swap2\n      swap1\n      pop\n      jump\t// out\n        /* \"#utility.yul\":10901:11058   */\n    tag_121:\n        /* \"#utility.yul\":11006:11051   */\n      tag_256\n        /* \"#utility.yul\":11026:11050   */\n      tag_257\n        /* \"#utility.yul\":11044:11049   */\n      dup3\n        /* \"#utility.yul\":11026:11050   */\n      tag_110\n      jump\t// in\n    tag_257:\n        /* \"#utility.yul\":11006:11051   */\n      tag_120\n      jump\t// in\n    tag_256:\n        /* \"#utility.yul\":11001:11004   */\n      dup3\n        /* \"#utility.yul\":10994:11052   */\n      mstore\n        /* \"#utility.yul\":10901:11058   */\n      pop\n      pop\n      jump\t// out\n        /* \"#utility.yul\":11064:11480   */\n    tag_51:\n        /* \"#utility.yul\":11224:11227   */\n      0x00\n        /* \"#utility.yul\":11246:11341   */\n      tag_259\n        /* \"#utility.yul\":11337:11340   */\n      dup3\n        /* \"#utility.yul\":11328:11334   */\n      dup6\n        /* \"#utility.yul\":11246:11341   */\n      tag_118\n      jump\t// in\n    tag_259:\n        /* \"#utility.yul\":11239:11341   */\n      swap2\n      pop\n        /* \"#utility.yul\":11351:11426   */\n      tag_260\n        /* \"#utility.yul\":11422:11425   */\n      dup3\n        /* \"#utility.yul\":11413:11419   */\n      dup5\n        /* \"#utility.yul\":11351:11426   */\n      tag_121\n      jump\t// in\n    tag_260:\n        /* \"#utility.yul\":11451:11453   */\n      0x20\n        /* \"#utility.yul\":11446:11449   */\n      dup3\n        /* \"#utility.yul\":11442:11454   */\n      add\n        /* \"#utility.yul\":11435:11454   */\n      swap2\n      pop\n        /* \"#utility.yul\":11471:11474   */\n      dup2\n        /* \"#utility.yul\":11464:11474   */\n      swap1\n      pop\n        /* \"#utility.yul\":11064:11480   */\n      swap4\n      swap3\n      pop\n      pop\n      pop\n      jump\t// out\n        /* \"#utility.yul\":11486:11655   */\n    tag_122:\n        /* \"#utility.yul\":11570:11581   */\n      0x00\n        /* \"#utility.yul\":11604:11610   */\n      dup3\n        /* \"#utility.yul\":11599:11602   */\n      dup3\n        /* \"#utility.yul\":11592:11611   */\n      mstore\n        /* \"#utility.yul\":11644:11648   */\n      0x20\n        /* \"#utility.yul\":11639:11642   */\n      dup3\n        /* \"#utility.yul\":11635:11649   */\n      add\n        /* \"#utility.yul\":11620:11649   */\n      swap1\n      pop\n        /* \"#utility.yul\":11486:11655   */\n      swap3\n      swap2\n      pop\n      pop\n      jump\t// out\n        /* \"#utility.yul\":11661:11886   */\n    tag_123:\n        /* \"#utility.yul\":11801:11835   */\n      0x4e474f20616c7265616479207265676973746572656420776974682074686973\n        /* \"#utility.yul\":11797:11798   */\n      0x00\n        /* \"#utility.yul\":11789:11795   */\n      dup3\n        /* \"#utility.yul\":11785:11799   */\n      add\n        /* \"#utility.yul\":11778:11836   */\n      mstore\n        /* \"#utility.yul\":11870:11878   */\n      0x20656d61696c0000000000000000000000000000000000000000000000000000\n        /* \"#utility.yul\":11865:11867   */\n      0x20\n        /* \"#utility.yul\":11857:11863   */\n      dup3\n        /* \"#utility.yul\":11853:11868   */\n      add\n        /* \"#utility.yul\":11846:11879   */\n      mstore\n        /* \"#utility.yul\":11661:11886   */\n      pop\n      jump\t// out\n        /* \"#utility.yul\":11892:12258   */\n    tag_124:\n        /* \"#utility.yul\":12034:12037   */\n      0x00\n        /* \"#utility.yul\":12055:12122   */\n      tag_264\n        /* \"#utility.yul\":12119:12121   */\n      0x26\n        /* \"#utility.yul\":12114:12117   */\n      dup4\n        /* \"#utility.yul\":12055:12122   */\n      tag_122\n      jump\t// in\n    tag_264:\n        /* \"#utility.yul\":12048:12122   */\n      swap2\n      pop\n        /* \"#utility.yul\":12131:12224   */\n      tag_265\n        /* \"#utility.yul\":12220:12223   */\n      dup3\n        /* \"#utility.yul\":12131:12224   */\n      tag_123\n      jump\t// in\n    tag_265:\n        /* \"#utility.yul\":12249:12251   */\n      0x40\n        /* \"#utility.yul\":12244:12247   */\n      dup3\n        /* \"#utility.yul\":12240:12252   */\n      add\n        /* \"#utility.yul\":12233:12252   */\n      swap1\n      pop\n        /* \"#utility.yul\":11892:12258   */\n      swap2\n      swap1\n      pop\n      jump\t// out\n        /* \"#utility.yul\":12264:12683   */\n    tag_55:\n        /* \"#utility.yul\":12430:12434   */\n      0x00\n        /* \"#utility.yul\":12468:12470   */\n      0x20\n        /* \"#utility.yul\":12457:12466   */\n      dup3\n        /* \"#utility.yul\":12453:12471   */\n      add\n        /* \"#utility.yul\":12445:12471   */\n      swap1\n      pop\n        /* \"#utility.yul\":12517:12526   */\n      dup2\n        /* \"#utility.yul\":12511:12515   */\n      dup2\n        /* \"#utility.yul\":12507:12527   */\n      sub\n        /* \"#utility.yul\":12503:12504   */\n      0x00\n        /* \"#utility.yul\":12492:12501   */\n      dup4\n        /* \"#utility.yul\":12488:12505   */\n      add\n        /* \"#utility.yul\":12481:12528   */\n      mstore\n        /* \"#utility.yul\":12545:12676   */\n      tag_267\n        /* \"#utility.yul\":12671:12675   */\n      dup2\n        /* \"#utility.yul\":12545:12676   */\n      tag_124\n      jump\t// in\n    tag_267:\n        /* \"#utility.yul\":12537:12676   */\n      swap1\n      pop\n        /* \"#utility.yul\":12264:12683   */\n      swap2\n      swap1\n      pop\n      jump\t// out\n        /* \"#utility.yul\":12689:12830   */\n    tag_125:\n        /* \"#utility.yul\":12738:12742   */\n      0x00\n        /* \"#utility.yul\":12761:12764   */\n      dup2\n        /* \"#utility.yul\":12753:12764   */\n      swap1\n      pop\n        /* \"#utility.yul\":12784:12787   */\n      dup2\n        /* \"#utility.yul\":12781:12782   */\n      0x00\n        /* \"#utility.yul\":12774:12788   */\n      mstore\n        /* \"#utility.yul\":12818:12822   */\n      0x20\n        /* \"#utility.yul\":12815:12816   */\n      0x00\n        /* \"#utility.yul\":12805:12823   */\n      keccak256\n        /* \"#utility.yul\":12797:12823   */\n      swap1\n      pop\n        /* \"#utility.yul\":12689:12830   */\n      swap2\n      swap1\n      pop\n      jump\t// out\n        /* \"#utility.yul\":12836:12929   */\n    tag_126:\n        /* \"#utility.yul\":12873:12879   */\n      0x00\n        /* \"#utility.yul\":12920:12922   */\n      0x20\n        /* \"#utility.yul\":12915:12917   */\n      0x1f\n        /* \"#utility.yul\":12908:12913   */\n      dup4\n        /* \"#utility.yul\":12904:12918   */\n      add\n        /* \"#utility.yul\":12900:12923   */\n      div\n        /* \"#utility.yul\":12890:12923   */\n      swap1\n      pop\n        /* \"#utility.yul\":12836:12929   */\n      swap2\n      swap1\n      pop\n      jump\t// out\n        /* \"#utility.yul\":12935:13042   */\n    tag_127:\n        /* \"#utility.yul\":12979:12987   */\n      0x00\n        /* \"#utility.yul\":13029:13034   */\n      dup3\n        /* \"#utility.yul\":13023:13027   */\n      dup3\n        /* \"#utility.yul\":13019:13035   */\n      shl\n        /* \"#utility.yul\":12998:13035   */\n      swap1\n      pop\n        /* \"#utility.yul\":12935:13042   */\n      swap3\n      swap2\n      pop\n      pop\n      jump\t// out\n        /* \"#utility.yul\":13048:13441   */\n    tag_128:\n        /* \"#utility.yul\":13117:13123   */\n      0x00\n        /* \"#utility.yul\":13167:13168   */\n      0x08\n        /* \"#utility.yul\":13155:13165   */\n      dup4\n        /* \"#utility.yul\":13151:13169   */\n      mul\n        /* \"#utility.yul\":13190:13287   */\n      tag_272\n        /* \"#utility.yul\":13220:13286   */\n      0xffffffffffffffffffffffffffffffffffffffffffffffffffffffffffffffff\n        /* \"#utility.yul\":13209:13218   */\n      dup3\n        /* \"#utility.yul\":13190:13287   */\n      tag_127\n      jump\t// in\n    tag_272:\n        /* \"#utility.yul\":13308:13347   */\n      tag_273\n        /* \"#utility.yul\":13338:13346   */\n      dup7\n        /* \"#utility.yul\":13327:13336   */\n      dup4\n        /* \"#utility.yul\":13308:13347   */\n      tag_127\n      jump\t// in\n    tag_273:\n        /* \"#utility.yul\":13296:13347   */\n      swap6\n      pop\n        /* \"#utility.yul\":13380:13384   */\n      dup1\n        /* \"#utility.yul\":13376:13385   */\n      not\n        /* \"#utility.yul\":13369:13374   */\n      dup5\n        /* \"#utility.yul\":13365:13386   */\n      and\n        /* \"#utility.yul\":13356:13386   */\n      swap4\n      pop\n        /* \"#utility.yul\":13429:13433   */\n      dup1\n        /* \"#utility.yul\":13419:13427   */\n      dup7\n        /* \"#utility.yul\":13415:13434   */\n      and\n        /* \"#utility.yul\":13408:13413   */\n      dup5\n        /* \"#utility.yul\":13405:13435   */\n      or\n        /* \"#utility.yul\":13395:13435   */\n      swap3\n      pop\n        /* \"#utility.yul\":13124:13441   */\n      pop\n      pop\n        /* \"#utility.yul\":13048:13441   */\n      swap4\n      swap3\n      pop\n      pop\n      pop\n      jump\t// out\n        /* \"#utility.yul\":13447:13507   */\n    tag_129:\n        /* \"#utility.yul\":13475:13478   */\n      0x00\n        /* \"#utility.yul\":13496:13501   */\n      dup2\n        /* \"#utility.yul\":13489:13501   */\n      swap1\n      pop\n        /* \"#utility.yul\":13447:13507   */\n      swap2\n      swap1\n      pop\n      jump\t// out\n        /* \"#utility.yul\":13513:13655   */\n    tag_130:\n        /* \"#utility.yul\":13563:13572   */\n      0x00\n        /* \"#utility.yul\":13596:13649   */\n      tag_276\n        /* \"#utility.yul\":13614:13648   */\n      tag_277\n        /* \"#utility.yul\":13623:13647   */\n      tag_278\n        /* \"#utility.yul\":13641:13646   */\n      dup5\n        /* \"#utility.yul\":13623:13647   */\n      tag_110\n      jump\t// in\n    tag_278:\n        /* \"#utility.yul\":13614:13648   */\n      tag_129\n      jump\t// in\n    tag_277:\n        /* \"#utility.yul\":13596:13649   */\n      tag_110\n      jump\t// in\n    tag_276:\n        /* \"#utility.yul\":13583:13649   */\n      swap1\n      pop\n        /* \"#utility.yul\":13513:13655   */\n      swap2\n      swap1\n      pop\n      jump\t// out\n        /* \"#utility.yul\":13661:13736   */\n    tag_131:\n        /* \"#utility.yul\":13704:13707   */\n      0x00\n        /* \"#utility.yul\":13725:13730   */\n      dup2\n        /* \"#utility.yul\":13718:13730   */\n      swap1\n      pop\n        /* \"#utility.yul\":13661:13736   */\n      swap2\n      swap1\n      pop\n      jump\t// out\n        /* \"#utility.yul\":13742:14011   */\n    tag_132:\n        /* \"#utility.yul\":13852:13891   */\n      tag_281\n        /* \"#utility.yul\":13883:13890   */\n      dup4\n        /* \"#utility.yul\":13852:13891   */\n      tag_130\n      jump\t// in\n    tag_281:\n        /* \"#utility.yul\":13913:14004   */\n      tag_282\n        /* \"#utility.yul\":13962:14003   */\n      tag_283\n        /* \"#utility.yul\":13986:14002   */\n      dup3\n        /* \"#utility.yul\":13962:14003   */\n      tag_131\n      jump\t// in\n    tag_283:\n        /* \"#utility.yul\":13954:13960   */\n      dup5\n        /* \"#utility.yul\":13947:13951   */\n      dup5\n        /* \"#utility.yul\":13941:13952   */\n      sload\n        /* \"#utility.yul\":13913:14004   */\n      tag_128\n      jump\t// in\n    tag_282:\n        /* \"#utility.yul\":13907:13911   */\n      dup3\n        /* \"#utility.yul\":13900:14005   */\n      sstore\n        /* \"#utility.yul\":13818:14011   */\n      pop\n        /* \"#utility.yul\":13742:14011   */\n      pop\n      pop\n      pop\n      jump\t// out\n        /* \"#utility.yul\":14017:14090   */\n    tag_133:\n        /* \"#utility.yul\":14062:14065   */\n      0x00\n        /* \"#utility.yul\":14017:14090   */\n      swap1\n      jump\t// out\n        /* \"#utility.yul\":14096:14285   */\n    tag_134:\n        /* \"#utility.yul\":14173:14205   */\n      tag_286\n      tag_133\n      jump\t// in\n    tag_286:\n        /* \"#utility.yul\":14214:14279   */\n      tag_287\n        /* \"#utility.yul\":14272:14278   */\n      dup2\n        /* \"#utility.yul\":14264:14270   */\n      dup5\n        /* \"#utility.yul\":14258:14262   */\n      dup5\n        /* \"#utility.yul\":14214:14279   */\n      tag_132\n      jump\t// in\n    tag_287:\n        /* \"#utility.yul\":14149:14285   */\n      pop\n        /* \"#utility.yul\":14096:14285   */\n      pop\n      pop\n      jump\t// out\n        /* \"#utility.yul\":14291:14477   */\n    tag_135:\n        /* \"#utility.yul\":14351:14471   */\n    tag_289:\n        /* \"#utility.yul\":14368:14371   */\n      dup2\n        /* \"#utility.yul\":14361:14366   */\n      dup2\n        /* \"#utility.yul\":14358:14372   */\n      lt\n        /* \"#utility.yul\":14351:14471   */\n      iszero\n      tag_291\n      jumpi\n        /* \"#utility.yul\":14422:14461   */\n      tag_292\n        /* \"#utility.yul\":14459:14460   */\n      0x00\n        /* \"#utility.yul\":14452:14457   */\n      dup3\n        /* \"#utility.yul\":14422:14461   */\n      tag_134\n      jump\t// in\n    tag_292:\n        /* \"#utility.yul\":14395:14396   */\n      0x01\n        /* \"#utility.yul\":14388:14393   */\n      dup2\n        /* \"#utility.yul\":14384:14397   */\n      add\n        /* \"#utility.yul\":14375:14397   */\n      swap1\n      pop\n        /* \"#utility.yul\":14351:14471   */\n      jump(tag_289)\n    tag_291:\n        /* \"#utility.yul\":14291:14477   */\n      pop\n      pop\n      jump\t// out\n        /* \"#utility.yul\":14483:15026   */\n    tag_136:\n        /* \"#utility.yul\":14584:14586   */\n      0x1f\n        /* \"#utility.yul\":14579:14582   */\n      dup3\n        /* \"#utility.yul\":14576:14587   */\n      gt\n        /* \"#utility.yul\":14573:15019   */\n      iszero\n      tag_294\n      jumpi\n        /* \"#utility.yul\":14618:14656   */\n      tag_295\n        /* \"#utility.yul\":14650:14655   */\n      dup2\n        /* \"#utility.yul\":14618:14656   */\n      tag_125\n      jump\t// in\n    tag_295:\n        /* \"#utility.yul\":14702:14731   */\n      tag_296\n        /* \"#utility.yul\":14720:14730   */\n      dup5\n        /* \"#utility.yul\":14702:14731   */\n      tag_126\n      jump\t// in\n    tag_296:\n        /* \"#utility.yul\":14692:14700   */\n      dup2\n        /* \"#utility.yul\":14688:14732   */\n      add\n        /* \"#utility.yul\":14885:14887   */\n      0x20\n        /* \"#utility.yul\":14873:14883   */\n      dup6\n        /* \"#utility.yul\":14870:14888   */\n      lt\n        /* \"#utility.yul\":14867:14916   */\n      iszero\n      tag_297\n      jumpi\n        /* \"#utility.yul\":14906:14914   */\n      dup2\n        /* \"#utility.yul\":14891:14914   */\n      swap1\n      pop\n        /* \"#utility.yul\":14867:14916   */\n    tag_297:\n        /* \"#utility.yul\":14929:15009   */\n      tag_298\n        /* \"#utility.yul\":14985:15007   */\n      tag_299\n        /* \"#utility.yul\":15003:15006   */\n      dup6\n        /* \"#utility.yul\":14985:15007   */\n      tag_126\n      jump\t// in\n    tag_299:\n        /* \"#utility.yul\":14975:14983   */\n      dup4\n        /* \"#utility.yul\":14971:15008   */\n      add\n        /* \"#utility.yul\":14958:14969   */\n      dup3\n        /* \"#utility.yul\":14929:15009   */\n      tag_135\n      jump\t// in\n    tag_298:\n        /* \"#utility.yul\":14588:15019   */\n      pop\n      pop\n        /* \"#utility.yul\":14573:15019   */\n    tag_294:\n        /* \"#utility.yul\":14483:15026   */\n      pop\n      pop\n      pop\n      jump\t// out\n        /* \"#utility.yul\":15032:15149   */\n    tag_137:\n        /* \"#utility.yul\":15086:15094   */\n      0x00\n        /* \"#utility.yul\":15136:15141   */\n      dup3\n        /* \"#utility.yul\":15130:15134   */\n      dup3\n        /* \"#utility.yul\":15126:15142   */\n      shr\n        /* \"#utility.yul\":15105:15142   */\n      swap1\n      pop\n        /* \"#utility.yul\":15032:15149   */\n      swap3\n      swap2\n      pop\n      pop\n      jump\t// out\n        /* \"#utility.yul\":15155:15324   */\n    tag_138:\n        /* \"#utility.yul\":15199:15205   */\n      0x00\n        /* \"#utility.yul\":15232:15283   */\n      tag_302\n        /* \"#utility.yul\":15280:15281   */\n      0x00\n        /* \"#utility.yul\":15276:15282   */\n      not\n        /* \"#utility.yul\":15268:15273   */\n      dup5\n        /* \"#utility.yul\":15265:15266   */\n      0x08\n        /* \"#utility.yul\":15261:15274   */\n      mul\n        /* \"#utility.yul\":15232:15283   */\n      tag_137\n      jump\t// in\n    tag_302:\n        /* \"#utility.yul\":15228:15284   */\n      not\n        /* \"#utility.yul\":15313:15317   */\n      dup1\n        /* \"#utility.yul\":15307:15311   */\n      dup4\n        /* \"#utility.yul\":15303:15318   */\n      and\n        /* \"#utility.yul\":15293:15318   */\n      swap2\n      pop\n        /* \"#utility.yul\":15206:15324   */\n      pop\n        /* \"#utility.yul\":15155:15324   */\n      swap3\n      swap2\n      pop\n      pop\n      jump\t// out\n        /* \"#utility.yul\":15329:15624   */\n    tag_139:\n        /* \"#utility.yul\":15405:15409   */\n      0x00\n        /* \"#utility.yul\":15551:15580   */\n      tag_304\n        /* \"#utility.yul\":15576:15579   */\n      dup4\n        /* \"#utility.yul\":15570:15574   */\n      dup4\n        /* \"#utility.yul\":15551:15580   */\n      tag_138\n      jump\t// in\n    tag_304:\n        /* \"#utility.yul\":15543:15580   */\n      swap2\n      pop\n        /* \"#utility.yul\":15613:15616   */\n      dup3\n        /* \"#utility.yul\":15610:15611   */\n      0x02\n        /* \"#utility.yul\":15606:15617   */\n      mul\n        /* \"#utility.yul\":15600:15604   */\n      dup3\n        /* \"#utility.yul\":15597:15618   */\n      or\n        /* \"#utility.yul\":15589:15618   */\n      swap1\n      pop\n        /* \"#utility.yul\":15329:15624   */\n      swap3\n      swap2\n      pop\n      pop\n      jump\t// out\n        /* \"#utility.yul\":15629:17024   */\n    tag_57:\n        /* \"#utility.yul\":15746:15783   */\n      tag_306\n        /* \"#utility.yul\":15779:15782   */\n      dup3\n        /* \"#utility.yul\":15746:15783   */\n      tag_106\n      jump\t// in\n    tag_306:\n        /* \"#utility.yul\":15848:15866   */\n      0xffffffffffffffff\n        /* \"#utility.yul\":15840:15846   */\n      dup2\n        /* \"#utility.yul\":15837:15867   */\n      gt\n        /* \"#utility.yul\":15834:15890   */\n      iszero\n      tag_307\n      jumpi\n        /* \"#utility.yul\":15870:15888   */\n      tag_308\n      tag_95\n      jump\t// in\n    tag_308:\n        /* \"#utility.yul\":15834:15890   */\n    tag_307:\n        /* \"#utility.yul\":15914:15952   */\n      tag_309\n        /* \"#utility.yul\":15946:15950   */\n      dup3\n        /* \"#utility.yul\":15940:15951   */\n      sload\n        /* \"#utility.yul\":15914:15952   */\n      tag_29\n      jump\t// in\n    tag_309:\n        /* \"#utility.yul\":15999:16066   */\n      tag_310\n        /* \"#utility.yul\":16059:16065   */\n      dup3\n        /* \"#utility.yul\":16051:16057   */\n      dup3\n        /* \"#utility.yul\":16045:16049   */\n      dup6\n        /* \"#utility.yul\":15999:16066   */\n      tag_136\n      jump\t// in\n    tag_310:\n        /* \"#utility.yul\":16093:16094   */\n      0x00\n        /* \"#utility.yul\":16117:16121   */\n      0x20\n        /* \"#utility.yul\":16104:16121   */\n      swap1\n      pop\n        /* \"#utility.yul\":16149:16151   */\n      0x1f\n        /* \"#utility.yul\":16141:16147   */\n      dup4\n        /* \"#utility.yul\":16138:16152   */\n      gt\n        /* \"#utility.yul\":16166:16167   */\n      0x01\n        /* \"#utility.yul\":16161:16779   */\n      dup2\n      eq\n      tag_312\n      jumpi\n        /* \"#utility.yul\":16823:16824   */\n      0x00\n        /* \"#utility.yul\":16840:16846   */\n      dup5\n        /* \"#utility.yul\":16837:16914   */\n      iszero\n      tag_313\n      jumpi\n        /* \"#utility.yul\":16889:16898   */\n      dup3\n        /* \"#utility.yul\":16884:16887   */\n      dup8\n        /* \"#utility.yul\":16880:16899   */\n      add\n        /* \"#utility.yul\":16874:16900   */\n      mload\n        /* \"#utility.yul\":16865:16900   */\n      swap1\n      pop\n        /* \"#utility.yul\":16837:16914   */\n    tag_313:\n        /* \"#utility.yul\":16940:17007   */\n      tag_314\n        /* \"#utility.yul\":17000:17006   */\n      dup6\n        /* \"#utility.yul\":16993:16998   */\n      dup3\n        /* \"#utility.yul\":16940:17007   */\n      tag_139\n      jump\t// in\n    tag_314:\n        /* \"#utility.yul\":16934:16938   */\n      dup7\n        /* \"#utility.yul\":16927:17008   */\n      sstore\n        /* \"#utility.yul\":16796:17018   */\n      pop\n        /* \"#utility.yul\":16131:17018   */\n      jump(tag_311)\n        /* \"#utility.yul\":16161:16779   */\n    tag_312:\n        /* \"#utility.yul\":16213:16217   */\n      0x1f\n        /* \"#utility.yul\":16209:16218   */\n      not\n        /* \"#utility.yul\":16201:16207   */\n      dup5\n        /* \"#utility.yul\":16197:16219   */\n      and\n        /* \"#utility.yul\":16247:16284   */\n      tag_315\n        /* \"#utility.yul\":16279:16283   */\n      dup7\n        /* \"#utility.yul\":16247:16284   */\n      tag_125\n      jump\t// in\n    tag_315:\n        /* \"#utility.yul\":16306:16307   */\n      0x00\n        /* \"#utility.yul\":16320:16528   */\n    tag_316:\n        /* \"#utility.yul\":16334:16341   */\n      dup3\n        /* \"#utility.yul\":16331:16332   */\n      dup2\n        /* \"#utility.yul\":16328:16342   */\n      lt\n        /* \"#utility.yul\":16320:16528   */\n      iszero\n      tag_318\n      jumpi\n        /* \"#utility.yul\":16413:16422   */\n      dup5\n        /* \"#utility.yul\":16408:16411   */\n      dup10\n        /* \"#utility.yul\":16404:16423   */\n      add\n        /* \"#utility.yul\":16398:16424   */\n      mload\n        /* \"#utility.yul\":16390:16396   */\n      dup3\n        /* \"#utility.yul\":16383:16425   */\n      sstore\n        /* \"#utility.yul\":16464:16465   */\n      0x01\n        /* \"#utility.yul\":16456:16462   */\n      dup3\n        /* \"#utility.yul\":16452:16466   */\n      add\n        /* \"#utility.yul\":16442:16466   */\n      swap2\n      pop\n        /* \"#utility.yul\":16511:16513   */\n      0x20\n        /* \"#utility.yul\":16500:16509   */\n      dup6\n        /* \"#utility.yul\":16496:16514   */\n      add\n        /* \"#utility.yul\":16483:16514   */\n      swap5\n      pop\n        /* \"#utility.yul\":16357:16361   */\n      0x20\n        /* \"#utility.yul\":16354:16355   */\n      dup2\n        /* \"#utility.yul\":16350:16362   */\n      add\n        /* \"#utility.yul\":16345:16362   */\n      swap1\n      pop\n        /* \"#utility.yul\":16320:16528   */\n      jump(tag_316)\n    tag_318:\n        /* \"#utility.yul\":16556:16562   */\n      dup7\n        /* \"#utility.yul\":16547:16554   */\n      dup4\n        /* \"#utility.yul\":16544:16563   */\n      lt\n        /* \"#utility.yul\":16541:16720   */\n      iszero\n      tag_319\n      jumpi\n        /* \"#utility.yul\":16614:16623   */\n      dup5\n        /* \"#utility.yul\":16609:16612   */\n      dup10\n        /* \"#utility.yul\":16605:16624   */\n      add\n        /* \"#utility.yul\":16599:16625   */\n      mload\n        /* \"#utility.yul\":16657:16705   */\n      tag_320\n        /* \"#utility.yul\":16699:16703   */\n      0x1f\n        /* \"#utility.yul\":16691:16697   */\n      dup10\n        /* \"#utility.yul\":16687:16704   */\n      and\n        /* \"#utility.yul\":16676:16685   */\n      dup3\n        /* \"#utility.yul\":16657:16705   */\n      tag_138\n      jump\t// in\n    tag_320:\n        /* \"#utility.yul\":16649:16655   */\n      dup4\n        /* \"#utility.yul\":16642:16706   */\n      sstore\n        /* \"#utility.yul\":16564:16720   */\n      pop\n        /* \"#utility.yul\":16541:16720   */\n    tag_319:\n        /* \"#utility.yul\":16766:16767   */\n      0x01\n        /* \"#utility.yul\":16762:16763   */\n      0x02\n        /* \"#utility.yul\":16754:16760   */\n      dup9\n        /* \"#utility.yul\":16750:16764   */\n      mul\n        /* \"#utility.yul\":16746:16768   */\n      add\n        /* \"#utility.yul\":16740:16744   */\n      dup9\n        /* \"#utility.yul\":16733:16769   */\n      sstore\n        /* \"#utility.yul\":16168:16779   */\n      pop\n      pop\n      pop\n        /* \"#utility.yul\":16131:17018   */\n    tag_311:\n      pop\n        /* \"#utility.yul\":15721:17024   */\n      pop\n      pop\n      pop\n        /* \"#utility.yul\":15629:17024   */\n      pop\n      pop\n      jump\t// out\n        /* \"#utility.yul\":17030:17407   */\n    tag_140:\n        /* \"#utility.yul\":17118:17121   */\n      0x00\n        /* \"#utility.yul\":17146:17185   */\n      tag_322\n        /* \"#utility.yul\":17179:17184   */\n      dup3\n        /* \"#utility.yul\":17146:17185   */\n      tag_106\n      jump\t// in\n    tag_322:\n        /* \"#utility.yul\":17201:17272   */\n      tag_323\n        /* \"#utility.yul\":17265:17271   */\n      dup2\n        /* \"#utility.yul\":17260:17263   */\n      dup6\n        /* \"#utility.yul\":17201:17272   */\n      tag_122\n      jump\t// in\n    tag_323:\n        /* \"#utility.yul\":17194:17272   */\n      swap4\n      pop\n        /* \"#utility.yul\":17281:17346   */\n      tag_324\n        /* \"#utility.yul\":17339:17345   */\n      dup2\n        /* \"#utility.yul\":17334:17337   */\n      dup6\n        /* \"#utility.yul\":17327:17331   */\n      0x20\n        /* \"#utility.yul\":17320:17325   */\n      dup7\n        /* \"#utility.yul\":17316:17332   */\n      add\n        /* \"#utility.yul\":17281:17346   */\n      tag_108\n      jump\t// in\n    tag_324:\n        /* \"#utility.yul\":17371:17400   */\n      tag_325\n        /* \"#utility.yul\":17393:17399   */\n      dup2\n        /* \"#utility.yul\":17371:17400   */\n      tag_94\n      jump\t// in\n    tag_325:\n        /* \"#utility.yul\":17366:17369   */\n      dup5\n        /* \"#utility.yul\":17362:17401   */\n      add\n        /* \"#utility.yul\":17355:17401   */\n      swap2\n      pop\n        /* \"#utility.yul\":17122:17407   */\n      pop\n        /* \"#utility.yul\":17030:17407   */\n      swap3\n      swap2\n      pop\n      pop\n      jump\t// out\n        /* \"#utility.yul\":17413:17531   */\n    tag_141:\n        /* \"#utility.yul\":17500:17524   */\n      tag_327\n        /* \"#utility.yul\":17518:17523   */\n      dup2\n        /* \"#utility.yul\":17500:17524   */\n      tag_110\n      jump\t// in\n    tag_327:\n        /* \"#utility.yul\":17495:17498   */\n      dup3\n        /* \"#utility.yul\":17488:17525   */\n      mstore\n        /* \"#utility.yul\":17413:17531   */\n      pop\n      pop\n      jump\t// out\n        /* \"#utility.yul\":17537:18565   */\n    tag_63:\n        /* \"#utility.yul\":17822:17826   */\n      0x00\n        /* \"#utility.yul\":17860:17863   */\n      0xa0\n        /* \"#utility.yul\":17849:17858   */\n      dup3\n        /* \"#utility.yul\":17845:17864   */\n      add\n        /* \"#utility.yul\":17837:17864   */\n      swap1\n      pop\n        /* \"#utility.yul\":17910:17919   */\n      dup2\n        /* \"#utility.yul\":17904:17908   */\n      dup2\n        /* \"#utility.yul\":17900:17920   */\n      sub\n        /* \"#utility.yul\":17896:17897   */\n      0x00\n        /* \"#utility.yul\":17885:17894   */\n      dup4\n        /* \"#utility.yul\":17881:17898   */\n      add\n        /* \"#utility.yul\":17874:17921   */\n      mstore\n        /* \"#utility.yul\":17938:18016   */\n      tag_329\n        /* \"#utility.yul\":18011:18015   */\n      dup2\n        /* \"#utility.yul\":18002:18008   */\n      dup9\n        /* \"#utility.yul\":17938:18016   */\n      tag_140\n      jump\t// in\n    tag_329:\n        /* \"#utility.yul\":17930:18016   */\n      swap1\n      pop\n        /* \"#utility.yul\":18026:18098   */\n      tag_330\n        /* \"#utility.yul\":18094:18096   */\n      0x20\n        /* \"#utility.yul\":18083:18092   */\n      dup4\n        /* \"#utility.yul\":18079:18097   */\n      add\n        /* \"#utility.yul\":18070:18076   */\n      dup8\n        /* \"#utility.yul\":18026:18098   */\n      tag_141\n      jump\t// in\n    tag_330:\n        /* \"#utility.yul\":18145:18154   */\n      dup2\n        /* \"#utility.yul\":18139:18143   */\n      dup2\n        /* \"#utility.yul\":18135:18155   */\n      sub\n        /* \"#utility.yul\":18130:18132   */\n      0x40\n        /* \"#utility.yul\":18119:18128   */\n      dup4\n        /* \"#utility.yul\":18115:18133   */\n      add\n        /* \"#utility.yul\":18108:18156   */\n      mstore\n        /* \"#utility.yul\":18173:18251   */\n      tag_331\n        /* \"#utility.yul\":18246:18250   */\n      dup2\n        /* \"#utility.yul\":18237:18243   */\n      dup7\n        /* \"#utility.yul\":18173:18251   */\n      tag_140\n      jump\t// in\n    tag_331:\n        /* \"#utility.yul\":18165:18251   */\n      swap1\n      pop\n        /* \"#utility.yul\":18298:18307   */\n      dup2\n        /* \"#utility.yul\":18292:18296   */\n      dup2\n        /* \"#utility.yul\":18288:18308   */\n      sub\n        /* \"#utility.yul\":18283:18285   */\n      0x60\n        /* \"#utility.yul\":18272:18281   */\n      dup4\n        /* \"#utility.yul\":18268:18286   */\n      add\n        /* \"#utility.yul\":18261:18309   */\n      mstore\n        /* \"#utility.yul\":18326:18404   */\n      tag_332\n        /* \"#utility.yul\":18399:18403   */\n      dup2\n        /* \"#utility.yul\":18390:18396   */\n      dup6\n        /* \"#utility.yul\":18326:18404   */\n      tag_140\n      jump\t// in\n    tag_332:\n        /* \"#utility.yul\":18318:18404   */\n      swap1\n      pop\n        /* \"#utility.yul\":18452:18461   */\n      dup2\n        /* \"#utility.yul\":18446:18450   */\n      dup2\n        /* \"#utility.yul\":18442:18462   */\n      sub\n        /* \"#utility.yul\":18436:18439   */\n      0x80\n        /* \"#utility.yul\":18425:18434   */\n      dup4\n        /* \"#utility.yul\":18421:18440   */\n      add\n        /* \"#utility.yul\":18414:18463   */\n      mstore\n        /* \"#utility.yul\":18480:18558   */\n      tag_333\n        /* \"#utility.yul\":18553:18557   */\n      dup2\n        /* \"#utility.yul\":18544:18550   */\n      dup5\n        /* \"#utility.yul\":18480:18558   */\n      tag_140\n      jump\t// in\n    tag_333:\n        /* \"#utility.yul\":18472:18558   */\n      swap1\n      pop\n        /* \"#utility.yul\":17537:18565   */\n      swap7\n      swap6\n      pop\n      pop\n      pop\n      pop\n      pop\n      pop\n      jump\t// out\n        /* \"#utility.yul\":18571:18734   */\n    tag_142:\n        /* \"#utility.yul\":18711:18726   */\n      0x4e474f206e6f7420666f756e6400000000000000000000000000000000000000\n        /* \"#utility.yul\":18707:18708   */\n      0x00\n        /* \"#utility.yul\":18699:18705   */\n      dup3\n        /* \"#utility.yul\":18695:18709   */\n      add\n        /* \"#utility.yul\":18688:18727   */\n      mstore\n        /* \"#utility.yul\":18571:18734   */\n      pop\n      jump\t// out\n        /* \"#utility.yul\":18740:19106   */\n    tag_143:\n        /* \"#utility.yul\":18882:18885   */\n      0x00\n        /* \"#utility.yul\":18903:18970   */\n      tag_336\n        /* \"#utility.yul\":18967:18969   */\n      0x0d\n        /* \"#utility.yul\":18962:18965   */\n      dup4\n        /* \"#utility.yul\":18903:18970   */\n      tag_122\n      jump\t// in\n    tag_336:\n        /* \"#utility.yul\":18896:18970   */\n      swap2\n      pop\n        /* \"#utility.yul\":18979:19072   */\n      tag_337\n        /* \"#utility.yul\":19068:19071   */\n      dup3\n        /* \"#utility.yul\":18979:19072   */\n      tag_142\n      jump\t// in\n    tag_337:\n        /* \"#utility.yul\":19097:19099   */\n      0x20\n        /* \"#utility.yul\":19092:19095   */\n      dup3\n        /* \"#utility.yul\":19088:19100   */\n      add\n        /* \"#utility.yul\":19081:19100   */\n      swap1\n      pop\n        /* \"#utility.yul\":18740:19106   */\n      swap2\n      swap1\n      pop\n      jump\t// out\n        /* \"#utility.yul\":19112:19531   */\n    tag_68:\n        /* \"#utility.yul\":19278:19282   */\n      0x00\n        /* \"#utility.yul\":19316:19318   */\n      0x20\n        /* \"#utility.yul\":19305:19314   */\n      dup3\n        /* \"#utility.yul\":19301:19319   */\n      add\n        /* \"#utility.yul\":19293:19319   */\n      swap1\n      pop\n        /* \"#utility.yul\":19365:19374   */\n      dup2\n        /* \"#utility.yul\":19359:19363   */\n      dup2\n        /* \"#utility.yul\":19355:19375   */\n      sub\n        /* \"#utility.yul\":19351:19352   */\n      0x00\n        /* \"#utility.yul\":19340:19349   */\n      dup4\n        /* \"#utility.yul\":19336:19353   */\n      add\n        /* \"#utility.yul\":19329:19376   */\n      mstore\n        /* \"#utility.yul\":19393:19524   */\n      tag_339\n        /* \"#utility.yul\":19519:19523   */\n      dup2\n        /* \"#utility.yul\":19393:19524   */\n      tag_143\n      jump\t// in\n    tag_339:\n        /* \"#utility.yul\":19385:19524   */\n      swap1\n      pop\n        /* \"#utility.yul\":19112:19531   */\n      swap2\n      swap1\n      pop\n      jump\t// out\n\n    auxdata: 0xa264697066735822122041bca1daa65b74b4bd10f4d3f2ce46ad76a4c08fad916427019f7f8bd26ac8c964736f6c63430008120033\n}\n",
				"bytecode": {
					"linkReferences": {},
					"object": "608060405234801561001057600080fd5b5061130b806100206000396000f3fe608060405234801561001057600080fd5b50600436106100415760003560e01c80633cb203c81461004657806367b0ca9614610077578063978de79914610093575b600080fd5b610060600480360381019061005b9190610a20565b6100c3565b60405161006e929190610bd3565b60405180910390f35b610091600480360381019061008c9190610c2f565b6103fc565b005b6100ad60048036038101906100a89190610d46565b6105ab565b6040516100ba9190610d73565b60405180910390f35b60006100cd61088d565b60006001846040516100df9190610dd1565b90815260200160405180910390205490506000801b81036101735760006040518060c001604052806000801b8152602001604051806020016040528060008152508152602001600081526020016040518060200160405280600081525081526020016040518060200160405280600081525081526020016040518060200160405280600081525081525092509250506103f7565b6001600080838152602001908152602001600020806040518060c0016040529081600082015481526020016001820180546101ad90610e17565b80601f01602080910402602001604051908101604052809291908181526020018280546101d990610e17565b80156102265780601f106101fb57610100808354040283529160200191610226565b820191906000526020600020905b81548152906001019060200180831161020957829003601f168201915b505050505081526020016002820154815260200160038201805461024990610e17565b80601f016020809104026020016040519081016040528092919081815260200182805461027590610e17565b80156102c25780601f10610297576101008083540402835291602001916102c2565b820191906000526020600020905b8154815290600101906020018083116102a557829003601f168201915b505050505081526020016004820180546102db90610e17565b80601f016020809104026020016040519081016040528092919081815260200182805461030790610e17565b80156103545780601f1061032957610100808354040283529160200191610354565b820191906000526020600020905b81548152906001019060200180831161033757829003601f168201915b5050505050815260200160058201805461036d90610e17565b80601f016020809104026020016040519081016040528092919081815260200182805461039990610e17565b80156103e65780601f106103bb576101008083540402835291602001916103e6565b820191906000526020600020905b8154815290600101906020018083116103c957829003601f168201915b505050505081525050905092509250505b915091565b60008142604051602001610411929190610e69565b6040516020818303038152906040528051906020012090506000801b60018360405161043d9190610dd1565b9081526020016040518091039020541461048c576040517f08c379a000000000000000000000000000000000000000000000000000000000815260040161048390610f14565b60405180910390fd5b60006040518060c00160405280838152602001888152602001878152602001868152602001858152602001848152509050806000808481526020019081526020016000206000820151816000015560208201518160010190816104ef91906110e0565b5060408201518160020155606082015181600301908161050f91906110e0565b50608082015181600401908161052591906110e0565b5060a082015181600501908161053b91906110e0565b50905050816001846040516105509190610dd1565b908152602001604051809103902081905550817f6b2e404ec26e09315810a3a8cbe4d7281794425520fcffd8d9da1f411b7e3367888888888860405161059a9594939291906111fa565b60405180910390a250505050505050565b6105b361088d565b6000801b600080848152602001908152602001600020600001540361060d576040517f08c379a0000000000000000000000000000000000000000000000000000000008152600401610604906112b5565b60405180910390fd5b6000808381526020019081526020016000206040518060c00160405290816000820154815260200160018201805461064490610e17565b80601f016020809104026020016040519081016040528092919081815260200182805461067090610e17565b80156106bd5780601f10610692576101008083540402835291602001916106bd565b820191906000526020600020905b8154815290600101906020018083116106a057829003601f168201915b50505050508152602001600282015481526020016003820180546106e090610e17565b80601f016020809104026020016040519081016040528092919081815260200182805461070c90610e17565b80156107595780601f1061072e57610100808354040283529160200191610759565b820191906000526020600020905b81548152906001019060200180831161073c57829003601f168201915b5050505050815260200160048201805461077290610e17565b80601f016020809104026020016040519081016040528092919081815260200182805461079e90610e17565b80156107eb5780601f106107c0576101008083540402835291602001916107eb565b820191906000526020600020905b8154815290600101906020018083116107ce57829003601f168201915b5050505050815260200160058201805461080490610e17565b80601f016020809104026020016040519081016040528092919081815260200182805461083090610e17565b801561087d5780601f106108525761010080835404028352916020019161087d565b820191906000526020600020905b81548152906001019060200180831161086057829003601f168201915b5050505050815250509050919050565b6040518060c001604052806000801916815260200160608152602001600081526020016060815260200160608152602001606081525090565b6000604051905090565b600080fd5b600080fd5b600080fd5b600080fd5b6000601f19601f8301169050919050565b7f4e487b7100000000000000000000000000000000000000000000000000000000600052604160045260246000fd5b61092d826108e4565b810181811067ffffffffffffffff8211171561094c5761094b6108f5565b5b80604052505050565b600061095f6108c6565b905061096b8282610924565b919050565b600067ffffffffffffffff82111561098b5761098a6108f5565b5b610994826108e4565b9050602081019050919050565b82818337600083830152505050565b60006109c36109be84610970565b610955565b9050828152602081018484840111156109df576109de6108df565b5b6109ea8482856109a1565b509392505050565b600082601f830112610a0757610a066108da565b5b8135610a178482602086016109b0565b91505092915050565b600060208284031215610a3657610a356108d0565b5b600082013567ffffffffffffffff811115610a5457610a536108d5565b5b610a60848285016109f2565b91505092915050565b60008115159050919050565b610a7e81610a69565b82525050565b6000819050919050565b610a9781610a84565b82525050565b600081519050919050565b600082825260208201905092915050565b60005b83811015610ad7578082015181840152602081019050610abc565b60008484015250505050565b6000610aee82610a9d565b610af88185610aa8565b9350610b08818560208601610ab9565b610b11816108e4565b840191505092915050565b6000819050919050565b610b2f81610b1c565b82525050565b600060c083016000830151610b4d6000860182610a8e565b5060208301518482036020860152610b658282610ae3565b9150506040830151610b7a6040860182610b26565b5060608301518482036060860152610b928282610ae3565b91505060808301518482036080860152610bac8282610ae3565b91505060a083015184820360a0860152610bc68282610ae3565b9150508091505092915050565b6000604082019050610be86000830185610a75565b8181036020830152610bfa8184610b35565b90509392505050565b610c0c81610b1c565b8114610c1757600080fd5b50565b600081359050610c2981610c03565b92915050565b600080600080600060a08688031215610c4b57610c4a6108d0565b5b600086013567ffffffffffffffff811115610c6957610c686108d5565b5b610c75888289016109f2565b9550506020610c8688828901610c1a565b945050604086013567ffffffffffffffff811115610ca757610ca66108d5565b5b610cb3888289016109f2565b935050606086013567ffffffffffffffff811115610cd457610cd36108d5565b5b610ce0888289016109f2565b925050608086013567ffffffffffffffff811115610d0157610d006108d5565b5b610d0d888289016109f2565b9150509295509295909350565b610d2381610a84565b8114610d2e57600080fd5b50565b600081359050610d4081610d1a565b92915050565b600060208284031215610d5c57610d5b6108d0565b5b6000610d6a84828501610d31565b91505092915050565b60006020820190508181036000830152610d8d8184610b35565b905092915050565b600081905092915050565b6000610dab82610a9d565b610db58185610d95565b9350610dc5818560208601610ab9565b80840191505092915050565b6000610ddd8284610da0565b915081905092915050565b7f4e487b7100000000000000000000000000000000000000000000000000000000600052602260045260246000fd5b60006002820490506001821680610e2f57607f821691505b602082108103610e4257610e41610de8565b5b50919050565b6000819050919050565b610e63610e5e82610b1c565b610e48565b82525050565b6000610e758285610da0565b9150610e818284610e52565b6020820191508190509392505050565b600082825260208201905092915050565b7f4e474f20616c726561647920726567697374657265642077697468207468697360008201527f20656d61696c0000000000000000000000000000000000000000000000000000602082015250565b6000610efe602683610e91565b9150610f0982610ea2565b604082019050919050565b60006020820190508181036000830152610f2d81610ef1565b9050919050565b60008190508160005260206000209050919050565b60006020601f8301049050919050565b600082821b905092915050565b600060088302610f967fffffffffffffffffffffffffffffffffffffffffffffffffffffffffffffffff82610f59565b610fa08683610f59565b95508019841693508086168417925050509392505050565b6000819050919050565b6000610fdd610fd8610fd384610b1c565b610fb8565b610b1c565b9050919050565b6000819050919050565b610ff783610fc2565b61100b61100382610fe4565b848454610f66565b825550505050565b600090565b611020611013565b61102b818484610fee565b505050565b5b8181101561104f57611044600082611018565b600181019050611031565b5050565b601f8211156110945761106581610f34565b61106e84610f49565b8101602085101561107d578190505b61109161108985610f49565b830182611030565b50505b505050565b600082821c905092915050565b60006110b760001984600802611099565b1980831691505092915050565b60006110d083836110a6565b9150826002028217905092915050565b6110e982610a9d565b67ffffffffffffffff811115611102576111016108f5565b5b61110c8254610e17565b611117828285611053565b600060209050601f83116001811461114a5760008415611138578287015190505b61114285826110c4565b8655506111aa565b601f19841661115886610f34565b60005b828110156111805784890151825560018201915060208501945060208101905061115b565b8683101561119d5784890151611199601f8916826110a6565b8355505b6001600288020188555050505b505050505050565b60006111bd82610a9d565b6111c78185610e91565b93506111d7818560208601610ab9565b6111e0816108e4565b840191505092915050565b6111f481610b1c565b82525050565b600060a082019050818103600083015261121481886111b2565b905061122360208301876111eb565b818103604083015261123581866111b2565b9050818103606083015261124981856111b2565b9050818103608083015261125d81846111b2565b90509695505050505050565b7f4e474f206e6f7420666f756e6400000000000000000000000000000000000000600082015250565b600061129f600d83610e91565b91506112aa82611269565b602082019050919050565b600060208201905081810360008301526112ce81611292565b905091905056fea264697066735822122041bca1daa65b74b4bd10f4d3f2ce46ad76a4c08fad916427019f7f8bd26ac8c964736f6c63430008120033",
					"opcodes": "PUSH1 0x80 PUSH1 0x40 MSTORE CALLVALUE DUP1 ISZERO PUSH2 0x10 JUMPI PUSH1 0x0 DUP1 REVERT JUMPDEST POP PUSH2 0x130B DUP1 PUSH2 0x20 PUSH1 0x0 CODECOPY PUSH1 0x0 RETURN INVALID PUSH1 0x80 PUSH1 0x40 MSTORE CALLVALUE DUP1 ISZERO PUSH2 0x10 JUMPI PUSH1 0x0 DUP1 REVERT JUMPDEST POP PUSH1 0x4 CALLDATASIZE LT PUSH2 0x41 JUMPI PUSH1 0x0 CALLDATALOAD PUSH1 0xE0 SHR DUP1 PUSH4 0x3CB203C8 EQ PUSH2 0x46 JUMPI DUP1 PUSH4 0x67B0CA96 EQ PUSH2 0x77 JUMPI DUP1 PUSH4 0x978DE799 EQ PUSH2 0x93 JUMPI JUMPDEST PUSH1 0x0 DUP1 REVERT JUMPDEST PUSH2 0x60 PUSH1 0x4 DUP1 CALLDATASIZE SUB DUP2 ADD SWAP1 PUSH2 0x5B SWAP2 SWAP1 PUSH2 0xA20 JUMP JUMPDEST PUSH2 0xC3 JUMP JUMPDEST PUSH1 0x40 MLOAD PUSH2 0x6E SWAP3 SWAP2 SWAP1 PUSH2 0xBD3 JUMP JUMPDEST PUSH1 0x40 MLOAD DUP1 SWAP2 SUB SWAP1 RETURN JUMPDEST PUSH2 0x91 PUSH1 0x4 DUP1 CALLDATASIZE SUB DUP2 ADD SWAP1 PUSH2 0x8C SWAP2 SWAP1 PUSH2 0xC2F JUMP JUMPDEST PUSH2 0x3FC JUMP JUMPDEST STOP JUMPDEST PUSH2 0xAD PUSH1 0x4 DUP1 CALLDATASIZE SUB DUP2 ADD SWAP1 PUSH2 0xA8 SWAP2 SWAP1 PUSH2 0xD46 JUMP JUMPDEST PUSH2 0x5AB JUMP JUMPDEST PUSH1 0x40 MLOAD PUSH2 0xBA SWAP2 SWAP1 PUSH2 0xD73 JUMP JUMPDEST PUSH1 0x40 MLOAD DUP1 SWAP2 SUB SWAP1 RETURN JUMPDEST PUSH1 0x0 PUSH2 0xCD PUSH2 0x88D JUMP JUMPDEST PUSH1 0x0 PUSH1 0x1 DUP5 PUSH1 0x40 MLOAD PUSH2 0xDF SWAP2 SWAP1 PUSH2 0xDD1 JUMP JUMPDEST SWAP1 DUP2 MSTORE PUSH1 0x20 ADD PUSH1 0x40 MLOAD DUP1 SWAP2 SUB SWAP1 KECCAK256 SLOAD SWAP1 POP PUSH1 0x0 DUP1 SHL DUP2 SUB PUSH2 0x173 JUMPI PUSH1 0x0 PUSH1 0x40 MLOAD DUP1 PUSH1 0xC0 ADD PUSH1 0x40 MSTORE DUP1 PUSH1 0x0 DUP1 SHL DUP2 MSTORE PUSH1 0x20 ADD PUSH1 0x40 MLOAD DUP1 PUSH1 0x20 ADD PUSH1 0x40 MSTORE DUP1 PUSH1 0x0 DUP2 MSTORE POP DUP2 MSTORE PUSH1 0x20 ADD PUSH1 0x0 DUP2 MSTORE PUSH1 0x20 ADD PUSH1 0x40 MLOAD DUP1 PUSH1 0x20 ADD PUSH1 0x40 MSTORE DUP1 PUSH1 0x0 DUP2 MSTORE POP DUP2 MSTORE PUSH1 0x20 ADD PUSH1 0x40 MLOAD DUP1 PUSH1 0x20 ADD PUSH1 0x40 MSTORE DUP1 PUSH1 0x0 DUP2 MSTORE POP DUP2 MSTORE PUSH1 0x20 ADD PUSH1 0x40 MLOAD DUP1 PUSH1 0x20 ADD PUSH1 0x40 MSTORE DUP1 PUSH1 0x0 DUP2 MSTORE POP DUP2 MSTORE POP SWAP3 POP SWAP3 POP POP PUSH2 0x3F7 JUMP JUMPDEST PUSH1 0x1 PUSH1 0x0 DUP1 DUP4 DUP2 MSTORE PUSH1 0x20 ADD SWAP1 DUP2 MSTORE PUSH1 0x20 ADD PUSH1 0x0 KECCAK256 DUP1 PUSH1 0x40 MLOAD DUP1 PUSH1 0xC0 ADD PUSH1 0x40 MSTORE SWAP1 DUP2 PUSH1 0x0 DUP3 ADD SLOAD DUP2 MSTORE PUSH1 0x20 ADD PUSH1 0x1 DUP3 ADD DUP1 SLOAD PUSH2 0x1AD SWAP1 PUSH2 0xE17 JUMP JUMPDEST DUP1 PUSH1 0x1F ADD PUSH1 0x20 DUP1 SWAP2 DIV MUL PUSH1 0x20 ADD PUSH1 0x40 MLOAD SWAP1 DUP2 ADD PUSH1 0x40 MSTORE DUP1 SWAP3 SWAP2 SWAP1 DUP2 DUP2 MSTORE PUSH1 0x20 ADD DUP3 DUP1 SLOAD PUSH2 0x1D9 SWAP1 PUSH2 0xE17 JUMP JUMPDEST DUP1 ISZERO PUSH2 0x226 JUMPI DUP1 PUSH1 0x1F LT PUSH2 0x1FB JUMPI PUSH2 0x100 DUP1 DUP4 SLOAD DIV MUL DUP4 MSTORE SWAP2 PUSH1 0x20 ADD SWAP2 PUSH2 0x226 JUMP JUMPDEST DUP3 ADD SWAP2 SWAP1 PUSH1 0x0 MSTORE PUSH1 0x20 PUSH1 0x0 KECCAK256 SWAP1 JUMPDEST DUP2 SLOAD DUP2 MSTORE SWAP1 PUSH1 0x1 ADD SWAP1 PUSH1 0x20 ADD DUP1 DUP4 GT PUSH2 0x209 JUMPI DUP3 SWAP1 SUB PUSH1 0x1F AND DUP3 ADD SWAP2 JUMPDEST POP POP POP POP POP DUP2 MSTORE PUSH1 0x20 ADD PUSH1 0x2 DUP3 ADD SLOAD DUP2 MSTORE PUSH1 0x20 ADD PUSH1 0x3 DUP3 ADD DUP1 SLOAD PUSH2 0x249 SWAP1 PUSH2 0xE17 JUMP JUMPDEST DUP1 PUSH1 0x1F ADD PUSH1 0x20 DUP1 SWAP2 DIV MUL PUSH1 0x20 ADD PUSH1 0x40 MLOAD SWAP1 DUP2 ADD PUSH1 0x40 MSTORE DUP1 SWAP3 SWAP2 SWAP1 DUP2 DUP2 MSTORE PUSH1 0x20 ADD DUP3 DUP1 SLOAD PUSH2 0x275 SWAP1 PUSH2 0xE17 JUMP JUMPDEST DUP1 ISZERO PUSH2 0x2C2 JUMPI DUP1 PUSH1 0x1F LT PUSH2 0x297 JUMPI PUSH2 0x100 DUP1 DUP4 SLOAD DIV MUL DUP4 MSTORE SWAP2 PUSH1 0x20 ADD SWAP2 PUSH2 0x2C2 JUMP JUMPDEST DUP3 ADD SWAP2 SWAP1 PUSH1 0x0 MSTORE PUSH1 0x20 PUSH1 0x0 KECCAK256 SWAP1 JUMPDEST DUP2 SLOAD DUP2 MSTORE SWAP1 PUSH1 0x1 ADD SWAP1 PUSH1 0x20 ADD DUP1 DUP4 GT PUSH2 0x2A5 JUMPI DUP3 SWAP1 SUB PUSH1 0x1F AND DUP3 ADD SWAP2 JUMPDEST POP POP POP POP POP DUP2 MSTORE PUSH1 0x20 ADD PUSH1 0x4 DUP3 ADD DUP1 SLOAD PUSH2 0x2DB SWAP1 PUSH2 0xE17 JUMP JUMPDEST DUP1 PUSH1 0x1F ADD PUSH1 0x20 DUP1 SWAP2 DIV MUL PUSH1 0x20 ADD PUSH1 0x40 MLOAD SWAP1 DUP2 ADD PUSH1 0x40 MSTORE DUP1 SWAP3 SWAP2 SWAP1 DUP2 DUP2 MSTORE PUSH1 0x20 ADD DUP3 DUP1 SLOAD PUSH2 0x307 SWAP1 PUSH2 0xE17 JUMP JUMPDEST DUP1 ISZERO PUSH2 0x354 JUMPI DUP1 PUSH1 0x1F LT PUSH2 0x329 JUMPI PUSH2 0x100 DUP1 DUP4 SLOAD DIV MUL DUP4 MSTORE SWAP2 PUSH1 0x20 ADD SWAP2 PUSH2 0x354 JUMP JUMPDEST DUP3 ADD SWAP2 SWAP1 PUSH1 0x0 MSTORE PUSH1 0x20 PUSH1 0x0 KECCAK256 SWAP1 JUMPDEST DUP2 SLOAD DUP2 MSTORE SWAP1 PUSH1 0x1 ADD SWAP1 PUSH1 0x20 ADD DUP1 DUP4 GT PUSH2 0x337 JUMPI DUP3 SWAP1 SUB PUSH1 0x1F AND DUP3 ADD SWAP2 JUMPDEST POP POP POP POP POP DUP2 MSTORE PUSH1 0x20 ADD PUSH1 0x5 DUP3 ADD DUP1 SLOAD PUSH2 0x36D SWAP1 PUSH2 0xE17 JUMP JUMPDEST DUP1 PUSH1 0x1F ADD PUSH1 0x20 DUP1 SWAP2 DIV MUL PUSH1 0x20 ADD PUSH1 0x40 MLOAD SWAP1 DUP2 ADD PUSH1 0x40 MSTORE DUP1 SWAP3 SWAP2 SWAP1 DUP2 DUP2 MSTORE PUSH1 0x20 ADD DUP3 DUP1 SLOAD PUSH2 0x399 SWAP1 PUSH2 0xE17 JUMP JUMPDEST DUP1 ISZERO PUSH2 0x3E6 JUMPI DUP1 PUSH1 0x1F LT PUSH2 0x3BB JUMPI PUSH2 0x100 DUP1 DUP4 SLOAD DIV MUL DUP4 MSTORE SWAP2 PUSH1 0x20 ADD SWAP2 PUSH2 0x3E6 JUMP JUMPDEST DUP3 ADD SWAP2 SWAP1 PUSH1 0x0 MSTORE PUSH1 0x20 PUSH1 0x0 KECCAK256 SWAP1 JUMPDEST DUP2 SLOAD DUP2 MSTORE SWAP1 PUSH1 0x1 ADD SWAP1 PUSH1 0x20 ADD DUP1 DUP4 GT PUSH2 0x3C9 JUMPI DUP3 SWAP1 SUB PUSH1 0x1F AND DUP3 ADD SWAP2 JUMPDEST POP POP POP POP POP DUP2 MSTORE POP POP SWAP1 POP SWAP3 POP SWAP3 POP POP JUMPDEST SWAP2 POP SWAP2 JUMP JUMPDEST PUSH1 0x0 DUP2 TIMESTAMP PUSH1 0x40 MLOAD PUSH1 0x20 ADD PUSH2 0x411 SWAP3 SWAP2 SWAP1 PUSH2 0xE69 JUMP JUMPDEST PUSH1 0x40 MLOAD PUSH1 0x20 DUP2 DUP4 SUB SUB DUP2 MSTORE SWAP1 PUSH1 0x40 MSTORE DUP1 MLOAD SWAP1 PUSH1 0x20 ADD KECCAK256 SWAP1 POP PUSH1 0x0 DUP1 SHL PUSH1 0x1 DUP4 PUSH1 0x40 MLOAD PUSH2 0x43D SWAP2 SWAP1 PUSH2 0xDD1 JUMP JUMPDEST SWAP1 DUP2 MSTORE PUSH1 0x20 ADD PUSH1 0x40 MLOAD DUP1 SWAP2 SUB SWAP1 KECCAK256 SLOAD EQ PUSH2 0x48C JUMPI PUSH1 0x40 MLOAD PUSH32 0x8C379A000000000000000000000000000000000000000000000000000000000 DUP2 MSTORE PUSH1 0x4 ADD PUSH2 0x483 SWAP1 PUSH2 0xF14 JUMP JUMPDEST PUSH1 0x40 MLOAD DUP1 SWAP2 SUB SWAP1 REVERT JUMPDEST PUSH1 0x0 PUSH1 0x40 MLOAD DUP1 PUSH1 0xC0 ADD PUSH1 0x40 MSTORE DUP1 DUP4 DUP2 MSTORE PUSH1 0x20 ADD DUP9 DUP2 MSTORE PUSH1 0x20 ADD DUP8 DUP2 MSTORE PUSH1 0x20 ADD DUP7 DUP2 MSTORE PUSH1 0x20 ADD DUP6 DUP2 MSTORE PUSH1 0x20 ADD DUP5 DUP2 MSTORE POP SWAP1 POP DUP1 PUSH1 0x0 DUP1 DUP5 DUP2 MSTORE PUSH1 0x20 ADD SWAP1 DUP2 MSTORE PUSH1 0x20 ADD PUSH1 0x0 KECCAK256 PUSH1 0x0 DUP3 ADD MLOAD DUP2 PUSH1 0x0 ADD SSTORE PUSH1 0x20 DUP3 ADD MLOAD DUP2 PUSH1 0x1 ADD SWAP1 DUP2 PUSH2 0x4EF SWAP2 SWAP1 PUSH2 0x10E0 JUMP JUMPDEST POP PUSH1 0x40 DUP3 ADD MLOAD DUP2 PUSH1 0x2 ADD SSTORE PUSH1 0x60 DUP3 ADD MLOAD DUP2 PUSH1 0x3 ADD SWAP1 DUP2 PUSH2 0x50F SWAP2 SWAP1 PUSH2 0x10E0 JUMP JUMPDEST POP PUSH1 0x80 DUP3 ADD MLOAD DUP2 PUSH1 0x4 ADD SWAP1 DUP2 PUSH2 0x525 SWAP2 SWAP1 PUSH2 0x10E0 JUMP JUMPDEST POP PUSH1 0xA0 DUP3 ADD MLOAD DUP2 PUSH1 0x5 ADD SWAP1 DUP2 PUSH2 0x53B SWAP2 SWAP1 PUSH2 0x10E0 JUMP JUMPDEST POP SWAP1 POP POP DUP2 PUSH1 0x1 DUP5 PUSH1 0x40 MLOAD PUSH2 0x550 SWAP2 SWAP1 PUSH2 0xDD1 JUMP JUMPDEST SWAP1 DUP2 MSTORE PUSH1 0x20 ADD PUSH1 0x40 MLOAD DUP1 SWAP2 SUB SWAP1 KECCAK256 DUP2 SWAP1 SSTORE POP DUP2 PUSH32 0x6B2E404EC26E09315810A3A8CBE4D7281794425520FCFFD8D9DA1F411B7E3367 DUP9 DUP9 DUP9 DUP9 DUP9 PUSH1 0x40 MLOAD PUSH2 0x59A SWAP6 SWAP5 SWAP4 SWAP3 SWAP2 SWAP1 PUSH2 0x11FA JUMP JUMPDEST PUSH1 0x40 MLOAD DUP1 SWAP2 SUB SWAP1 LOG2 POP POP POP POP POP POP POP JUMP JUMPDEST PUSH2 0x5B3 PUSH2 0x88D JUMP JUMPDEST PUSH1 0x0 DUP1 SHL PUSH1 0x0 DUP1 DUP5 DUP2 MSTORE PUSH1 0x20 ADD SWAP1 DUP2 MSTORE PUSH1 0x20 ADD PUSH1 0x0 KECCAK256 PUSH1 0x0 ADD SLOAD SUB PUSH2 0x60D JUMPI PUSH1 0x40 MLOAD PUSH32 0x8C379A000000000000000000000000000000000000000000000000000000000 DUP2 MSTORE PUSH1 0x4 ADD PUSH2 0x604 SWAP1 PUSH2 0x12B5 JUMP JUMPDEST PUSH1 0x40 MLOAD DUP1 SWAP2 SUB SWAP1 REVERT JUMPDEST PUSH1 0x0 DUP1 DUP4 DUP2 MSTORE PUSH1 0x20 ADD SWAP1 DUP2 MSTORE PUSH1 0x20 ADD PUSH1 0x0 KECCAK256 PUSH1 0x40 MLOAD DUP1 PUSH1 0xC0 ADD PUSH1 0x40 MSTORE SWAP1 DUP2 PUSH1 0x0 DUP3 ADD SLOAD DUP2 MSTORE PUSH1 0x20 ADD PUSH1 0x1 DUP3 ADD DUP1 SLOAD PUSH2 0x644 SWAP1 PUSH2 0xE17 JUMP JUMPDEST DUP1 PUSH1 0x1F ADD PUSH1 0x20 DUP1 SWAP2 DIV MUL PUSH1 0x20 ADD PUSH1 0x40 MLOAD SWAP1 DUP2 ADD PUSH1 0x40 MSTORE DUP1 SWAP3 SWAP2 SWAP1 DUP2 DUP2 MSTORE PUSH1 0x20 ADD DUP3 DUP1 SLOAD PUSH2 0x670 SWAP1 PUSH2 0xE17 JUMP JUMPDEST DUP1 ISZERO PUSH2 0x6BD JUMPI DUP1 PUSH1 0x1F LT PUSH2 0x692 JUMPI PUSH2 0x100 DUP1 DUP4 SLOAD DIV MUL DUP4 MSTORE SWAP2 PUSH1 0x20 ADD SWAP2 PUSH2 0x6BD JUMP JUMPDEST DUP3 ADD SWAP2 SWAP1 PUSH1 0x0 MSTORE PUSH1 0x20 PUSH1 0x0 KECCAK256 SWAP1 JUMPDEST DUP2 SLOAD DUP2 MSTORE SWAP1 PUSH1 0x1 ADD SWAP1 PUSH1 0x20 ADD DUP1 DUP4 GT PUSH2 0x6A0 JUMPI DUP3 SWAP1 SUB PUSH1 0x1F AND DUP3 ADD SWAP2 JUMPDEST POP POP POP POP POP DUP2 MSTORE PUSH1 0x20 ADD PUSH1 0x2 DUP3 ADD SLOAD DUP2 MSTORE PUSH1 0x20 ADD PUSH1 0x3 DUP3 ADD DUP1 SLOAD PUSH2 0x6E0 SWAP1 PUSH2 0xE17 JUMP JUMPDEST DUP1 PUSH1 0x1F ADD PUSH1 0x20 DUP1 SWAP2 DIV MUL PUSH1 0x20 ADD PUSH1 0x40 MLOAD SWAP1 DUP2 ADD PUSH1 0x40 MSTORE DUP1 SWAP3 SWAP2 SWAP1 DUP2 DUP2 MSTORE PUSH1 0x20 ADD DUP3 DUP1 SLOAD PUSH2 0x70C SWAP1 PUSH2 0xE17 JUMP JUMPDEST DUP1 ISZERO PUSH2 0x759 JUMPI DUP1 PUSH1 0x1F LT PUSH2 0x72E JUMPI PUSH2 0x100 DUP1 DUP4 SLOAD DIV MUL DUP4 MSTORE SWAP2 PUSH1 0x20 ADD SWAP2 PUSH2 0x759 JUMP JUMPDEST DUP3 ADD SWAP2 SWAP1 PUSH1 0x0 MSTORE PUSH1 0x20 PUSH1 0x0 KECCAK256 SWAP1 JUMPDEST DUP2 SLOAD DUP2 MSTORE SWAP1 PUSH1 0x1 ADD SWAP1 PUSH1 0x20 ADD DUP1 DUP4 GT PUSH2 0x73C JUMPI DUP3 SWAP1 SUB PUSH1 0x1F AND DUP3 ADD SWAP2 JUMPDEST POP POP POP POP POP DUP2 MSTORE PUSH1 0x20 ADD PUSH1 0x4 DUP3 ADD DUP1 SLOAD PUSH2 0x772 SWAP1 PUSH2 0xE17 JUMP JUMPDEST DUP1 PUSH1 0x1F ADD PUSH1 0x20 DUP1 SWAP2 DIV MUL PUSH1 0x20 ADD PUSH1 0x40 MLOAD SWAP1 DUP2 ADD PUSH1 0x40 MSTORE DUP1 SWAP3 SWAP2 SWAP1 DUP2 DUP2 MSTORE PUSH1 0x20 ADD DUP3 DUP1 SLOAD PUSH2 0x79E SWAP1 PUSH2 0xE17 JUMP JUMPDEST DUP1 ISZERO PUSH2 0x7EB JUMPI DUP1 PUSH1 0x1F LT PUSH2 0x7C0 JUMPI PUSH2 0x100 DUP1 DUP4 SLOAD DIV MUL DUP4 MSTORE SWAP2 PUSH1 0x20 ADD SWAP2 PUSH2 0x7EB JUMP JUMPDEST DUP3 ADD SWAP2 SWAP1 PUSH1 0x0 MSTORE PUSH1 0x20 PUSH1 0x0 KECCAK256 SWAP1 JUMPDEST DUP2 SLOAD DUP2 MSTORE SWAP1 PUSH1 0x1 ADD SWAP1 PUSH1 0x20 ADD DUP1 DUP4 GT PUSH2 0x7CE JUMPI DUP3 SWAP1 SUB PUSH1 0x1F AND DUP3 ADD SWAP2 JUMPDEST POP POP POP POP POP DUP2 MSTORE PUSH1 0x20 ADD PUSH1 0x5 DUP3 ADD DUP1 SLOAD PUSH2 0x804 SWAP1 PUSH2 0xE17 JUMP JUMPDEST DUP1 PUSH1 0x1F ADD PUSH1 0x20 DUP1 SWAP2 DIV MUL PUSH1 0x20 ADD PUSH1 0x40 MLOAD SWAP1 DUP2 ADD PUSH1 0x40 MSTORE DUP1 SWAP3 SWAP2 SWAP1 DUP2 DUP2 MSTORE PUSH1 0x20 ADD DUP3 DUP1 SLOAD PUSH2 0x830 SWAP1 PUSH2 0xE17 JUMP JUMPDEST DUP1 ISZERO PUSH2 0x87D JUMPI DUP1 PUSH1 0x1F LT PUSH2 0x852 JUMPI PUSH2 0x100 DUP1 DUP4 SLOAD DIV MUL DUP4 MSTORE SWAP2 PUSH1 0x20 ADD SWAP2 PUSH2 0x87D JUMP JUMPDEST DUP3 ADD SWAP2 SWAP1 PUSH1 0x0 MSTORE PUSH1 0x20 PUSH1 0x0 KECCAK256 SWAP1 JUMPDEST DUP2 SLOAD DUP2 MSTORE SWAP1 PUSH1 0x1 ADD SWAP1 PUSH1 0x20 ADD DUP1 DUP4 GT PUSH2 0x860 JUMPI DUP3 SWAP1 SUB PUSH1 0x1F AND DUP3 ADD SWAP2 JUMPDEST POP POP POP POP POP DUP2 MSTORE POP POP SWAP1 POP SWAP2 SWAP1 POP JUMP JUMPDEST PUSH1 0x40 MLOAD DUP1 PUSH1 0xC0 ADD PUSH1 0x40 MSTORE DUP1 PUSH1 0x0 DUP1 NOT AND DUP2 MSTORE PUSH1 0x20 ADD PUSH1 0x60 DUP2 MSTORE PUSH1 0x20 ADD PUSH1 0x0 DUP2 MSTORE PUSH1 0x20 ADD PUSH1 0x60 DUP2 MSTORE PUSH1 0x20 ADD PUSH1 0x60 DUP2 MSTORE PUSH1 0x20 ADD PUSH1 0x60 DUP2 MSTORE POP SWAP1 JUMP JUMPDEST PUSH1 0x0 PUSH1 0x40 MLOAD SWAP1 POP SWAP1 JUMP JUMPDEST PUSH1 0x0 DUP1 REVERT JUMPDEST PUSH1 0x0 DUP1 REVERT JUMPDEST PUSH1 0x0 DUP1 REVERT JUMPDEST PUSH1 0x0 DUP1 REVERT JUMPDEST PUSH1 0x0 PUSH1 0x1F NOT PUSH1 0x1F DUP4 ADD AND SWAP1 POP SWAP2 SWAP1 POP JUMP JUMPDEST PUSH32 0x4E487B7100000000000000000000000000000000000000000000000000000000 PUSH1 0x0 MSTORE PUSH1 0x41 PUSH1 0x4 MSTORE PUSH1 0x24 PUSH1 0x0 REVERT JUMPDEST PUSH2 0x92D DUP3 PUSH2 0x8E4 JUMP JUMPDEST DUP2 ADD DUP2 DUP2 LT PUSH8 0xFFFFFFFFFFFFFFFF DUP3 GT OR ISZERO PUSH2 0x94C JUMPI PUSH2 0x94B PUSH2 0x8F5 JUMP JUMPDEST JUMPDEST DUP1 PUSH1 0x40 MSTORE POP POP POP JUMP JUMPDEST PUSH1 0x0 PUSH2 0x95F PUSH2 0x8C6 JUMP JUMPDEST SWAP1 POP PUSH2 0x96B DUP3 DUP3 PUSH2 0x924 JUMP JUMPDEST SWAP2 SWAP1 POP JUMP JUMPDEST PUSH1 0x0 PUSH8 0xFFFFFFFFFFFFFFFF DUP3 GT ISZERO PUSH2 0x98B JUMPI PUSH2 0x98A PUSH2 0x8F5 JUMP JUMPDEST JUMPDEST PUSH2 0x994 DUP3 PUSH2 0x8E4 JUMP JUMPDEST SWAP1 POP PUSH1 0x20 DUP2 ADD SWAP1 POP SWAP2 SWAP1 POP JUMP JUMPDEST DUP3 DUP2 DUP4 CALLDATACOPY PUSH1 0x0 DUP4 DUP4 ADD MSTORE POP POP POP JUMP JUMPDEST PUSH1 0x0 PUSH2 0x9C3 PUSH2 0x9BE DUP5 PUSH2 0x970 JUMP JUMPDEST PUSH2 0x955 JUMP JUMPDEST SWAP1 POP DUP3 DUP2 MSTORE PUSH1 0x20 DUP2 ADD DUP5 DUP5 DUP5 ADD GT ISZERO PUSH2 0x9DF JUMPI PUSH2 0x9DE PUSH2 0x8DF JUMP JUMPDEST JUMPDEST PUSH2 0x9EA DUP5 DUP3 DUP6 PUSH2 0x9A1 JUMP JUMPDEST POP SWAP4 SWAP3 POP POP POP JUMP JUMPDEST PUSH1 0x0 DUP3 PUSH1 0x1F DUP4 ADD SLT PUSH2 0xA07 JUMPI PUSH2 0xA06 PUSH2 0x8DA JUMP JUMPDEST JUMPDEST DUP2 CALLDATALOAD PUSH2 0xA17 DUP5 DUP3 PUSH1 0x20 DUP7 ADD PUSH2 0x9B0 JUMP JUMPDEST SWAP2 POP POP SWAP3 SWAP2 POP POP JUMP JUMPDEST PUSH1 0x0 PUSH1 0x20 DUP3 DUP5 SUB SLT ISZERO PUSH2 0xA36 JUMPI PUSH2 0xA35 PUSH2 0x8D0 JUMP JUMPDEST JUMPDEST PUSH1 0x0 DUP3 ADD CALLDATALOAD PUSH8 0xFFFFFFFFFFFFFFFF DUP2 GT ISZERO PUSH2 0xA54 JUMPI PUSH2 0xA53 PUSH2 0x8D5 JUMP JUMPDEST JUMPDEST PUSH2 0xA60 DUP5 DUP3 DUP6 ADD PUSH2 0x9F2 JUMP JUMPDEST SWAP2 POP POP SWAP3 SWAP2 POP POP JUMP JUMPDEST PUSH1 0x0 DUP2 ISZERO ISZERO SWAP1 POP SWAP2 SWAP1 POP JUMP JUMPDEST PUSH2 0xA7E DUP2 PUSH2 0xA69 JUMP JUMPDEST DUP3 MSTORE POP POP JUMP JUMPDEST PUSH1 0x0 DUP2 SWAP1 POP SWAP2 SWAP1 POP JUMP JUMPDEST PUSH2 0xA97 DUP2 PUSH2 0xA84 JUMP JUMPDEST DUP3 MSTORE POP POP JUMP JUMPDEST PUSH1 0x0 DUP2 MLOAD SWAP1 POP SWAP2 SWAP1 POP JUMP JUMPDEST PUSH1 0x0 DUP3 DUP3 MSTORE PUSH1 0x20 DUP3 ADD SWAP1 POP SWAP3 SWAP2 POP POP JUMP JUMPDEST PUSH1 0x0 JUMPDEST DUP4 DUP2 LT ISZERO PUSH2 0xAD7 JUMPI DUP1 DUP3 ADD MLOAD DUP2 DUP5 ADD MSTORE PUSH1 0x20 DUP2 ADD SWAP1 POP PUSH2 0xABC JUMP JUMPDEST PUSH1 0x0 DUP5 DUP5 ADD MSTORE POP POP POP POP JUMP JUMPDEST PUSH1 0x0 PUSH2 0xAEE DUP3 PUSH2 0xA9D JUMP JUMPDEST PUSH2 0xAF8 DUP2 DUP6 PUSH2 0xAA8 JUMP JUMPDEST SWAP4 POP PUSH2 0xB08 DUP2 DUP6 PUSH1 0x20 DUP7 ADD PUSH2 0xAB9 JUMP JUMPDEST PUSH2 0xB11 DUP2 PUSH2 0x8E4 JUMP JUMPDEST DUP5 ADD SWAP2 POP POP SWAP3 SWAP2 POP POP JUMP JUMPDEST PUSH1 0x0 DUP2 SWAP1 POP SWAP2 SWAP1 POP JUMP JUMPDEST PUSH2 0xB2F DUP2 PUSH2 0xB1C JUMP JUMPDEST DUP3 MSTORE POP POP JUMP JUMPDEST PUSH1 0x0 PUSH1 0xC0 DUP4 ADD PUSH1 0x0 DUP4 ADD MLOAD PUSH2 0xB4D PUSH1 0x0 DUP7 ADD DUP3 PUSH2 0xA8E JUMP JUMPDEST POP PUSH1 0x20 DUP4 ADD MLOAD DUP5 DUP3 SUB PUSH1 0x20 DUP7 ADD MSTORE PUSH2 0xB65 DUP3 DUP3 PUSH2 0xAE3 JUMP JUMPDEST SWAP2 POP POP PUSH1 0x40 DUP4 ADD MLOAD PUSH2 0xB7A PUSH1 0x40 DUP7 ADD DUP3 PUSH2 0xB26 JUMP JUMPDEST POP PUSH1 0x60 DUP4 ADD MLOAD DUP5 DUP3 SUB PUSH1 0x60 DUP7 ADD MSTORE PUSH2 0xB92 DUP3 DUP3 PUSH2 0xAE3 JUMP JUMPDEST SWAP2 POP POP PUSH1 0x80 DUP4 ADD MLOAD DUP5 DUP3 SUB PUSH1 0x80 DUP7 ADD MSTORE PUSH2 0xBAC DUP3 DUP3 PUSH2 0xAE3 JUMP JUMPDEST SWAP2 POP POP PUSH1 0xA0 DUP4 ADD MLOAD DUP5 DUP3 SUB PUSH1 0xA0 DUP7 ADD MSTORE PUSH2 0xBC6 DUP3 DUP3 PUSH2 0xAE3 JUMP JUMPDEST SWAP2 POP POP DUP1 SWAP2 POP POP SWAP3 SWAP2 POP POP JUMP JUMPDEST PUSH1 0x0 PUSH1 0x40 DUP3 ADD SWAP1 POP PUSH2 0xBE8 PUSH1 0x0 DUP4 ADD DUP6 PUSH2 0xA75 JUMP JUMPDEST DUP2 DUP2 SUB PUSH1 0x20 DUP4 ADD MSTORE PUSH2 0xBFA DUP2 DUP5 PUSH2 0xB35 JUMP JUMPDEST SWAP1 POP SWAP4 SWAP3 POP POP POP JUMP JUMPDEST PUSH2 0xC0C DUP2 PUSH2 0xB1C JUMP JUMPDEST DUP2 EQ PUSH2 0xC17 JUMPI PUSH1 0x0 DUP1 REVERT JUMPDEST POP JUMP JUMPDEST PUSH1 0x0 DUP2 CALLDATALOAD SWAP1 POP PUSH2 0xC29 DUP2 PUSH2 0xC03 JUMP JUMPDEST SWAP3 SWAP2 POP POP JUMP JUMPDEST PUSH1 0x0 DUP1 PUSH1 0x0 DUP1 PUSH1 0x0 PUSH1 0xA0 DUP7 DUP9 SUB SLT ISZERO PUSH2 0xC4B JUMPI PUSH2 0xC4A PUSH2 0x8D0 JUMP JUMPDEST JUMPDEST PUSH1 0x0 DUP7 ADD CALLDATALOAD PUSH8 0xFFFFFFFFFFFFFFFF DUP2 GT ISZERO PUSH2 0xC69 JUMPI PUSH2 0xC68 PUSH2 0x8D5 JUMP JUMPDEST JUMPDEST PUSH2 0xC75 DUP9 DUP3 DUP10 ADD PUSH2 0x9F2 JUMP JUMPDEST SWAP6 POP POP PUSH1 0x20 PUSH2 0xC86 DUP9 DUP3 DUP10 ADD PUSH2 0xC1A JUMP JUMPDEST SWAP5 POP POP PUSH1 0x40 DUP7 ADD CALLDATALOAD PUSH8 0xFFFFFFFFFFFFFFFF DUP2 GT ISZERO PUSH2 0xCA7 JUMPI PUSH2 0xCA6 PUSH2 0x8D5 JUMP JUMPDEST JUMPDEST PUSH2 0xCB3 DUP9 DUP3 DUP10 ADD PUSH2 0x9F2 JUMP JUMPDEST SWAP4 POP POP PUSH1 0x60 DUP7 ADD CALLDATALOAD PUSH8 0xFFFFFFFFFFFFFFFF DUP2 GT ISZERO PUSH2 0xCD4 JUMPI PUSH2 0xCD3 PUSH2 0x8D5 JUMP JUMPDEST JUMPDEST PUSH2 0xCE0 DUP9 DUP3 DUP10 ADD PUSH2 0x9F2 JUMP JUMPDEST SWAP3 POP POP PUSH1 0x80 DUP7 ADD CALLDATALOAD PUSH8 0xFFFFFFFFFFFFFFFF DUP2 GT ISZERO PUSH2 0xD01 JUMPI PUSH2 0xD00 PUSH2 0x8D5 JUMP JUMPDEST JUMPDEST PUSH2 0xD0D DUP9 DUP3 DUP10 ADD PUSH2 0x9F2 JUMP JUMPDEST SWAP2 POP POP SWAP3 SWAP6 POP SWAP3 SWAP6 SWAP1 SWAP4 POP JUMP JUMPDEST PUSH2 0xD23 DUP2 PUSH2 0xA84 JUMP JUMPDEST DUP2 EQ PUSH2 0xD2E JUMPI PUSH1 0x0 DUP1 REVERT JUMPDEST POP JUMP JUMPDEST PUSH1 0x0 DUP2 CALLDATALOAD SWAP1 POP PUSH2 0xD40 DUP2 PUSH2 0xD1A JUMP JUMPDEST SWAP3 SWAP2 POP POP JUMP JUMPDEST PUSH1 0x0 PUSH1 0x20 DUP3 DUP5 SUB SLT ISZERO PUSH2 0xD5C JUMPI PUSH2 0xD5B PUSH2 0x8D0 JUMP JUMPDEST JUMPDEST PUSH1 0x0 PUSH2 0xD6A DUP5 DUP3 DUP6 ADD PUSH2 0xD31 JUMP JUMPDEST SWAP2 POP POP SWAP3 SWAP2 POP POP JUMP JUMPDEST PUSH1 0x0 PUSH1 0x20 DUP3 ADD SWAP1 POP DUP2 DUP2 SUB PUSH1 0x0 DUP4 ADD MSTORE PUSH2 0xD8D DUP2 DUP5 PUSH2 0xB35 JUMP JUMPDEST SWAP1 POP SWAP3 SWAP2 POP POP JUMP JUMPDEST PUSH1 0x0 DUP2 SWAP1 POP SWAP3 SWAP2 POP POP JUMP JUMPDEST PUSH1 0x0 PUSH2 0xDAB DUP3 PUSH2 0xA9D JUMP JUMPDEST PUSH2 0xDB5 DUP2 DUP6 PUSH2 0xD95 JUMP JUMPDEST SWAP4 POP PUSH2 0xDC5 DUP2 DUP6 PUSH1 0x20 DUP7 ADD PUSH2 0xAB9 JUMP JUMPDEST DUP1 DUP5 ADD SWAP2 POP POP SWAP3 SWAP2 POP POP JUMP JUMPDEST PUSH1 0x0 PUSH2 0xDDD DUP3 DUP5 PUSH2 0xDA0 JUMP JUMPDEST SWAP2 POP DUP2 SWAP1 POP SWAP3 SWAP2 POP POP JUMP JUMPDEST PUSH32 0x4E487B7100000000000000000000000000000000000000000000000000000000 PUSH1 0x0 MSTORE PUSH1 0x22 PUSH1 0x4 MSTORE PUSH1 0x24 PUSH1 0x0 REVERT JUMPDEST PUSH1 0x0 PUSH1 0x2 DUP3 DIV SWAP1 POP PUSH1 0x1 DUP3 AND DUP1 PUSH2 0xE2F JUMPI PUSH1 0x7F DUP3 AND SWAP2 POP JUMPDEST PUSH1 0x20 DUP3 LT DUP2 SUB PUSH2 0xE42 JUMPI PUSH2 0xE41 PUSH2 0xDE8 JUMP JUMPDEST JUMPDEST POP SWAP2 SWAP1 POP JUMP JUMPDEST PUSH1 0x0 DUP2 SWAP1 POP SWAP2 SWAP1 POP JUMP JUMPDEST PUSH2 0xE63 PUSH2 0xE5E DUP3 PUSH2 0xB1C JUMP JUMPDEST PUSH2 0xE48 JUMP JUMPDEST DUP3 MSTORE POP POP JUMP JUMPDEST PUSH1 0x0 PUSH2 0xE75 DUP3 DUP6 PUSH2 0xDA0 JUMP JUMPDEST SWAP2 POP PUSH2 0xE81 DUP3 DUP5 PUSH2 0xE52 JUMP JUMPDEST PUSH1 0x20 DUP3 ADD SWAP2 POP DUP2 SWAP1 POP SWAP4 SWAP3 POP POP POP JUMP JUMPDEST PUSH1 0x0 DUP3 DUP3 MSTORE PUSH1 0x20 DUP3 ADD SWAP1 POP SWAP3 SWAP2 POP POP JUMP JUMPDEST PUSH32 0x4E474F20616C7265616479207265676973746572656420776974682074686973 PUSH1 0x0 DUP3 ADD MSTORE PUSH32 0x20656D61696C0000000000000000000000000000000000000000000000000000 PUSH1 0x20 DUP3 ADD MSTORE POP JUMP JUMPDEST PUSH1 0x0 PUSH2 0xEFE PUSH1 0x26 DUP4 PUSH2 0xE91 JUMP JUMPDEST SWAP2 POP PUSH2 0xF09 DUP3 PUSH2 0xEA2 JUMP JUMPDEST PUSH1 0x40 DUP3 ADD SWAP1 POP SWAP2 SWAP1 POP JUMP JUMPDEST PUSH1 0x0 PUSH1 0x20 DUP3 ADD SWAP1 POP DUP2 DUP2 SUB PUSH1 0x0 DUP4 ADD MSTORE PUSH2 0xF2D DUP2 PUSH2 0xEF1 JUMP JUMPDEST SWAP1 POP SWAP2 SWAP1 POP JUMP JUMPDEST PUSH1 0x0 DUP2 SWAP1 POP DUP2 PUSH1 0x0 MSTORE PUSH1 0x20 PUSH1 0x0 KECCAK256 SWAP1 POP SWAP2 SWAP1 POP JUMP JUMPDEST PUSH1 0x0 PUSH1 0x20 PUSH1 0x1F DUP4 ADD DIV SWAP1 POP SWAP2 SWAP1 POP JUMP JUMPDEST PUSH1 0x0 DUP3 DUP3 SHL SWAP1 POP SWAP3 SWAP2 POP POP JUMP JUMPDEST PUSH1 0x0 PUSH1 0x8 DUP4 MUL PUSH2 0xF96 PUSH32 0xFFFFFFFFFFFFFFFFFFFFFFFFFFFFFFFFFFFFFFFFFFFFFFFFFFFFFFFFFFFFFFFF DUP3 PUSH2 0xF59 JUMP JUMPDEST PUSH2 0xFA0 DUP7 DUP4 PUSH2 0xF59 JUMP JUMPDEST SWAP6 POP DUP1 NOT DUP5 AND SWAP4 POP DUP1 DUP7 AND DUP5 OR SWAP3 POP POP POP SWAP4 SWAP3 POP POP POP JUMP JUMPDEST PUSH1 0x0 DUP2 SWAP1 POP SWAP2 SWAP1 POP JUMP JUMPDEST PUSH1 0x0 PUSH2 0xFDD PUSH2 0xFD8 PUSH2 0xFD3 DUP5 PUSH2 0xB1C JUMP JUMPDEST PUSH2 0xFB8 JUMP JUMPDEST PUSH2 0xB1C JUMP JUMPDEST SWAP1 POP SWAP2 SWAP1 POP JUMP JUMPDEST PUSH1 0x0 DUP2 SWAP1 POP SWAP2 SWAP1 POP JUMP JUMPDEST PUSH2 0xFF7 DUP4 PUSH2 0xFC2 JUMP JUMPDEST PUSH2 0x100B PUSH2 0x1003 DUP3 PUSH2 0xFE4 JUMP JUMPDEST DUP5 DUP5 SLOAD PUSH2 0xF66 JUMP JUMPDEST DUP3 SSTORE POP POP POP POP JUMP JUMPDEST PUSH1 0x0 SWAP1 JUMP JUMPDEST PUSH2 0x1020 PUSH2 0x1013 JUMP JUMPDEST PUSH2 0x102B DUP2 DUP5 DUP5 PUSH2 0xFEE JUMP JUMPDEST POP POP POP JUMP JUMPDEST JUMPDEST DUP2 DUP2 LT ISZERO PUSH2 0x104F JUMPI PUSH2 0x1044 PUSH1 0x0 DUP3 PUSH2 0x1018 JUMP JUMPDEST PUSH1 0x1 DUP2 ADD SWAP1 POP PUSH2 0x1031 JUMP JUMPDEST POP POP JUMP JUMPDEST PUSH1 0x1F DUP3 GT ISZERO PUSH2 0x1094 JUMPI PUSH2 0x1065 DUP2 PUSH2 0xF34 JUMP JUMPDEST PUSH2 0x106E DUP5 PUSH2 0xF49 JUMP JUMPDEST DUP2 ADD PUSH1 0x20 DUP6 LT ISZERO PUSH2 0x107D JUMPI DUP2 SWAP1 POP JUMPDEST PUSH2 0x1091 PUSH2 0x1089 DUP6 PUSH2 0xF49 JUMP JUMPDEST DUP4 ADD DUP3 PUSH2 0x1030 JUMP JUMPDEST POP POP JUMPDEST POP POP POP JUMP JUMPDEST PUSH1 0x0 DUP3 DUP3 SHR SWAP1 POP SWAP3 SWAP2 POP POP JUMP JUMPDEST PUSH1 0x0 PUSH2 0x10B7 PUSH1 0x0 NOT DUP5 PUSH1 0x8 MUL PUSH2 0x1099 JUMP JUMPDEST NOT DUP1 DUP4 AND SWAP2 POP POP SWAP3 SWAP2 POP POP JUMP JUMPDEST PUSH1 0x0 PUSH2 0x10D0 DUP4 DUP4 PUSH2 0x10A6 JUMP JUMPDEST SWAP2 POP DUP3 PUSH1 0x2 MUL DUP3 OR SWAP1 POP SWAP3 SWAP2 POP POP JUMP JUMPDEST PUSH2 0x10E9 DUP3 PUSH2 0xA9D JUMP JUMPDEST PUSH8 0xFFFFFFFFFFFFFFFF DUP2 GT ISZERO PUSH2 0x1102 JUMPI PUSH2 0x1101 PUSH2 0x8F5 JUMP JUMPDEST JUMPDEST PUSH2 0x110C DUP3 SLOAD PUSH2 0xE17 JUMP JUMPDEST PUSH2 0x1117 DUP3 DUP3 DUP6 PUSH2 0x1053 JUMP JUMPDEST PUSH1 0x0 PUSH1 0x20 SWAP1 POP PUSH1 0x1F DUP4 GT PUSH1 0x1 DUP2 EQ PUSH2 0x114A JUMPI PUSH1 0x0 DUP5 ISZERO PUSH2 0x1138 JUMPI DUP3 DUP8 ADD MLOAD SWAP1 POP JUMPDEST PUSH2 0x1142 DUP6 DUP3 PUSH2 0x10C4 JUMP JUMPDEST DUP7 SSTORE POP PUSH2 0x11AA JUMP JUMPDEST PUSH1 0x1F NOT DUP5 AND PUSH2 0x1158 DUP7 PUSH2 0xF34 JUMP JUMPDEST PUSH1 0x0 JUMPDEST DUP3 DUP2 LT ISZERO PUSH2 0x1180 JUMPI DUP5 DUP10 ADD MLOAD DUP3 SSTORE PUSH1 0x1 DUP3 ADD SWAP2 POP PUSH1 0x20 DUP6 ADD SWAP5 POP PUSH1 0x20 DUP2 ADD SWAP1 POP PUSH2 0x115B JUMP JUMPDEST DUP7 DUP4 LT ISZERO PUSH2 0x119D JUMPI DUP5 DUP10 ADD MLOAD PUSH2 0x1199 PUSH1 0x1F DUP10 AND DUP3 PUSH2 0x10A6 JUMP JUMPDEST DUP4 SSTORE POP JUMPDEST PUSH1 0x1 PUSH1 0x2 DUP9 MUL ADD DUP9 SSTORE POP POP POP JUMPDEST POP POP POP POP POP POP JUMP JUMPDEST PUSH1 0x0 PUSH2 0x11BD DUP3 PUSH2 0xA9D JUMP JUMPDEST PUSH2 0x11C7 DUP2 DUP6 PUSH2 0xE91 JUMP JUMPDEST SWAP4 POP PUSH2 0x11D7 DUP2 DUP6 PUSH1 0x20 DUP7 ADD PUSH2 0xAB9 JUMP JUMPDEST PUSH2 0x11E0 DUP2 PUSH2 0x8E4 JUMP JUMPDEST DUP5 ADD SWAP2 POP POP SWAP3 SWAP2 POP POP JUMP JUMPDEST PUSH2 0x11F4 DUP2 PUSH2 0xB1C JUMP JUMPDEST DUP3 MSTORE POP POP JUMP JUMPDEST PUSH1 0x0 PUSH1 0xA0 DUP3 ADD SWAP1 POP DUP2 DUP2 SUB PUSH1 0x0 DUP4 ADD MSTORE PUSH2 0x1214 DUP2 DUP9 PUSH2 0x11B2 JUMP JUMPDEST SWAP1 POP PUSH2 0x1223 PUSH1 0x20 DUP4 ADD DUP8 PUSH2 0x11EB JUMP JUMPDEST DUP2 DUP2 SUB PUSH1 0x40 DUP4 ADD MSTORE PUSH2 0x1235 DUP2 DUP7 PUSH2 0x11B2 JUMP JUMPDEST SWAP1 POP DUP2 DUP2 SUB PUSH1 0x60 DUP4 ADD MSTORE PUSH2 0x1249 DUP2 DUP6 PUSH2 0x11B2 JUMP JUMPDEST SWAP1 POP DUP2 DUP2 SUB PUSH1 0x80 DUP4 ADD MSTORE PUSH2 0x125D DUP2 DUP5 PUSH2 0x11B2 JUMP JUMPDEST SWAP1 POP SWAP7 SWAP6 POP POP POP POP POP POP JUMP JUMPDEST PUSH32 0x4E474F206E6F7420666F756E6400000000000000000000000000000000000000 PUSH1 0x0 DUP3 ADD MSTORE POP JUMP JUMPDEST PUSH1 0x0 PUSH2 0x129F PUSH1 0xD DUP4 PUSH2 0xE91 JUMP JUMPDEST SWAP2 POP PUSH2 0x12AA DUP3 PUSH2 0x1269 JUMP JUMPDEST PUSH1 0x20 DUP3 ADD SWAP1 POP SWAP2 SWAP1 POP JUMP JUMPDEST PUSH1 0x0 PUSH1 0x20 DUP3 ADD SWAP1 POP DUP2 DUP2 SUB PUSH1 0x0 DUP4 ADD MSTORE PUSH2 0x12CE DUP2 PUSH2 0x1292 JUMP JUMPDEST SWAP1 POP SWAP2 SWAP1 POP JUMP INVALID LOG2 PUSH5 0x6970667358 0x22 SLT KECCAK256 COINBASE 0xBC LOG1 0xDA 0xA6 JUMPDEST PUSH21 0xB4BD10F4D3F2CE46AD76A4C08FAD916427019F7F8B 0xD2 PUSH11 0xC8C964736F6C6343000812 STOP CALLER "
				},
				"gasEstimates": {
					"creation": {
						"codeDepositCost": "975000",
						"executionCost": "1014",
						"totalCost": "976014"
					},
					"external": {
						"findNgoByEmail(string)": "infinite",
						"getNgoById(bytes32)": "infinite",
						"registerNgo(string,uint256,string,string,string)": "infinite"
					}
				},
				"methodIdentifiers": {
					"findNgoByEmail(string)": "3cb203c8",
					"getNgoById(bytes32)": "978de799",
					"registerNgo(string,uint256,string,string,string)": "67b0ca96"
				}
			},
			"storageLayout": {
				"storage": [
					{
						"astId": 19,
						"contract": "contracts/NgoManager.sol:NgoManager",
						"label": "ngosById",
						"offset": 0,
						"slot": "0",
						"type": "t_mapping(t_bytes32,t_struct(NGO)14_storage)"
					},
					{
						"astId": 23,
						"contract": "contracts/NgoManager.sol:NgoManager",
						"label": "ngoIdByEmail",
						"offset": 0,
						"slot": "1",
						"type": "t_mapping(t_string_memory_ptr,t_bytes32)"
					}
				],
				"types": {
					"t_bytes32": {
						"encoding": "inplace",
						"label": "bytes32",
						"numberOfBytes": "32"
					},
					"t_mapping(t_bytes32,t_struct(NGO)14_storage)": {
						"encoding": "mapping",
						"key": "t_bytes32",
						"label": "mapping(bytes32 => struct NgoManager.NGO)",
						"numberOfBytes": "32",
						"value": "t_struct(NGO)14_storage"
					},
					"t_mapping(t_string_memory_ptr,t_bytes32)": {
						"encoding": "mapping",
						"key": "t_string_memory_ptr",
						"label": "mapping(string => bytes32)",
						"numberOfBytes": "32",
						"value": "t_bytes32"
					},
					"t_string_memory_ptr": {
						"encoding": "bytes",
						"label": "string",
						"numberOfBytes": "32"
					},
					"t_string_storage": {
						"encoding": "bytes",
						"label": "string",
						"numberOfBytes": "32"
					},
					"t_struct(NGO)14_storage": {
						"encoding": "inplace",
						"label": "struct NgoManager.NGO",
						"members": [
							{
								"astId": 3,
								"contract": "contracts/NgoManager.sol:NgoManager",
								"label": "Ngo_id",
								"offset": 0,
								"slot": "0",
								"type": "t_bytes32"
							},
							{
								"astId": 5,
								"contract": "contracts/NgoManager.sol:NgoManager",
								"label": "NgoName",
								"offset": 0,
								"slot": "1",
								"type": "t_string_storage"
							},
							{
								"astId": 7,
								"contract": "contracts/NgoManager.sol:NgoManager",
								"label": "regNo",
								"offset": 0,
								"slot": "2",
								"type": "t_uint256"
							},
							{
								"astId": 9,
								"contract": "contracts/NgoManager.sol:NgoManager",
								"label": "website",
								"offset": 0,
								"slot": "3",
								"type": "t_string_storage"
							},
							{
								"astId": 11,
								"contract": "contracts/NgoManager.sol:NgoManager",
								"label": "contactPerson",
								"offset": 0,
								"slot": "4",
								"type": "t_string_storage"
							},
							{
								"astId": 13,
								"contract": "contracts/NgoManager.sol:NgoManager",
								"label": "contactEmail",
								"offset": 0,
								"slot": "5",
								"type": "t_string_storage"
							}
						],
						"numberOfBytes": "192"
					},
					"t_uint256": {
						"encoding": "inplace",
						"label": "uint256",
						"numberOfBytes": "32"
					}
				}
			},
			"userdoc": {
				"kind": "user",
				"methods": {
					"findNgoByEmail(string)": {
						"notice": "Get NGO details by email"
					},
					"getNgoById(bytes32)": {
						"notice": "Get NGO details by ngoId"
					},
					"registerNgo(string,uint256,string,string,string)": {
						"notice": "Register a new NGO"
					}
				},
				"version": 1
			}
		}
	}
}