{
	"data": {
		"bytecode": {
			"linkReferences": {},
			"object": "608060405234801561000f575f80fd5b506118d68061001d5f395ff3fe608060405260043610610054575f3560e01c80633f040653146100585780634a15ef921461008257806369f5e26d146100aa578063c37067fa146100d2578063cabe0452146100ee578063d34562781461012f575b5f80fd5b348015610063575f80fd5b5061006c61016b565b6040516100799190610d28565b60405180910390f35b34801561008d575f80fd5b506100a860048036038101906100a39190610ec8565b6101c0565b005b3480156100b5575f80fd5b506100d060048036038101906100cb9190610faa565b6103b4565b005b6100ec60048036038101906100e79190610faa565b6105c8565b005b3480156100f9575f80fd5b50610114600480360381019061010f9190610faa565b6108d0565b60405161012696959493929190611078565b60405180910390f35b34801561013a575f80fd5b50610155600480360381019061015091906110ec565b610c09565b6040516101629190611126565b60405180910390f35b60605f8054806020026020016040519081016040528092919081815260200182805480156101b657602002820191905f5260205f20905b8154815260200190600101908083116101a2575b5050505050905090565b5f8111610202576040517f08c379a00000000000000000000000000000000000000000000000000000000081526004016101f9906111af565b60405180910390fd5b5f61020b610c28565b90506040518061010001604052808281526020018681526020018581526020018481526020013373ffffffffffffffffffffffffffffffffffffffff1681526020018381526020015f81526020016001151581525060015f8381526020019081526020015f205f820151815f0155602082015181600101908161028e91906113c7565b5060408201518160020190816102a491906113c7565b5060608201518160030190816102ba91906113c7565b506080820151816004015f6101000a81548173ffffffffffffffffffffffffffffffffffffffff021916908373ffffffffffffffffffffffffffffffffffffffff16021790555060a0820151816005015560c0820151816006015560e0820151816007015f6101000a81548160ff0219169083151502179055509050505f81908060018154018082558091505060019003905f5260205f20015f90919091909150553373ffffffffffffffffffffffffffffffffffffffff16817ff06e7326656aba6aa1b1843cb7fecf5ba35e15233a4c34c11deb25205faa7cd387856040516103a5929190611496565b60405180910390a35050505050565b5f73ffffffffffffffffffffffffffffffffffffffff1660015f8381526020019081526020015f206004015f9054906101000a900473ffffffffffffffffffffffffffffffffffffffff1673ffffffffffffffffffffffffffffffffffffffff1603610455576040517f08c379a000000000000000000000000000000000000000000000000000000000815260040161044c9061150e565b60405180910390fd5b60015f8281526020019081526020015f206004015f9054906101000a900473ffffffffffffffffffffffffffffffffffffffff1673ffffffffffffffffffffffffffffffffffffffff163373ffffffffffffffffffffffffffffffffffffffff16146104f6576040517f08c379a00000000000000000000000000000000000000000000000000000000081526004016104ed9061159c565b60405180910390fd5b60015f8281526020019081526020015f206007015f9054906101000a900460ff16610556576040517f08c379a000000000000000000000000000000000000000000000000000000000815260040161054d90611604565b60405180910390fd5b5f60015f8381526020019081526020015f206007015f6101000a81548160ff0219169083151502179055503373ffffffffffffffffffffffffffffffffffffffff16817f3f3339f8794d1bfb806c618a74d02f8393885d62139c8bc23d96c7247e6261d660405160405180910390a350565b5f73ffffffffffffffffffffffffffffffffffffffff1660015f8381526020019081526020015f206004015f9054906101000a900473ffffffffffffffffffffffffffffffffffffffff1673ffffffffffffffffffffffffffffffffffffffff1603610669576040517f08c379a00000000000000000000000000000000000000000000000000000000081526004016106609061150e565b60405180910390fd5b60015f8281526020019081526020015f206007015f9054906101000a900460ff166106c9576040517f08c379a00000000000000000000000000000000000000000000000000000000081526004016106c09061166c565b60405180910390fd5b5f341161070b576040517f08c379a0000000000000000000000000000000000000000000000000000000008152600401610702906116d4565b60405180910390fd5b3460015f8381526020019081526020015f206006015f82825461072e919061171f565b9250508190555060015f8281526020019081526020015f206005015460015f8381526020019081526020015f206006015410610807575f60015f8381526020019081526020015f206007015f6101000a81548160ff02191690831515021790555060015f8281526020019081526020015f206004015f9054906101000a900473ffffffffffffffffffffffffffffffffffffffff1673ffffffffffffffffffffffffffffffffffffffff16817f3f3339f8794d1bfb806c618a74d02f8393885d62139c8bc23d96c7247e6261d660405160405180910390a35b3373ffffffffffffffffffffffffffffffffffffffff16817f3c0eff4f142cbce74bccfc168392c83a24f470999e24cef8ae1558fb729effa83460405161084e9190611752565b60405180910390a360015f8281526020019081526020015f206004015f9054906101000a900473ffffffffffffffffffffffffffffffffffffffff1673ffffffffffffffffffffffffffffffffffffffff166108fc3490811502906040515f60405180830381858888f193505050501580156108cc573d5f803e3d5ffd5b5050565b60608060605f805f8073ffffffffffffffffffffffffffffffffffffffff1660015f8981526020019081526020015f206004015f9054906101000a900473ffffffffffffffffffffffffffffffffffffffff1673ffffffffffffffffffffffffffffffffffffffff1603610979576040517f08c379a00000000000000000000000000000000000000000000000000000000081526004016109709061150e565b60405180910390fd5b5f60015f8981526020019081526020015f20604051806101000160405290815f82015481526020016001820180546109b0906111fa565b80601f01602080910402602001604051908101604052809291908181526020018280546109dc906111fa565b8015610a275780601f106109fe57610100808354040283529160200191610a27565b820191905f5260205f20905b815481529060010190602001808311610a0a57829003601f168201915b50505050508152602001600282018054610a40906111fa565b80601f0160208091040260200160405190810160405280929190818152602001828054610a6c906111fa565b8015610ab75780601f10610a8e57610100808354040283529160200191610ab7565b820191905f5260205f20905b815481529060010190602001808311610a9a57829003601f168201915b50505050508152602001600382018054610ad0906111fa565b80601f0160208091040260200160405190810160405280929190818152602001828054610afc906111fa565b8015610b475780601f10610b1e57610100808354040283529160200191610b47565b820191905f5260205f20905b815481529060010190602001808311610b2a57829003601f168201915b50505050508152602001600482015f9054906101000a900473ffffffffffffffffffffffffffffffffffffffff1673ffffffffffffffffffffffffffffffffffffffff1673ffffffffffffffffffffffffffffffffffffffff1681526020016005820154815260200160068201548152602001600782015f9054906101000a900460ff16151515158152505090508060200151816040015182606001518360a001518460c001518560e001519650965096509650965096505091939550919395565b5f8181548110610c17575f80fd5b905f5260205f20015f915090505481565b5f334244600143610c39919061176b565b40604051602001610c4d9493929190611853565b60405160208183030381529060405280519060200120905090565b5f81519050919050565b5f82825260208201905092915050565b5f819050602082019050919050565b5f819050919050565b610ca381610c91565b82525050565b5f610cb48383610c9a565b60208301905092915050565b5f602082019050919050565b5f610cd682610c68565b610ce08185610c72565b9350610ceb83610c82565b805f5b83811015610d1b578151610d028882610ca9565b9750610d0d83610cc0565b925050600181019050610cee565b5085935050505092915050565b5f6020820190508181035f830152610d408184610ccc565b905092915050565b5f604051905090565b5f80fd5b5f80fd5b5f80fd5b5f80fd5b5f601f19601f8301169050919050565b7f4e487b71000000000000000000000000000000000000000000000000000000005f52604160045260245ffd5b610da782610d61565b810181811067ffffffffffffffff82111715610dc657610dc5610d71565b5b80604052505050565b5f610dd8610d48565b9050610de48282610d9e565b919050565b5f67ffffffffffffffff821115610e0357610e02610d71565b5b610e0c82610d61565b9050602081019050919050565b828183375f83830152505050565b5f610e39610e3484610de9565b610dcf565b905082815260208101848484011115610e5557610e54610d5d565b5b610e60848285610e19565b509392505050565b5f82601f830112610e7c57610e7b610d59565b5b8135610e8c848260208601610e27565b91505092915050565b5f819050919050565b610ea781610e95565b8114610eb1575f80fd5b50565b5f81359050610ec281610e9e565b92915050565b5f805f8060808587031215610ee057610edf610d51565b5b5f85013567ffffffffffffffff811115610efd57610efc610d55565b5b610f0987828801610e68565b945050602085013567ffffffffffffffff811115610f2a57610f29610d55565b5b610f3687828801610e68565b935050604085013567ffffffffffffffff811115610f5757610f56610d55565b5b610f6387828801610e68565b9250506060610f7487828801610eb4565b91505092959194509250565b610f8981610c91565b8114610f93575f80fd5b50565b5f81359050610fa481610f80565b92915050565b5f60208284031215610fbf57610fbe610d51565b5b5f610fcc84828501610f96565b91505092915050565b5f81519050919050565b5f82825260208201905092915050565b5f5b8381101561100c578082015181840152602081019050610ff1565b5f8484015250505050565b5f61102182610fd5565b61102b8185610fdf565b935061103b818560208601610fef565b61104481610d61565b840191505092915050565b61105881610e95565b82525050565b5f8115159050919050565b6110728161105e565b82525050565b5f60c0820190508181035f8301526110908189611017565b905081810360208301526110a48188611017565b905081810360408301526110b88187611017565b90506110c7606083018661104f565b6110d4608083018561104f565b6110e160a0830184611069565b979650505050505050565b5f6020828403121561110157611100610d51565b5b5f61110e84828501610eb4565b91505092915050565b61112081610c91565b82525050565b5f6020820190506111395f830184611117565b92915050565b7f54617267657420616d6f756e74206d75737420626520677265617465722074685f8201527f616e203000000000000000000000000000000000000000000000000000000000602082015250565b5f611199602483610fdf565b91506111a48261113f565b604082019050919050565b5f6020820190508181035f8301526111c68161118d565b9050919050565b7f4e487b71000000000000000000000000000000000000000000000000000000005f52602260045260245ffd5b5f600282049050600182168061121157607f821691505b602082108103611224576112236111cd565b5b50919050565b5f819050815f5260205f209050919050565b5f6020601f8301049050919050565b5f82821b905092915050565b5f600883026112867fffffffffffffffffffffffffffffffffffffffffffffffffffffffffffffffff8261124b565b611290868361124b565b95508019841693508086168417925050509392505050565b5f819050919050565b5f6112cb6112c66112c184610e95565b6112a8565b610e95565b9050919050565b5f819050919050565b6112e4836112b1565b6112f86112f0826112d2565b848454611257565b825550505050565b5f90565b61130c611300565b6113178184846112db565b505050565b5b8181101561133a5761132f5f82611304565b60018101905061131d565b5050565b601f82111561137f576113508161122a565b6113598461123c565b81016020851015611368578190505b61137c6113748561123c565b83018261131c565b50505b505050565b5f82821c905092915050565b5f61139f5f1984600802611384565b1980831691505092915050565b5f6113b78383611390565b9150826002028217905092915050565b6113d082610fd5565b67ffffffffffffffff8111156113e9576113e8610d71565b5b6113f382546111fa565b6113fe82828561133e565b5f60209050601f83116001811461142f575f841561141d578287015190505b61142785826113ac565b86555061148e565b601f19841661143d8661122a565b5f5b828110156114645784890151825560018201915060208501945060208101905061143f565b86831015611481578489015161147d601f891682611390565b8355505b6001600288020188555050505b505050505050565b5f6040820190508181035f8301526114ae8185611017565b90506114bd602083018461104f565b9392505050565b7f43616d706169676e20646f6573206e6f742065786973740000000000000000005f82015250565b5f6114f8601783610fdf565b9150611503826114c4565b602082019050919050565b5f6020820190508181035f830152611525816114ec565b9050919050565b7f4f6e6c792041646d696e2f4e474f2063616e20636c6f7365207468652063616d5f8201527f706169676e000000000000000000000000000000000000000000000000000000602082015250565b5f611586602583610fdf565b91506115918261152c565b604082019050919050565b5f6020820190508181035f8301526115b38161157a565b9050919050565b7f43616d706169676e20697320616c726561647920636c6f7365640000000000005f82015250565b5f6115ee601a83610fdf565b91506115f9826115ba565b602082019050919050565b5f6020820190508181035f83015261161b816115e2565b9050919050565b7f43616d706169676e20697320636c6f73656400000000000000000000000000005f82015250565b5f611656601283610fdf565b915061166182611622565b602082019050919050565b5f6020820190508181035f8301526116838161164a565b9050919050565b7f446f6e6174696f6e206d7573742062652067726561746572207468616e2030005f82015250565b5f6116be601f83610fdf565b91506116c98261168a565b602082019050919050565b5f6020820190508181035f8301526116eb816116b2565b9050919050565b7f4e487b71000000000000000000000000000000000000000000000000000000005f52601160045260245ffd5b5f61172982610e95565b915061173483610e95565b925082820190508082111561174c5761174b6116f2565b5b92915050565b5f6020820190506117655f83018461104f565b92915050565b5f61177582610e95565b915061178083610e95565b9250828203905081811115611798576117976116f2565b5b92915050565b5f73ffffffffffffffffffffffffffffffffffffffff82169050919050565b5f6117c78261179e565b9050919050565b5f8160601b9050919050565b5f6117e4826117ce565b9050919050565b5f6117f5826117da565b9050919050565b61180d611808826117bd565b6117eb565b82525050565b5f819050919050565b61182d61182882610e95565b611813565b82525050565b5f819050919050565b61184d61184882610c91565b611833565b82525050565b5f61185e82876117fc565b60148201915061186e828661181c565b60208201915061187e828561181c565b60208201915061188e828461183c565b6020820191508190509594505050505056fea264697066735822122034c0d721b11e7961d30d61db175f05df6713c8b86a97c6d0eddc449773c5f70e64736f6c63430008140033",
			"opcodes": "PUSH1 0x80 PUSH1 0x40 MSTORE CALLVALUE DUP1 ISZERO PUSH2 0xF JUMPI PUSH0 DUP1 REVERT JUMPDEST POP PUSH2 0x18D6 DUP1 PUSH2 0x1D PUSH0 CODECOPY PUSH0 RETURN INVALID PUSH1 0x80 PUSH1 0x40 MSTORE PUSH1 0x4 CALLDATASIZE LT PUSH2 0x54 JUMPI PUSH0 CALLDATALOAD PUSH1 0xE0 SHR DUP1 PUSH4 0x3F040653 EQ PUSH2 0x58 JUMPI DUP1 PUSH4 0x4A15EF92 EQ PUSH2 0x82 JUMPI DUP1 PUSH4 0x69F5E26D EQ PUSH2 0xAA JUMPI DUP1 PUSH4 0xC37067FA EQ PUSH2 0xD2 JUMPI DUP1 PUSH4 0xCABE0452 EQ PUSH2 0xEE JUMPI DUP1 PUSH4 0xD3456278 EQ PUSH2 0x12F JUMPI JUMPDEST PUSH0 DUP1 REVERT JUMPDEST CALLVALUE DUP1 ISZERO PUSH2 0x63 JUMPI PUSH0 DUP1 REVERT JUMPDEST POP PUSH2 0x6C PUSH2 0x16B JUMP JUMPDEST PUSH1 0x40 MLOAD PUSH2 0x79 SWAP2 SWAP1 PUSH2 0xD28 JUMP JUMPDEST PUSH1 0x40 MLOAD DUP1 SWAP2 SUB SWAP1 RETURN JUMPDEST CALLVALUE DUP1 ISZERO PUSH2 0x8D JUMPI PUSH0 DUP1 REVERT JUMPDEST POP PUSH2 0xA8 PUSH1 0x4 DUP1 CALLDATASIZE SUB DUP2 ADD SWAP1 PUSH2 0xA3 SWAP2 SWAP1 PUSH2 0xEC8 JUMP JUMPDEST PUSH2 0x1C0 JUMP JUMPDEST STOP JUMPDEST CALLVALUE DUP1 ISZERO PUSH2 0xB5 JUMPI PUSH0 DUP1 REVERT JUMPDEST POP PUSH2 0xD0 PUSH1 0x4 DUP1 CALLDATASIZE SUB DUP2 ADD SWAP1 PUSH2 0xCB SWAP2 SWAP1 PUSH2 0xFAA JUMP JUMPDEST PUSH2 0x3B4 JUMP JUMPDEST STOP JUMPDEST PUSH2 0xEC PUSH1 0x4 DUP1 CALLDATASIZE SUB DUP2 ADD SWAP1 PUSH2 0xE7 SWAP2 SWAP1 PUSH2 0xFAA JUMP JUMPDEST PUSH2 0x5C8 JUMP JUMPDEST STOP JUMPDEST CALLVALUE DUP1 ISZERO PUSH2 0xF9 JUMPI PUSH0 DUP1 REVERT JUMPDEST POP PUSH2 0x114 PUSH1 0x4 DUP1 CALLDATASIZE SUB DUP2 ADD SWAP1 PUSH2 0x10F SWAP2 SWAP1 PUSH2 0xFAA JUMP JUMPDEST PUSH2 0x8D0 JUMP JUMPDEST PUSH1 0x40 MLOAD PUSH2 0x126 SWAP7 SWAP6 SWAP5 SWAP4 SWAP3 SWAP2 SWAP1 PUSH2 0x1078 JUMP JUMPDEST PUSH1 0x40 MLOAD DUP1 SWAP2 SUB SWAP1 RETURN JUMPDEST CALLVALUE DUP1 ISZERO PUSH2 0x13A JUMPI PUSH0 DUP1 REVERT JUMPDEST POP PUSH2 0x155 PUSH1 0x4 DUP1 CALLDATASIZE SUB DUP2 ADD SWAP1 PUSH2 0x150 SWAP2 SWAP1 PUSH2 0x10EC JUMP JUMPDEST PUSH2 0xC09 JUMP JUMPDEST PUSH1 0x40 MLOAD PUSH2 0x162 SWAP2 SWAP1 PUSH2 0x1126 JUMP JUMPDEST PUSH1 0x40 MLOAD DUP1 SWAP2 SUB SWAP1 RETURN JUMPDEST PUSH1 0x60 PUSH0 DUP1 SLOAD DUP1 PUSH1 0x20 MUL PUSH1 0x20 ADD PUSH1 0x40 MLOAD SWAP1 DUP2 ADD PUSH1 0x40 MSTORE DUP1 SWAP3 SWAP2 SWAP1 DUP2 DUP2 MSTORE PUSH1 0x20 ADD DUP3 DUP1 SLOAD DUP1 ISZERO PUSH2 0x1B6 JUMPI PUSH1 0x20 MUL DUP3 ADD SWAP2 SWAP1 PUSH0 MSTORE PUSH1 0x20 PUSH0 KECCAK256 SWAP1 JUMPDEST DUP2 SLOAD DUP2 MSTORE PUSH1 0x20 ADD SWAP1 PUSH1 0x1 ADD SWAP1 DUP1 DUP4 GT PUSH2 0x1A2 JUMPI JUMPDEST POP POP POP POP POP SWAP1 POP SWAP1 JUMP JUMPDEST PUSH0 DUP2 GT PUSH2 0x202 JUMPI PUSH1 0x40 MLOAD PUSH32 0x8C379A000000000000000000000000000000000000000000000000000000000 DUP2 MSTORE PUSH1 0x4 ADD PUSH2 0x1F9 SWAP1 PUSH2 0x11AF JUMP JUMPDEST PUSH1 0x40 MLOAD DUP1 SWAP2 SUB SWAP1 REVERT JUMPDEST PUSH0 PUSH2 0x20B PUSH2 0xC28 JUMP JUMPDEST SWAP1 POP PUSH1 0x40 MLOAD DUP1 PUSH2 0x100 ADD PUSH1 0x40 MSTORE DUP1 DUP3 DUP2 MSTORE PUSH1 0x20 ADD DUP7 DUP2 MSTORE PUSH1 0x20 ADD DUP6 DUP2 MSTORE PUSH1 0x20 ADD DUP5 DUP2 MSTORE PUSH1 0x20 ADD CALLER PUSH20 0xFFFFFFFFFFFFFFFFFFFFFFFFFFFFFFFFFFFFFFFF AND DUP2 MSTORE PUSH1 0x20 ADD DUP4 DUP2 MSTORE PUSH1 0x20 ADD PUSH0 DUP2 MSTORE PUSH1 0x20 ADD PUSH1 0x1 ISZERO ISZERO DUP2 MSTORE POP PUSH1 0x1 PUSH0 DUP4 DUP2 MSTORE PUSH1 0x20 ADD SWAP1 DUP2 MSTORE PUSH1 0x20 ADD PUSH0 KECCAK256 PUSH0 DUP3 ADD MLOAD DUP2 PUSH0 ADD SSTORE PUSH1 0x20 DUP3 ADD MLOAD DUP2 PUSH1 0x1 ADD SWAP1 DUP2 PUSH2 0x28E SWAP2 SWAP1 PUSH2 0x13C7 JUMP JUMPDEST POP PUSH1 0x40 DUP3 ADD MLOAD DUP2 PUSH1 0x2 ADD SWAP1 DUP2 PUSH2 0x2A4 SWAP2 SWAP1 PUSH2 0x13C7 JUMP JUMPDEST POP PUSH1 0x60 DUP3 ADD MLOAD DUP2 PUSH1 0x3 ADD SWAP1 DUP2 PUSH2 0x2BA SWAP2 SWAP1 PUSH2 0x13C7 JUMP JUMPDEST POP PUSH1 0x80 DUP3 ADD MLOAD DUP2 PUSH1 0x4 ADD PUSH0 PUSH2 0x100 EXP DUP2 SLOAD DUP2 PUSH20 0xFFFFFFFFFFFFFFFFFFFFFFFFFFFFFFFFFFFFFFFF MUL NOT AND SWAP1 DUP4 PUSH20 0xFFFFFFFFFFFFFFFFFFFFFFFFFFFFFFFFFFFFFFFF AND MUL OR SWAP1 SSTORE POP PUSH1 0xA0 DUP3 ADD MLOAD DUP2 PUSH1 0x5 ADD SSTORE PUSH1 0xC0 DUP3 ADD MLOAD DUP2 PUSH1 0x6 ADD SSTORE PUSH1 0xE0 DUP3 ADD MLOAD DUP2 PUSH1 0x7 ADD PUSH0 PUSH2 0x100 EXP DUP2 SLOAD DUP2 PUSH1 0xFF MUL NOT AND SWAP1 DUP4 ISZERO ISZERO MUL OR SWAP1 SSTORE POP SWAP1 POP POP PUSH0 DUP2 SWAP1 DUP1 PUSH1 0x1 DUP2 SLOAD ADD DUP1 DUP3 SSTORE DUP1 SWAP2 POP POP PUSH1 0x1 SWAP1 SUB SWAP1 PUSH0 MSTORE PUSH1 0x20 PUSH0 KECCAK256 ADD PUSH0 SWAP1 SWAP2 SWAP1 SWAP2 SWAP1 SWAP2 POP SSTORE CALLER PUSH20 0xFFFFFFFFFFFFFFFFFFFFFFFFFFFFFFFFFFFFFFFF AND DUP2 PUSH32 0xF06E7326656ABA6AA1B1843CB7FECF5BA35E15233A4C34C11DEB25205FAA7CD3 DUP8 DUP6 PUSH1 0x40 MLOAD PUSH2 0x3A5 SWAP3 SWAP2 SWAP1 PUSH2 0x1496 JUMP JUMPDEST PUSH1 0x40 MLOAD DUP1 SWAP2 SUB SWAP1 LOG3 POP POP POP POP POP JUMP JUMPDEST PUSH0 PUSH20 0xFFFFFFFFFFFFFFFFFFFFFFFFFFFFFFFFFFFFFFFF AND PUSH1 0x1 PUSH0 DUP4 DUP2 MSTORE PUSH1 0x20 ADD SWAP1 DUP2 MSTORE PUSH1 0x20 ADD PUSH0 KECCAK256 PUSH1 0x4 ADD PUSH0 SWAP1 SLOAD SWAP1 PUSH2 0x100 EXP SWAP1 DIV PUSH20 0xFFFFFFFFFFFFFFFFFFFFFFFFFFFFFFFFFFFFFFFF AND PUSH20 0xFFFFFFFFFFFFFFFFFFFFFFFFFFFFFFFFFFFFFFFF AND SUB PUSH2 0x455 JUMPI PUSH1 0x40 MLOAD PUSH32 0x8C379A000000000000000000000000000000000000000000000000000000000 DUP2 MSTORE PUSH1 0x4 ADD PUSH2 0x44C SWAP1 PUSH2 0x150E JUMP JUMPDEST PUSH1 0x40 MLOAD DUP1 SWAP2 SUB SWAP1 REVERT JUMPDEST PUSH1 0x1 PUSH0 DUP3 DUP2 MSTORE PUSH1 0x20 ADD SWAP1 DUP2 MSTORE PUSH1 0x20 ADD PUSH0 KECCAK256 PUSH1 0x4 ADD PUSH0 SWAP1 SLOAD SWAP1 PUSH2 0x100 EXP SWAP1 DIV PUSH20 0xFFFFFFFFFFFFFFFFFFFFFFFFFFFFFFFFFFFFFFFF AND PUSH20 0xFFFFFFFFFFFFFFFFFFFFFFFFFFFFFFFFFFFFFFFF AND CALLER PUSH20 0xFFFFFFFFFFFFFFFFFFFFFFFFFFFFFFFFFFFFFFFF AND EQ PUSH2 0x4F6 JUMPI PUSH1 0x40 MLOAD PUSH32 0x8C379A000000000000000000000000000000000000000000000000000000000 DUP2 MSTORE PUSH1 0x4 ADD PUSH2 0x4ED SWAP1 PUSH2 0x159C JUMP JUMPDEST PUSH1 0x40 MLOAD DUP1 SWAP2 SUB SWAP1 REVERT JUMPDEST PUSH1 0x1 PUSH0 DUP3 DUP2 MSTORE PUSH1 0x20 ADD SWAP1 DUP2 MSTORE PUSH1 0x20 ADD PUSH0 KECCAK256 PUSH1 0x7 ADD PUSH0 SWAP1 SLOAD SWAP1 PUSH2 0x100 EXP SWAP1 DIV PUSH1 0xFF AND PUSH2 0x556 JUMPI PUSH1 0x40 MLOAD PUSH32 0x8C379A000000000000000000000000000000000000000000000000000000000 DUP2 MSTORE PUSH1 0x4 ADD PUSH2 0x54D SWAP1 PUSH2 0x1604 JUMP JUMPDEST PUSH1 0x40 MLOAD DUP1 SWAP2 SUB SWAP1 REVERT JUMPDEST PUSH0 PUSH1 0x1 PUSH0 DUP4 DUP2 MSTORE PUSH1 0x20 ADD SWAP1 DUP2 MSTORE PUSH1 0x20 ADD PUSH0 KECCAK256 PUSH1 0x7 ADD PUSH0 PUSH2 0x100 EXP DUP2 SLOAD DUP2 PUSH1 0xFF MUL NOT AND SWAP1 DUP4 ISZERO ISZERO MUL OR SWAP1 SSTORE POP CALLER PUSH20 0xFFFFFFFFFFFFFFFFFFFFFFFFFFFFFFFFFFFFFFFF AND DUP2 PUSH32 0x3F3339F8794D1BFB806C618A74D02F8393885D62139C8BC23D96C7247E6261D6 PUSH1 0x40 MLOAD PUSH1 0x40 MLOAD DUP1 SWAP2 SUB SWAP1 LOG3 POP JUMP JUMPDEST PUSH0 PUSH20 0xFFFFFFFFFFFFFFFFFFFFFFFFFFFFFFFFFFFFFFFF AND PUSH1 0x1 PUSH0 DUP4 DUP2 MSTORE PUSH1 0x20 ADD SWAP1 DUP2 MSTORE PUSH1 0x20 ADD PUSH0 KECCAK256 PUSH1 0x4 ADD PUSH0 SWAP1 SLOAD SWAP1 PUSH2 0x100 EXP SWAP1 DIV PUSH20 0xFFFFFFFFFFFFFFFFFFFFFFFFFFFFFFFFFFFFFFFF AND PUSH20 0xFFFFFFFFFFFFFFFFFFFFFFFFFFFFFFFFFFFFFFFF AND SUB PUSH2 0x669 JUMPI PUSH1 0x40 MLOAD PUSH32 0x8C379A000000000000000000000000000000000000000000000000000000000 DUP2 MSTORE PUSH1 0x4 ADD PUSH2 0x660 SWAP1 PUSH2 0x150E JUMP JUMPDEST PUSH1 0x40 MLOAD DUP1 SWAP2 SUB SWAP1 REVERT JUMPDEST PUSH1 0x1 PUSH0 DUP3 DUP2 MSTORE PUSH1 0x20 ADD SWAP1 DUP2 MSTORE PUSH1 0x20 ADD PUSH0 KECCAK256 PUSH1 0x7 ADD PUSH0 SWAP1 SLOAD SWAP1 PUSH2 0x100 EXP SWAP1 DIV PUSH1 0xFF AND PUSH2 0x6C9 JUMPI PUSH1 0x40 MLOAD PUSH32 0x8C379A000000000000000000000000000000000000000000000000000000000 DUP2 MSTORE PUSH1 0x4 ADD PUSH2 0x6C0 SWAP1 PUSH2 0x166C JUMP JUMPDEST PUSH1 0x40 MLOAD DUP1 SWAP2 SUB SWAP1 REVERT JUMPDEST PUSH0 CALLVALUE GT PUSH2 0x70B JUMPI PUSH1 0x40 MLOAD PUSH32 0x8C379A000000000000000000000000000000000000000000000000000000000 DUP2 MSTORE PUSH1 0x4 ADD PUSH2 0x702 SWAP1 PUSH2 0x16D4 JUMP JUMPDEST PUSH1 0x40 MLOAD DUP1 SWAP2 SUB SWAP1 REVERT JUMPDEST CALLVALUE PUSH1 0x1 PUSH0 DUP4 DUP2 MSTORE PUSH1 0x20 ADD SWAP1 DUP2 MSTORE PUSH1 0x20 ADD PUSH0 KECCAK256 PUSH1 0x6 ADD PUSH0 DUP3 DUP3 SLOAD PUSH2 0x72E SWAP2 SWAP1 PUSH2 0x171F JUMP JUMPDEST SWAP3 POP POP DUP2 SWAP1 SSTORE POP PUSH1 0x1 PUSH0 DUP3 DUP2 MSTORE PUSH1 0x20 ADD SWAP1 DUP2 MSTORE PUSH1 0x20 ADD PUSH0 KECCAK256 PUSH1 0x5 ADD SLOAD PUSH1 0x1 PUSH0 DUP4 DUP2 MSTORE PUSH1 0x20 ADD SWAP1 DUP2 MSTORE PUSH1 0x20 ADD PUSH0 KECCAK256 PUSH1 0x6 ADD SLOAD LT PUSH2 0x807 JUMPI PUSH0 PUSH1 0x1 PUSH0 DUP4 DUP2 MSTORE PUSH1 0x20 ADD SWAP1 DUP2 MSTORE PUSH1 0x20 ADD PUSH0 KECCAK256 PUSH1 0x7 ADD PUSH0 PUSH2 0x100 EXP DUP2 SLOAD DUP2 PUSH1 0xFF MUL NOT AND SWAP1 DUP4 ISZERO ISZERO MUL OR SWAP1 SSTORE POP PUSH1 0x1 PUSH0 DUP3 DUP2 MSTORE PUSH1 0x20 ADD SWAP1 DUP2 MSTORE PUSH1 0x20 ADD PUSH0 KECCAK256 PUSH1 0x4 ADD PUSH0 SWAP1 SLOAD SWAP1 PUSH2 0x100 EXP SWAP1 DIV PUSH20 0xFFFFFFFFFFFFFFFFFFFFFFFFFFFFFFFFFFFFFFFF AND PUSH20 0xFFFFFFFFFFFFFFFFFFFFFFFFFFFFFFFFFFFFFFFF AND DUP2 PUSH32 0x3F3339F8794D1BFB806C618A74D02F8393885D62139C8BC23D96C7247E6261D6 PUSH1 0x40 MLOAD PUSH1 0x40 MLOAD DUP1 SWAP2 SUB SWAP1 LOG3 JUMPDEST CALLER PUSH20 0xFFFFFFFFFFFFFFFFFFFFFFFFFFFFFFFFFFFFFFFF AND DUP2 PUSH32 0x3C0EFF4F142CBCE74BCCFC168392C83A24F470999E24CEF8AE1558FB729EFFA8 CALLVALUE PUSH1 0x40 MLOAD PUSH2 0x84E SWAP2 SWAP1 PUSH2 0x1752 JUMP JUMPDEST PUSH1 0x40 MLOAD DUP1 SWAP2 SUB SWAP1 LOG3 PUSH1 0x1 PUSH0 DUP3 DUP2 MSTORE PUSH1 0x20 ADD SWAP1 DUP2 MSTORE PUSH1 0x20 ADD PUSH0 KECCAK256 PUSH1 0x4 ADD PUSH0 SWAP1 SLOAD SWAP1 PUSH2 0x100 EXP SWAP1 DIV PUSH20 0xFFFFFFFFFFFFFFFFFFFFFFFFFFFFFFFFFFFFFFFF AND PUSH20 0xFFFFFFFFFFFFFFFFFFFFFFFFFFFFFFFFFFFFFFFF AND PUSH2 0x8FC CALLVALUE SWAP1 DUP2 ISZERO MUL SWAP1 PUSH1 0x40 MLOAD PUSH0 PUSH1 0x40 MLOAD DUP1 DUP4 SUB DUP2 DUP6 DUP9 DUP9 CALL SWAP4 POP POP POP POP ISZERO DUP1 ISZERO PUSH2 0x8CC JUMPI RETURNDATASIZE PUSH0 DUP1 RETURNDATACOPY RETURNDATASIZE PUSH0 REVERT JUMPDEST POP POP JUMP JUMPDEST PUSH1 0x60 DUP1 PUSH1 0x60 PUSH0 DUP1 PUSH0 DUP1 PUSH20 0xFFFFFFFFFFFFFFFFFFFFFFFFFFFFFFFFFFFFFFFF AND PUSH1 0x1 PUSH0 DUP10 DUP2 MSTORE PUSH1 0x20 ADD SWAP1 DUP2 MSTORE PUSH1 0x20 ADD PUSH0 KECCAK256 PUSH1 0x4 ADD PUSH0 SWAP1 SLOAD SWAP1 PUSH2 0x100 EXP SWAP1 DIV PUSH20 0xFFFFFFFFFFFFFFFFFFFFFFFFFFFFFFFFFFFFFFFF AND PUSH20 0xFFFFFFFFFFFFFFFFFFFFFFFFFFFFFFFFFFFFFFFF AND SUB PUSH2 0x979 JUMPI PUSH1 0x40 MLOAD PUSH32 0x8C379A000000000000000000000000000000000000000000000000000000000 DUP2 MSTORE PUSH1 0x4 ADD PUSH2 0x970 SWAP1 PUSH2 0x150E JUMP JUMPDEST PUSH1 0x40 MLOAD DUP1 SWAP2 SUB SWAP1 REVERT JUMPDEST PUSH0 PUSH1 0x1 PUSH0 DUP10 DUP2 MSTORE PUSH1 0x20 ADD SWAP1 DUP2 MSTORE PUSH1 0x20 ADD PUSH0 KECCAK256 PUSH1 0x40 MLOAD DUP1 PUSH2 0x100 ADD PUSH1 0x40 MSTORE SWAP1 DUP2 PUSH0 DUP3 ADD SLOAD DUP2 MSTORE PUSH1 0x20 ADD PUSH1 0x1 DUP3 ADD DUP1 SLOAD PUSH2 0x9B0 SWAP1 PUSH2 0x11FA JUMP JUMPDEST DUP1 PUSH1 0x1F ADD PUSH1 0x20 DUP1 SWAP2 DIV MUL PUSH1 0x20 ADD PUSH1 0x40 MLOAD SWAP1 DUP2 ADD PUSH1 0x40 MSTORE DUP1 SWAP3 SWAP2 SWAP1 DUP2 DUP2 MSTORE PUSH1 0x20 ADD DUP3 DUP1 SLOAD PUSH2 0x9DC SWAP1 PUSH2 0x11FA JUMP JUMPDEST DUP1 ISZERO PUSH2 0xA27 JUMPI DUP1 PUSH1 0x1F LT PUSH2 0x9FE JUMPI PUSH2 0x100 DUP1 DUP4 SLOAD DIV MUL DUP4 MSTORE SWAP2 PUSH1 0x20 ADD SWAP2 PUSH2 0xA27 JUMP JUMPDEST DUP3 ADD SWAP2 SWAP1 PUSH0 MSTORE PUSH1 0x20 PUSH0 KECCAK256 SWAP1 JUMPDEST DUP2 SLOAD DUP2 MSTORE SWAP1 PUSH1 0x1 ADD SWAP1 PUSH1 0x20 ADD DUP1 DUP4 GT PUSH2 0xA0A JUMPI DUP3 SWAP1 SUB PUSH1 0x1F AND DUP3 ADD SWAP2 JUMPDEST POP POP POP POP POP DUP2 MSTORE PUSH1 0x20 ADD PUSH1 0x2 DUP3 ADD DUP1 SLOAD PUSH2 0xA40 SWAP1 PUSH2 0x11FA JUMP JUMPDEST DUP1 PUSH1 0x1F ADD PUSH1 0x20 DUP1 SWAP2 DIV MUL PUSH1 0x20 ADD PUSH1 0x40 MLOAD SWAP1 DUP2 ADD PUSH1 0x40 MSTORE DUP1 SWAP3 SWAP2 SWAP1 DUP2 DUP2 MSTORE PUSH1 0x20 ADD DUP3 DUP1 SLOAD PUSH2 0xA6C SWAP1 PUSH2 0x11FA JUMP JUMPDEST DUP1 ISZERO PUSH2 0xAB7 JUMPI DUP1 PUSH1 0x1F LT PUSH2 0xA8E JUMPI PUSH2 0x100 DUP1 DUP4 SLOAD DIV MUL DUP4 MSTORE SWAP2 PUSH1 0x20 ADD SWAP2 PUSH2 0xAB7 JUMP JUMPDEST DUP3 ADD SWAP2 SWAP1 PUSH0 MSTORE PUSH1 0x20 PUSH0 KECCAK256 SWAP1 JUMPDEST DUP2 SLOAD DUP2 MSTORE SWAP1 PUSH1 0x1 ADD SWAP1 PUSH1 0x20 ADD DUP1 DUP4 GT PUSH2 0xA9A JUMPI DUP3 SWAP1 SUB PUSH1 0x1F AND DUP3 ADD SWAP2 JUMPDEST POP POP POP POP POP DUP2 MSTORE PUSH1 0x20 ADD PUSH1 0x3 DUP3 ADD DUP1 SLOAD PUSH2 0xAD0 SWAP1 PUSH2 0x11FA JUMP JUMPDEST DUP1 PUSH1 0x1F ADD PUSH1 0x20 DUP1 SWAP2 DIV MUL PUSH1 0x20 ADD PUSH1 0x40 MLOAD SWAP1 DUP2 ADD PUSH1 0x40 MSTORE DUP1 SWAP3 SWAP2 SWAP1 DUP2 DUP2 MSTORE PUSH1 0x20 ADD DUP3 DUP1 SLOAD PUSH2 0xAFC SWAP1 PUSH2 0x11FA JUMP JUMPDEST DUP1 ISZERO PUSH2 0xB47 JUMPI DUP1 PUSH1 0x1F LT PUSH2 0xB1E JUMPI PUSH2 0x100 DUP1 DUP4 SLOAD DIV MUL DUP4 MSTORE SWAP2 PUSH1 0x20 ADD SWAP2 PUSH2 0xB47 JUMP JUMPDEST DUP3 ADD SWAP2 SWAP1 PUSH0 MSTORE PUSH1 0x20 PUSH0 KECCAK256 SWAP1 JUMPDEST DUP2 SLOAD DUP2 MSTORE SWAP1 PUSH1 0x1 ADD SWAP1 PUSH1 0x20 ADD DUP1 DUP4 GT PUSH2 0xB2A JUMPI DUP3 SWAP1 SUB PUSH1 0x1F AND DUP3 ADD SWAP2 JUMPDEST POP POP POP POP POP DUP2 MSTORE PUSH1 0x20 ADD PUSH1 0x4 DUP3 ADD PUSH0 SWAP1 SLOAD SWAP1 PUSH2 0x100 EXP SWAP1 DIV PUSH20 0xFFFFFFFFFFFFFFFFFFFFFFFFFFFFFFFFFFFFFFFF AND PUSH20 0xFFFFFFFFFFFFFFFFFFFFFFFFFFFFFFFFFFFFFFFF AND PUSH20 0xFFFFFFFFFFFFFFFFFFFFFFFFFFFFFFFFFFFFFFFF AND DUP2 MSTORE PUSH1 0x20 ADD PUSH1 0x5 DUP3 ADD SLOAD DUP2 MSTORE PUSH1 0x20 ADD PUSH1 0x6 DUP3 ADD SLOAD DUP2 MSTORE PUSH1 0x20 ADD PUSH1 0x7 DUP3 ADD PUSH0 SWAP1 SLOAD SWAP1 PUSH2 0x100 EXP SWAP1 DIV PUSH1 0xFF AND ISZERO ISZERO ISZERO ISZERO DUP2 MSTORE POP POP SWAP1 POP DUP1 PUSH1 0x20 ADD MLOAD DUP2 PUSH1 0x40 ADD MLOAD DUP3 PUSH1 0x60 ADD MLOAD DUP4 PUSH1 0xA0 ADD MLOAD DUP5 PUSH1 0xC0 ADD MLOAD DUP6 PUSH1 0xE0 ADD MLOAD SWAP7 POP SWAP7 POP SWAP7 POP SWAP7 POP SWAP7 POP SWAP7 POP POP SWAP2 SWAP4 SWAP6 POP SWAP2 SWAP4 SWAP6 JUMP JUMPDEST PUSH0 DUP2 DUP2 SLOAD DUP2 LT PUSH2 0xC17 JUMPI PUSH0 DUP1 REVERT JUMPDEST SWAP1 PUSH0 MSTORE PUSH1 0x20 PUSH0 KECCAK256 ADD PUSH0 SWAP2 POP SWAP1 POP SLOAD DUP2 JUMP JUMPDEST PUSH0 CALLER TIMESTAMP PREVRANDAO PUSH1 0x1 NUMBER PUSH2 0xC39 SWAP2 SWAP1 PUSH2 0x176B JUMP JUMPDEST BLOCKHASH PUSH1 0x40 MLOAD PUSH1 0x20 ADD PUSH2 0xC4D SWAP5 SWAP4 SWAP3 SWAP2 SWAP1 PUSH2 0x1853 JUMP JUMPDEST PUSH1 0x40 MLOAD PUSH1 0x20 DUP2 DUP4 SUB SUB DUP2 MSTORE SWAP1 PUSH1 0x40 MSTORE DUP1 MLOAD SWAP1 PUSH1 0x20 ADD KECCAK256 SWAP1 POP SWAP1 JUMP JUMPDEST PUSH0 DUP2 MLOAD SWAP1 POP SWAP2 SWAP1 POP JUMP JUMPDEST PUSH0 DUP3 DUP3 MSTORE PUSH1 0x20 DUP3 ADD SWAP1 POP SWAP3 SWAP2 POP POP JUMP JUMPDEST PUSH0 DUP2 SWAP1 POP PUSH1 0x20 DUP3 ADD SWAP1 POP SWAP2 SWAP1 POP JUMP JUMPDEST PUSH0 DUP2 SWAP1 POP SWAP2 SWAP1 POP JUMP JUMPDEST PUSH2 0xCA3 DUP2 PUSH2 0xC91 JUMP JUMPDEST DUP3 MSTORE POP POP JUMP JUMPDEST PUSH0 PUSH2 0xCB4 DUP4 DUP4 PUSH2 0xC9A JUMP JUMPDEST PUSH1 0x20 DUP4 ADD SWAP1 POP SWAP3 SWAP2 POP POP JUMP JUMPDEST PUSH0 PUSH1 0x20 DUP3 ADD SWAP1 POP SWAP2 SWAP1 POP JUMP JUMPDEST PUSH0 PUSH2 0xCD6 DUP3 PUSH2 0xC68 JUMP JUMPDEST PUSH2 0xCE0 DUP2 DUP6 PUSH2 0xC72 JUMP JUMPDEST SWAP4 POP PUSH2 0xCEB DUP4 PUSH2 0xC82 JUMP JUMPDEST DUP1 PUSH0 JUMPDEST DUP4 DUP2 LT ISZERO PUSH2 0xD1B JUMPI DUP2 MLOAD PUSH2 0xD02 DUP9 DUP3 PUSH2 0xCA9 JUMP JUMPDEST SWAP8 POP PUSH2 0xD0D DUP4 PUSH2 0xCC0 JUMP JUMPDEST SWAP3 POP POP PUSH1 0x1 DUP2 ADD SWAP1 POP PUSH2 0xCEE JUMP JUMPDEST POP DUP6 SWAP4 POP POP POP POP SWAP3 SWAP2 POP POP JUMP JUMPDEST PUSH0 PUSH1 0x20 DUP3 ADD SWAP1 POP DUP2 DUP2 SUB PUSH0 DUP4 ADD MSTORE PUSH2 0xD40 DUP2 DUP5 PUSH2 0xCCC JUMP JUMPDEST SWAP1 POP SWAP3 SWAP2 POP POP JUMP JUMPDEST PUSH0 PUSH1 0x40 MLOAD SWAP1 POP SWAP1 JUMP JUMPDEST PUSH0 DUP1 REVERT JUMPDEST PUSH0 DUP1 REVERT JUMPDEST PUSH0 DUP1 REVERT JUMPDEST PUSH0 DUP1 REVERT JUMPDEST PUSH0 PUSH1 0x1F NOT PUSH1 0x1F DUP4 ADD AND SWAP1 POP SWAP2 SWAP1 POP JUMP JUMPDEST PUSH32 0x4E487B7100000000000000000000000000000000000000000000000000000000 PUSH0 MSTORE PUSH1 0x41 PUSH1 0x4 MSTORE PUSH1 0x24 PUSH0 REVERT JUMPDEST PUSH2 0xDA7 DUP3 PUSH2 0xD61 JUMP JUMPDEST DUP2 ADD DUP2 DUP2 LT PUSH8 0xFFFFFFFFFFFFFFFF DUP3 GT OR ISZERO PUSH2 0xDC6 JUMPI PUSH2 0xDC5 PUSH2 0xD71 JUMP JUMPDEST JUMPDEST DUP1 PUSH1 0x40 MSTORE POP POP POP JUMP JUMPDEST PUSH0 PUSH2 0xDD8 PUSH2 0xD48 JUMP JUMPDEST SWAP1 POP PUSH2 0xDE4 DUP3 DUP3 PUSH2 0xD9E JUMP JUMPDEST SWAP2 SWAP1 POP JUMP JUMPDEST PUSH0 PUSH8 0xFFFFFFFFFFFFFFFF DUP3 GT ISZERO PUSH2 0xE03 JUMPI PUSH2 0xE02 PUSH2 0xD71 JUMP JUMPDEST JUMPDEST PUSH2 0xE0C DUP3 PUSH2 0xD61 JUMP JUMPDEST SWAP1 POP PUSH1 0x20 DUP2 ADD SWAP1 POP SWAP2 SWAP1 POP JUMP JUMPDEST DUP3 DUP2 DUP4 CALLDATACOPY PUSH0 DUP4 DUP4 ADD MSTORE POP POP POP JUMP JUMPDEST PUSH0 PUSH2 0xE39 PUSH2 0xE34 DUP5 PUSH2 0xDE9 JUMP JUMPDEST PUSH2 0xDCF JUMP JUMPDEST SWAP1 POP DUP3 DUP2 MSTORE PUSH1 0x20 DUP2 ADD DUP5 DUP5 DUP5 ADD GT ISZERO PUSH2 0xE55 JUMPI PUSH2 0xE54 PUSH2 0xD5D JUMP JUMPDEST JUMPDEST PUSH2 0xE60 DUP5 DUP3 DUP6 PUSH2 0xE19 JUMP JUMPDEST POP SWAP4 SWAP3 POP POP POP JUMP JUMPDEST PUSH0 DUP3 PUSH1 0x1F DUP4 ADD SLT PUSH2 0xE7C JUMPI PUSH2 0xE7B PUSH2 0xD59 JUMP JUMPDEST JUMPDEST DUP2 CALLDATALOAD PUSH2 0xE8C DUP5 DUP3 PUSH1 0x20 DUP7 ADD PUSH2 0xE27 JUMP JUMPDEST SWAP2 POP POP SWAP3 SWAP2 POP POP JUMP JUMPDEST PUSH0 DUP2 SWAP1 POP SWAP2 SWAP1 POP JUMP JUMPDEST PUSH2 0xEA7 DUP2 PUSH2 0xE95 JUMP JUMPDEST DUP2 EQ PUSH2 0xEB1 JUMPI PUSH0 DUP1 REVERT JUMPDEST POP JUMP JUMPDEST PUSH0 DUP2 CALLDATALOAD SWAP1 POP PUSH2 0xEC2 DUP2 PUSH2 0xE9E JUMP JUMPDEST SWAP3 SWAP2 POP POP JUMP JUMPDEST PUSH0 DUP1 PUSH0 DUP1 PUSH1 0x80 DUP6 DUP8 SUB SLT ISZERO PUSH2 0xEE0 JUMPI PUSH2 0xEDF PUSH2 0xD51 JUMP JUMPDEST JUMPDEST PUSH0 DUP6 ADD CALLDATALOAD PUSH8 0xFFFFFFFFFFFFFFFF DUP2 GT ISZERO PUSH2 0xEFD JUMPI PUSH2 0xEFC PUSH2 0xD55 JUMP JUMPDEST JUMPDEST PUSH2 0xF09 DUP8 DUP3 DUP9 ADD PUSH2 0xE68 JUMP JUMPDEST SWAP5 POP POP PUSH1 0x20 DUP6 ADD CALLDATALOAD PUSH8 0xFFFFFFFFFFFFFFFF DUP2 GT ISZERO PUSH2 0xF2A JUMPI PUSH2 0xF29 PUSH2 0xD55 JUMP JUMPDEST JUMPDEST PUSH2 0xF36 DUP8 DUP3 DUP9 ADD PUSH2 0xE68 JUMP JUMPDEST SWAP4 POP POP PUSH1 0x40 DUP6 ADD CALLDATALOAD PUSH8 0xFFFFFFFFFFFFFFFF DUP2 GT ISZERO PUSH2 0xF57 JUMPI PUSH2 0xF56 PUSH2 0xD55 JUMP JUMPDEST JUMPDEST PUSH2 0xF63 DUP8 DUP3 DUP9 ADD PUSH2 0xE68 JUMP JUMPDEST SWAP3 POP POP PUSH1 0x60 PUSH2 0xF74 DUP8 DUP3 DUP9 ADD PUSH2 0xEB4 JUMP JUMPDEST SWAP2 POP POP SWAP3 SWAP6 SWAP2 SWAP5 POP SWAP3 POP JUMP JUMPDEST PUSH2 0xF89 DUP2 PUSH2 0xC91 JUMP JUMPDEST DUP2 EQ PUSH2 0xF93 JUMPI PUSH0 DUP1 REVERT JUMPDEST POP JUMP JUMPDEST PUSH0 DUP2 CALLDATALOAD SWAP1 POP PUSH2 0xFA4 DUP2 PUSH2 0xF80 JUMP JUMPDEST SWAP3 SWAP2 POP POP JUMP JUMPDEST PUSH0 PUSH1 0x20 DUP3 DUP5 SUB SLT ISZERO PUSH2 0xFBF JUMPI PUSH2 0xFBE PUSH2 0xD51 JUMP JUMPDEST JUMPDEST PUSH0 PUSH2 0xFCC DUP5 DUP3 DUP6 ADD PUSH2 0xF96 JUMP JUMPDEST SWAP2 POP POP SWAP3 SWAP2 POP POP JUMP JUMPDEST PUSH0 DUP2 MLOAD SWAP1 POP SWAP2 SWAP1 POP JUMP JUMPDEST PUSH0 DUP3 DUP3 MSTORE PUSH1 0x20 DUP3 ADD SWAP1 POP SWAP3 SWAP2 POP POP JUMP JUMPDEST PUSH0 JUMPDEST DUP4 DUP2 LT ISZERO PUSH2 0x100C JUMPI DUP1 DUP3 ADD MLOAD DUP2 DUP5 ADD MSTORE PUSH1 0x20 DUP2 ADD SWAP1 POP PUSH2 0xFF1 JUMP JUMPDEST PUSH0 DUP5 DUP5 ADD MSTORE POP POP POP POP JUMP JUMPDEST PUSH0 PUSH2 0x1021 DUP3 PUSH2 0xFD5 JUMP JUMPDEST PUSH2 0x102B DUP2 DUP6 PUSH2 0xFDF JUMP JUMPDEST SWAP4 POP PUSH2 0x103B DUP2 DUP6 PUSH1 0x20 DUP7 ADD PUSH2 0xFEF JUMP JUMPDEST PUSH2 0x1044 DUP2 PUSH2 0xD61 JUMP JUMPDEST DUP5 ADD SWAP2 POP POP SWAP3 SWAP2 POP POP JUMP JUMPDEST PUSH2 0x1058 DUP2 PUSH2 0xE95 JUMP JUMPDEST DUP3 MSTORE POP POP JUMP JUMPDEST PUSH0 DUP2 ISZERO ISZERO SWAP1 POP SWAP2 SWAP1 POP JUMP JUMPDEST PUSH2 0x1072 DUP2 PUSH2 0x105E JUMP JUMPDEST DUP3 MSTORE POP POP JUMP JUMPDEST PUSH0 PUSH1 0xC0 DUP3 ADD SWAP1 POP DUP2 DUP2 SUB PUSH0 DUP4 ADD MSTORE PUSH2 0x1090 DUP2 DUP10 PUSH2 0x1017 JUMP JUMPDEST SWAP1 POP DUP2 DUP2 SUB PUSH1 0x20 DUP4 ADD MSTORE PUSH2 0x10A4 DUP2 DUP9 PUSH2 0x1017 JUMP JUMPDEST SWAP1 POP DUP2 DUP2 SUB PUSH1 0x40 DUP4 ADD MSTORE PUSH2 0x10B8 DUP2 DUP8 PUSH2 0x1017 JUMP JUMPDEST SWAP1 POP PUSH2 0x10C7 PUSH1 0x60 DUP4 ADD DUP7 PUSH2 0x104F JUMP JUMPDEST PUSH2 0x10D4 PUSH1 0x80 DUP4 ADD DUP6 PUSH2 0x104F JUMP JUMPDEST PUSH2 0x10E1 PUSH1 0xA0 DUP4 ADD DUP5 PUSH2 0x1069 JUMP JUMPDEST SWAP8 SWAP7 POP POP POP POP POP POP POP JUMP JUMPDEST PUSH0 PUSH1 0x20 DUP3 DUP5 SUB SLT ISZERO PUSH2 0x1101 JUMPI PUSH2 0x1100 PUSH2 0xD51 JUMP JUMPDEST JUMPDEST PUSH0 PUSH2 0x110E DUP5 DUP3 DUP6 ADD PUSH2 0xEB4 JUMP JUMPDEST SWAP2 POP POP SWAP3 SWAP2 POP POP JUMP JUMPDEST PUSH2 0x1120 DUP2 PUSH2 0xC91 JUMP JUMPDEST DUP3 MSTORE POP POP JUMP JUMPDEST PUSH0 PUSH1 0x20 DUP3 ADD SWAP1 POP PUSH2 0x1139 PUSH0 DUP4 ADD DUP5 PUSH2 0x1117 JUMP JUMPDEST SWAP3 SWAP2 POP POP JUMP JUMPDEST PUSH32 0x54617267657420616D6F756E74206D7573742062652067726561746572207468 PUSH0 DUP3 ADD MSTORE PUSH32 0x616E203000000000000000000000000000000000000000000000000000000000 PUSH1 0x20 DUP3 ADD MSTORE POP JUMP JUMPDEST PUSH0 PUSH2 0x1199 PUSH1 0x24 DUP4 PUSH2 0xFDF JUMP JUMPDEST SWAP2 POP PUSH2 0x11A4 DUP3 PUSH2 0x113F JUMP JUMPDEST PUSH1 0x40 DUP3 ADD SWAP1 POP SWAP2 SWAP1 POP JUMP JUMPDEST PUSH0 PUSH1 0x20 DUP3 ADD SWAP1 POP DUP2 DUP2 SUB PUSH0 DUP4 ADD MSTORE PUSH2 0x11C6 DUP2 PUSH2 0x118D JUMP JUMPDEST SWAP1 POP SWAP2 SWAP1 POP JUMP JUMPDEST PUSH32 0x4E487B7100000000000000000000000000000000000000000000000000000000 PUSH0 MSTORE PUSH1 0x22 PUSH1 0x4 MSTORE PUSH1 0x24 PUSH0 REVERT JUMPDEST PUSH0 PUSH1 0x2 DUP3 DIV SWAP1 POP PUSH1 0x1 DUP3 AND DUP1 PUSH2 0x1211 JUMPI PUSH1 0x7F DUP3 AND SWAP2 POP JUMPDEST PUSH1 0x20 DUP3 LT DUP2 SUB PUSH2 0x1224 JUMPI PUSH2 0x1223 PUSH2 0x11CD JUMP JUMPDEST JUMPDEST POP SWAP2 SWAP1 POP JUMP JUMPDEST PUSH0 DUP2 SWAP1 POP DUP2 PUSH0 MSTORE PUSH1 0x20 PUSH0 KECCAK256 SWAP1 POP SWAP2 SWAP1 POP JUMP JUMPDEST PUSH0 PUSH1 0x20 PUSH1 0x1F DUP4 ADD DIV SWAP1 POP SWAP2 SWAP1 POP JUMP JUMPDEST PUSH0 DUP3 DUP3 SHL SWAP1 POP SWAP3 SWAP2 POP POP JUMP JUMPDEST PUSH0 PUSH1 0x8 DUP4 MUL PUSH2 0x1286 PUSH32 0xFFFFFFFFFFFFFFFFFFFFFFFFFFFFFFFFFFFFFFFFFFFFFFFFFFFFFFFFFFFFFFFF DUP3 PUSH2 0x124B JUMP JUMPDEST PUSH2 0x1290 DUP7 DUP4 PUSH2 0x124B JUMP JUMPDEST SWAP6 POP DUP1 NOT DUP5 AND SWAP4 POP DUP1 DUP7 AND DUP5 OR SWAP3 POP POP POP SWAP4 SWAP3 POP POP POP JUMP JUMPDEST PUSH0 DUP2 SWAP1 POP SWAP2 SWAP1 POP JUMP JUMPDEST PUSH0 PUSH2 0x12CB PUSH2 0x12C6 PUSH2 0x12C1 DUP5 PUSH2 0xE95 JUMP JUMPDEST PUSH2 0x12A8 JUMP JUMPDEST PUSH2 0xE95 JUMP JUMPDEST SWAP1 POP SWAP2 SWAP1 POP JUMP JUMPDEST PUSH0 DUP2 SWAP1 POP SWAP2 SWAP1 POP JUMP JUMPDEST PUSH2 0x12E4 DUP4 PUSH2 0x12B1 JUMP JUMPDEST PUSH2 0x12F8 PUSH2 0x12F0 DUP3 PUSH2 0x12D2 JUMP JUMPDEST DUP5 DUP5 SLOAD PUSH2 0x1257 JUMP JUMPDEST DUP3 SSTORE POP POP POP POP JUMP JUMPDEST PUSH0 SWAP1 JUMP JUMPDEST PUSH2 0x130C PUSH2 0x1300 JUMP JUMPDEST PUSH2 0x1317 DUP2 DUP5 DUP5 PUSH2 0x12DB JUMP JUMPDEST POP POP POP JUMP JUMPDEST JUMPDEST DUP2 DUP2 LT ISZERO PUSH2 0x133A JUMPI PUSH2 0x132F PUSH0 DUP3 PUSH2 0x1304 JUMP JUMPDEST PUSH1 0x1 DUP2 ADD SWAP1 POP PUSH2 0x131D JUMP JUMPDEST POP POP JUMP JUMPDEST PUSH1 0x1F DUP3 GT ISZERO PUSH2 0x137F JUMPI PUSH2 0x1350 DUP2 PUSH2 0x122A JUMP JUMPDEST PUSH2 0x1359 DUP5 PUSH2 0x123C JUMP JUMPDEST DUP2 ADD PUSH1 0x20 DUP6 LT ISZERO PUSH2 0x1368 JUMPI DUP2 SWAP1 POP JUMPDEST PUSH2 0x137C PUSH2 0x1374 DUP6 PUSH2 0x123C JUMP JUMPDEST DUP4 ADD DUP3 PUSH2 0x131C JUMP JUMPDEST POP POP JUMPDEST POP POP POP JUMP JUMPDEST PUSH0 DUP3 DUP3 SHR SWAP1 POP SWAP3 SWAP2 POP POP JUMP JUMPDEST PUSH0 PUSH2 0x139F PUSH0 NOT DUP5 PUSH1 0x8 MUL PUSH2 0x1384 JUMP JUMPDEST NOT DUP1 DUP4 AND SWAP2 POP POP SWAP3 SWAP2 POP POP JUMP JUMPDEST PUSH0 PUSH2 0x13B7 DUP4 DUP4 PUSH2 0x1390 JUMP JUMPDEST SWAP2 POP DUP3 PUSH1 0x2 MUL DUP3 OR SWAP1 POP SWAP3 SWAP2 POP POP JUMP JUMPDEST PUSH2 0x13D0 DUP3 PUSH2 0xFD5 JUMP JUMPDEST PUSH8 0xFFFFFFFFFFFFFFFF DUP2 GT ISZERO PUSH2 0x13E9 JUMPI PUSH2 0x13E8 PUSH2 0xD71 JUMP JUMPDEST JUMPDEST PUSH2 0x13F3 DUP3 SLOAD PUSH2 0x11FA JUMP JUMPDEST PUSH2 0x13FE DUP3 DUP3 DUP6 PUSH2 0x133E JUMP JUMPDEST PUSH0 PUSH1 0x20 SWAP1 POP PUSH1 0x1F DUP4 GT PUSH1 0x1 DUP2 EQ PUSH2 0x142F JUMPI PUSH0 DUP5 ISZERO PUSH2 0x141D JUMPI DUP3 DUP8 ADD MLOAD SWAP1 POP JUMPDEST PUSH2 0x1427 DUP6 DUP3 PUSH2 0x13AC JUMP JUMPDEST DUP7 SSTORE POP PUSH2 0x148E JUMP JUMPDEST PUSH1 0x1F NOT DUP5 AND PUSH2 0x143D DUP7 PUSH2 0x122A JUMP JUMPDEST PUSH0 JUMPDEST DUP3 DUP2 LT ISZERO PUSH2 0x1464 JUMPI DUP5 DUP10 ADD MLOAD DUP3 SSTORE PUSH1 0x1 DUP3 ADD SWAP2 POP PUSH1 0x20 DUP6 ADD SWAP5 POP PUSH1 0x20 DUP2 ADD SWAP1 POP PUSH2 0x143F JUMP JUMPDEST DUP7 DUP4 LT ISZERO PUSH2 0x1481 JUMPI DUP5 DUP10 ADD MLOAD PUSH2 0x147D PUSH1 0x1F DUP10 AND DUP3 PUSH2 0x1390 JUMP JUMPDEST DUP4 SSTORE POP JUMPDEST PUSH1 0x1 PUSH1 0x2 DUP9 MUL ADD DUP9 SSTORE POP POP POP JUMPDEST POP POP POP POP POP POP JUMP JUMPDEST PUSH0 PUSH1 0x40 DUP3 ADD SWAP1 POP DUP2 DUP2 SUB PUSH0 DUP4 ADD MSTORE PUSH2 0x14AE DUP2 DUP6 PUSH2 0x1017 JUMP JUMPDEST SWAP1 POP PUSH2 0x14BD PUSH1 0x20 DUP4 ADD DUP5 PUSH2 0x104F JUMP JUMPDEST SWAP4 SWAP3 POP POP POP JUMP JUMPDEST PUSH32 0x43616D706169676E20646F6573206E6F74206578697374000000000000000000 PUSH0 DUP3 ADD MSTORE POP JUMP JUMPDEST PUSH0 PUSH2 0x14F8 PUSH1 0x17 DUP4 PUSH2 0xFDF JUMP JUMPDEST SWAP2 POP PUSH2 0x1503 DUP3 PUSH2 0x14C4 JUMP JUMPDEST PUSH1 0x20 DUP3 ADD SWAP1 POP SWAP2 SWAP1 POP JUMP JUMPDEST PUSH0 PUSH1 0x20 DUP3 ADD SWAP1 POP DUP2 DUP2 SUB PUSH0 DUP4 ADD MSTORE PUSH2 0x1525 DUP2 PUSH2 0x14EC JUMP JUMPDEST SWAP1 POP SWAP2 SWAP1 POP JUMP JUMPDEST PUSH32 0x4F6E6C792041646D696E2F4E474F2063616E20636C6F7365207468652063616D PUSH0 DUP3 ADD MSTORE PUSH32 0x706169676E000000000000000000000000000000000000000000000000000000 PUSH1 0x20 DUP3 ADD MSTORE POP JUMP JUMPDEST PUSH0 PUSH2 0x1586 PUSH1 0x25 DUP4 PUSH2 0xFDF JUMP JUMPDEST SWAP2 POP PUSH2 0x1591 DUP3 PUSH2 0x152C JUMP JUMPDEST PUSH1 0x40 DUP3 ADD SWAP1 POP SWAP2 SWAP1 POP JUMP JUMPDEST PUSH0 PUSH1 0x20 DUP3 ADD SWAP1 POP DUP2 DUP2 SUB PUSH0 DUP4 ADD MSTORE PUSH2 0x15B3 DUP2 PUSH2 0x157A JUMP JUMPDEST SWAP1 POP SWAP2 SWAP1 POP JUMP JUMPDEST PUSH32 0x43616D706169676E20697320616C726561647920636C6F736564000000000000 PUSH0 DUP3 ADD MSTORE POP JUMP JUMPDEST PUSH0 PUSH2 0x15EE PUSH1 0x1A DUP4 PUSH2 0xFDF JUMP JUMPDEST SWAP2 POP PUSH2 0x15F9 DUP3 PUSH2 0x15BA JUMP JUMPDEST PUSH1 0x20 DUP3 ADD SWAP1 POP SWAP2 SWAP1 POP JUMP JUMPDEST PUSH0 PUSH1 0x20 DUP3 ADD SWAP1 POP DUP2 DUP2 SUB PUSH0 DUP4 ADD MSTORE PUSH2 0x161B DUP2 PUSH2 0x15E2 JUMP JUMPDEST SWAP1 POP SWAP2 SWAP1 POP JUMP JUMPDEST PUSH32 0x43616D706169676E20697320636C6F7365640000000000000000000000000000 PUSH0 DUP3 ADD MSTORE POP JUMP JUMPDEST PUSH0 PUSH2 0x1656 PUSH1 0x12 DUP4 PUSH2 0xFDF JUMP JUMPDEST SWAP2 POP PUSH2 0x1661 DUP3 PUSH2 0x1622 JUMP JUMPDEST PUSH1 0x20 DUP3 ADD SWAP1 POP SWAP2 SWAP1 POP JUMP JUMPDEST PUSH0 PUSH1 0x20 DUP3 ADD SWAP1 POP DUP2 DUP2 SUB PUSH0 DUP4 ADD MSTORE PUSH2 0x1683 DUP2 PUSH2 0x164A JUMP JUMPDEST SWAP1 POP SWAP2 SWAP1 POP JUMP JUMPDEST PUSH32 0x446F6E6174696F6E206D7573742062652067726561746572207468616E203000 PUSH0 DUP3 ADD MSTORE POP JUMP JUMPDEST PUSH0 PUSH2 0x16BE PUSH1 0x1F DUP4 PUSH2 0xFDF JUMP JUMPDEST SWAP2 POP PUSH2 0x16C9 DUP3 PUSH2 0x168A JUMP JUMPDEST PUSH1 0x20 DUP3 ADD SWAP1 POP SWAP2 SWAP1 POP JUMP JUMPDEST PUSH0 PUSH1 0x20 DUP3 ADD SWAP1 POP DUP2 DUP2 SUB PUSH0 DUP4 ADD MSTORE PUSH2 0x16EB DUP2 PUSH2 0x16B2 JUMP JUMPDEST SWAP1 POP SWAP2 SWAP1 POP JUMP JUMPDEST PUSH32 0x4E487B7100000000000000000000000000000000000000000000000000000000 PUSH0 MSTORE PUSH1 0x11 PUSH1 0x4 MSTORE PUSH1 0x24 PUSH0 REVERT JUMPDEST PUSH0 PUSH2 0x1729 DUP3 PUSH2 0xE95 JUMP JUMPDEST SWAP2 POP PUSH2 0x1734 DUP4 PUSH2 0xE95 JUMP JUMPDEST SWAP3 POP DUP3 DUP3 ADD SWAP1 POP DUP1 DUP3 GT ISZERO PUSH2 0x174C JUMPI PUSH2 0x174B PUSH2 0x16F2 JUMP JUMPDEST JUMPDEST SWAP3 SWAP2 POP POP JUMP JUMPDEST PUSH0 PUSH1 0x20 DUP3 ADD SWAP1 POP PUSH2 0x1765 PUSH0 DUP4 ADD DUP5 PUSH2 0x104F JUMP JUMPDEST SWAP3 SWAP2 POP POP JUMP JUMPDEST PUSH0 PUSH2 0x1775 DUP3 PUSH2 0xE95 JUMP JUMPDEST SWAP2 POP PUSH2 0x1780 DUP4 PUSH2 0xE95 JUMP JUMPDEST SWAP3 POP DUP3 DUP3 SUB SWAP1 POP DUP2 DUP2 GT ISZERO PUSH2 0x1798 JUMPI PUSH2 0x1797 PUSH2 0x16F2 JUMP JUMPDEST JUMPDEST SWAP3 SWAP2 POP POP JUMP JUMPDEST PUSH0 PUSH20 0xFFFFFFFFFFFFFFFFFFFFFFFFFFFFFFFFFFFFFFFF DUP3 AND SWAP1 POP SWAP2 SWAP1 POP JUMP JUMPDEST PUSH0 PUSH2 0x17C7 DUP3 PUSH2 0x179E JUMP JUMPDEST SWAP1 POP SWAP2 SWAP1 POP JUMP JUMPDEST PUSH0 DUP2 PUSH1 0x60 SHL SWAP1 POP SWAP2 SWAP1 POP JUMP JUMPDEST PUSH0 PUSH2 0x17E4 DUP3 PUSH2 0x17CE JUMP JUMPDEST SWAP1 POP SWAP2 SWAP1 POP JUMP JUMPDEST PUSH0 PUSH2 0x17F5 DUP3 PUSH2 0x17DA JUMP JUMPDEST SWAP1 POP SWAP2 SWAP1 POP JUMP JUMPDEST PUSH2 0x180D PUSH2 0x1808 DUP3 PUSH2 0x17BD JUMP JUMPDEST PUSH2 0x17EB JUMP JUMPDEST DUP3 MSTORE POP POP JUMP JUMPDEST PUSH0 DUP2 SWAP1 POP SWAP2 SWAP1 POP JUMP JUMPDEST PUSH2 0x182D PUSH2 0x1828 DUP3 PUSH2 0xE95 JUMP JUMPDEST PUSH2 0x1813 JUMP JUMPDEST DUP3 MSTORE POP POP JUMP JUMPDEST PUSH0 DUP2 SWAP1 POP SWAP2 SWAP1 POP JUMP JUMPDEST PUSH2 0x184D PUSH2 0x1848 DUP3 PUSH2 0xC91 JUMP JUMPDEST PUSH2 0x1833 JUMP JUMPDEST DUP3 MSTORE POP POP JUMP JUMPDEST PUSH0 PUSH2 0x185E DUP3 DUP8 PUSH2 0x17FC JUMP JUMPDEST PUSH1 0x14 DUP3 ADD SWAP2 POP PUSH2 0x186E DUP3 DUP7 PUSH2 0x181C JUMP JUMPDEST PUSH1 0x20 DUP3 ADD SWAP2 POP PUSH2 0x187E DUP3 DUP6 PUSH2 0x181C JUMP JUMPDEST PUSH1 0x20 DUP3 ADD SWAP2 POP PUSH2 0x188E DUP3 DUP5 PUSH2 0x183C JUMP JUMPDEST PUSH1 0x20 DUP3 ADD SWAP2 POP DUP2 SWAP1 POP SWAP6 SWAP5 POP POP POP POP POP JUMP INVALID LOG2 PUSH5 0x6970667358 0x22 SLT KECCAK256 CALLVALUE 0xC0 0xD7 0x21 0xB1 0x1E PUSH26 0x61D30D61DB175F05DF6713C8B86A97C6D0EDDC449773C5F70E64 PUSH20 0x6F6C634300081400330000000000000000000000 "
		},
		"gasEstimates": {
			"creation": {
				"codeDepositCost": "1271600",
				"executionCost": "1320",
				"totalCost": "1272920"
			},
			"external": {
				"allCampaignIds(uint256)": "4958",
				"closeCampaign(bytes32)": "33044",
				"createCampaign(string,string,string,uint256)": "infinite",
				"donate(bytes32)": "infinite",
				"getAllCampaignID()": "infinite",
				"getCampaign(bytes32)": "infinite"
			},
			"internal": {
				"uniqueIdGenerator()": "infinite"
			}
		},
		"methodIdentifiers": {
			"allCampaignIds(uint256)": "d3456278",
			"closeCampaign(bytes32)": "69f5e26d",
			"createCampaign(string,string,string,uint256)": "4a15ef92",
			"donate(bytes32)": "c37067fa",
			"getAllCampaignID()": "3f040653",
			"getCampaign(bytes32)": "cabe0452"
		}
	},
	"abi": [
		{
			"anonymous": false,
			"inputs": [
				{
					"indexed": true,
					"internalType": "bytes32",
					"name": "campaignId",
					"type": "bytes32"
				},
				{
					"indexed": true,
					"internalType": "address",
					"name": "ngo",
					"type": "address"
				}
			],
			"name": "CampaignClosed",
			"type": "event"
		},
		{
			"anonymous": false,
			"inputs": [
				{
					"indexed": true,
					"internalType": "bytes32",
					"name": "campaignId",
					"type": "bytes32"
				},
				{
					"indexed": false,
					"internalType": "string",
					"name": "title",
					"type": "string"
				},
				{
					"indexed": true,
					"internalType": "address",
					"name": "ngo",
					"type": "address"
				},
				{
					"indexed": false,
					"internalType": "uint256",
					"name": "targetAmount",
					"type": "uint256"
				}
			],
			"name": "CampaignCreated",
			"type": "event"
		},
		{
			"anonymous": false,
			"inputs": [
				{
					"indexed": true,
					"internalType": "bytes32",
					"name": "campaignId",
					"type": "bytes32"
				},
				{
					"indexed": true,
					"internalType": "address",
					"name": "donor",
					"type": "address"
				},
				{
					"indexed": false,
					"internalType": "uint256",
					"name": "amount",
					"type": "uint256"
				}
			],
			"name": "DonationReceived",
			"type": "event"
		},
		{
			"inputs": [
				{
					"internalType": "uint256",
					"name": "",
					"type": "uint256"
				}
			],
			"name": "allCampaignIds",
			"outputs": [
				{
					"internalType": "bytes32",
					"name": "",
					"type": "bytes32"
				}
			],
			"stateMutability": "view",
			"type": "function"
		},
		{
			"inputs": [
				{
					"internalType": "bytes32",
					"name": "id",
					"type": "bytes32"
				}
			],
			"name": "closeCampaign",
			"outputs": [],
			"stateMutability": "nonpayable",
			"type": "function"
		},
		{
			"inputs": [
				{
					"internalType": "string",
					"name": "camp_name",
					"type": "string"
				},
				{
					"internalType": "string",
					"name": "camp_desc",
					"type": "string"
				},
				{
					"internalType": "string",
					"name": "camp_location",
					"type": "string"
				},
				{
					"internalType": "uint256",
					"name": "camp_targetAmount",
					"type": "uint256"
				}
			],
			"name": "createCampaign",
			"outputs": [],
			"stateMutability": "nonpayable",
			"type": "function"
		},
		{
			"inputs": [
				{
					"internalType": "bytes32",
					"name": "id",
					"type": "bytes32"
				}
			],
			"name": "donate",
			"outputs": [],
			"stateMutability": "payable",
			"type": "function"
		},
		{
			"inputs": [],
			"name": "getAllCampaignID",
			"outputs": [
				{
					"internalType": "bytes32[]",
					"name": "",
					"type": "bytes32[]"
				}
			],
			"stateMutability": "view",
			"type": "function"
		},
		{
			"inputs": [
				{
					"internalType": "bytes32",
					"name": "id",
					"type": "bytes32"
				}
			],
			"name": "getCampaign",
			"outputs": [
				{
					"internalType": "string",
					"name": "",
					"type": "string"
				},
				{
					"internalType": "string",
					"name": "",
					"type": "string"
				},
				{
					"internalType": "string",
					"name": "",
					"type": "string"
				},
				{
					"internalType": "uint256",
					"name": "",
					"type": "uint256"
				},
				{
					"internalType": "uint256",
					"name": "",
					"type": "uint256"
				},
				{
					"internalType": "bool",
					"name": "",
					"type": "bool"
				}
			],
			"stateMutability": "view",
			"type": "function"
		}
	]
}