{
	"data": {
		"bytecode": {
			"linkReferences": {},
			"object": "6080604052348015600e575f5ffd5b5061031f8061001c5f395ff3fe608060405234801561000f575f5ffd5b5060043610610029575f3560e01c806316c3cdf51461002d575b5f5ffd5b6100476004803603810190610042919061027d565b610049565b005b6100516100b6565b8381602001818152505033816040019073ffffffffffffffffffffffffffffffffffffffff16908173ffffffffffffffffffffffffffffffffffffffff168152505082816060018181525050818160800181905250428160a001818152505050505050565b6040518060c001604052805f81526020015f81526020015f73ffffffffffffffffffffffffffffffffffffffff1681526020015f8152602001606081526020015f81525090565b5f604051905090565b5f5ffd5b5f5ffd5b5f819050919050565b6101208161010e565b811461012a575f5ffd5b50565b5f8135905061013b81610117565b92915050565b5f5ffd5b5f5ffd5b5f601f19601f8301169050919050565b7f4e487b71000000000000000000000000000000000000000000000000000000005f52604160045260245ffd5b61018f82610149565b810181811067ffffffffffffffff821117156101ae576101ad610159565b5b80604052505050565b5f6101c06100fd565b90506101cc8282610186565b919050565b5f67ffffffffffffffff8211156101eb576101ea610159565b5b6101f482610149565b9050602081019050919050565b828183375f83830152505050565b5f61022161021c846101d1565b6101b7565b90508281526020810184848401111561023d5761023c610145565b5b610248848285610201565b509392505050565b5f82601f83011261026457610263610141565b5b813561027484826020860161020f565b91505092915050565b5f5f5f6060848603121561029457610293610106565b5b5f6102a18682870161012d565b93505060206102b28682870161012d565b925050604084013567ffffffffffffffff8111156102d3576102d261010a565b5b6102df86828701610250565b915050925092509256fea2646970667358221220dcd6700b26fd661ee2ae4e31a435fe94913f01035c1ef827bf8d90d90c8aa0e764736f6c634300081e0033",
			"opcodes": "PUSH1 0x80 PUSH1 0x40 MSTORE CALLVALUE DUP1 ISZERO PUSH1 0xE JUMPI PUSH0 PUSH0 REVERT JUMPDEST POP PUSH2 0x31F DUP1 PUSH2 0x1C PUSH0 CODECOPY PUSH0 RETURN INVALID PUSH1 0x80 PUSH1 0x40 MSTORE CALLVALUE DUP1 ISZERO PUSH2 0xF JUMPI PUSH0 PUSH0 REVERT JUMPDEST POP PUSH1 0x4 CALLDATASIZE LT PUSH2 0x29 JUMPI PUSH0 CALLDATALOAD PUSH1 0xE0 SHR DUP1 PUSH4 0x16C3CDF5 EQ PUSH2 0x2D JUMPI JUMPDEST PUSH0 PUSH0 REVERT JUMPDEST PUSH2 0x47 PUSH1 0x4 DUP1 CALLDATASIZE SUB DUP2 ADD SWAP1 PUSH2 0x42 SWAP2 SWAP1 PUSH2 0x27D JUMP JUMPDEST PUSH2 0x49 JUMP JUMPDEST STOP JUMPDEST PUSH2 0x51 PUSH2 0xB6 JUMP JUMPDEST DUP4 DUP2 PUSH1 0x20 ADD DUP2 DUP2 MSTORE POP POP CALLER DUP2 PUSH1 0x40 ADD SWAP1 PUSH20 0xFFFFFFFFFFFFFFFFFFFFFFFFFFFFFFFFFFFFFFFF AND SWAP1 DUP2 PUSH20 0xFFFFFFFFFFFFFFFFFFFFFFFFFFFFFFFFFFFFFFFF AND DUP2 MSTORE POP POP DUP3 DUP2 PUSH1 0x60 ADD DUP2 DUP2 MSTORE POP POP DUP2 DUP2 PUSH1 0x80 ADD DUP2 SWAP1 MSTORE POP TIMESTAMP DUP2 PUSH1 0xA0 ADD DUP2 DUP2 MSTORE POP POP POP POP POP POP JUMP JUMPDEST PUSH1 0x40 MLOAD DUP1 PUSH1 0xC0 ADD PUSH1 0x40 MSTORE DUP1 PUSH0 DUP2 MSTORE PUSH1 0x20 ADD PUSH0 DUP2 MSTORE PUSH1 0x20 ADD PUSH0 PUSH20 0xFFFFFFFFFFFFFFFFFFFFFFFFFFFFFFFFFFFFFFFF AND DUP2 MSTORE PUSH1 0x20 ADD PUSH0 DUP2 MSTORE PUSH1 0x20 ADD PUSH1 0x60 DUP2 MSTORE PUSH1 0x20 ADD PUSH0 DUP2 MSTORE POP SWAP1 JUMP JUMPDEST PUSH0 PUSH1 0x40 MLOAD SWAP1 POP SWAP1 JUMP JUMPDEST PUSH0 PUSH0 REVERT JUMPDEST PUSH0 PUSH0 REVERT JUMPDEST PUSH0 DUP2 SWAP1 POP SWAP2 SWAP1 POP JUMP JUMPDEST PUSH2 0x120 DUP2 PUSH2 0x10E JUMP JUMPDEST DUP2 EQ PUSH2 0x12A JUMPI PUSH0 PUSH0 REVERT JUMPDEST POP JUMP JUMPDEST PUSH0 DUP2 CALLDATALOAD SWAP1 POP PUSH2 0x13B DUP2 PUSH2 0x117 JUMP JUMPDEST SWAP3 SWAP2 POP POP JUMP JUMPDEST PUSH0 PUSH0 REVERT JUMPDEST PUSH0 PUSH0 REVERT JUMPDEST PUSH0 PUSH1 0x1F NOT PUSH1 0x1F DUP4 ADD AND SWAP1 POP SWAP2 SWAP1 POP JUMP JUMPDEST PUSH32 0x4E487B7100000000000000000000000000000000000000000000000000000000 PUSH0 MSTORE PUSH1 0x41 PUSH1 0x4 MSTORE PUSH1 0x24 PUSH0 REVERT JUMPDEST PUSH2 0x18F DUP3 PUSH2 0x149 JUMP JUMPDEST DUP2 ADD DUP2 DUP2 LT PUSH8 0xFFFFFFFFFFFFFFFF DUP3 GT OR ISZERO PUSH2 0x1AE JUMPI PUSH2 0x1AD PUSH2 0x159 JUMP JUMPDEST JUMPDEST DUP1 PUSH1 0x40 MSTORE POP POP POP JUMP JUMPDEST PUSH0 PUSH2 0x1C0 PUSH2 0xFD JUMP JUMPDEST SWAP1 POP PUSH2 0x1CC DUP3 DUP3 PUSH2 0x186 JUMP JUMPDEST SWAP2 SWAP1 POP JUMP JUMPDEST PUSH0 PUSH8 0xFFFFFFFFFFFFFFFF DUP3 GT ISZERO PUSH2 0x1EB JUMPI PUSH2 0x1EA PUSH2 0x159 JUMP JUMPDEST JUMPDEST PUSH2 0x1F4 DUP3 PUSH2 0x149 JUMP JUMPDEST SWAP1 POP PUSH1 0x20 DUP2 ADD SWAP1 POP SWAP2 SWAP1 POP JUMP JUMPDEST DUP3 DUP2 DUP4 CALLDATACOPY PUSH0 DUP4 DUP4 ADD MSTORE POP POP POP JUMP JUMPDEST PUSH0 PUSH2 0x221 PUSH2 0x21C DUP5 PUSH2 0x1D1 JUMP JUMPDEST PUSH2 0x1B7 JUMP JUMPDEST SWAP1 POP DUP3 DUP2 MSTORE PUSH1 0x20 DUP2 ADD DUP5 DUP5 DUP5 ADD GT ISZERO PUSH2 0x23D JUMPI PUSH2 0x23C PUSH2 0x145 JUMP JUMPDEST JUMPDEST PUSH2 0x248 DUP5 DUP3 DUP6 PUSH2 0x201 JUMP JUMPDEST POP SWAP4 SWAP3 POP POP POP JUMP JUMPDEST PUSH0 DUP3 PUSH1 0x1F DUP4 ADD SLT PUSH2 0x264 JUMPI PUSH2 0x263 PUSH2 0x141 JUMP JUMPDEST JUMPDEST DUP2 CALLDATALOAD PUSH2 0x274 DUP5 DUP3 PUSH1 0x20 DUP7 ADD PUSH2 0x20F JUMP JUMPDEST SWAP2 POP POP SWAP3 SWAP2 POP POP JUMP JUMPDEST PUSH0 PUSH0 PUSH0 PUSH1 0x60 DUP5 DUP7 SUB SLT ISZERO PUSH2 0x294 JUMPI PUSH2 0x293 PUSH2 0x106 JUMP JUMPDEST JUMPDEST PUSH0 PUSH2 0x2A1 DUP7 DUP3 DUP8 ADD PUSH2 0x12D JUMP JUMPDEST SWAP4 POP POP PUSH1 0x20 PUSH2 0x2B2 DUP7 DUP3 DUP8 ADD PUSH2 0x12D JUMP JUMPDEST SWAP3 POP POP PUSH1 0x40 DUP5 ADD CALLDATALOAD PUSH8 0xFFFFFFFFFFFFFFFF DUP2 GT ISZERO PUSH2 0x2D3 JUMPI PUSH2 0x2D2 PUSH2 0x10A JUMP JUMPDEST JUMPDEST PUSH2 0x2DF DUP7 DUP3 DUP8 ADD PUSH2 0x250 JUMP JUMPDEST SWAP2 POP POP SWAP3 POP SWAP3 POP SWAP3 JUMP INVALID LOG2 PUSH5 0x6970667358 0x22 SLT KECCAK256 0xDC 0xD6 PUSH17 0xB26FD661EE2AE4E31A435FE94913F0103 TLOAD 0x1E EXTCALL 0x27 0xBF DUP14 SWAP1 0xD9 0xC DUP11 LOG0 SWAPN 0x64 PUSH20 0x6F6C634300081E00330000000000000000000000 "
		},
		"gasEstimates": {
			"creation": {
				"codeDepositCost": "159800",
				"executionCost": "200",
				"totalCost": "160000"
			},
			"external": {
				"donate(uint256,uint256,string)": "infinite"
			}
		},
		"methodIdentifiers": {
			"donate(uint256,uint256,string)": "16c3cdf5"
		}
	},
	"abi": [
		{
			"inputs": [
				{
					"internalType": "uint256",
					"name": "campaignId",
					"type": "uint256"
				},
				{
					"internalType": "uint256",
					"name": "amount",
					"type": "uint256"
				},
				{
					"internalType": "string",
					"name": "proofHash",
					"type": "string"
				}
			],
			"name": "donate",
			"outputs": [],
			"stateMutability": "nonpayable",
			"type": "function"
		}
	]
}